{
  "contractName": "Sprout",
  "abi": [
    {
      "anonymous": false,
      "inputs": [
        {
          "indexed": false,
          "internalType": "uint256",
          "name": "x_id",
          "type": "uint256"
        },
        {
          "indexed": false,
          "internalType": "uint256",
          "name": "y_id",
          "type": "uint256"
        },
        {
          "indexed": false,
          "internalType": "uint256",
          "name": "dna1",
          "type": "uint256"
        },
        {
          "indexed": false,
          "internalType": "uint256",
          "name": "dna2",
          "type": "uint256"
        }
      ],
      "name": "OnAdd",
      "type": "event"
    },
    {
      "anonymous": false,
      "inputs": [
        {
          "indexed": false,
          "internalType": "uint256",
          "name": "x_id",
          "type": "uint256"
        },
        {
          "indexed": false,
          "internalType": "uint256",
          "name": "y_id",
          "type": "uint256"
        }
      ],
      "name": "OnPlug",
      "type": "event"
    },
    {
      "anonymous": false,
      "inputs": [
        {
          "indexed": true,
          "internalType": "address",
          "name": "previousOwner",
          "type": "address"
        },
        {
          "indexed": true,
          "internalType": "address",
          "name": "newOwner",
          "type": "address"
        }
      ],
      "name": "OwnershipTransferred",
      "type": "event"
    },
    {
      "anonymous": false,
      "inputs": [
        {
          "indexed": false,
          "internalType": "uint256",
          "name": "s",
          "type": "uint256"
        }
      ],
      "name": "debugStage",
      "type": "event"
    },
    {
      "constant": true,
      "inputs": [],
      "name": "isOwner",
      "outputs": [
        {
          "internalType": "bool",
          "name": "",
          "type": "bool"
        }
      ],
      "payable": false,
      "stateMutability": "view",
      "type": "function"
    },
    {
      "constant": true,
      "inputs": [],
      "name": "owner",
      "outputs": [
        {
          "internalType": "address",
          "name": "",
          "type": "address"
        }
      ],
      "payable": false,
      "stateMutability": "view",
      "type": "function"
    },
    {
      "constant": false,
      "inputs": [],
      "name": "renounceOwnership",
      "outputs": [],
      "payable": false,
      "stateMutability": "nonpayable",
      "type": "function"
    },
    {
      "constant": true,
      "inputs": [
        {
          "internalType": "uint256",
          "name": "",
          "type": "uint256"
        }
      ],
      "name": "sprouts",
      "outputs": [
        {
          "internalType": "uint256",
          "name": "dna1",
          "type": "uint256"
        },
        {
          "internalType": "uint256",
          "name": "dna2",
          "type": "uint256"
        },
        {
          "internalType": "uint256",
          "name": "planttime",
          "type": "uint256"
        },
        {
          "internalType": "uint256",
          "name": "readytime",
          "type": "uint256"
        },
        {
          "internalType": "bool",
          "name": "isset",
          "type": "bool"
        }
      ],
      "payable": false,
      "stateMutability": "view",
      "type": "function"
    },
    {
      "constant": false,
      "inputs": [
        {
          "internalType": "address",
          "name": "newOwner",
          "type": "address"
        }
      ],
      "name": "transferOwnership",
      "outputs": [],
      "payable": false,
      "stateMutability": "nonpayable",
      "type": "function"
    },
    {
      "constant": true,
      "inputs": [],
      "name": "getBalance",
      "outputs": [
        {
          "internalType": "uint256",
          "name": "",
          "type": "uint256"
        }
      ],
      "payable": false,
      "stateMutability": "view",
      "type": "function"
    },
    {
      "constant": false,
      "inputs": [
        {
          "internalType": "uint256",
          "name": "x_id",
          "type": "uint256"
        },
        {
          "internalType": "uint256",
          "name": "y_id",
          "type": "uint256"
        }
      ],
      "name": "randomAddSprout",
      "outputs": [],
      "payable": false,
      "stateMutability": "nonpayable",
      "type": "function"
    },
    {
      "constant": false,
      "inputs": [
        {
          "internalType": "uint256",
          "name": "x_id",
          "type": "uint256"
        },
        {
          "internalType": "uint256",
          "name": "y_id",
          "type": "uint256"
        }
      ],
      "name": "getSproutLook",
      "outputs": [
        {
          "internalType": "bool",
          "name": "seed_yellow",
          "type": "bool"
        },
        {
          "internalType": "bool",
          "name": "seed_round",
          "type": "bool"
        },
        {
          "internalType": "uint256",
          "name": "height",
          "type": "uint256"
        },
        {
          "internalType": "uint256",
          "name": "width",
          "type": "uint256"
        },
        {
          "internalType": "uint256",
          "name": "color",
          "type": "uint256"
        },
        {
          "internalType": "uint256",
          "name": "price",
          "type": "uint256"
        }
      ],
      "payable": false,
      "stateMutability": "nonpayable",
      "type": "function"
    },
    {
      "constant": false,
      "inputs": [
        {
          "internalType": "uint256",
          "name": "x_id",
          "type": "uint256"
        },
        {
          "internalType": "uint256",
          "name": "y_id",
          "type": "uint256"
        }
      ],
      "name": "plugSprout",
      "outputs": [],
      "payable": false,
      "stateMutability": "nonpayable",
      "type": "function"
    }
  ],
  "bytecode": "0x608060405261a8c0600155336000806101000a81548173ffffffffffffffffffffffffffffffffffffffff021916908373ffffffffffffffffffffffffffffffffffffffff1602179055506000809054906101000a900473ffffffffffffffffffffffffffffffffffffffff1673ffffffffffffffffffffffffffffffffffffffff16600073ffffffffffffffffffffffffffffffffffffffff167f8be0079c531659141344cd1fd0a4f28419497f9722a3daafe3b4186f6b6457e060405160405180910390a361146e806100d56000396000f3fe608060405234801561001057600080fd5b50600436106100935760003560e01c80638f32d59b116100665780638f32d59b1461018157806395392fc3146101a3578063990e746914610205578063aa7bcc581461023d578063f2fde38b1461027557610093565b806312065fe0146100985780631ced467c146100b6578063715018a61461012d5780638da5cb5b14610137575b600080fd5b6100a06102b9565b6040518082815260200191505060405180910390f35b6100ec600480360360408110156100cc57600080fd5b810190808035906020019092919080359060200190929190505050610300565b604051808715151515815260200186151515158152602001858152602001848152602001838152602001828152602001965050505050505060405180910390f35b610135610bfa565b005b61013f610cca565b604051808273ffffffffffffffffffffffffffffffffffffffff1673ffffffffffffffffffffffffffffffffffffffff16815260200191505060405180910390f35b610189610cf3565b604051808215151515815260200191505060405180910390f35b6101cf600480360360208110156101b957600080fd5b8101908080359060200190929190505050610d4a565b60405180868152602001858152602001848152602001838152602001821515151581526020019550505050505060405180910390f35b61023b6004803603604081101561021b57600080fd5b810190808035906020019092919080359060200190929190505050610d9a565b005b6102736004803603604081101561025357600080fd5b810190808035906020019092919080359060200190929190505050610f97565b005b6102b76004803603602081101561028b57600080fd5b81019080803573ffffffffffffffffffffffffffffffffffffffff169060200190929190505050611005565b005b6000600460003373ffffffffffffffffffffffffffffffffffffffff1673ffffffffffffffffffffffffffffffffffffffff16815260200190815260200160002054905090565b6000806000806000807faff77d6fe83807d1866c7cbb3b1927ef9b356fe70eaf2e976a335f8c840e354360006040518082815260200191505060405180910390a16103496113d2565b6000600360003373ffffffffffffffffffffffffffffffffffffffff1673ffffffffffffffffffffffffffffffffffffffff1681526020019081526020016000208a6005811061039557fe5b6019020189600581106103a457fe5b600502016000015490506000600360003373ffffffffffffffffffffffffffffffffffffffff1673ffffffffffffffffffffffffffffffffffffffff1681526020019081526020016000208b600581106103fa57fe5b601902018a6005811061040957fe5b600502016001015490506000600360003373ffffffffffffffffffffffffffffffffffffffff1673ffffffffffffffffffffffffffffffffffffffff1681526020019081526020016000208c6005811061045f57fe5b601902018b6005811061046e57fe5b600502016002015490507faff77d6fe83807d1866c7cbb3b1927ef9b356fe70eaf2e976a335f8c840e354360016040518082815260200191505060405180910390a16001600283816104bc57fe5b06600285816104c757fe5b061714846000019015159081151581525050600183901c9250600182901c91506001600283816104f357fe5b06600285816104fe57fe5b061714846020019015159081151581525050600183901c9250600182901c91507faff77d6fe83807d1866c7cbb3b1927ef9b356fe70eaf2e976a335f8c840e354360026040518082815260200191505060405180910390a16000600290505b60298110156105eb5760016002858161057257fe5b06141561059b5761059160018660c0015161102290919063ffffffff16565b8560c00181815250505b6001600284816105a757fe5b0614156105d0576105c660018660c0015161102290919063ffffffff16565b8560c00181815250505b600184901c9350600183901c9250808060010191505061055d565b506000602990505b60658110156106855760016002858161060857fe5b06141561063357610628600186610100015161102290919063ffffffff16565b856101000181815250505b60016002848161063f57fe5b06141561066a5761065f600186610100015161102290919063ffffffff16565b856101000181815250505b600184901c9350600183901c925080806001019150506105f3565b506000606590505b60a181101561071b576001600285816106a257fe5b0614156106cb576106c160018660e0015161102290919063ffffffff16565b8560e00181815250505b6001600284816106d757fe5b061415610700576106f660018660e0015161102290919063ffffffff16565b8560e00181815250505b600184901c9350600183901c9250808060010191505061068d565b50600060a190505b6101008110156107b65760016002858161073957fe5b06141561076457610759600186610120015161102290919063ffffffff16565b856101200181815250505b60016002848161077057fe5b06141561079b57610790600186610120015161102290919063ffffffff16565b856101200181815250505b600184901c9350600183901c92508080600101915050610723565b507faff77d6fe83807d1866c7cbb3b1927ef9b356fe70eaf2e976a335f8c840e354360036040518082815260200191505060405180910390a16201518060be6108216002610813600389610120015161103e90919063ffffffff16565b61107590919063ffffffff16565b61017c038161082c57fe5b04028461014001818152505061084b814261108e90919063ffffffff16565b8461016001818152505061086e600a85610140015161107590919063ffffffff16565b846101600151108460400190151590811515815250508361014001518461016001511115610a7e576108af601485610140015161107590919063ffffffff16565b6108cc85610140015186610160015161108e90919063ffffffff16565b10156109715760328460a001818152505061091b607861090d603c6108ff60788960e0015161102290919063ffffffff16565b61103e90919063ffffffff16565b61107590919063ffffffff16565b846060018181525050610963600f6109556005610947600f89610100015161102290919063ffffffff16565b61103e90919063ffffffff16565b61107590919063ffffffff16565b846080018181525050610a79565b6000600360003373ffffffffffffffffffffffffffffffffffffffff1673ffffffffffffffffffffffffffffffffffffffff1681526020019081526020016000208d600581106109bd57fe5b601902018c600581106109cc57fe5b6005020160040160006101000a81548160ff021916908315150217905550610a4f600360003373ffffffffffffffffffffffffffffffffffffffff1673ffffffffffffffffffffffffffffffffffffffff1681526020019081526020016000208d60058110610a3757fe5b601902018c60058110610a4657fe5b600502016110a5565b60008060008060008083935082925081915080905099509950995099509950995050505050610bf0565b610bc1565b60008461016001511415610aa75760008460600181815250506000846080018181525050610b93565b610b13846101600151610b056078610af7886101400151610ae9603c610adb60788d60e0015161102290919063ffffffff16565b61103e90919063ffffffff16565b61103e90919063ffffffff16565b61107590919063ffffffff16565b61107590919063ffffffff16565b846060018181525050610b89846101600151610b7b600f610b6d886101400151610b5f6005610b51600f8d610100015161102290919063ffffffff16565b61103e90919063ffffffff16565b61103e90919063ffffffff16565b61107590919063ffffffff16565b61107590919063ffffffff16565b8460800181815250505b60011515846040015115151415610bb45760fa8460a0018181525050610bc0565b60648460a00181815250505b5b83600001518460200151856060015186608001518760c001518860a00151995099509950995099509950505050505b9295509295509295565b610c02610cf3565b610c0b57600080fd5b600073ffffffffffffffffffffffffffffffffffffffff166000809054906101000a900473ffffffffffffffffffffffffffffffffffffffff1673ffffffffffffffffffffffffffffffffffffffff167f8be0079c531659141344cd1fd0a4f28419497f9722a3daafe3b4186f6b6457e060405160405180910390a360008060006101000a81548173ffffffffffffffffffffffffffffffffffffffff021916908373ffffffffffffffffffffffffffffffffffffffff160217905550565b60008060009054906101000a900473ffffffffffffffffffffffffffffffffffffffff16905090565b60008060009054906101000a900473ffffffffffffffffffffffffffffffffffffffff1673ffffffffffffffffffffffffffffffffffffffff163373ffffffffffffffffffffffffffffffffffffffff1614905090565b60028181548110610d5757fe5b90600052602060002090600502016000915090508060000154908060010154908060020154908060030154908060040160009054906101000a900460ff16905085565b600080600080600080610dad8888610300565b809650819750829850839950849a50859b5050505050505060011515600360003373ffffffffffffffffffffffffffffffffffffffff1673ffffffffffffffffffffffffffffffffffffffff1681526020019081526020016000208960058110610e1357fe5b601902018860058110610e2257fe5b6005020160040160009054906101000a900460ff1615151415610f4e576000600360003373ffffffffffffffffffffffffffffffffffffffff1673ffffffffffffffffffffffffffffffffffffffff1681526020019081526020016000208960058110610e8b57fe5b601902018860058110610e9a57fe5b6005020160040160006101000a81548160ff021916908315150217905550610f0a81600460003373ffffffffffffffffffffffffffffffffffffffff1673ffffffffffffffffffffffffffffffffffffffff1681526020019081526020016000205461102290919063ffffffff16565b600460003373ffffffffffffffffffffffffffffffffffffffff1673ffffffffffffffffffffffffffffffffffffffff168152602001908152602001600020819055505b7fef9514e76636c86a9084470f65495ff78258053cada18c62136f204ff2f0daa28888604051808381526020018281526020019250505060405180910390a15050505050505050565b600042604051602001808281526020019150506040516020818303038152906040528051906020012060001c9050600044604051602001808281526020019150506040516020818303038152906040528051906020012060001c9050610fff848484846110b5565b50505050565b61100d610cf3565b61101657600080fd5b61101f816112c9565b50565b60008082840190508381101561103457fe5b8091505092915050565b600080831415611051576000905061106f565b600082840290508284828161106257fe5b041461106a57fe5b809150505b92915050565b60008082848161108157fe5b0490508091505092915050565b60008282111561109a57fe5b818303905092915050565b6001544201816003018190555050565b60001515600360003373ffffffffffffffffffffffffffffffffffffffff1673ffffffffffffffffffffffffffffffffffffffff168152602001908152602001600020856005811061110357fe5b60190201846005811061111257fe5b6005020160040160009054906101000a900460ff1615151461113357600080fd5b611198600360003373ffffffffffffffffffffffffffffffffffffffff1673ffffffffffffffffffffffffffffffffffffffff168152602001908152602001600020856005811061118057fe5b60190201846005811061118f57fe5b600502016113c1565b6111a157600080fd5b6040518060a001604052808381526020018281526020014281526020016000815260200160011515815250600360003373ffffffffffffffffffffffffffffffffffffffff1673ffffffffffffffffffffffffffffffffffffffff168152602001908152602001600020856005811061121657fe5b60190201846005811061122557fe5b600502016000820151816000015560208201518160010155604082015181600201556060820151816003015560808201518160040160006101000a81548160ff0219169083151502179055509050507f29673a2c4180cee02675c1aeac3253f75b8a067246770a77b079d48c92248cbd848484846040518085815260200184815260200183815260200182815260200194505050505060405180910390a150505050565b600073ffffffffffffffffffffffffffffffffffffffff168173ffffffffffffffffffffffffffffffffffffffff16141561130357600080fd5b8073ffffffffffffffffffffffffffffffffffffffff166000809054906101000a900473ffffffffffffffffffffffffffffffffffffffff1673ffffffffffffffffffffffffffffffffffffffff167f8be0079c531659141344cd1fd0a4f28419497f9722a3daafe3b4186f6b6457e060405160405180910390a3806000806101000a81548173ffffffffffffffffffffffffffffffffffffffff021916908373ffffffffffffffffffffffffffffffffffffffff16021790555050565b600042826003015411159050919050565b604051806101800160405280600015158152602001600015158152602001600015158152602001600081526020016000815260200160008152602001600081526020016000815260200160008152602001600081526020016000815260200160008152509056fea265627a7a7231582040e5eb3f7fc02f528346f175179e514ef1e10353e1d0112ee412eb35fd2b0f6464736f6c63430005100032",
  "source": "pragma solidity ^0.5.0;\n\nimport \"./ownable.sol\";\nimport \"./safemath.sol\";\n\n/*I design the DNA to have two strains(dna1, dna2 uint256), \n    The following is the representative of each gene (in LSB order)\n        0 -> seed yellow (dominant), green(recessive) [mendilan trait]\n        1 -> seed round (dominant), wrinkled(recessive) [mendilan trait]\n        2~40 -> whole color (from pale yellow to dark green) [polygenic trait]\n        41~100 ->  stem width [polygenic trait]\n        101~160 ->  stem height [polygenic trait]\n        161~256 ->  grow speed [polygenic trait]\n\n        *mendilan trait: \n        output is a bool= (bit1|bit2 == 1), recessive trait=false, domminent trait= True\n        *polygenetic trait:\n        output is uint8, represent the amount of 1 among the corresponding bits\n        \nAbout Traits:\n     height(uint): the full grown height of height gene=0 is 60 cm, gene=120 is 180 cm\n     width(uint): the full grown width of width gene=0 is 5 mm, gene=120 is 20 mm\n     color(uint): I guess I will directly return the gene(cause I don't really know how to present color with 1 dim...)\n     It take 2 days to reach full grown for speed gene=0, half day for speed gene = 190\n     (though the actual game won't be that long because we'd like to plug it up before the sprout get too green and stiff)\n     mendilan trait(bool): directly return the bool \n\nAbout Growing:\n    1. before the reaching 10% of full growth, the seed would shown, but slowly sinking into ground\n        (it's the perfect time to plug the sprout!, giving true for sprout stage (bool))\n    2. the color I guess should be turning greener and greener (though I don't really know how to design this part) \n    3. all the growing before full grown is linear\n    4. after full grown, it use 5% of the full grown time to die off, all the other feature would remain same in this period\n        (represent by another uint die_stage, det defaultly highest to 10)\n    5. The bean can only be planted at (x, y) where 0 <= x <10, 0 <= y < 10\n\n\n\nNotes:\n    1. The reason I have such a lengthy design for the whole bean lifespan is because I originally thought of designing the \n        feature of the whole reproducing process and maybe cultivate or trading seeds(which I don't really know if we have time for)\n        If it would be implemented, there's definately more parameter to be set.\n    3. I'm also thinking of some level up species could be represented as mendilen trait\n        (which would be always 1/0 before reaching a certain level)\n    4. In addition to the current polygene traits, I'm also consider adding some other such as disease resistence, productivity, etc.\n    5. Feel free to let me know if you think any design is impractical or what parameter is wierd or any other helpful advice :)\n\n\n    \n*/\ncontract Sprout is Ownable {\n\n  using SafeMath for uint256;\n\n  event OnAdd(uint x_id, uint y_id, uint dna1, uint dna2);\n  event OnPlug(uint x_id, uint y_id);\n  //events for debug usage\n  event debugStage(uint s);\n  \n  //If the sprout didn't be plugged and then died, 12 hours later can the grid be added with a new sprout. \n  uint replantTime = 12 hours;\n  \n  struct sprout {\n    uint dna1;\n    uint dna2;\n    uint planttime;\n    uint readytime;//ready to replant\n    bool isset;\n  }\n \n  struct trait{\n    bool seed_yellow;\n    bool seed_round;\n    bool sprout_stage;\n    uint height;\n    uint width;\n    uint price;\n    uint color;\n    uint height_gen;\n    uint width_gen;\n    uint speed_gen;\n    uint fullgrown_time;\n    uint now_stage;\n  }\n  \n  sprout[] public sprouts;//store sprout id\n  \n  mapping (address => sprout[5][5]) sprout_list;\n  mapping (address => uint) balance;//account\n\n  modifier SproutExist(uint x_id, uint y_id){\n    require(sprout_list[msg.sender][x_id][y_id].isset, \"location does not exist\");\n    _;\n  }\n  \n  function _triggerReplant(sprout storage _sprout) internal {\n    _sprout.readytime = now + replantTime;\n  }\n\n  function _isReady(sprout storage _sprout) internal view returns (bool) {\n      return (_sprout.readytime <= now);\n  }\n\n  function getBalance() public view returns (uint){\n    return balance[msg.sender];\n  }\n  \n  function addSprout(uint x_id, uint y_id, uint dna1, uint dna2) internal {\n    require(sprout_list[msg.sender][x_id][y_id].isset == false);\n    require(_isReady(sprout_list[msg.sender][x_id][y_id]));\n    sprout_list[msg.sender][x_id][y_id] = sprout(dna1, dna2, now, 0, true);\n    emit OnAdd(x_id, y_id, dna1, dna2);\n  }\n  \n  function randomAddSprout(uint x_id, uint y_id) public {\n    uint dna1 = uint(keccak256(abi.encodePacked(block.timestamp)));\n    uint dna2 = uint(keccak256(abi.encodePacked(block.difficulty)));\n    addSprout(x_id, y_id, dna1, dna2);\n  }\n  \n  function getSproutLook( uint x_id, uint y_id)  public /*SproutExist(x_id, y_id)*/ \n    returns(bool seed_yellow, bool seed_round, uint height, uint width, uint color, uint price) {\n        emit debugStage(0);\n        trait memory t;\n        uint temp1 = sprout_list[msg.sender][x_id][y_id].dna1;\n        uint temp2 = sprout_list[msg.sender][x_id][y_id].dna2;\n        uint plantime = sprout_list[msg.sender][x_id][y_id].planttime;\n\n        //determine genes (mendilen traits)\n        emit debugStage(1);\n        t.seed_yellow = (((temp1%2) | (temp2%2)) == 1);\n        temp1 = temp1 >> 1;temp2 = temp2 >> 1;\n        t.seed_round = (((temp1%2) | (temp2 %2)) == 1);\n        temp1 = temp1 >> 1;temp2 = temp2 >> 1;\n\n        //determine genes (polygene traits)\n        emit debugStage(2);\n        for (uint i =2; i <41; i++){\n            if (temp1%2 == 1){t.color = t.color.add(1);}\n            if (temp2%2 == 1){t.color = t.color.add(1);}\n            temp1 = temp1 >> 1;temp2 = temp2 >> 1;\n        }\n        for (uint i =41; i <101; i++){\n            if (temp1%2 == 1){t.width_gen = t.width_gen.add(1);}\n            if (temp2%2 == 1){t.width_gen = t.width_gen.add(1);}\n            temp1 = temp1 >> 1;temp2 = temp2 >> 1;\n        }\n        for (uint i =101; i <161; i++){\n            if (temp1%2 == 1){t.height_gen = t.height_gen.add(1);}\n            if (temp2%2 == 1){t.height_gen = t.height_gen.add(1);}\n            temp1 = temp1 >> 1;temp2 = temp2 >> 1;\n        }\n        for (uint i =161; i <256; i++){\n            if (temp1%2 == 1){t.speed_gen = t.speed_gen.add(1);}\n            if (temp2%2 == 1){t.speed_gen = t.speed_gen.add(1);}\n            temp1 = temp1 >> 1;temp2 = temp2 >> 1;\n        }\n\n        //determine growing stage\n        emit debugStage(3);\n        t.fullgrown_time = ((380-(t.speed_gen.mul(3).div(2)))/190)* 1 days;\n        t.now_stage = now.sub(plantime);\n        t.sprout_stage = (t.now_stage < t.fullgrown_time.div(10));\n        //determine height width die_stage\n       if(t.now_stage > t.fullgrown_time) {\n            if((t.now_stage.sub(t.fullgrown_time)) < t.fullgrown_time.div(20)){//before death\n              t.price = 50;\n              t.height = ((t.height_gen.add(120)).mul(60)).div(120);\n              t.width = ((t.width_gen.add(15)).mul(5)).div(15);\n            }\n            else{\n              sprout_list[msg.sender][x_id][y_id].isset = false;//die\n              _triggerReplant(sprout_list[msg.sender][x_id][y_id]);\n              return (false, false, 0, 0, 0, 0);\n            } \n        }\n        else{\n            if(t.now_stage==0){\n              t.height = 0;\n              t.width = 0;\n            } else{\n              t.height = ((t.height_gen.add(120)).mul(60)).mul(t.fullgrown_time).div(120).div(t.now_stage);\n              t.width = ((t.width_gen.add(15)).mul(5)).mul(t.fullgrown_time).div(15).div(t.now_stage); \n            }\n            if(t.sprout_stage == true){t.price = 250;}\n            else{t.price = 100;}\n        }\n\n        return (t.seed_yellow, t.seed_round, t.height, t.width, t.color, t.price);\n        \n    }\n    \n    function plugSprout(uint x_id, uint y_id) public {\n        bool seed_yellow;\n        bool seed_round;\n        uint height;\n        uint width;\n        uint color;\n        uint price;\n        (seed_yellow, seed_round, height, width, color, price) = getSproutLook(x_id,  y_id);\n        if(sprout_list[msg.sender][x_id][y_id].isset == true){\n          sprout_list[msg.sender][x_id][y_id].isset = false;\n          balance[msg.sender] = balance[msg.sender].add(price);\n         }\n         emit OnPlug(x_id, y_id);\n      }\n\n}\n",
  "sourcePath": "/Users/vivi/Documents/1082/nmlab_project/nmlab_final/react/src/contracts/sprout.sol",
  "compiler": {
    "name": "solc",
    "version": "0.5.16+commit.9c3226ce.Emscripten.clang"
  },
  "schemaVersion": "3.1.0",
  "updatedAt": "2020-06-06T03:16:37.389Z",
  "networkType": "ethereum",
  "devdoc": {
    "methods": {
      "isOwner()": {
        "return": "true if `msg.sender` is the owner of the contract."
      },
      "owner()": {
        "return": "the address of the owner."
      },
      "renounceOwnership()": {
        "details": "Allows the current owner to relinquish control of the contract."
      },
      "transferOwnership(address)": {
        "details": "Allows the current owner to transfer control of the contract to a newOwner.",
        "params": {
          "newOwner": "The address to transfer ownership to."
        }
      }
    }
  },
  "userdoc": {
    "methods": {
      "renounceOwnership()": {
        "notice": "Renouncing to ownership will leave the contract without an owner. It will not be possible to call the functions with the `onlyOwner` modifier anymore."
      }
    }
  }
}