{
  "contractName": "SproutApp",
  "abi": [
    {
      "anonymous": false,
      "inputs": [
        {
          "indexed": false,
          "internalType": "uint256",
          "name": "sproutId",
          "type": "uint256"
        }
      ],
      "name": "OnAdd",
      "type": "event"
    },
    {
      "constant": false,
      "inputs": [
        {
          "internalType": "uint256",
          "name": "_planttime",
          "type": "uint256"
        }
      ],
      "name": "addSprout",
      "outputs": [],
      "payable": false,
      "stateMutability": "nonpayable",
      "type": "function"
    }
  ],
  "bytecode": "0x608060405234801561001057600080fd5b50610130806100206000396000f3fe6080604052348015600f57600080fd5b506004361060285760003560e01c8063eddf0b6414602d575b600080fd5b605660048036036020811015604157600080fd5b81019080803590602001909291905050506058565b005b605e60e8565b6040518060200160405280838152509050600060016000839080600181540180825580915050906001820390600052602060002001600090919290919091506000820151816000015550500390507f1e3bc173ee85a599d598b273a218709cb9c7881ab4437c8fc2870c7a47cb835a816040518082815260200191505060405180910390a1505050565b604051806020016040528060008152509056fea265627a7a723158209e16411ea37ef46be38befb93a4b83e2f44af5055030a41029676cdb9fc6edb364736f6c63430005100032",
  "source": "pragma solidity ^0.5.0;\n\ncontract SproutApp {\n    \n    struct Sprout {\n        uint planttime;\n    }\n    Sprout[] sprout_list;\n    event OnAdd(uint sproutId);\n    // random dna is impossible to be genrated inside contract\n    function addSprout(uint _planttime) public {\n        Sprout memory sprout = Sprout(_planttime);\n        uint sproutId = sprout_list.push(sprout) - 1;\n        emit OnAdd(sproutId);\n    }\n}",
  "sourcePath": "/Users/vivi/Documents/nmlab_project/nmlab_final/contracts/SproutApp.sol",
  "compiler": {
    "name": "solc",
    "version": "0.5.16+commit.9c3226ce.Emscripten.clang"
  },
  "schemaVersion": "3.1.0",
  "updatedAt": "2020-05-18T05:37:49.952Z",
  "networkType": "ethereum",
  "devdoc": {
    "methods": {}
  },
  "userdoc": {
    "methods": {}
  }
}