{
  "contractName": "SproutApp",
  "abi": [
    {
      "anonymous": false,
      "inputs": [
        {
          "indexed": false,
          "internalType": "uint256",
          "name": "sproutId",
          "type": "uint256"
        }
      ],
      "name": "OnSproutAdded",
      "type": "event"
    },
    {
      "constant": false,
      "inputs": [
        {
          "internalType": "uint256",
          "name": "_id",
          "type": "uint256"
        },
        {
          "internalType": "uint256",
          "name": "_planttime",
          "type": "uint256"
        }
      ],
      "name": "AddSprout",
      "outputs": [],
      "payable": false,
      "stateMutability": "nonpayable",
      "type": "function"
    }
  ],
  "bytecode": "0x608060405234801561001057600080fd5b5061012e806100206000396000f3fe6080604052348015600f57600080fd5b506004361060285760003560e01c80639de2529914602d575b600080fd5b606060048036036040811015604157600080fd5b8101908080359060200190929190803590602001909291905050506062565b005b8160008360198110606f57fe5b60030201600001819055508060008360198110608757fe5b600302016001018190555060016000836019811060a057fe5b6003020160020160006101000a81548160ff0219169083151502179055507f61f1ea6279549b38840b4e7e1460bc8c6c566163ec37c261ec7109bb62f11702826040518082815260200191505060405180910390a1505056fea265627a7a72315820f31ea061c880cc636c3c8b321be3d617714bd424afec7a03e223f69e4e6b1d3664736f6c63430005100032",
  "source": "pragma solidity ^0.5.0;\n\ncontract SproutApp {\n    event OnSproutAdded(uint sproutId);\n\n    struct Sprout {\n       uint id;\n       uint planttime;\n       bool isPlanted;\n    }\n    \n    Sprout[25] sprouts;\n    function AddSprout(uint _id, uint _planttime) public {\n        sprouts[_id].id = _id;\n        sprouts[_id].planttime = _planttime;\n        sprouts[_id].isPlanted = true;\n        \n        emit OnSproutAdded(_id);\n    }\n}",
  "sourcePath": "/Users/vivi/Documents/nmlab_project/nmlab_final/contracts/SproutApp.sol",
  "compiler": {
    "name": "solc",
    "version": "0.5.16+commit.9c3226ce.Emscripten.clang"
  },
  "schemaVersion": "3.1.0",
  "updatedAt": "2020-05-23T09:54:49.126Z",
  "devdoc": {
    "methods": {}
  },
  "userdoc": {
    "methods": {}
  }
}