{
  "contractName": "Sprout",
  "abi": [
    {
      "anonymous": false,
      "inputs": [
        {
          "indexed": false,
          "internalType": "uint256",
          "name": "x_id",
          "type": "uint256"
        },
        {
          "indexed": false,
          "internalType": "uint256",
          "name": "y_id",
          "type": "uint256"
        },
        {
          "indexed": false,
          "internalType": "uint256",
          "name": "dna1",
          "type": "uint256"
        },
        {
          "indexed": false,
          "internalType": "uint256",
          "name": "dna2",
          "type": "uint256"
        }
      ],
      "name": "OnAdd",
      "type": "event"
    },
    {
      "anonymous": false,
      "inputs": [
        {
          "indexed": false,
          "internalType": "uint256",
          "name": "x_id",
          "type": "uint256"
        },
        {
          "indexed": false,
          "internalType": "uint256",
          "name": "y_id",
          "type": "uint256"
        }
      ],
      "name": "OnPlug",
      "type": "event"
    },
    {
      "anonymous": false,
      "inputs": [
        {
          "indexed": true,
          "internalType": "address",
          "name": "previousOwner",
          "type": "address"
        },
        {
          "indexed": true,
          "internalType": "address",
          "name": "newOwner",
          "type": "address"
        }
      ],
      "name": "OwnershipTransferred",
      "type": "event"
    },
    {
      "anonymous": false,
      "inputs": [
        {
          "indexed": false,
          "internalType": "uint256",
          "name": "s",
          "type": "uint256"
        }
      ],
      "name": "debugStage",
      "type": "event"
    },
    {
      "constant": true,
      "inputs": [],
      "name": "isOwner",
      "outputs": [
        {
          "internalType": "bool",
          "name": "",
          "type": "bool"
        }
      ],
      "payable": false,
      "stateMutability": "view",
      "type": "function"
    },
    {
      "constant": true,
      "inputs": [],
      "name": "owner",
      "outputs": [
        {
          "internalType": "address",
          "name": "",
          "type": "address"
        }
      ],
      "payable": false,
      "stateMutability": "view",
      "type": "function"
    },
    {
      "constant": false,
      "inputs": [],
      "name": "renounceOwnership",
      "outputs": [],
      "payable": false,
      "stateMutability": "nonpayable",
      "type": "function"
    },
    {
      "constant": false,
      "inputs": [
        {
          "internalType": "address",
          "name": "newOwner",
          "type": "address"
        }
      ],
      "name": "transferOwnership",
      "outputs": [],
      "payable": false,
      "stateMutability": "nonpayable",
      "type": "function"
    },
    {
      "constant": true,
      "inputs": [
        {
          "internalType": "uint256",
          "name": "x_id",
          "type": "uint256"
        },
        {
          "internalType": "uint256",
          "name": "y_id",
          "type": "uint256"
        }
      ],
      "name": "getProduceGene",
      "outputs": [
        {
          "internalType": "uint256",
          "name": "",
          "type": "uint256"
        }
      ],
      "payable": false,
      "stateMutability": "view",
      "type": "function"
    },
    {
      "constant": true,
      "inputs": [
        {
          "internalType": "uint256",
          "name": "x_id",
          "type": "uint256"
        },
        {
          "internalType": "uint256",
          "name": "y_id",
          "type": "uint256"
        }
      ],
      "name": "getSeedRound",
      "outputs": [
        {
          "internalType": "bool",
          "name": "",
          "type": "bool"
        }
      ],
      "payable": false,
      "stateMutability": "view",
      "type": "function"
    },
    {
      "constant": true,
      "inputs": [
        {
          "internalType": "uint256",
          "name": "x_id",
          "type": "uint256"
        },
        {
          "internalType": "uint256",
          "name": "y_id",
          "type": "uint256"
        }
      ],
      "name": "getSeedYellow",
      "outputs": [
        {
          "internalType": "bool",
          "name": "",
          "type": "bool"
        }
      ],
      "payable": false,
      "stateMutability": "view",
      "type": "function"
    },
    {
      "constant": true,
      "inputs": [
        {
          "internalType": "uint256",
          "name": "x_id",
          "type": "uint256"
        },
        {
          "internalType": "uint256",
          "name": "y_id",
          "type": "uint256"
        }
      ],
      "name": "getColor",
      "outputs": [
        {
          "internalType": "uint256",
          "name": "",
          "type": "uint256"
        }
      ],
      "payable": false,
      "stateMutability": "view",
      "type": "function"
    },
    {
      "constant": true,
      "inputs": [
        {
          "internalType": "uint256",
          "name": "x_id",
          "type": "uint256"
        },
        {
          "internalType": "uint256",
          "name": "y_id",
          "type": "uint256"
        }
      ],
      "name": "getSproutHeight",
      "outputs": [
        {
          "internalType": "uint256",
          "name": "",
          "type": "uint256"
        }
      ],
      "payable": false,
      "stateMutability": "view",
      "type": "function"
    },
    {
      "constant": true,
      "inputs": [
        {
          "internalType": "uint256",
          "name": "x_id",
          "type": "uint256"
        },
        {
          "internalType": "uint256",
          "name": "y_id",
          "type": "uint256"
        }
      ],
      "name": "getSproutWidth",
      "outputs": [
        {
          "internalType": "uint256",
          "name": "",
          "type": "uint256"
        }
      ],
      "payable": false,
      "stateMutability": "view",
      "type": "function"
    },
    {
      "constant": false,
      "inputs": [
        {
          "internalType": "uint256",
          "name": "x_id",
          "type": "uint256"
        },
        {
          "internalType": "uint256",
          "name": "y_id",
          "type": "uint256"
        }
      ],
      "name": "randomAddSprout",
      "outputs": [],
      "payable": false,
      "stateMutability": "nonpayable",
      "type": "function"
    },
    {
      "constant": false,
      "inputs": [
        {
          "internalType": "uint256",
          "name": "x_id",
          "type": "uint256"
        },
        {
          "internalType": "uint256",
          "name": "y_id",
          "type": "uint256"
        }
      ],
      "name": "plugSprout",
      "outputs": [],
      "payable": false,
      "stateMutability": "nonpayable",
      "type": "function"
    }
  ],
  "bytecode": "0x608060405261a8c0600155336000806101000a81548173ffffffffffffffffffffffffffffffffffffffff021916908373ffffffffffffffffffffffffffffffffffffffff1602179055506000809054906101000a900473ffffffffffffffffffffffffffffffffffffffff1673ffffffffffffffffffffffffffffffffffffffff16600073ffffffffffffffffffffffffffffffffffffffff167f8be0079c531659141344cd1fd0a4f28419497f9722a3daafe3b4186f6b6457e060405160405180910390a3612026806100d56000396000f3fe608060405234801561001057600080fd5b50600436106100b45760003560e01c80638f32d59b116100715780638f32d59b1461024557806393fccbb614610267578063990e7469146102b3578063aa7bcc58146102eb578063eded5d9e14610323578063f2fde38b1461036f576100b4565b806343518447146100b957806359ca683c14610109578063715018a6146101595780637402003314610163578063816bfee6146101af5780638da5cb5b146101fb575b600080fd5b6100ef600480360360408110156100cf57600080fd5b8101908080359060200190929190803590602001909291905050506103b3565b604051808215151515815260200191505060405180910390f35b61013f6004803603604081101561011f57600080fd5b810190808035906020019092919080359060200190929190505050610512565b604051808215151515815260200191505060405180910390f35b610161610671565b005b6101996004803603604081101561017957600080fd5b810190808035906020019092919080359060200190929190505050610741565b6040518082815260200191505060405180910390f35b6101e5600480360360408110156101c557600080fd5b810190808035906020019092919080359060200190929190505050610967565b6040518082815260200191505060405180910390f35b610203610ab9565b604051808273ffffffffffffffffffffffffffffffffffffffff1673ffffffffffffffffffffffffffffffffffffffff16815260200191505060405180910390f35b61024d610ae2565b604051808215151515815260200191505060405180910390f35b61029d6004803603604081101561027d57600080fd5b810190808035906020019092919080359060200190929190505050610b39565b6040518082815260200191505060405180910390f35b6102e9600480360360408110156102c957600080fd5b810190808035906020019092919080359060200190929190505050610d5f565b005b6103216004803603604081101561030157600080fd5b810190808035906020019092919080359060200190929190505050611070565b005b6103596004803603604081101561033957600080fd5b810190808035906020019092919080359060200190929190505050611184565b6040518082815260200191505060405180910390f35b6103b16004803603602081101561038557600080fd5b81019080803573ffffffffffffffffffffffffffffffffffffffff1690602001909291905050506112d6565b005b60008282600260003373ffffffffffffffffffffffffffffffffffffffff1673ffffffffffffffffffffffffffffffffffffffff168152602001908152602001600020826005811061040157fe5b603c0201816005811061041057fe5b600c020160050160009054906101000a900460ff16610497576040517f08c379a000000000000000000000000000000000000000000000000000000000815260040180806020018281038252601d8152602001807f6c6f636174696f6e20646f6573206e6f742068617665207370726f757400000081525060200191505060405180910390fd5b600260003373ffffffffffffffffffffffffffffffffffffffff1673ffffffffffffffffffffffffffffffffffffffff16815260200190815260200160002085600581106104e157fe5b603c020184600581106104f057fe5b600c020160060160050160019054906101000a900460ff169250505092915050565b60008282600260003373ffffffffffffffffffffffffffffffffffffffff1673ffffffffffffffffffffffffffffffffffffffff168152602001908152602001600020826005811061056057fe5b603c0201816005811061056f57fe5b600c020160050160009054906101000a900460ff166105f6576040517f08c379a000000000000000000000000000000000000000000000000000000000815260040180806020018281038252601d8152602001807f6c6f636174696f6e20646f6573206e6f742068617665207370726f757400000081525060200191505060405180910390fd5b600260003373ffffffffffffffffffffffffffffffffffffffff1673ffffffffffffffffffffffffffffffffffffffff168152602001908152602001600020856005811061064057fe5b603c0201846005811061064f57fe5b600c020160060160050160019054906101000a900460ff169250505092915050565b610679610ae2565b61068257600080fd5b600073ffffffffffffffffffffffffffffffffffffffff166000809054906101000a900473ffffffffffffffffffffffffffffffffffffffff1673ffffffffffffffffffffffffffffffffffffffff167f8be0079c531659141344cd1fd0a4f28419497f9722a3daafe3b4186f6b6457e060405160405180910390a360008060006101000a81548173ffffffffffffffffffffffffffffffffffffffff021916908373ffffffffffffffffffffffffffffffffffffffff160217905550565b60008282600260003373ffffffffffffffffffffffffffffffffffffffff1673ffffffffffffffffffffffffffffffffffffffff168152602001908152602001600020826005811061078f57fe5b603c0201816005811061079e57fe5b600c020160050160009054906101000a900460ff16610825576040517f08c379a000000000000000000000000000000000000000000000000000000000815260040180806020018281038252601d8152602001807f6c6f636174696f6e20646f6573206e6f742068617665207370726f757400000081525060200191505060405180910390fd5b600061084361083487876112f3565b4261135e90919063ffffffff16565b905060006108518787611375565b9050600061085f88886113e3565b9050818311156108e65761087d60148361145190919063ffffffff16565b610890838561135e90919063ffffffff16565b10156108da576108d060786108c2603c6108b460788661146a90919063ffffffff16565b61148690919063ffffffff16565b61145190919063ffffffff16565b955050505061095f565b6000955050505061095f565b60008314156108fb576000955050505061095f565b6109598361094b607861093d8661092f603c61092160788a61146a90919063ffffffff16565b61148690919063ffffffff16565b61148690919063ffffffff16565b61145190919063ffffffff16565b61145190919063ffffffff16565b95505050505b505092915050565b60008282600260003373ffffffffffffffffffffffffffffffffffffffff1673ffffffffffffffffffffffffffffffffffffffff16815260200190815260200160002082600581106109b557fe5b603c020181600581106109c457fe5b600c020160050160009054906101000a900460ff16610a4b576040517f08c379a000000000000000000000000000000000000000000000000000000000815260040180806020018281038252601d8152602001807f6c6f636174696f6e20646f6573206e6f742068617665207370726f757400000081525060200191505060405180910390fd5b600260003373ffffffffffffffffffffffffffffffffffffffff1673ffffffffffffffffffffffffffffffffffffffff1681526020019081526020016000208560058110610a9557fe5b603c02018460058110610aa457fe5b600c0201600601600401549250505092915050565b60008060009054906101000a900473ffffffffffffffffffffffffffffffffffffffff16905090565b60008060009054906101000a900473ffffffffffffffffffffffffffffffffffffffff1673ffffffffffffffffffffffffffffffffffffffff163373ffffffffffffffffffffffffffffffffffffffff1614905090565b60008282600260003373ffffffffffffffffffffffffffffffffffffffff1673ffffffffffffffffffffffffffffffffffffffff1681526020019081526020016000208260058110610b8757fe5b603c02018160058110610b9657fe5b600c020160050160009054906101000a900460ff16610c1d576040517f08c379a000000000000000000000000000000000000000000000000000000000815260040180806020018281038252601d8152602001807f6c6f636174696f6e20646f6573206e6f742068617665207370726f757400000081525060200191505060405180910390fd5b6000610c3b610c2c87876112f3565b4261135e90919063ffffffff16565b90506000610c498787611375565b90506000610c5788886114bd565b905081831115610cde57610c7560148361145190919063ffffffff16565b610c88838561135e90919063ffffffff16565b1015610cd257610cc8600f610cba6005610cac600f8661146a90919063ffffffff16565b61148690919063ffffffff16565b61145190919063ffffffff16565b9550505050610d57565b60009550505050610d57565b6000831415610cf35760009550505050610d57565b610d5183610d43600f610d3586610d276005610d19600f8a61146a90919063ffffffff16565b61148690919063ffffffff16565b61148690919063ffffffff16565b61145190919063ffffffff16565b61145190919063ffffffff16565b95505050505b505092915050565b8181600260003373ffffffffffffffffffffffffffffffffffffffff1673ffffffffffffffffffffffffffffffffffffffff1681526020019081526020016000208260058110610dab57fe5b603c02018160058110610dba57fe5b600c020160050160009054906101000a900460ff16610e41576040517f08c379a000000000000000000000000000000000000000000000000000000000815260040180806020018281038252601d8152602001807f6c6f636174696f6e20646f6573206e6f742068617665207370726f757400000081525060200191505060405180910390fd5b6000610e5f610e5086866112f3565b4261135e90919063ffffffff16565b90506000610e6d8686611375565b90506000610e7b8787610b39565b90506000610e898888610741565b90506000610e9b858584868d8d61152b565b905060011515600260003373ffffffffffffffffffffffffffffffffffffffff1673ffffffffffffffffffffffffffffffffffffffff1681526020019081526020016000208a60058110610eeb57fe5b603c02018960058110610efa57fe5b600c020160050160009054906101000a900460ff1615151415611026576000600260003373ffffffffffffffffffffffffffffffffffffffff1673ffffffffffffffffffffffffffffffffffffffff1681526020019081526020016000208a60058110610f6357fe5b603c02018960058110610f7257fe5b600c020160050160006101000a81548160ff021916908315150217905550610fe281600360003373ffffffffffffffffffffffffffffffffffffffff1673ffffffffffffffffffffffffffffffffffffffff1681526020019081526020016000205461146a90919063ffffffff16565b600360003373ffffffffffffffffffffffffffffffffffffffff1673ffffffffffffffffffffffffffffffffffffffff168152602001908152602001600020819055505b7fef9514e76636c86a9084470f65495ff78258053cada18c62136f204ff2f0daa28989604051808381526020018281526020019250505060405180910390a1505050505050505050565b6000424460405160200180838152602001828152602001925050506040516020818303038152906040528051906020012060001c90506000444260405160200180838152602001828152602001925050506040516020818303038152906040528051906020012060001c90506110e884848484611723565b61113b6064600360003373ffffffffffffffffffffffffffffffffffffffff1673ffffffffffffffffffffffffffffffffffffffff1681526020019081526020016000205461135e90919063ffffffff16565b600360003373ffffffffffffffffffffffffffffffffffffffff1673ffffffffffffffffffffffffffffffffffffffff1681526020019081526020016000208190555050505050565b60008282600260003373ffffffffffffffffffffffffffffffffffffffff1673ffffffffffffffffffffffffffffffffffffffff16815260200190815260200160002082600581106111d257fe5b603c020181600581106111e157fe5b600c020160050160009054906101000a900460ff16611268576040517f08c379a000000000000000000000000000000000000000000000000000000000815260040180806020018281038252601d8152602001807f6c6f636174696f6e20646f6573206e6f742068617665207370726f757400000081525060200191505060405180910390fd5b600260003373ffffffffffffffffffffffffffffffffffffffff1673ffffffffffffffffffffffffffffffffffffffff16815260200190815260200160002085600581106112b257fe5b603c020184600581106112c157fe5b600c0201600601600201549250505092915050565b6112de610ae2565b6112e757600080fd5b6112f081611e35565b50565b6000600260003373ffffffffffffffffffffffffffffffffffffffff1673ffffffffffffffffffffffffffffffffffffffff168152602001908152602001600020836005811061133f57fe5b603c0201826005811061134e57fe5b600c020160020154905092915050565b60008282111561136a57fe5b818303905092915050565b6000600260003373ffffffffffffffffffffffffffffffffffffffff1673ffffffffffffffffffffffffffffffffffffffff16815260200190815260200160002083600581106113c157fe5b603c020182600581106113d057fe5b600c020160060160030154905092915050565b6000600260003373ffffffffffffffffffffffffffffffffffffffff1673ffffffffffffffffffffffffffffffffffffffff168152602001908152602001600020836005811061142f57fe5b603c0201826005811061143e57fe5b600c020160060160000154905092915050565b60008082848161145d57fe5b0490508091505092915050565b60008082840190508381101561147c57fe5b8091505092915050565b60008083141561149957600090506114b7565b60008284029050828482816114aa57fe5b04146114b257fe5b809150505b92915050565b6000600260003373ffffffffffffffffffffffffffffffffffffffff1673ffffffffffffffffffffffffffffffffffffffff168152602001908152602001600020836005811061150957fe5b603c0201826005811061151857fe5b600c020160060160010154905092915050565b60008282600260003373ffffffffffffffffffffffffffffffffffffffff1673ffffffffffffffffffffffffffffffffffffffff168152602001908152602001600020826005811061157957fe5b603c0201816005811061158857fe5b600c020160050160009054906101000a900460ff1661160f576040517f08c379a000000000000000000000000000000000000000000000000000000000815260040180806020018281038252601d8152602001807f6c6f636174696f6e20646f6573206e6f742068617665207370726f757400000081525060200191505060405180910390fd5b600061161b8686611184565b905060006116298787610512565b9050600061163788886103b3565b90508a8c11156116865761165560148c61145190919063ffffffff16565b6116688c8e61135e90919063ffffffff16565b101561167a5760059550505050611717565b60009550505050611717565b60008c141561169b5760029550505050611717565b60006116d56116b4600a8661145190919063ffffffff16565b6116c78c8e61148690919063ffffffff16565b61135e90919063ffffffff16565b905081156116f3576116f160058261146a90919063ffffffff16565b505b821561170f5761170d60058261146a90919063ffffffff16565b505b809650505050505b50509695505050505050565b60001515600260003373ffffffffffffffffffffffffffffffffffffffff1673ffffffffffffffffffffffffffffffffffffffff168152602001908152602001600020856005811061177157fe5b603c0201846005811061178057fe5b600c020160050160009054906101000a900460ff161515146117a157600080fd5b611806600260003373ffffffffffffffffffffffffffffffffffffffff1673ffffffffffffffffffffffffffffffffffffffff16815260200190815260200160002085600581106117ee57fe5b603c020184600581106117fd57fe5b600c0201611f2d565b61180f57600080fd5b611817611f3e565b6040518060e00160405280600081526020016000815260200160008152602001600081526020016000815260200160001515815260200160001515815250905060008390506000839050600060016002838161186f57fe5b066002858161187a57fe5b0617148460a0019015159081151581525050600183901c9250600182901c91506001600283816118a657fe5b06600285816118b157fe5b0617148460c00190151590811515815250506000600290505b6029811015611958576001600285816118df57fe5b061415611908576118fe6001866040015161146a90919063ffffffff16565b8560400181815250505b60016002848161191457fe5b06141561193d576119336001866040015161146a90919063ffffffff16565b8560400181815250505b600184901c9350600183901c925080806001019150506118ca565b506000602990505b60658110156119ee5760016002858161197557fe5b06141561199e576119946001866020015161146a90919063ffffffff16565b8560200181815250505b6001600284816119aa57fe5b0614156119d3576119c96001866020015161146a90919063ffffffff16565b8560200181815250505b600184901c9350600183901c92508080600101915050611960565b506000606590505b60a1811015611a8457600160028581611a0b57fe5b061415611a3457611a2a6001866000015161146a90919063ffffffff16565b8560000181815250505b600160028481611a4057fe5b061415611a6957611a5f6001866000015161146a90919063ffffffff16565b8560000181815250505b600184901c9350600183901c925080806001019150506119f6565b50600060a190505b60c9811015611b1a57600160028581611aa157fe5b061415611aca57611ac06001866080015161146a90919063ffffffff16565b8560800181815250505b600160028481611ad657fe5b061415611aff57611af56001866080015161146a90919063ffffffff16565b8560800181815250505b600184901c9350600183901c92508080600101915050611a8c565b50600060c990505b610100811015611b9b57600160028581611b3857fe5b061415611b5657611b5360018361146a90919063ffffffff16565b91505b600160028481611b6257fe5b061415611b8057611b7d60018361146a90919063ffffffff16565b91505b600184901c9350600183901c92508080600101915050611b22565b506201518060be611bc96002611bbb60038661148690919063ffffffff16565b61145190919063ffffffff16565b61017c0381611bd457fe5b0402846060018181525050604051806101200160405280878152602001868152602001428152602001600081526020016000604051908082528060200260200182016040528015611c345781602001602082028038833980820191505090505b50815260200160011515815260200160001515815260200160001515815260200185815250600260003373ffffffffffffffffffffffffffffffffffffffff1673ffffffffffffffffffffffffffffffffffffffff1681526020019081526020016000208960058110611ca357fe5b603c02018860058110611cb257fe5b600c0201600082015181600001556020820151816001015560408201518160020155606082015181600301556080820151816004019080519060200190611cfa929190611f7f565b5060a08201518160050160006101000a81548160ff02191690831515021790555060c08201518160050160016101000a81548160ff02191690831515021790555060e08201518160050160026101000a81548160ff02191690831515021790555061010082015181600601600082015181600001556020820151816001015560408201518160020155606082015181600301556080820151816004015560a08201518160050160006101000a81548160ff02191690831515021790555060c08201518160050160016101000a81548160ff02191690831515021790555050509050507f29673a2c4180cee02675c1aeac3253f75b8a067246770a77b079d48c92248cbd888888886040518085815260200184815260200183815260200182815260200194505050505060405180910390a15050505050505050565b600073ffffffffffffffffffffffffffffffffffffffff168173ffffffffffffffffffffffffffffffffffffffff161415611e6f57600080fd5b8073ffffffffffffffffffffffffffffffffffffffff166000809054906101000a900473ffffffffffffffffffffffffffffffffffffffff1673ffffffffffffffffffffffffffffffffffffffff167f8be0079c531659141344cd1fd0a4f28419497f9722a3daafe3b4186f6b6457e060405160405180910390a3806000806101000a81548173ffffffffffffffffffffffffffffffffffffffff021916908373ffffffffffffffffffffffffffffffffffffffff16021790555050565b600042826003015411159050919050565b6040518060e0016040528060008152602001600081526020016000815260200160008152602001600081526020016000151581526020016000151581525090565b828054828255906000526020600020908101928215611fbb579160200282015b82811115611fba578251825591602001919060010190611f9f565b5b509050611fc89190611fcc565b5090565b611fee91905b80821115611fea576000816000905550600101611fd2565b5090565b9056fea265627a7a723158204e5e57a5429e83380a0a363b6164bdb4c34f500e849b85a3c7855bb5f45ae76f64736f6c63430005100032",
  "source": "pragma solidity ^0.5.0;\n\nimport \"./Ownable.sol\";\nimport \"./SafeMath.sol\";\n\n/*I design the DNA to have two strains(dna1, dna2 uint256), \n    The following is the representative of each gene (in LSB order)\n        0 -> seed yellow (dominant), green(recessive) [mendilan trait]\n        1 -> seed round (dominant), wrinkled(recessive) [mendilan trait]\n        2~40 -> whole color (from pale yellow to dark green) [polygenic trait]\n        41~100 ->  stem width [polygenic trait]\n        101~160 ->  stem height [polygenic trait]\n        161~200 -> peoductivity, the amount of generated seed [polygenetic trait]\n        201~256 ->  grow speed [polygenic trait]\n\n        *mendilan trait: \n        output is a bool= (bit1|bit2 == 1), recessive trait=false, domminent trait= True\n        *polygenetic trait:\n        output is uint8, represent the amount of 1 among the corresponding bits\n        \nAbout Traits: \n     height(uint): the full grown height of height gene=0 is 60 cm, gene=120 is 180 cm\n     width(uint): the full grown width of width gene=0 is 5 mm, gene=120 is 20 mm\n     color(uint): I guess I will directly return the gene(cause I don't really know how to present color with 1 dim...)\n     It take 2 days to reach full grown for speed gene=0, half day for speed gene = 110\n     (though the actual game won't be that long because we'd like to plug it up before the sprout get too green and stiff)\n     productivity: the amount of seed produced for produce_gen=0 is 10, for produce_gen= 80 is 50\n     mendilan trait(bool): directly return the bool \n\nAbout Growing:\n    1. before the reaching 10% of full growth, the seed would shown, but slowly sinking into ground\n        (it's the perfect time to plug the sprout!, giving true for sprout stage (bool))\n    2. the color I guess should be turning greener and greener (though I don't really know how to design this part) \n    3. all the growing before full grown is linear\n    4. after full grown, it use 5% of the full grown time to die off, all the other feature would remain same in this period\n    5. The bean can only be planted at (x, y) where 0 <= x <5, 0 <= y < 5\n    6. You can start to have seed after 1.02 full grown time\n    7. you can pollen in 1 ~ 1.02 full grown time, the amount of pollen for all beanstalks are always 10\n    8. you can pollenize in 1.01 ~1.02 full grown time\n\nAbout price:\n    1. plug a non-sprout stage bean stalk get $10\n    2. plug a dying stage bean stalk get $5\n    3. a sprout's price = height*width-color/10\n    4. price +5 if bean is round\n    5. price +5 if bean is yellow  \n\n\n\nNotes:\n    1. The reason I have such a lengthy design for the whole bean lifespan is because I originally thought of designing the \n        feature of the whole reproducing process and maybe cultivate or trading seeds(which I don't really know if we have time for)\n        If it would be implemented, there's definately more parameter to be set.\n    3. I'm also thinking of some level up species could be represented as mendilen trait\n        (which would be always 1/0 before reaching a certain level)\n    4. In addition to the current polygene traits, I'm also consider adding some other such as disease resistence, productivity, etc.\n    5. Feel free to let me know if you think any design is impractical or what parameter is wierd or any other helpful advice :)\n\nUpdates:\n    1. the getSproutLook function is substitute with getColor, getSproutHeight, getSproutWidth, getSproutPrice,\n    getSeedYellow, getSeedRound. Each of these functions is a view public function, which must be workable in \n    without using Event feature.\n    2. The cost of the randomAdd is $300\n\n    \n*/\ncontract Sprout is Ownable {\n\n  using SafeMath for uint256;\n\n  event OnAdd(uint x_id, uint y_id, uint dna1, uint dna2);\n  event OnPlug(uint x_id, uint y_id);\n  //events for debug usage\n  event debugStage(uint s);\n  \n  //If the sprout didn't be plugged and then died, 12 hours later can the grid be added with a new sprout. \n  uint replantTime = 12 hours;\n  \n  struct sprout {\n    uint dna1;\n    uint dna2;\n    uint planttime;\n    uint readytime;//ready to replant\n    uint[] pollen;\n    bool isset;\n    bool seed_plug;\n    bool pollen_plug;\n    gene g;\n  }\n  // could be derived from dna1 and dna2\n  struct gene {\n    uint height_gen;\n    uint width_gen;\n    uint color;\n    uint fullgrown_time;\n    uint produce_gen;\n    bool seed_yellow;\n    bool seed_round;\n  }\n  \n  \n  // the mappings\n  mapping (address => sprout[5][5]) sprout_list;\n  mapping (address => uint) balance;//account\n\n  // the modifiers\n  modifier SproutExist(uint x_id, uint y_id){\n    require(sprout_list[msg.sender][x_id][y_id].isset, \"location does not have sprout\");\n    _;\n  }\n  modifier EnoughBuySeed(){\n    require(balance[msg.sender]> 0, \"not enough money to buy random seed\");\n    _;\n  }\n  modifier SeedExist(uint x_id, uint y_id){\n    uint now_stage = now.sub(getPlantTime(x_id, y_id));\n    uint fullgrown_time = getFullGrownTime(x_id, y_id);\n    require(now_stage > fullgrown_time.mul(102).div(100), \"too early to have seeds\");\n    require(!sprout_list[msg.sender][x_id][y_id].seed_plug, \"the seeds are already plugged.\");\n    _;\n  }\n  modifier PollenExist(uint x_id, uint y_id){\n    uint now_stage = now.sub(getPlantTime(x_id, y_id));\n    uint fullgrown_time = getFullGrownTime(x_id, y_id);\n    require(now_stage > fullgrown_time, \"too early to have pollen\");\n    require(now_stage < fullgrown_time.mul(102).div(100), \"too late to have pollen\");\n    require(!sprout_list[msg.sender][x_id][y_id].pollen_plug, \"the pollen are already plugged.\");\n    _;\n  }\n  modifier PollenizeReady(uint x_id, uint y_id){\n    uint now_stage = now.sub(getPlantTime(x_id, y_id));\n    uint fullgrown_time = getFullGrownTime(x_id, y_id);\n    require(now_stage > fullgrown_time.mul(101).div(100), \"too early to have pollen\");\n    require(now_stage < fullgrown_time.mul(102).div(100), \"too late to have pollen\");\n    _;\n  }\n\n  /* dead and replant function wouldn't work for now, when it's dead all the price, height, width would be \n  0, but you still need to plug it manually*/\n  function _triggerReplant(sprout storage _sprout) internal {\n    _sprout.readytime = now + replantTime;\n  }\n\n  function _isReady(sprout storage _sprout) internal view returns (bool) {\n      return (_sprout.readytime <= now);\n  }\n\n\n//get TRAITS\n  function getFullGrownTime(uint x_id, uint y_id) internal view returns(uint){\n    return sprout_list[msg.sender][x_id][y_id].g.fullgrown_time;\n  }\n  function getPlantTime(uint x_id,  uint y_id) internal view returns(uint){\n    return sprout_list[msg.sender][x_id][y_id].planttime;\n  }\n  function getHeightGene(uint x_id, uint y_id) internal view returns(uint){\n    return sprout_list[msg.sender][x_id][y_id].g.height_gen;\n  }\n  function getWidthGene(uint x_id, uint y_id) internal view returns(uint){\n    return sprout_list[msg.sender][x_id][y_id].g.width_gen;\n  }\n  // The following traits could be seen from the players\n  function getProduceGene(uint x_id, uint y_id) public view SproutExist(x_id, y_id) returns(uint){\n    return sprout_list[msg.sender][x_id][y_id].g.produce_gen;\n  }\n  function getSeedRound(uint x_id, uint y_id) public view SproutExist(x_id, y_id) returns(bool){\n    return sprout_list[msg.sender][x_id][y_id].g.seed_round;\n  }\n  function getSeedYellow(uint x_id, uint y_id) public view SproutExist(x_id, y_id) returns(bool){\n    return sprout_list[msg.sender][x_id][y_id].g.seed_round;\n  }\n  function getColor(uint x_id, uint y_id) public view SproutExist(x_id, y_id) returns(uint){\n    return sprout_list[msg.sender][x_id][y_id].g.color;\n  }\n  function getSproutHeight( uint x_id, uint y_id) public view SproutExist(x_id, y_id) returns(uint){\n      uint now_stage = now.sub(getPlantTime(x_id, y_id));\n      uint fullgrown_time = getFullGrownTime(x_id, y_id);\n      uint height_gen =  getHeightGene(x_id, y_id);\n      if(now_stage > fullgrown_time) {\n        if((now_stage.sub(fullgrown_time)) < fullgrown_time.div(20)) {//before death\n          return (height_gen.add(120)).mul(60).div(120);\n        } else{ return 0;} \n      }else{\n        if(now_stage==0){ return 0;\n        } else{\n           return((height_gen.add(120)).mul(60)).mul(fullgrown_time).div(120).div(now_stage);}\n      }\n  }\n  function getSproutWidth( uint x_id, uint y_id) public view SproutExist(x_id, y_id) returns(uint){\n    uint now_stage = now.sub(getPlantTime(x_id, y_id));\n    uint fullgrown_time = getFullGrownTime(x_id, y_id);\n    uint width_gen =getWidthGene(x_id, y_id);\n      if(now_stage > fullgrown_time) {\n            if((now_stage.sub(fullgrown_time)) < fullgrown_time.div(20)) {//before death\n              return (width_gen.add(15)).mul(5).div(15);\n            } else{ return 0;} \n        }\n        else{\n            if(now_stage==0){ return 0;\n            } else{\n              return((width_gen.add(15)).mul(5)).mul(fullgrown_time).div(15).div(now_stage);}\n        }\n  }\n  function getSproutPrice( uint now_stage, uint fullgrown_time, uint height, uint width, uint x_id, uint y_id) \n    internal view SproutExist(x_id, y_id) returns(uint){\n      uint color = getColor(x_id, y_id);\n      bool seed_yellow = getSeedYellow(x_id, y_id);\n      bool seed_round = getSeedRound(x_id, y_id);\n      if(now_stage > fullgrown_time) {\n            if((now_stage.sub(fullgrown_time)) < fullgrown_time.div(20)) {//before death\n              return 5;\n            } else{ return 0;} \n        }\n        else{\n            if(now_stage==0){ return 2;\n            } else{\n              uint price= height.mul(width).sub(color.div(10));\n              if(seed_round){ price.add(5);}\n              if(seed_yellow){ price.add(5);}\n              return price;\n            }\n        }\n  }\n    \n\n\n  \n  function addSprout(uint x_id, uint y_id, uint dna1, uint dna2) internal {\n    require(sprout_list[msg.sender][x_id][y_id].isset == false);\n    require(_isReady(sprout_list[msg.sender][x_id][y_id]));\n    gene memory g = gene(0, 0, 0, 0, 0, false, false);\n    uint temp1 = dna1;\n    uint temp2 = dna2;\n    uint speed_gen;\n\n    //determine genes (mendilen traits)\n    g.seed_yellow = (((temp1%2) | (temp2%2)) == 1);\n    temp1 = temp1 >> 1;temp2 = temp2 >> 1;\n    g.seed_round = (((temp1%2) | (temp2 %2)) == 1);\n    //determine genes (polygene traits)\n    for (uint i =2; i <41; i++){\n        if (temp1%2 == 1){g.color = g.color.add(1);}\n        if (temp2%2 == 1){g.color = g.color.add(1);}\n        temp1 = temp1 >> 1;temp2 = temp2 >> 1;\n    }\n    for (uint i =41; i <101; i++){\n        if (temp1%2 == 1){g.width_gen = g.width_gen.add(1);}\n        if (temp2%2 == 1){g.width_gen = g.width_gen.add(1);}\n        temp1 = temp1 >> 1;temp2 = temp2 >> 1;\n    }\n    for (uint i =101; i <161; i++){\n        if (temp1%2 == 1){g.height_gen = g.height_gen.add(1);}\n        if (temp2%2 == 1){g.height_gen = g.height_gen.add(1);}\n        temp1 = temp1 >> 1;temp2 = temp2 >> 1;\n    }\n    for (uint i =161; i <201; i++){\n        if (temp1%2 == 1){g.produce_gen = g.produce_gen.add(1);}\n        if (temp2%2 == 1){g.produce_gen = g.produce_gen.add(1);}\n        temp1 = temp1 >> 1;temp2 = temp2 >> 1;\n    }\n    for (uint i =201; i <256; i++){\n        if (temp1%2 == 1){speed_gen = speed_gen.add(1);}\n        if (temp2%2 == 1){speed_gen = speed_gen.add(1);}\n        temp1 = temp1 >> 1;temp2 = temp2 >> 1;\n    }\n    g.fullgrown_time = ((380-(speed_gen.mul(3).div(2)))/190)* 1 days;\n\n    sprout_list[msg.sender][x_id][y_id] = sprout(dna1, dna2, now, 0, new uint[](0), true, false, false, g);\n    emit OnAdd(x_id, y_id, dna1, dna2);\n  }\n  \n  // plant a sprout with random dna  cost $100\n  //function randomAddSprout(uint x_id, uint y_id) public EnoughBuySeed(){\n  function randomAddSprout(uint x_id, uint y_id) public{\n    uint dna1 = uint(keccak256(abi.encodePacked(block.timestamp, block.difficulty)));\n    uint dna2 = uint(keccak256(abi.encodePacked(block.difficulty, block.timestamp)));\n    addSprout(x_id, y_id, dna1, dna2);\n    balance[msg.sender] = balance[msg.sender].sub(100);\n  }\n    \n  function plugSprout(uint x_id, uint y_id) public SproutExist(x_id, y_id){\n      uint now_stage = now.sub(getPlantTime(x_id, y_id));\n      uint fullgrown_time = getFullGrownTime(x_id, y_id);\n      uint width = getSproutWidth(x_id, y_id);\n      uint height = getSproutHeight( x_id, y_id);\n      uint price = getSproutPrice(now_stage, fullgrown_time, height, width, x_id, y_id);\n      if(sprout_list[msg.sender][x_id][y_id].isset == true){\n        sprout_list[msg.sender][x_id][y_id].isset = false;\n        balance[msg.sender] = balance[msg.sender].add(price);\n      }\n      emit OnPlug(x_id, y_id);\n    }\n\n}\n",
  "sourcePath": "/Users/vivi/Documents/1082/nmlab_project/nmlab_final/react/src/contracts/sprout.sol",
  "compiler": {
    "name": "solc",
    "version": "0.5.16+commit.9c3226ce.Emscripten.clang"
  },
  "schemaVersion": "3.1.0",
  "updatedAt": "2020-06-20T06:09:50.154Z",
  "networkType": "ethereum",
  "devdoc": {
    "methods": {
      "isOwner()": {
        "return": "true if `msg.sender` is the owner of the contract."
      },
      "owner()": {
        "return": "the address of the owner."
      },
      "renounceOwnership()": {
        "details": "Allows the current owner to relinquish control of the contract."
      },
      "transferOwnership(address)": {
        "details": "Allows the current owner to transfer control of the contract to a newOwner.",
        "params": {
          "newOwner": "The address to transfer ownership to."
        }
      }
    }
  },
  "userdoc": {
    "methods": {
      "renounceOwnership()": {
        "notice": "Renouncing to ownership will leave the contract without an owner. It will not be possible to call the functions with the `onlyOwner` modifier anymore."
      }
    }
  }
}