{
  "contractName": "SproutOwnership",
  "abi": [
    {
      "anonymous": false,
      "inputs": [
        {
          "indexed": true,
          "internalType": "address",
          "name": "_owner",
          "type": "address"
        },
        {
          "indexed": true,
          "internalType": "address",
          "name": "_spender",
          "type": "address"
        },
        {
          "indexed": false,
          "internalType": "uint256",
          "name": "_value",
          "type": "uint256"
        }
      ],
      "name": "Approval",
      "type": "event"
    },
    {
      "anonymous": false,
      "inputs": [
        {
          "indexed": false,
          "internalType": "uint256",
          "name": "x_id",
          "type": "uint256"
        },
        {
          "indexed": false,
          "internalType": "uint256",
          "name": "y_id",
          "type": "uint256"
        },
        {
          "indexed": false,
          "internalType": "uint256",
          "name": "dna1",
          "type": "uint256"
        },
        {
          "indexed": false,
          "internalType": "uint256",
          "name": "dna2",
          "type": "uint256"
        }
      ],
      "name": "OnAdd",
      "type": "event"
    },
    {
      "anonymous": false,
      "inputs": [
        {
          "indexed": false,
          "internalType": "uint256",
          "name": "x_id",
          "type": "uint256"
        },
        {
          "indexed": false,
          "internalType": "uint256",
          "name": "y_id",
          "type": "uint256"
        }
      ],
      "name": "OnPlug",
      "type": "event"
    },
    {
      "anonymous": false,
      "inputs": [
        {
          "indexed": true,
          "internalType": "address",
          "name": "previousOwner",
          "type": "address"
        },
        {
          "indexed": true,
          "internalType": "address",
          "name": "newOwner",
          "type": "address"
        }
      ],
      "name": "OwnershipTransferred",
      "type": "event"
    },
    {
      "anonymous": false,
      "inputs": [
        {
          "indexed": true,
          "internalType": "address",
          "name": "_from",
          "type": "address"
        },
        {
          "indexed": true,
          "internalType": "address",
          "name": "_to",
          "type": "address"
        },
        {
          "indexed": false,
          "internalType": "uint256",
          "name": "_value",
          "type": "uint256"
        }
      ],
      "name": "Transfer",
      "type": "event"
    },
    {
      "anonymous": false,
      "inputs": [
        {
          "indexed": false,
          "internalType": "uint256",
          "name": "s",
          "type": "uint256"
        }
      ],
      "name": "debugStage",
      "type": "event"
    },
    {
      "constant": true,
      "inputs": [],
      "name": "getBalance",
      "outputs": [
        {
          "internalType": "uint256",
          "name": "",
          "type": "uint256"
        }
      ],
      "payable": false,
      "stateMutability": "view",
      "type": "function"
    },
    {
      "constant": false,
      "inputs": [
        {
          "internalType": "uint256",
          "name": "x_id",
          "type": "uint256"
        },
        {
          "internalType": "uint256",
          "name": "y_id",
          "type": "uint256"
        }
      ],
      "name": "getSproutLook",
      "outputs": [
        {
          "internalType": "bool",
          "name": "seed_yellow",
          "type": "bool"
        },
        {
          "internalType": "bool",
          "name": "seed_round",
          "type": "bool"
        },
        {
          "internalType": "uint256",
          "name": "height",
          "type": "uint256"
        },
        {
          "internalType": "uint256",
          "name": "width",
          "type": "uint256"
        },
        {
          "internalType": "uint256",
          "name": "color",
          "type": "uint256"
        },
        {
          "internalType": "uint256",
          "name": "price",
          "type": "uint256"
        }
      ],
      "payable": false,
      "stateMutability": "nonpayable",
      "type": "function"
    },
    {
      "constant": true,
      "inputs": [],
      "name": "isOwner",
      "outputs": [
        {
          "internalType": "bool",
          "name": "",
          "type": "bool"
        }
      ],
      "payable": false,
      "stateMutability": "view",
      "type": "function"
    },
    {
      "constant": true,
      "inputs": [],
      "name": "owner",
      "outputs": [
        {
          "internalType": "address",
          "name": "",
          "type": "address"
        }
      ],
      "payable": false,
      "stateMutability": "view",
      "type": "function"
    },
    {
      "constant": false,
      "inputs": [
        {
          "internalType": "uint256",
          "name": "x_id",
          "type": "uint256"
        },
        {
          "internalType": "uint256",
          "name": "y_id",
          "type": "uint256"
        }
      ],
      "name": "plugSprout",
      "outputs": [],
      "payable": false,
      "stateMutability": "nonpayable",
      "type": "function"
    },
    {
      "constant": false,
      "inputs": [
        {
          "internalType": "uint256",
          "name": "x_id",
          "type": "uint256"
        },
        {
          "internalType": "uint256",
          "name": "y_id",
          "type": "uint256"
        }
      ],
      "name": "randomAddSprout",
      "outputs": [],
      "payable": false,
      "stateMutability": "nonpayable",
      "type": "function"
    },
    {
      "constant": false,
      "inputs": [],
      "name": "renounceOwnership",
      "outputs": [],
      "payable": false,
      "stateMutability": "nonpayable",
      "type": "function"
    },
    {
      "constant": true,
      "inputs": [
        {
          "internalType": "uint256",
          "name": "",
          "type": "uint256"
        }
      ],
      "name": "sprouts",
      "outputs": [
        {
          "internalType": "uint256",
          "name": "dna1",
          "type": "uint256"
        },
        {
          "internalType": "uint256",
          "name": "dna2",
          "type": "uint256"
        },
        {
          "internalType": "uint256",
          "name": "planttime",
          "type": "uint256"
        },
        {
          "internalType": "uint256",
          "name": "readytime",
          "type": "uint256"
        },
        {
          "internalType": "bool",
          "name": "isset",
          "type": "bool"
        }
      ],
      "payable": false,
      "stateMutability": "view",
      "type": "function"
    },
    {
      "constant": false,
      "inputs": [
        {
          "internalType": "address",
          "name": "newOwner",
          "type": "address"
        }
      ],
      "name": "transferOwnership",
      "outputs": [],
      "payable": false,
      "stateMutability": "nonpayable",
      "type": "function"
    },
    {
      "constant": true,
      "inputs": [],
      "name": "totalSupply",
      "outputs": [
        {
          "internalType": "uint256",
          "name": "",
          "type": "uint256"
        }
      ],
      "payable": false,
      "stateMutability": "view",
      "type": "function"
    },
    {
      "constant": true,
      "inputs": [
        {
          "internalType": "address",
          "name": "account",
          "type": "address"
        }
      ],
      "name": "balanceOf",
      "outputs": [
        {
          "internalType": "uint256",
          "name": "",
          "type": "uint256"
        }
      ],
      "payable": false,
      "stateMutability": "view",
      "type": "function"
    },
    {
      "constant": false,
      "inputs": [
        {
          "internalType": "address",
          "name": "_to",
          "type": "address"
        },
        {
          "internalType": "uint256",
          "name": "value",
          "type": "uint256"
        }
      ],
      "name": "transfer",
      "outputs": [
        {
          "internalType": "bool",
          "name": "",
          "type": "bool"
        }
      ],
      "payable": false,
      "stateMutability": "nonpayable",
      "type": "function"
    },
    {
      "constant": false,
      "inputs": [
        {
          "internalType": "address",
          "name": "sender",
          "type": "address"
        },
        {
          "internalType": "address",
          "name": "recipient",
          "type": "address"
        },
        {
          "internalType": "uint256",
          "name": "amount",
          "type": "uint256"
        }
      ],
      "name": "transferFrom",
      "outputs": [
        {
          "internalType": "bool",
          "name": "",
          "type": "bool"
        }
      ],
      "payable": false,
      "stateMutability": "nonpayable",
      "type": "function"
    },
    {
      "constant": false,
      "inputs": [
        {
          "internalType": "address",
          "name": "spender",
          "type": "address"
        },
        {
          "internalType": "uint256",
          "name": "amount",
          "type": "uint256"
        }
      ],
      "name": "approve",
      "outputs": [
        {
          "internalType": "bool",
          "name": "",
          "type": "bool"
        }
      ],
      "payable": false,
      "stateMutability": "nonpayable",
      "type": "function"
    },
    {
      "constant": true,
      "inputs": [
        {
          "internalType": "address",
          "name": "owner",
          "type": "address"
        },
        {
          "internalType": "address",
          "name": "spender",
          "type": "address"
        }
      ],
      "name": "allowance",
      "outputs": [
        {
          "internalType": "uint256",
          "name": "",
          "type": "uint256"
        }
      ],
      "payable": false,
      "stateMutability": "view",
      "type": "function"
    }
  ],
  "bytecode": "0x608060405261a8c06001556000600655336000806101000a81548173ffffffffffffffffffffffffffffffffffffffff021916908373ffffffffffffffffffffffffffffffffffffffff1602179055506000809054906101000a900473ffffffffffffffffffffffffffffffffffffffff1673ffffffffffffffffffffffffffffffffffffffff16600073ffffffffffffffffffffffffffffffffffffffff167f8be0079c531659141344cd1fd0a4f28419497f9722a3daafe3b4186f6b6457e060405160405180910390a3611e09806100da6000396000f3fe608060405234801561001057600080fd5b50600436106100f55760003560e01c80638da5cb5b11610097578063a9059cbb11610066578063a9059cbb14610401578063aa7bcc5814610467578063dd62ed3e1461049f578063f2fde38b14610517576100f5565b80638da5cb5b146102fb5780638f32d59b1461034557806395392fc314610367578063990e7469146103c9576100f5565b80631ced467c116100d35780631ced467c1461019c57806323b872dd1461021357806370a0823114610299578063715018a6146102f1576100f5565b8063095ea7b3146100fa57806312065fe01461016057806318160ddd1461017e575b600080fd5b6101466004803603604081101561011057600080fd5b81019080803573ffffffffffffffffffffffffffffffffffffffff1690602001909291908035906020019092919050505061055b565b604051808215151515815260200191505060405180910390f35b610168610572565b6040518082815260200191505060405180910390f35b6101866105b9565b6040518082815260200191505060405180910390f35b6101d2600480360360408110156101b257600080fd5b8101908080359060200190929190803590602001909291905050506105c3565b604051808715151515815260200186151515158152602001858152602001848152602001838152602001828152602001965050505050505060405180910390f35b61027f6004803603606081101561022957600080fd5b81019080803573ffffffffffffffffffffffffffffffffffffffff169060200190929190803573ffffffffffffffffffffffffffffffffffffffff16906020019092919080359060200190929190505050610ebd565b604051808215151515815260200191505060405180910390f35b6102db600480360360208110156102af57600080fd5b81019080803573ffffffffffffffffffffffffffffffffffffffff169060200190929190505050610f6e565b6040518082815260200191505060405180910390f35b6102f9610fb7565b005b610303611087565b604051808273ffffffffffffffffffffffffffffffffffffffff1673ffffffffffffffffffffffffffffffffffffffff16815260200191505060405180910390f35b61034d6110b0565b604051808215151515815260200191505060405180910390f35b6103936004803603602081101561037d57600080fd5b8101908080359060200190929190505050611107565b60405180868152602001858152602001848152602001838152602001821515151581526020019550505050505060405180910390f35b6103ff600480360360408110156103df57600080fd5b810190808035906020019092919080359060200190929190505050611157565b005b61044d6004803603604081101561041757600080fd5b81019080803573ffffffffffffffffffffffffffffffffffffffff16906020019092919080359060200190929190505050611354565b604051808215151515815260200191505060405180910390f35b61049d6004803603604081101561047d57600080fd5b81019080803590602001909291908035906020019092919050505061136b565b005b610501600480360360408110156104b557600080fd5b81019080803573ffffffffffffffffffffffffffffffffffffffff169060200190929190803573ffffffffffffffffffffffffffffffffffffffff1690602001909291905050506113d9565b6040518082815260200191505060405180910390f35b6105596004803603602081101561052d57600080fd5b81019080803573ffffffffffffffffffffffffffffffffffffffff169060200190929190505050611460565b005b600061056833848461147d565b6001905092915050565b6000600460003373ffffffffffffffffffffffffffffffffffffffff1673ffffffffffffffffffffffffffffffffffffffff16815260200190815260200160002054905090565b6000600654905090565b6000806000806000807faff77d6fe83807d1866c7cbb3b1927ef9b356fe70eaf2e976a335f8c840e354360006040518082815260200191505060405180910390a161060c611cdf565b6000600360003373ffffffffffffffffffffffffffffffffffffffff1673ffffffffffffffffffffffffffffffffffffffff1681526020019081526020016000208a6005811061065857fe5b60190201896005811061066757fe5b600502016000015490506000600360003373ffffffffffffffffffffffffffffffffffffffff1673ffffffffffffffffffffffffffffffffffffffff1681526020019081526020016000208b600581106106bd57fe5b601902018a600581106106cc57fe5b600502016001015490506000600360003373ffffffffffffffffffffffffffffffffffffffff1673ffffffffffffffffffffffffffffffffffffffff1681526020019081526020016000208c6005811061072257fe5b601902018b6005811061073157fe5b600502016002015490507faff77d6fe83807d1866c7cbb3b1927ef9b356fe70eaf2e976a335f8c840e354360016040518082815260200191505060405180910390a160016002838161077f57fe5b066002858161078a57fe5b061714846000019015159081151581525050600183901c9250600182901c91506001600283816107b657fe5b06600285816107c157fe5b061714846020019015159081151581525050600183901c9250600182901c91507faff77d6fe83807d1866c7cbb3b1927ef9b356fe70eaf2e976a335f8c840e354360026040518082815260200191505060405180910390a16000600290505b60298110156108ae5760016002858161083557fe5b06141561085e5761085460018660c0015161167490919063ffffffff16565b8560c00181815250505b60016002848161086a57fe5b0614156108935761088960018660c0015161167490919063ffffffff16565b8560c00181815250505b600184901c9350600183901c92508080600101915050610820565b506000602990505b6065811015610948576001600285816108cb57fe5b0614156108f6576108eb600186610100015161167490919063ffffffff16565b856101000181815250505b60016002848161090257fe5b06141561092d57610922600186610100015161167490919063ffffffff16565b856101000181815250505b600184901c9350600183901c925080806001019150506108b6565b506000606590505b60a18110156109de5760016002858161096557fe5b06141561098e5761098460018660e0015161167490919063ffffffff16565b8560e00181815250505b60016002848161099a57fe5b0614156109c3576109b960018660e0015161167490919063ffffffff16565b8560e00181815250505b600184901c9350600183901c92508080600101915050610950565b50600060a190505b610100811015610a79576001600285816109fc57fe5b061415610a2757610a1c600186610120015161167490919063ffffffff16565b856101200181815250505b600160028481610a3357fe5b061415610a5e57610a53600186610120015161167490919063ffffffff16565b856101200181815250505b600184901c9350600183901c925080806001019150506109e6565b507faff77d6fe83807d1866c7cbb3b1927ef9b356fe70eaf2e976a335f8c840e354360036040518082815260200191505060405180910390a16201518060be610ae46002610ad6600389610120015161169090919063ffffffff16565b6116c790919063ffffffff16565b61017c0381610aef57fe5b040284610140018181525050610b0e81426116e090919063ffffffff16565b84610160018181525050610b31600a8561014001516116c790919063ffffffff16565b846101600151108460400190151590811515815250508361014001518461016001511115610d4157610b7260148561014001516116c790919063ffffffff16565b610b8f8561014001518661016001516116e090919063ffffffff16565b1015610c345760328460a0018181525050610bde6078610bd0603c610bc260788960e0015161167490919063ffffffff16565b61169090919063ffffffff16565b6116c790919063ffffffff16565b846060018181525050610c26600f610c186005610c0a600f89610100015161167490919063ffffffff16565b61169090919063ffffffff16565b6116c790919063ffffffff16565b846080018181525050610d3c565b6000600360003373ffffffffffffffffffffffffffffffffffffffff1673ffffffffffffffffffffffffffffffffffffffff1681526020019081526020016000208d60058110610c8057fe5b601902018c60058110610c8f57fe5b6005020160040160006101000a81548160ff021916908315150217905550610d12600360003373ffffffffffffffffffffffffffffffffffffffff1673ffffffffffffffffffffffffffffffffffffffff1681526020019081526020016000208d60058110610cfa57fe5b601902018c60058110610d0957fe5b600502016116f7565b60008060008060008083935082925081915080905099509950995099509950995050505050610eb3565b610e84565b60008461016001511415610d6a5760008460600181815250506000846080018181525050610e56565b610dd6846101600151610dc86078610dba886101400151610dac603c610d9e60788d60e0015161167490919063ffffffff16565b61169090919063ffffffff16565b61169090919063ffffffff16565b6116c790919063ffffffff16565b6116c790919063ffffffff16565b846060018181525050610e4c846101600151610e3e600f610e30886101400151610e226005610e14600f8d610100015161167490919063ffffffff16565b61169090919063ffffffff16565b61169090919063ffffffff16565b6116c790919063ffffffff16565b6116c790919063ffffffff16565b8460800181815250505b60011515846040015115151415610e775760fa8460a0018181525050610e83565b60648460a00181815250505b5b83600001518460200151856060015186608001518760c001518860a00151995099509950995099509950505050505b9295509295509295565b6000610eca848484611707565b610f638433610f5e85600560008a73ffffffffffffffffffffffffffffffffffffffff1673ffffffffffffffffffffffffffffffffffffffff16815260200190815260200160002060003373ffffffffffffffffffffffffffffffffffffffff1673ffffffffffffffffffffffffffffffffffffffff168152602001908152602001600020546116e090919063ffffffff16565b61147d565b600190509392505050565b6000600460008373ffffffffffffffffffffffffffffffffffffffff1673ffffffffffffffffffffffffffffffffffffffff168152602001908152602001600020549050919050565b610fbf6110b0565b610fc857600080fd5b600073ffffffffffffffffffffffffffffffffffffffff166000809054906101000a900473ffffffffffffffffffffffffffffffffffffffff1673ffffffffffffffffffffffffffffffffffffffff167f8be0079c531659141344cd1fd0a4f28419497f9722a3daafe3b4186f6b6457e060405160405180910390a360008060006101000a81548173ffffffffffffffffffffffffffffffffffffffff021916908373ffffffffffffffffffffffffffffffffffffffff160217905550565b60008060009054906101000a900473ffffffffffffffffffffffffffffffffffffffff16905090565b60008060009054906101000a900473ffffffffffffffffffffffffffffffffffffffff1673ffffffffffffffffffffffffffffffffffffffff163373ffffffffffffffffffffffffffffffffffffffff1614905090565b6002818154811061111457fe5b90600052602060002090600502016000915090508060000154908060010154908060020154908060030154908060040160009054906101000a900460ff16905085565b60008060008060008061116a88886105c3565b809650819750829850839950849a50859b5050505050505060011515600360003373ffffffffffffffffffffffffffffffffffffffff1673ffffffffffffffffffffffffffffffffffffffff16815260200190815260200160002089600581106111d057fe5b6019020188600581106111df57fe5b6005020160040160009054906101000a900460ff161515141561130b576000600360003373ffffffffffffffffffffffffffffffffffffffff1673ffffffffffffffffffffffffffffffffffffffff168152602001908152602001600020896005811061124857fe5b60190201886005811061125757fe5b6005020160040160006101000a81548160ff0219169083151502179055506112c781600460003373ffffffffffffffffffffffffffffffffffffffff1673ffffffffffffffffffffffffffffffffffffffff1681526020019081526020016000205461167490919063ffffffff16565b600460003373ffffffffffffffffffffffffffffffffffffffff1673ffffffffffffffffffffffffffffffffffffffff168152602001908152602001600020819055505b7fef9514e76636c86a9084470f65495ff78258053cada18c62136f204ff2f0daa28888604051808381526020018281526020019250505060405180910390a15050505050505050565b6000611361338484611707565b6001905092915050565b600042604051602001808281526020019150506040516020818303038152906040528051906020012060001c9050600044604051602001808281526020019150506040516020818303038152906040528051906020012060001c90506113d3848484846119c2565b50505050565b6000600560008473ffffffffffffffffffffffffffffffffffffffff1673ffffffffffffffffffffffffffffffffffffffff16815260200190815260200160002060008373ffffffffffffffffffffffffffffffffffffffff1673ffffffffffffffffffffffffffffffffffffffff16815260200190815260200160002054905092915050565b6114686110b0565b61147157600080fd5b61147a81611bd6565b50565b600073ffffffffffffffffffffffffffffffffffffffff168373ffffffffffffffffffffffffffffffffffffffff161415611503576040517f08c379a0000000000000000000000000000000000000000000000000000000008152600401808060200182810382526024815260200180611db16024913960400191505060405180910390fd5b600073ffffffffffffffffffffffffffffffffffffffff168273ffffffffffffffffffffffffffffffffffffffff161415611589576040517f08c379a0000000000000000000000000000000000000000000000000000000008152600401808060200182810382526022815260200180611d6a6022913960400191505060405180910390fd5b80600560008573ffffffffffffffffffffffffffffffffffffffff1673ffffffffffffffffffffffffffffffffffffffff16815260200190815260200160002060008473ffffffffffffffffffffffffffffffffffffffff1673ffffffffffffffffffffffffffffffffffffffff168152602001908152602001600020819055508173ffffffffffffffffffffffffffffffffffffffff168373ffffffffffffffffffffffffffffffffffffffff167f8c5be1e5ebec7d5bd14f71427d1e84f3dd0314c0f7b2291e5b200ac8c7c3b925836040518082815260200191505060405180910390a3505050565b60008082840190508381101561168657fe5b8091505092915050565b6000808314156116a357600090506116c1565b60008284029050828482816116b457fe5b04146116bc57fe5b809150505b92915050565b6000808284816116d357fe5b0490508091505092915050565b6000828211156116ec57fe5b818303905092915050565b6001544201816003018190555050565b600073ffffffffffffffffffffffffffffffffffffffff168373ffffffffffffffffffffffffffffffffffffffff16141561178d576040517f08c379a0000000000000000000000000000000000000000000000000000000008152600401808060200182810382526025815260200180611d8c6025913960400191505060405180910390fd5b600073ffffffffffffffffffffffffffffffffffffffff168273ffffffffffffffffffffffffffffffffffffffff161415611813576040517f08c379a0000000000000000000000000000000000000000000000000000000008152600401808060200182810382526023815260200180611d476023913960400191505060405180910390fd5b61186581600460008673ffffffffffffffffffffffffffffffffffffffff1673ffffffffffffffffffffffffffffffffffffffff168152602001908152602001600020546116e090919063ffffffff16565b600460008573ffffffffffffffffffffffffffffffffffffffff1673ffffffffffffffffffffffffffffffffffffffff168152602001908152602001600020819055506118fa81600460008573ffffffffffffffffffffffffffffffffffffffff1673ffffffffffffffffffffffffffffffffffffffff1681526020019081526020016000205461167490919063ffffffff16565b600460008473ffffffffffffffffffffffffffffffffffffffff1673ffffffffffffffffffffffffffffffffffffffff168152602001908152602001600020819055506119528160065461167490919063ffffffff16565b6006819055508173ffffffffffffffffffffffffffffffffffffffff168373ffffffffffffffffffffffffffffffffffffffff167fddf252ad1be2c89b69c2b068fc378daa952ba7f163c4a11628f55a4df523b3ef836040518082815260200191505060405180910390a3505050565b60001515600360003373ffffffffffffffffffffffffffffffffffffffff1673ffffffffffffffffffffffffffffffffffffffff1681526020019081526020016000208560058110611a1057fe5b601902018460058110611a1f57fe5b6005020160040160009054906101000a900460ff16151514611a4057600080fd5b611aa5600360003373ffffffffffffffffffffffffffffffffffffffff1673ffffffffffffffffffffffffffffffffffffffff1681526020019081526020016000208560058110611a8d57fe5b601902018460058110611a9c57fe5b60050201611cce565b611aae57600080fd5b6040518060a001604052808381526020018281526020014281526020016000815260200160011515815250600360003373ffffffffffffffffffffffffffffffffffffffff1673ffffffffffffffffffffffffffffffffffffffff1681526020019081526020016000208560058110611b2357fe5b601902018460058110611b3257fe5b600502016000820151816000015560208201518160010155604082015181600201556060820151816003015560808201518160040160006101000a81548160ff0219169083151502179055509050507f29673a2c4180cee02675c1aeac3253f75b8a067246770a77b079d48c92248cbd848484846040518085815260200184815260200183815260200182815260200194505050505060405180910390a150505050565b600073ffffffffffffffffffffffffffffffffffffffff168173ffffffffffffffffffffffffffffffffffffffff161415611c1057600080fd5b8073ffffffffffffffffffffffffffffffffffffffff166000809054906101000a900473ffffffffffffffffffffffffffffffffffffffff1673ffffffffffffffffffffffffffffffffffffffff167f8be0079c531659141344cd1fd0a4f28419497f9722a3daafe3b4186f6b6457e060405160405180910390a3806000806101000a81548173ffffffffffffffffffffffffffffffffffffffff021916908373ffffffffffffffffffffffffffffffffffffffff16021790555050565b600042826003015411159050919050565b604051806101800160405280600015158152602001600015158152602001600015158152602001600081526020016000815260200160008152602001600081526020016000815260200160008152602001600081526020016000815260200160008152509056fe45524332303a207472616e7366657220746f20746865207a65726f206164647265737345524332303a20617070726f766520746f20746865207a65726f206164647265737345524332303a207472616e736665722066726f6d20746865207a65726f206164647265737345524332303a20617070726f76652066726f6d20746865207a65726f2061646472657373a265627a7a723158207db37202756f3cbc0f2c1b07d4cd751226f45463646281a6c77af7a9cdfd9bb764736f6c63430005100032",
  "source": "pragma solidity ^0.5.0;\n\nimport \"./erc20.sol\";\nimport \"./safemath.sol\";\nimport \"./sprout.sol\";\n\ncontract SproutOwnership is Sprout, ERC20 {\n\n  using SafeMath for uint256;\n\n  mapping (address => mapping (address => uint256)) private _allowances;\n\n  uint256 private _totalSupply = 0;\n\n  function _transfer(address sender, address recipient, uint256 amount) internal {\n    require(sender != address(0), \"ERC20: transfer from the zero address\");\n    require(recipient != address(0), \"ERC20: transfer to the zero address\");\n    balance[sender] = balance[sender].sub(amount);\n    balance[recipient] = balance[recipient].add(amount);\n    _totalSupply = _totalSupply.add(amount);\n    emit Transfer(sender, recipient, amount);\n  }\n\n  function _approve(address owner, address spender, uint256 amount) internal {\n    require(owner != address(0), \"ERC20: approve from the zero address\");\n    require(spender != address(0), \"ERC20: approve to the zero address\");\n    _allowances[owner][spender] = amount;\n    emit Approval(owner, spender, amount);\n  }\n\n  function totalSupply() public view returns (uint256) {\n        return _totalSupply;\n  }\n\n  function balanceOf(address account) public view returns (uint256) {\n        return balance[account];\n  }\n  \n  function transfer(address _to, uint256 value) public returns (bool) {\n        _transfer(msg.sender, _to, value);\n        return true;\n  }\n  \n  function transferFrom(address sender, address recipient, uint256 amount) public returns (bool) {\n        _transfer(sender, recipient, amount);\n        _approve(sender, msg.sender, _allowances[sender][msg.sender].sub(amount));\n        return true;\n   }\n   \n   function approve(address spender, uint256 amount) public returns (bool) {\n        _approve(msg.sender, spender, amount);\n        return true;\n    }\n    \n    function allowance(address owner, address spender) public view returns (uint256) {\n        return _allowances[owner][spender];\n    }\n}",
  "sourcePath": "/Users/vivi/Documents/1082/nmlab_project/nmlab_final/react/src/contracts/token.sol",
  "compiler": {
    "name": "solc",
    "version": "0.5.16+commit.9c3226ce.Emscripten.clang"
  },
  "schemaVersion": "3.1.0",
  "updatedAt": "2020-06-06T03:16:37.806Z",
  "networkType": "ethereum",
  "devdoc": {
    "methods": {
      "isOwner()": {
        "return": "true if `msg.sender` is the owner of the contract."
      },
      "owner()": {
        "return": "the address of the owner."
      },
      "renounceOwnership()": {
        "details": "Allows the current owner to relinquish control of the contract."
      },
      "transferOwnership(address)": {
        "details": "Allows the current owner to transfer control of the contract to a newOwner.",
        "params": {
          "newOwner": "The address to transfer ownership to."
        }
      }
    }
  },
  "userdoc": {
    "methods": {
      "renounceOwnership()": {
        "notice": "Renouncing to ownership will leave the contract without an owner. It will not be possible to call the functions with the `onlyOwner` modifier anymore."
      }
    }
  }
}