{
  "contractName": "OwnerItem",
  "abi": [
    {
      "anonymous": false,
      "inputs": [
        {
          "indexed": true,
          "internalType": "address",
          "name": "_owner",
          "type": "address"
        },
        {
          "indexed": true,
          "internalType": "address",
          "name": "_spender",
          "type": "address"
        },
        {
          "indexed": false,
          "internalType": "uint256",
          "name": "_value",
          "type": "uint256"
        }
      ],
      "name": "Approval",
      "type": "event"
    },
    {
      "anonymous": false,
      "inputs": [
        {
          "indexed": false,
          "internalType": "uint256",
          "name": "x_id",
          "type": "uint256"
        },
        {
          "indexed": false,
          "internalType": "uint256",
          "name": "y_id",
          "type": "uint256"
        },
        {
          "indexed": false,
          "internalType": "uint256",
          "name": "dna1",
          "type": "uint256"
        },
        {
          "indexed": false,
          "internalType": "uint256",
          "name": "dna2",
          "type": "uint256"
        }
      ],
      "name": "OnAdd",
      "type": "event"
    },
    {
      "anonymous": false,
      "inputs": [
        {
          "indexed": false,
          "internalType": "uint256",
          "name": "Id",
          "type": "uint256"
        }
      ],
      "name": "OnItemAdded",
      "type": "event"
    },
    {
      "anonymous": false,
      "inputs": [
        {
          "indexed": false,
          "internalType": "uint256",
          "name": "Id",
          "type": "uint256"
        }
      ],
      "name": "OnItemDeleted",
      "type": "event"
    },
    {
      "anonymous": false,
      "inputs": [
        {
          "indexed": false,
          "internalType": "uint256",
          "name": "x_id",
          "type": "uint256"
        },
        {
          "indexed": false,
          "internalType": "uint256",
          "name": "y_id",
          "type": "uint256"
        }
      ],
      "name": "OnPlug",
      "type": "event"
    },
    {
      "anonymous": false,
      "inputs": [
        {
          "indexed": false,
          "internalType": "address",
          "name": "account",
          "type": "address"
        }
      ],
      "name": "OnRegister",
      "type": "event"
    },
    {
      "anonymous": false,
      "inputs": [
        {
          "indexed": true,
          "internalType": "address",
          "name": "previousOwner",
          "type": "address"
        },
        {
          "indexed": true,
          "internalType": "address",
          "name": "newOwner",
          "type": "address"
        }
      ],
      "name": "OwnershipTransferred",
      "type": "event"
    },
    {
      "anonymous": false,
      "inputs": [
        {
          "indexed": true,
          "internalType": "address",
          "name": "_from",
          "type": "address"
        },
        {
          "indexed": true,
          "internalType": "address",
          "name": "_to",
          "type": "address"
        },
        {
          "indexed": false,
          "internalType": "uint256",
          "name": "_value",
          "type": "uint256"
        }
      ],
      "name": "Transfer",
      "type": "event"
    },
    {
      "anonymous": false,
      "inputs": [
        {
          "indexed": false,
          "internalType": "uint256",
          "name": "s",
          "type": "uint256"
        }
      ],
      "name": "debugStage",
      "type": "event"
    },
    {
      "constant": true,
      "inputs": [
        {
          "internalType": "address",
          "name": "owner",
          "type": "address"
        },
        {
          "internalType": "address",
          "name": "spender",
          "type": "address"
        }
      ],
      "name": "allowance",
      "outputs": [
        {
          "internalType": "uint256",
          "name": "",
          "type": "uint256"
        }
      ],
      "payable": false,
      "stateMutability": "view",
      "type": "function"
    },
    {
      "constant": false,
      "inputs": [
        {
          "internalType": "address",
          "name": "spender",
          "type": "address"
        },
        {
          "internalType": "uint256",
          "name": "amount",
          "type": "uint256"
        }
      ],
      "name": "approve",
      "outputs": [
        {
          "internalType": "bool",
          "name": "",
          "type": "bool"
        }
      ],
      "payable": false,
      "stateMutability": "nonpayable",
      "type": "function"
    },
    {
      "constant": true,
      "inputs": [
        {
          "internalType": "address",
          "name": "account",
          "type": "address"
        }
      ],
      "name": "balanceOf",
      "outputs": [
        {
          "internalType": "uint256",
          "name": "",
          "type": "uint256"
        }
      ],
      "payable": false,
      "stateMutability": "view",
      "type": "function"
    },
    {
      "constant": true,
      "inputs": [
        {
          "internalType": "uint256",
          "name": "x_id",
          "type": "uint256"
        },
        {
          "internalType": "uint256",
          "name": "y_id",
          "type": "uint256"
        }
      ],
      "name": "getColor",
      "outputs": [
        {
          "internalType": "uint256",
          "name": "",
          "type": "uint256"
        }
      ],
      "payable": false,
      "stateMutability": "view",
      "type": "function"
    },
    {
      "constant": true,
      "inputs": [
        {
          "internalType": "uint256",
          "name": "x_id",
          "type": "uint256"
        },
        {
          "internalType": "uint256",
          "name": "y_id",
          "type": "uint256"
        }
      ],
      "name": "getProduceGene",
      "outputs": [
        {
          "internalType": "uint256",
          "name": "",
          "type": "uint256"
        }
      ],
      "payable": false,
      "stateMutability": "view",
      "type": "function"
    },
    {
      "constant": true,
      "inputs": [
        {
          "internalType": "uint256",
          "name": "x_id",
          "type": "uint256"
        },
        {
          "internalType": "uint256",
          "name": "y_id",
          "type": "uint256"
        }
      ],
      "name": "getSeedRound",
      "outputs": [
        {
          "internalType": "bool",
          "name": "",
          "type": "bool"
        }
      ],
      "payable": false,
      "stateMutability": "view",
      "type": "function"
    },
    {
      "constant": true,
      "inputs": [
        {
          "internalType": "uint256",
          "name": "x_id",
          "type": "uint256"
        },
        {
          "internalType": "uint256",
          "name": "y_id",
          "type": "uint256"
        }
      ],
      "name": "getSeedYellow",
      "outputs": [
        {
          "internalType": "bool",
          "name": "",
          "type": "bool"
        }
      ],
      "payable": false,
      "stateMutability": "view",
      "type": "function"
    },
    {
      "constant": true,
      "inputs": [
        {
          "internalType": "uint256",
          "name": "x_id",
          "type": "uint256"
        },
        {
          "internalType": "uint256",
          "name": "y_id",
          "type": "uint256"
        }
      ],
      "name": "getSproutHeight",
      "outputs": [
        {
          "internalType": "uint256",
          "name": "",
          "type": "uint256"
        }
      ],
      "payable": false,
      "stateMutability": "view",
      "type": "function"
    },
    {
      "constant": true,
      "inputs": [
        {
          "internalType": "uint256",
          "name": "x_id",
          "type": "uint256"
        },
        {
          "internalType": "uint256",
          "name": "y_id",
          "type": "uint256"
        }
      ],
      "name": "getSproutWidth",
      "outputs": [
        {
          "internalType": "uint256",
          "name": "",
          "type": "uint256"
        }
      ],
      "payable": false,
      "stateMutability": "view",
      "type": "function"
    },
    {
      "constant": true,
      "inputs": [],
      "name": "isOwner",
      "outputs": [
        {
          "internalType": "bool",
          "name": "",
          "type": "bool"
        }
      ],
      "payable": false,
      "stateMutability": "view",
      "type": "function"
    },
    {
      "constant": true,
      "inputs": [],
      "name": "owner",
      "outputs": [
        {
          "internalType": "address",
          "name": "",
          "type": "address"
        }
      ],
      "payable": false,
      "stateMutability": "view",
      "type": "function"
    },
    {
      "constant": false,
      "inputs": [
        {
          "internalType": "uint256",
          "name": "x_id",
          "type": "uint256"
        },
        {
          "internalType": "uint256",
          "name": "y_id",
          "type": "uint256"
        }
      ],
      "name": "plugSprout",
      "outputs": [],
      "payable": false,
      "stateMutability": "nonpayable",
      "type": "function"
    },
    {
      "constant": false,
      "inputs": [
        {
          "internalType": "uint256",
          "name": "x_id",
          "type": "uint256"
        },
        {
          "internalType": "uint256",
          "name": "y_id",
          "type": "uint256"
        }
      ],
      "name": "randomAddSprout",
      "outputs": [],
      "payable": false,
      "stateMutability": "nonpayable",
      "type": "function"
    },
    {
      "constant": false,
      "inputs": [],
      "name": "renounceOwnership",
      "outputs": [],
      "payable": false,
      "stateMutability": "nonpayable",
      "type": "function"
    },
    {
      "constant": true,
      "inputs": [],
      "name": "totalSupply",
      "outputs": [
        {
          "internalType": "uint256",
          "name": "",
          "type": "uint256"
        }
      ],
      "payable": false,
      "stateMutability": "view",
      "type": "function"
    },
    {
      "constant": false,
      "inputs": [
        {
          "internalType": "address",
          "name": "_to",
          "type": "address"
        },
        {
          "internalType": "uint256",
          "name": "value",
          "type": "uint256"
        }
      ],
      "name": "transfer",
      "outputs": [
        {
          "internalType": "bool",
          "name": "",
          "type": "bool"
        }
      ],
      "payable": false,
      "stateMutability": "nonpayable",
      "type": "function"
    },
    {
      "constant": false,
      "inputs": [
        {
          "internalType": "address",
          "name": "sender",
          "type": "address"
        },
        {
          "internalType": "address",
          "name": "recipient",
          "type": "address"
        },
        {
          "internalType": "uint256",
          "name": "amount",
          "type": "uint256"
        }
      ],
      "name": "transferFrom",
      "outputs": [
        {
          "internalType": "bool",
          "name": "",
          "type": "bool"
        }
      ],
      "payable": false,
      "stateMutability": "nonpayable",
      "type": "function"
    },
    {
      "constant": false,
      "inputs": [
        {
          "internalType": "address",
          "name": "newOwner",
          "type": "address"
        }
      ],
      "name": "transferOwnership",
      "outputs": [],
      "payable": false,
      "stateMutability": "nonpayable",
      "type": "function"
    },
    {
      "constant": false,
      "inputs": [
        {
          "internalType": "address",
          "name": "new_player",
          "type": "address"
        }
      ],
      "name": "Register",
      "outputs": [],
      "payable": false,
      "stateMutability": "nonpayable",
      "type": "function"
    },
    {
      "constant": false,
      "inputs": [
        {
          "internalType": "uint256",
          "name": "x_id",
          "type": "uint256"
        },
        {
          "internalType": "uint256",
          "name": "y_id",
          "type": "uint256"
        }
      ],
      "name": "PlugPollen",
      "outputs": [],
      "payable": false,
      "stateMutability": "nonpayable",
      "type": "function"
    },
    {
      "constant": false,
      "inputs": [
        {
          "internalType": "uint256",
          "name": "x_id",
          "type": "uint256"
        },
        {
          "internalType": "uint256",
          "name": "y_id",
          "type": "uint256"
        },
        {
          "internalType": "uint256",
          "name": "_Id",
          "type": "uint256"
        }
      ],
      "name": "UsePollenItem",
      "outputs": [],
      "payable": false,
      "stateMutability": "nonpayable",
      "type": "function"
    },
    {
      "constant": false,
      "inputs": [
        {
          "internalType": "uint256",
          "name": "x_id",
          "type": "uint256"
        },
        {
          "internalType": "uint256",
          "name": "y_id",
          "type": "uint256"
        }
      ],
      "name": "PlugSeed",
      "outputs": [],
      "payable": false,
      "stateMutability": "nonpayable",
      "type": "function"
    },
    {
      "constant": false,
      "inputs": [
        {
          "internalType": "uint256",
          "name": "x_id",
          "type": "uint256"
        },
        {
          "internalType": "uint256",
          "name": "y_id",
          "type": "uint256"
        },
        {
          "internalType": "uint256",
          "name": "_Id",
          "type": "uint256"
        }
      ],
      "name": "UseSeedItem",
      "outputs": [],
      "payable": false,
      "stateMutability": "nonpayable",
      "type": "function"
    },
    {
      "constant": true,
      "inputs": [
        {
          "internalType": "uint256",
          "name": "_Id",
          "type": "uint256"
        }
      ],
      "name": "isItemValid",
      "outputs": [
        {
          "internalType": "bool",
          "name": "isValid",
          "type": "bool"
        }
      ],
      "payable": false,
      "stateMutability": "view",
      "type": "function"
    },
    {
      "constant": true,
      "inputs": [
        {
          "internalType": "uint256",
          "name": "_Id",
          "type": "uint256"
        }
      ],
      "name": "getItemNum",
      "outputs": [
        {
          "internalType": "uint256",
          "name": "",
          "type": "uint256"
        }
      ],
      "payable": false,
      "stateMutability": "view",
      "type": "function"
    },
    {
      "constant": true,
      "inputs": [
        {
          "internalType": "uint256",
          "name": "_Id",
          "type": "uint256"
        }
      ],
      "name": "getItem",
      "outputs": [
        {
          "internalType": "string",
          "name": "",
          "type": "string"
        },
        {
          "internalType": "uint256",
          "name": "",
          "type": "uint256"
        }
      ],
      "payable": false,
      "stateMutability": "view",
      "type": "function"
    },
    {
      "constant": true,
      "inputs": [],
      "name": "getItemList",
      "outputs": [
        {
          "internalType": "uint256[]",
          "name": "",
          "type": "uint256[]"
        },
        {
          "internalType": "uint256[]",
          "name": "",
          "type": "uint256[]"
        }
      ],
      "payable": false,
      "stateMutability": "view",
      "type": "function"
    }
  ],
  "bytecode": "0x608060405261a8c06001556000600555336000806101000a81548173ffffffffffffffffffffffffffffffffffffffff021916908373ffffffffffffffffffffffffffffffffffffffff1602179055506000809054906101000a900473ffffffffffffffffffffffffffffffffffffffff1673ffffffffffffffffffffffffffffffffffffffff16600073ffffffffffffffffffffffffffffffffffffffff167f8be0079c531659141344cd1fd0a4f28419497f9722a3daafe3b4186f6b6457e060405160405180910390a3615716806100da6000396000f3fe608060405234801561001057600080fd5b50600436106101a95760003560e01c8063816bfee6116100f9578063a9059cbb11610097578063dd62ed3e11610071578063dd62ed3e146108b1578063eded5d9e14610929578063eeda149c14610975578063f2fde38b146109b9576101a9565b8063a9059cbb146107d1578063aa7bcc5814610837578063dbe938321461086f576101a9565b80638f32d59b116100d35780638f32d59b146106e95780638fc640c11461070b57806393fccbb61461074d578063990e746914610799576101a9565b8063816bfee61461061b5780638da5cb5b146106675780638e96b4f7146106b1576101a9565b8063435184471161016657806370a082311161014057806370a082311461052b578063715018a614610583578063740200331461058d5780637729166d146105d9576101a9565b8063435184471461045357806356507c7a146104a357806359ca683c146104db576101a9565b8063063b2e5b146101ae578063095ea7b31461025557806318160ddd146102bb57806323b872dd146102d95780632639769f1461035f5780633129e773146103a5575b600080fd5b6101b66109fd565b604051808060200180602001838103835285818151815260200191508051906020019060200280838360005b838110156101fd5780820151818401526020810190506101e2565b50505050905001838103825284818151815260200191508051906020019060200280838360005b8381101561023f578082015181840152602081019050610224565b5050505090500194505050505060405180910390f35b6102a16004803603604081101561026b57600080fd5b81019080803573ffffffffffffffffffffffffffffffffffffffff16906020019092919080359060200190929190505050610b4c565b604051808215151515815260200191505060405180910390f35b6102c3610b63565b6040518082815260200191505060405180910390f35b610345600480360360608110156102ef57600080fd5b81019080803573ffffffffffffffffffffffffffffffffffffffff169060200190929190803573ffffffffffffffffffffffffffffffffffffffff16906020019092919080359060200190929190505050610b6d565b604051808215151515815260200191505060405180910390f35b61038b6004803603602081101561037557600080fd5b8101908080359060200190929190505050610c1e565b604051808215151515815260200191505060405180910390f35b6103d1600480360360208110156103bb57600080fd5b8101908080359060200190929190505050610c90565b6040518080602001838152602001828103825284818151815260200191508051906020019080838360005b838110156104175780820151818401526020810190506103fc565b50505050905090810190601f1680156104445780820380516001836020036101000a031916815260200191505b50935050505060405180910390f35b6104896004803603604081101561046957600080fd5b810190808035906020019092919080359060200190929190505050610e6d565b604051808215151515815260200191505060405180910390f35b6104d9600480360360408110156104b957600080fd5b810190808035906020019092919080359060200190929190505050610fcc565b005b610511600480360360408110156104f157600080fd5b8101908080359060200190929190803590602001909291905050506115d8565b604051808215151515815260200191505060405180910390f35b61056d6004803603602081101561054157600080fd5b81019080803573ffffffffffffffffffffffffffffffffffffffff169060200190929190505050611737565b6040518082815260200191505060405180910390f35b61058b611780565b005b6105c3600480360360408110156105a357600080fd5b810190808035906020019092919080359060200190929190505050611850565b6040518082815260200191505060405180910390f35b610619600480360360608110156105ef57600080fd5b81019080803590602001909291908035906020019092919080359060200190929190505050611a76565b005b6106516004803603604081101561063157600080fd5b81019080803590602001909291908035906020019092919050505061202f565b6040518082815260200191505060405180910390f35b61066f612181565b604051808273ffffffffffffffffffffffffffffffffffffffff1673ffffffffffffffffffffffffffffffffffffffff16815260200191505060405180910390f35b6106e7600480360360408110156106c757600080fd5b8101908080359060200190929190803590602001909291905050506121aa565b005b6106f1612b31565b604051808215151515815260200191505060405180910390f35b61074b6004803603606081101561072157600080fd5b81019080803590602001909291908035906020019092919080359060200190929190505050612b88565b005b6107836004803603604081101561076357600080fd5b810190808035906020019092919080359060200190929190505050613437565b6040518082815260200191505060405180910390f35b6107cf600480360360408110156107af57600080fd5b81019080803590602001909291908035906020019092919050505061365d565b005b61081d600480360360408110156107e757600080fd5b81019080803573ffffffffffffffffffffffffffffffffffffffff1690602001909291908035906020019092919050505061396e565b604051808215151515815260200191505060405180910390f35b61086d6004803603604081101561084d57600080fd5b810190808035906020019092919080359060200190929190505050613985565b005b61089b6004803603602081101561088557600080fd5b8101908080359060200190929190505050613b32565b6040518082815260200191505060405180910390f35b610913600480360360408110156108c757600080fd5b81019080803573ffffffffffffffffffffffffffffffffffffffff169060200190929190803573ffffffffffffffffffffffffffffffffffffffff169060200190929190505050613c14565b6040518082815260200191505060405180910390f35b61095f6004803603604081101561093f57600080fd5b810190808035906020019092919080359060200190929190505050613c9b565b6040518082815260200191505060405180910390f35b6109b76004803603602081101561098b57600080fd5b81019080803573ffffffffffffffffffffffffffffffffffffffff169060200190929190505050613ded565b005b6109fb600480360360208110156109cf57600080fd5b81019080803573ffffffffffffffffffffffffffffffffffffffff169060200190929190505050613eaa565b005b60608060006060610a0c613ec7565b8093508192505050606082604051908082528060200260200182016040528015610a455781602001602082028038833980820191505090505b509050606083604051908082528060200260200182016040528015610a795781602001602082028038833980820191505090505b50905060008090505b84811015610b3d576000848281518110610a9857fe5b6020026020010151905080848381518110610aaf57fe5b602002602001018181525050600660003373ffffffffffffffffffffffffffffffffffffffff1673ffffffffffffffffffffffffffffffffffffffff1681526020019081526020016000208181548110610b0557fe5b906000526020600020906004020160010154838381518110610b2357fe5b602002602001018181525050508080600101915050610a82565b50818195509550505050509091565b6000610b59338484613fe0565b6001905092915050565b6000600554905090565b6000610b7a8484846141d7565b610c138433610c0e85600460008a73ffffffffffffffffffffffffffffffffffffffff1673ffffffffffffffffffffffffffffffffffffffff16815260200190815260200160002060003373ffffffffffffffffffffffffffffffffffffffff1673ffffffffffffffffffffffffffffffffffffffff1681526020019081526020016000205461449290919063ffffffff16565b613fe0565b600190509392505050565b6000600660003373ffffffffffffffffffffffffffffffffffffffff1673ffffffffffffffffffffffffffffffffffffffff1681526020019081526020016000208281548110610c6a57fe5b906000526020600020906004020160030160009054906101000a900460ff169050919050565b6060600082610c9e81610c1e565b610d10576040517f08c379a000000000000000000000000000000000000000000000000000000000815260040180806020018281038252601a8152602001807f6974656d206d7573742062652076616c696420746f2063616c6c00000000000081525060200191505060405180910390fd5b600660003373ffffffffffffffffffffffffffffffffffffffff1673ffffffffffffffffffffffffffffffffffffffff1681526020019081526020016000208481548110610d5a57fe5b9060005260206000209060040201600001600660003373ffffffffffffffffffffffffffffffffffffffff1673ffffffffffffffffffffffffffffffffffffffff1681526020019081526020016000208581548110610db557fe5b906000526020600020906004020160010154818054600181600116156101000203166002900480601f016020809104026020016040519081016040528092919081815260200182805460018160011615610100020316600290048015610e5c5780601f10610e3157610100808354040283529160200191610e5c565b820191906000526020600020905b815481529060010190602001808311610e3f57829003601f168201915b505050505091509250925050915091565b60008282600260003373ffffffffffffffffffffffffffffffffffffffff1673ffffffffffffffffffffffffffffffffffffffff1681526020019081526020016000208260058110610ebb57fe5b603c02018160058110610eca57fe5b600c020160050160009054906101000a900460ff16610f51576040517f08c379a000000000000000000000000000000000000000000000000000000000815260040180806020018281038252601d8152602001807f6c6f636174696f6e20646f6573206e6f742068617665207370726f757400000081525060200191505060405180910390fd5b600260003373ffffffffffffffffffffffffffffffffffffffff1673ffffffffffffffffffffffffffffffffffffffff1681526020019081526020016000208560058110610f9b57fe5b603c02018460058110610faa57fe5b600c020160060160050160019054906101000a900460ff169250505092915050565b8181600260003373ffffffffffffffffffffffffffffffffffffffff1673ffffffffffffffffffffffffffffffffffffffff168152602001908152602001600020826005811061101857fe5b603c0201816005811061102757fe5b600c020160050160009054906101000a900460ff166110ae576040517f08c379a000000000000000000000000000000000000000000000000000000000815260040180806020018281038252601d8152602001807f6c6f636174696f6e20646f6573206e6f742068617665207370726f757400000081525060200191505060405180910390fd5b838360006110ce6110bf84846144a9565b4261449290919063ffffffff16565b905060006110dc8484614514565b9050808211611153576040517f08c379a00000000000000000000000000000000000000000000000000000000081526004018080602001828103825260188152602001807f746f6f206561726c7920746f206861766520706f6c6c656e000000000000000081525060200191505060405180910390fd5b61117a606461116c60668461458290919063ffffffff16565b6145b990919063ffffffff16565b82106111ee576040517f08c379a00000000000000000000000000000000000000000000000000000000081526004018080602001828103825260178152602001807f746f6f206c61746520746f206861766520706f6c6c656e00000000000000000081525060200191505060405180910390fd5b600260003373ffffffffffffffffffffffffffffffffffffffff1673ffffffffffffffffffffffffffffffffffffffff168152602001908152602001600020846005811061123857fe5b603c0201836005811061124757fe5b600c020160050160029054906101000a900460ff16156112cf576040517f08c379a000000000000000000000000000000000000000000000000000000000815260040180806020018281038252601f8152602001807f74686520706f6c6c656e2061726520616c726561647920706c75676765642e0081525060200191505060405180910390fd5b6001600260003373ffffffffffffffffffffffffffffffffffffffff1673ffffffffffffffffffffffffffffffffffffffff168152602001908152602001600020896005811061131b57fe5b603c0201886005811061132a57fe5b600c020160050160026101000a81548160ff0219169083151502179055506113b96040518060400160405280600681526020017f706f6c6c656e0000000000000000000000000000000000000000000000000000815250600a60006040519080825280602002602001820160405280156113b35781602001602082028038833980820191505090505b506145d2565b60006001600660003373ffffffffffffffffffffffffffffffffffffffff1673ffffffffffffffffffffffffffffffffffffffff16815260200190815260200160002080549050039050600660003373ffffffffffffffffffffffffffffffffffffffff1673ffffffffffffffffffffffffffffffffffffffff168152602001908152602001600020818154811061144d57fe5b9060005260206000209060040201600201600260003373ffffffffffffffffffffffffffffffffffffffff1673ffffffffffffffffffffffffffffffffffffffff1681526020019081526020016000208a600581106114a857fe5b603c020189600581106114b757fe5b600c0201600001549080600181540180825580915050906001820390600052602060002001600090919290919091505550600660003373ffffffffffffffffffffffffffffffffffffffff1673ffffffffffffffffffffffffffffffffffffffff168152602001908152602001600020818154811061153257fe5b9060005260206000209060040201600201600260003373ffffffffffffffffffffffffffffffffffffffff1673ffffffffffffffffffffffffffffffffffffffff1681526020019081526020016000208a6005811061158d57fe5b603c0201896005811061159c57fe5b600c0201600101549080600181540180825580915050906001820390600052602060002001600090919290919091505550505050505050505050565b60008282600260003373ffffffffffffffffffffffffffffffffffffffff1673ffffffffffffffffffffffffffffffffffffffff168152602001908152602001600020826005811061162657fe5b603c0201816005811061163557fe5b600c020160050160009054906101000a900460ff166116bc576040517f08c379a000000000000000000000000000000000000000000000000000000000815260040180806020018281038252601d8152602001807f6c6f636174696f6e20646f6573206e6f742068617665207370726f757400000081525060200191505060405180910390fd5b600260003373ffffffffffffffffffffffffffffffffffffffff1673ffffffffffffffffffffffffffffffffffffffff168152602001908152602001600020856005811061170657fe5b603c0201846005811061171557fe5b600c020160060160050160019054906101000a900460ff169250505092915050565b6000600360008373ffffffffffffffffffffffffffffffffffffffff1673ffffffffffffffffffffffffffffffffffffffff168152602001908152602001600020549050919050565b611788612b31565b61179157600080fd5b600073ffffffffffffffffffffffffffffffffffffffff166000809054906101000a900473ffffffffffffffffffffffffffffffffffffffff1673ffffffffffffffffffffffffffffffffffffffff167f8be0079c531659141344cd1fd0a4f28419497f9722a3daafe3b4186f6b6457e060405160405180910390a360008060006101000a81548173ffffffffffffffffffffffffffffffffffffffff021916908373ffffffffffffffffffffffffffffffffffffffff160217905550565b60008282600260003373ffffffffffffffffffffffffffffffffffffffff1673ffffffffffffffffffffffffffffffffffffffff168152602001908152602001600020826005811061189e57fe5b603c020181600581106118ad57fe5b600c020160050160009054906101000a900460ff16611934576040517f08c379a000000000000000000000000000000000000000000000000000000000815260040180806020018281038252601d8152602001807f6c6f636174696f6e20646f6573206e6f742068617665207370726f757400000081525060200191505060405180910390fd5b600061195261194387876144a9565b4261449290919063ffffffff16565b905060006119608787614514565b9050600061196e8888614716565b9050818311156119f55761198c6014836145b990919063ffffffff16565b61199f838561449290919063ffffffff16565b10156119e9576119df60786119d1603c6119c360788661478490919063ffffffff16565b61458290919063ffffffff16565b6145b990919063ffffffff16565b9550505050611a6e565b60009550505050611a6e565b6000831415611a0a5760009550505050611a6e565b611a6883611a5a6078611a4c86611a3e603c611a3060788a61478490919063ffffffff16565b61458290919063ffffffff16565b61458290919063ffffffff16565b6145b990919063ffffffff16565b6145b990919063ffffffff16565b95505050505b505092915050565b80611a8081610c1e565b611af2576040517f08c379a000000000000000000000000000000000000000000000000000000000815260040180806020018281038252601a8152602001807f6974656d206d7573742062652076616c696420746f2063616c6c00000000000081525060200191505060405180910390fd5b816000600660003373ffffffffffffffffffffffffffffffffffffffff1673ffffffffffffffffffffffffffffffffffffffff1681526020019081526020016000208281548110611b3f57fe5b90600052602060002090600402016000016040516020018082805460018160011615610100020316600290048015611bae5780601f10611b8c576101008083540402835291820191611bae565b820191906000526020600020905b815481529060010190602001808311611b9a575b50509150506040516020818303038152906040528051906020012060001c9050600060405160200180807f736565640000000000000000000000000000000000000000000000000000000081525060040190506040516020818303038152906040528051906020012060001c9050808214611c91576040517f08c379a000000000000000000000000000000000000000000000000000000000815260040180806020018281038252600f8152602001807f6e6f7420612073656564206974656d000000000000000000000000000000000081525060200191505060405180910390fd5b6000611d186001611d0a6002600660003373ffffffffffffffffffffffffffffffffffffffff1673ffffffffffffffffffffffffffffffffffffffff1681526020019081526020016000208a81548110611ce757fe5b9060005260206000209060040201600201805490506145b990919063ffffffff16565b61449290919063ffffffff16565b905060008142604051602001808281526020019150506040516020818303038152906040528051906020012060001c81611d4e57fe5b0690506000424460405160200180838152602001828152602001925050506040516020818303038152906040528051906020012060001c90506000444260405160200180838152602001828152602001925050506040516020818303038152906040528051906020012060001c90506000600660003373ffffffffffffffffffffffffffffffffffffffff1673ffffffffffffffffffffffffffffffffffffffff1681526020019081526020016000208a81548110611e0957fe5b9060005260206000209060040201600201600081548110611e2657fe5b906000526020600020015483169050611ebc600660003373ffffffffffffffffffffffffffffffffffffffff1673ffffffffffffffffffffffffffffffffffffffff1681526020019081526020016000208b81548110611e8257fe5b9060005260206000209060040201600201600181548110611e9f57fe5b90600052602060002001548419168261478490919063ffffffff16565b90506000600660003373ffffffffffffffffffffffffffffffffffffffff1673ffffffffffffffffffffffffffffffffffffffff1681526020019081526020016000208b81548110611f0a57fe5b9060005260206000209060040201600201611f426002611f3460028961458290919063ffffffff16565b61478490919063ffffffff16565b81548110611f4c57fe5b906000526020600020015483169050612007600660003373ffffffffffffffffffffffffffffffffffffffff1673ffffffffffffffffffffffffffffffffffffffff1681526020019081526020016000208c81548110611fa857fe5b9060005260206000209060040201600201611fe06003611fd260028a61458290919063ffffffff16565b61478490919063ffffffff16565b81548110611fea57fe5b90600052602060002001548419168261478490919063ffffffff16565b90506120158d8d84846147a0565b6120208b6001614eb2565b50505050505050505050505050565b60008282600260003373ffffffffffffffffffffffffffffffffffffffff1673ffffffffffffffffffffffffffffffffffffffff168152602001908152602001600020826005811061207d57fe5b603c0201816005811061208c57fe5b600c020160050160009054906101000a900460ff16612113576040517f08c379a000000000000000000000000000000000000000000000000000000000815260040180806020018281038252601d8152602001807f6c6f636174696f6e20646f6573206e6f742068617665207370726f757400000081525060200191505060405180910390fd5b600260003373ffffffffffffffffffffffffffffffffffffffff1673ffffffffffffffffffffffffffffffffffffffff168152602001908152602001600020856005811061215d57fe5b603c0201846005811061216c57fe5b600c0201600601600401549250505092915050565b60008060009054906101000a900473ffffffffffffffffffffffffffffffffffffffff16905090565b8181600260003373ffffffffffffffffffffffffffffffffffffffff1673ffffffffffffffffffffffffffffffffffffffff16815260200190815260200160002082600581106121f657fe5b603c0201816005811061220557fe5b600c020160050160009054906101000a900460ff1661228c576040517f08c379a000000000000000000000000000000000000000000000000000000000815260040180806020018281038252601d8152602001807f6c6f636174696f6e20646f6573206e6f742068617665207370726f757400000081525060200191505060405180910390fd5b838360006122ac61229d84846144a9565b4261449290919063ffffffff16565b905060006122ba8484614514565b90506122e360646122d560668461458290919063ffffffff16565b6145b990919063ffffffff16565b8211612357576040517f08c379a00000000000000000000000000000000000000000000000000000000081526004018080602001828103825260178152602001807f746f6f206561726c7920746f206861766520736565647300000000000000000081525060200191505060405180910390fd5b600260003373ffffffffffffffffffffffffffffffffffffffff1673ffffffffffffffffffffffffffffffffffffffff16815260200190815260200160002084600581106123a157fe5b603c020183600581106123b057fe5b600c020160050160019054906101000a900460ff1615612438576040517f08c379a000000000000000000000000000000000000000000000000000000000815260040180806020018281038252601e8152602001807f7468652073656564732061726520616c726561647920706c75676765642e000081525060200191505060405180910390fd5b6001600260003373ffffffffffffffffffffffffffffffffffffffff1673ffffffffffffffffffffffffffffffffffffffff168152602001908152602001600020896005811061248457fe5b603c0201886005811061249357fe5b600c020160050160016101000a81548160ff02191690831515021790555060006124e3600a6124d560026124c78d8d61202f565b6145b990919063ffffffff16565b61478490919063ffffffff16565b90506125556040518060400160405280600481526020017f736565640000000000000000000000000000000000000000000000000000000081525082600060405190808252806020026020018201604052801561254f5781602001602082028038833980820191505090505b506145d2565b60006001600660003373ffffffffffffffffffffffffffffffffffffffff1673ffffffffffffffffffffffffffffffffffffffff16815260200190815260200160002080549050039050600660003373ffffffffffffffffffffffffffffffffffffffff1673ffffffffffffffffffffffffffffffffffffffff16815260200190815260200160002081815481106125e957fe5b9060005260206000209060040201600201600260003373ffffffffffffffffffffffffffffffffffffffff1673ffffffffffffffffffffffffffffffffffffffff1681526020019081526020016000208b6005811061264457fe5b603c02018a6005811061265357fe5b600c0201600001549080600181540180825580915050906001820390600052602060002001600090919290919091505550600660003373ffffffffffffffffffffffffffffffffffffffff1673ffffffffffffffffffffffffffffffffffffffff16815260200190815260200160002081815481106126ce57fe5b9060005260206000209060040201600201600260003373ffffffffffffffffffffffffffffffffffffffff1673ffffffffffffffffffffffffffffffffffffffff1681526020019081526020016000208b6005811061272957fe5b603c02018a6005811061273857fe5b600c0201600101549080600181540180825580915050906001820390600052602060002001600090919290919091505550600260003373ffffffffffffffffffffffffffffffffffffffff1673ffffffffffffffffffffffffffffffffffffffff1681526020019081526020016000208a600581106127b357fe5b603c020189600581106127c257fe5b600c020160050160029054906101000a900460ff166129a657600660003373ffffffffffffffffffffffffffffffffffffffff1673ffffffffffffffffffffffffffffffffffffffff168152602001908152602001600020818154811061282557fe5b9060005260206000209060040201600201600260003373ffffffffffffffffffffffffffffffffffffffff1673ffffffffffffffffffffffffffffffffffffffff1681526020019081526020016000208b6005811061288057fe5b603c02018a6005811061288f57fe5b600c0201600001549080600181540180825580915050906001820390600052602060002001600090919290919091505550600660003373ffffffffffffffffffffffffffffffffffffffff1673ffffffffffffffffffffffffffffffffffffffff168152602001908152602001600020818154811061290a57fe5b9060005260206000209060040201600201600260003373ffffffffffffffffffffffffffffffffffffffff1673ffffffffffffffffffffffffffffffffffffffff1681526020019081526020016000208b6005811061296557fe5b603c02018a6005811061297457fe5b600c02016001015490806001815401808255809150509060018203906000526020600020016000909192909190915055505b6000600260003373ffffffffffffffffffffffffffffffffffffffff1673ffffffffffffffffffffffffffffffffffffffff1681526020019081526020016000208b600581106129f257fe5b603c02018a60058110612a0157fe5b600c020160040180549050905060008090505b81811015612b2357600660003373ffffffffffffffffffffffffffffffffffffffff1673ffffffffffffffffffffffffffffffffffffffff1681526020019081526020016000208381548110612a6657fe5b9060005260206000209060040201600201600260003373ffffffffffffffffffffffffffffffffffffffff1673ffffffffffffffffffffffffffffffffffffffff1681526020019081526020016000208d60058110612ac157fe5b603c02018c60058110612ad057fe5b600c02016004018281548110612ae257fe5b906000526020600020015490806001815401808255809150509060018203906000526020600020016000909192909190915055508080600101915050612a14565b505050505050505050505050565b60008060009054906101000a900473ffffffffffffffffffffffffffffffffffffffff1673ffffffffffffffffffffffffffffffffffffffff163373ffffffffffffffffffffffffffffffffffffffff1614905090565b80612b9281610c1e565b612c04576040517f08c379a000000000000000000000000000000000000000000000000000000000815260040180806020018281038252601a8152602001807f6974656d206d7573742062652076616c696420746f2063616c6c00000000000081525060200191505060405180910390fd5b816000600660003373ffffffffffffffffffffffffffffffffffffffff1673ffffffffffffffffffffffffffffffffffffffff1681526020019081526020016000208281548110612c5157fe5b90600052602060002090600402016000016040516020018082805460018160011615610100020316600290048015612cc05780601f10612c9e576101008083540402835291820191612cc0565b820191906000526020600020905b815481529060010190602001808311612cac575b50509150506040516020818303038152906040528051906020012060001c9050600060405160200180807f706f6c6c656e000000000000000000000000000000000000000000000000000081525060060190506040516020818303038152906040528051906020012060001c9050808214612da3576040517f08c379a00000000000000000000000000000000000000000000000000000000081526004018080602001828103825260118152602001807f6e6f74206120706f6c6c656e206974656d00000000000000000000000000000081525060200191505060405180910390fd5b8686600260003373ffffffffffffffffffffffffffffffffffffffff1673ffffffffffffffffffffffffffffffffffffffff1681526020019081526020016000208260058110612def57fe5b603c02018160058110612dfe57fe5b600c020160050160009054906101000a900460ff16612e85576040517f08c379a000000000000000000000000000000000000000000000000000000000815260040180806020018281038252601d8152602001807f6c6f636174696f6e20646f6573206e6f742068617665207370726f757400000081525060200191505060405180910390fd5b88886000612ea5612e9684846144a9565b4261449290919063ffffffff16565b90506000612eb38484614514565b9050612edc6064612ece60658461458290919063ffffffff16565b6145b990919063ffffffff16565b8211612f50576040517f08c379a00000000000000000000000000000000000000000000000000000000081526004018080602001828103825260188152602001807f746f6f206561726c7920746f206861766520706f6c6c656e000000000000000081525060200191505060405180910390fd5b612f776064612f6960668461458290919063ffffffff16565b6145b990919063ffffffff16565b8210612feb576040517f08c379a00000000000000000000000000000000000000000000000000000000081526004018080602001828103825260178152602001807f746f6f206c61746520746f206861766520706f6c6c656e00000000000000000081525060200191505060405180910390fd5b600260003373ffffffffffffffffffffffffffffffffffffffff1673ffffffffffffffffffffffffffffffffffffffff1681526020019081526020016000208d6005811061303557fe5b603c02018c6005811061304457fe5b600c020160050160029054906101000a900460ff1661323257600260003373ffffffffffffffffffffffffffffffffffffffff1673ffffffffffffffffffffffffffffffffffffffff1681526020019081526020016000208d600581106130a757fe5b603c02018c600581106130b657fe5b600c0201600401600260003373ffffffffffffffffffffffffffffffffffffffff1673ffffffffffffffffffffffffffffffffffffffff1681526020019081526020016000208e6005811061310757fe5b603c02018d6005811061311657fe5b600c0201600001549080600181540180825580915050906001820390600052602060002001600090919290919091505550600260003373ffffffffffffffffffffffffffffffffffffffff1673ffffffffffffffffffffffffffffffffffffffff1681526020019081526020016000208d6005811061319157fe5b603c02018c600581106131a057fe5b600c0201600401600260003373ffffffffffffffffffffffffffffffffffffffff1673ffffffffffffffffffffffffffffffffffffffff1681526020019081526020016000208e600581106131f157fe5b603c02018d6005811061320057fe5b600c02016001015490806001815401808255809150509060018203906000526020600020016000909192909190915055505b600260003373ffffffffffffffffffffffffffffffffffffffff1673ffffffffffffffffffffffffffffffffffffffff1681526020019081526020016000208d6005811061327c57fe5b603c02018c6005811061328b57fe5b600c0201600401600660003373ffffffffffffffffffffffffffffffffffffffff1673ffffffffffffffffffffffffffffffffffffffff1681526020019081526020016000208c815481106132dc57fe5b90600052602060002090600402016002016000815481106132f957fe5b90600052602060002001549080600181540180825580915050906001820390600052602060002001600090919290919091505550600260003373ffffffffffffffffffffffffffffffffffffffff1673ffffffffffffffffffffffffffffffffffffffff1681526020019081526020016000208d6005811061337757fe5b603c02018c6005811061338657fe5b600c0201600401600660003373ffffffffffffffffffffffffffffffffffffffff1673ffffffffffffffffffffffffffffffffffffffff1681526020019081526020016000208c815481106133d757fe5b90600052602060002090600402016002016001815481106133f457fe5b9060005260206000200154908060018154018082558091505090600182039060005260206000200160009091929091909150555050505050505050505050505050565b60008282600260003373ffffffffffffffffffffffffffffffffffffffff1673ffffffffffffffffffffffffffffffffffffffff168152602001908152602001600020826005811061348557fe5b603c0201816005811061349457fe5b600c020160050160009054906101000a900460ff1661351b576040517f08c379a000000000000000000000000000000000000000000000000000000000815260040180806020018281038252601d8152602001807f6c6f636174696f6e20646f6573206e6f742068617665207370726f757400000081525060200191505060405180910390fd5b600061353961352a87876144a9565b4261449290919063ffffffff16565b905060006135478787614514565b905060006135558888615039565b9050818311156135dc576135736014836145b990919063ffffffff16565b613586838561449290919063ffffffff16565b10156135d0576135c6600f6135b860056135aa600f8661478490919063ffffffff16565b61458290919063ffffffff16565b6145b990919063ffffffff16565b9550505050613655565b60009550505050613655565b60008314156135f15760009550505050613655565b61364f83613641600f613633866136256005613617600f8a61478490919063ffffffff16565b61458290919063ffffffff16565b61458290919063ffffffff16565b6145b990919063ffffffff16565b6145b990919063ffffffff16565b95505050505b505092915050565b8181600260003373ffffffffffffffffffffffffffffffffffffffff1673ffffffffffffffffffffffffffffffffffffffff16815260200190815260200160002082600581106136a957fe5b603c020181600581106136b857fe5b600c020160050160009054906101000a900460ff1661373f576040517f08c379a000000000000000000000000000000000000000000000000000000000815260040180806020018281038252601d8152602001807f6c6f636174696f6e20646f6573206e6f742068617665207370726f757400000081525060200191505060405180910390fd5b600061375d61374e86866144a9565b4261449290919063ffffffff16565b9050600061376b8686614514565b905060006137798787613437565b905060006137878888611850565b90506000613799858584868d8d6150a7565b905060011515600260003373ffffffffffffffffffffffffffffffffffffffff1673ffffffffffffffffffffffffffffffffffffffff1681526020019081526020016000208a600581106137e957fe5b603c020189600581106137f857fe5b600c020160050160009054906101000a900460ff1615151415613924576000600260003373ffffffffffffffffffffffffffffffffffffffff1673ffffffffffffffffffffffffffffffffffffffff1681526020019081526020016000208a6005811061386157fe5b603c0201896005811061387057fe5b600c020160050160006101000a81548160ff0219169083151502179055506138e081600360003373ffffffffffffffffffffffffffffffffffffffff1673ffffffffffffffffffffffffffffffffffffffff1681526020019081526020016000205461478490919063ffffffff16565b600360003373ffffffffffffffffffffffffffffffffffffffff1673ffffffffffffffffffffffffffffffffffffffff168152602001908152602001600020819055505b7fef9514e76636c86a9084470f65495ff78258053cada18c62136f204ff2f0daa28989604051808381526020018281526020019250505060405180910390a1505050505050505050565b600061397b3384846141d7565b6001905092915050565b61012c600360003373ffffffffffffffffffffffffffffffffffffffff1673ffffffffffffffffffffffffffffffffffffffff1681526020019081526020016000205411613a1e576040517f08c379a00000000000000000000000000000000000000000000000000000000081526004018080602001828103825260238152602001806156766023913960400191505060405180910390fd5b6000424460405160200180838152602001828152602001925050506040516020818303038152906040528051906020012060001c90506000444260405160200180838152602001828152602001925050506040516020818303038152906040528051906020012060001c9050613a96848484846147a0565b613ae96064600360003373ffffffffffffffffffffffffffffffffffffffff1673ffffffffffffffffffffffffffffffffffffffff1681526020019081526020016000205461449290919063ffffffff16565b600360003373ffffffffffffffffffffffffffffffffffffffff1673ffffffffffffffffffffffffffffffffffffffff1681526020019081526020016000208190555050505050565b600081613b3e81610c1e565b613bb0576040517f08c379a000000000000000000000000000000000000000000000000000000000815260040180806020018281038252601a8152602001807f6974656d206d7573742062652076616c696420746f2063616c6c00000000000081525060200191505060405180910390fd5b600660003373ffffffffffffffffffffffffffffffffffffffff1673ffffffffffffffffffffffffffffffffffffffff1681526020019081526020016000208381548110613bfa57fe5b906000526020600020906004020160010154915050919050565b6000600460008473ffffffffffffffffffffffffffffffffffffffff1673ffffffffffffffffffffffffffffffffffffffff16815260200190815260200160002060008373ffffffffffffffffffffffffffffffffffffffff1673ffffffffffffffffffffffffffffffffffffffff16815260200190815260200160002054905092915050565b60008282600260003373ffffffffffffffffffffffffffffffffffffffff1673ffffffffffffffffffffffffffffffffffffffff1681526020019081526020016000208260058110613ce957fe5b603c02018160058110613cf857fe5b600c020160050160009054906101000a900460ff16613d7f576040517f08c379a000000000000000000000000000000000000000000000000000000000815260040180806020018281038252601d8152602001807f6c6f636174696f6e20646f6573206e6f742068617665207370726f757400000081525060200191505060405180910390fd5b600260003373ffffffffffffffffffffffffffffffffffffffff1673ffffffffffffffffffffffffffffffffffffffff1681526020019081526020016000208560058110613dc957fe5b603c02018460058110613dd857fe5b600c0201600601600201549250505092915050565b613df5612b31565b613dfe57600080fd5b6103e8600360008373ffffffffffffffffffffffffffffffffffffffff1673ffffffffffffffffffffffffffffffffffffffff168152602001908152602001600020819055507f827446e550fe5bfd75ca44888adfeafa8fe5b5ea548deabda1ed8f5c08f2cf2281604051808273ffffffffffffffffffffffffffffffffffffffff1673ffffffffffffffffffffffffffffffffffffffff16815260200191505060405180910390a150565b613eb2612b31565b613ebb57600080fd5b613ec48161529f565b50565b606060006060600660003373ffffffffffffffffffffffffffffffffffffffff1673ffffffffffffffffffffffffffffffffffffffff16815260200190815260200160002080549050604051908082528060200260200182016040528015613f3e5781602001602082028038833980820191505090505b509050600080905060008090505b600660003373ffffffffffffffffffffffffffffffffffffffff1673ffffffffffffffffffffffffffffffffffffffff16815260200190815260200160002080549050811015613fd357613f9f81610c1e565b15613fc65780838381518110613fb157fe5b60200260200101818152505081806001019250505b8080600101915050613f4c565b5081819350935050509091565b600073ffffffffffffffffffffffffffffffffffffffff168373ffffffffffffffffffffffffffffffffffffffff161415614066576040517f08c379a00000000000000000000000000000000000000000000000000000000081526004018080602001828103825260248152602001806156be6024913960400191505060405180910390fd5b600073ffffffffffffffffffffffffffffffffffffffff168273ffffffffffffffffffffffffffffffffffffffff1614156140ec576040517f08c379a00000000000000000000000000000000000000000000000000000000081526004018080602001828103825260228152602001806156546022913960400191505060405180910390fd5b80600460008573ffffffffffffffffffffffffffffffffffffffff1673ffffffffffffffffffffffffffffffffffffffff16815260200190815260200160002060008473ffffffffffffffffffffffffffffffffffffffff1673ffffffffffffffffffffffffffffffffffffffff168152602001908152602001600020819055508173ffffffffffffffffffffffffffffffffffffffff168373ffffffffffffffffffffffffffffffffffffffff167f8c5be1e5ebec7d5bd14f71427d1e84f3dd0314c0f7b2291e5b200ac8c7c3b925836040518082815260200191505060405180910390a3505050565b600073ffffffffffffffffffffffffffffffffffffffff168373ffffffffffffffffffffffffffffffffffffffff16141561425d576040517f08c379a00000000000000000000000000000000000000000000000000000000081526004018080602001828103825260258152602001806156996025913960400191505060405180910390fd5b600073ffffffffffffffffffffffffffffffffffffffff168273ffffffffffffffffffffffffffffffffffffffff1614156142e3576040517f08c379a00000000000000000000000000000000000000000000000000000000081526004018080602001828103825260238152602001806156316023913960400191505060405180910390fd5b61433581600360008673ffffffffffffffffffffffffffffffffffffffff1673ffffffffffffffffffffffffffffffffffffffff1681526020019081526020016000205461449290919063ffffffff16565b600360008573ffffffffffffffffffffffffffffffffffffffff1673ffffffffffffffffffffffffffffffffffffffff168152602001908152602001600020819055506143ca81600360008573ffffffffffffffffffffffffffffffffffffffff1673ffffffffffffffffffffffffffffffffffffffff1681526020019081526020016000205461478490919063ffffffff16565b600360008473ffffffffffffffffffffffffffffffffffffffff1673ffffffffffffffffffffffffffffffffffffffff168152602001908152602001600020819055506144228160055461478490919063ffffffff16565b6005819055508173ffffffffffffffffffffffffffffffffffffffff168373ffffffffffffffffffffffffffffffffffffffff167fddf252ad1be2c89b69c2b068fc378daa952ba7f163c4a11628f55a4df523b3ef836040518082815260200191505060405180910390a3505050565b60008282111561449e57fe5b818303905092915050565b6000600260003373ffffffffffffffffffffffffffffffffffffffff1673ffffffffffffffffffffffffffffffffffffffff16815260200190815260200160002083600581106144f557fe5b603c0201826005811061450457fe5b600c020160020154905092915050565b6000600260003373ffffffffffffffffffffffffffffffffffffffff1673ffffffffffffffffffffffffffffffffffffffff168152602001908152602001600020836005811061456057fe5b603c0201826005811061456f57fe5b600c020160060160030154905092915050565b60008083141561459557600090506145b3565b60008284029050828482816145a657fe5b04146145ae57fe5b809150505b92915050565b6000808284816145c557fe5b0490508091505092915050565b6145da6154d3565b604051806080016040528085815260200184815260200183815260200160011515815250905060006001600660003373ffffffffffffffffffffffffffffffffffffffff1673ffffffffffffffffffffffffffffffffffffffff1681526020019081526020016000208390806001815401808255809150509060018203906000526020600020906004020160009091929091909150600082015181600001908051906020019061468b9291906154fd565b506020820151816001015560408201518160020190805190602001906146b292919061557d565b5060608201518160030160006101000a81548160ff02191690831515021790555050500390507f9d988e03406844e4f4570c5b73a65bcd79fdd6f1bf564656ae99e23328ef2c0e816040518082815260200191505060405180910390a15050505050565b6000600260003373ffffffffffffffffffffffffffffffffffffffff1673ffffffffffffffffffffffffffffffffffffffff168152602001908152602001600020836005811061476257fe5b603c0201826005811061477157fe5b600c020160060160000154905092915050565b60008082840190508381101561479657fe5b8091505092915050565b60001515600260003373ffffffffffffffffffffffffffffffffffffffff1673ffffffffffffffffffffffffffffffffffffffff16815260200190815260200160002085600581106147ee57fe5b603c020184600581106147fd57fe5b600c020160050160009054906101000a900460ff1615151461481e57600080fd5b614883600260003373ffffffffffffffffffffffffffffffffffffffff1673ffffffffffffffffffffffffffffffffffffffff168152602001908152602001600020856005811061486b57fe5b603c0201846005811061487a57fe5b600c0201615397565b61488c57600080fd5b6148946155ca565b6040518060e0016040528060008152602001600081526020016000815260200160008152602001600081526020016000151581526020016000151581525090506000839050600083905060006001600283816148ec57fe5b06600285816148f757fe5b0617148460a0019015159081151581525050600183901c9250600182901c915060016002838161492357fe5b066002858161492e57fe5b0617148460c00190151590811515815250506000600290505b60298110156149d55760016002858161495c57fe5b0614156149855761497b6001866040015161478490919063ffffffff16565b8560400181815250505b60016002848161499157fe5b0614156149ba576149b06001866040015161478490919063ffffffff16565b8560400181815250505b600184901c9350600183901c92508080600101915050614947565b506000602990505b6065811015614a6b576001600285816149f257fe5b061415614a1b57614a116001866020015161478490919063ffffffff16565b8560200181815250505b600160028481614a2757fe5b061415614a5057614a466001866020015161478490919063ffffffff16565b8560200181815250505b600184901c9350600183901c925080806001019150506149dd565b506000606590505b60a1811015614b0157600160028581614a8857fe5b061415614ab157614aa76001866000015161478490919063ffffffff16565b8560000181815250505b600160028481614abd57fe5b061415614ae657614adc6001866000015161478490919063ffffffff16565b8560000181815250505b600184901c9350600183901c92508080600101915050614a73565b50600060a190505b60c9811015614b9757600160028581614b1e57fe5b061415614b4757614b3d6001866080015161478490919063ffffffff16565b8560800181815250505b600160028481614b5357fe5b061415614b7c57614b726001866080015161478490919063ffffffff16565b8560800181815250505b600184901c9350600183901c92508080600101915050614b09565b50600060c990505b610100811015614c1857600160028581614bb557fe5b061415614bd357614bd060018361478490919063ffffffff16565b91505b600160028481614bdf57fe5b061415614bfd57614bfa60018361478490919063ffffffff16565b91505b600184901c9350600183901c92508080600101915050614b9f565b506201518060be614c466002614c3860038661458290919063ffffffff16565b6145b990919063ffffffff16565b61017c0381614c5157fe5b0402846060018181525050604051806101200160405280878152602001868152602001428152602001600081526020016000604051908082528060200260200182016040528015614cb15781602001602082028038833980820191505090505b50815260200160011515815260200160001515815260200160001515815260200185815250600260003373ffffffffffffffffffffffffffffffffffffffff1673ffffffffffffffffffffffffffffffffffffffff1681526020019081526020016000208960058110614d2057fe5b603c02018860058110614d2f57fe5b600c0201600082015181600001556020820151816001015560408201518160020155606082015181600301556080820151816004019080519060200190614d7792919061557d565b5060a08201518160050160006101000a81548160ff02191690831515021790555060c08201518160050160016101000a81548160ff02191690831515021790555060e08201518160050160026101000a81548160ff02191690831515021790555061010082015181600601600082015181600001556020820151816001015560408201518160020155606082015181600301556080820151816004015560a08201518160050160006101000a81548160ff02191690831515021790555060c08201518160050160016101000a81548160ff02191690831515021790555050509050507f29673a2c4180cee02675c1aeac3253f75b8a067246770a77b079d48c92248cbd888888886040518085815260200184815260200183815260200182815260200194505050505060405180910390a15050505050505050565b81614ebc81610c1e565b614f2e576040517f08c379a000000000000000000000000000000000000000000000000000000000815260040180806020018281038252601a8152602001807f6974656d206d7573742062652076616c696420746f2063616c6c00000000000081525060200191505060405180910390fd5b614f3783613b32565b821115614fac576040517f08c379a000000000000000000000000000000000000000000000000000000000815260040180806020018281038252600f8152602001807f6e6f7420656e6f756768206974656d000000000000000000000000000000000081525060200191505060405180910390fd5b614fb583613b32565b821415614fca57614fc5836153a8565b615034565b81600660003373ffffffffffffffffffffffffffffffffffffffff1673ffffffffffffffffffffffffffffffffffffffff168152602001908152602001600020848154811061501557fe5b9060005260206000209060040201600101600082825403925050819055505b505050565b6000600260003373ffffffffffffffffffffffffffffffffffffffff1673ffffffffffffffffffffffffffffffffffffffff168152602001908152602001600020836005811061508557fe5b603c0201826005811061509457fe5b600c020160060160010154905092915050565b60008282600260003373ffffffffffffffffffffffffffffffffffffffff1673ffffffffffffffffffffffffffffffffffffffff16815260200190815260200160002082600581106150f557fe5b603c0201816005811061510457fe5b600c020160050160009054906101000a900460ff1661518b576040517f08c379a000000000000000000000000000000000000000000000000000000000815260040180806020018281038252601d8152602001807f6c6f636174696f6e20646f6573206e6f742068617665207370726f757400000081525060200191505060405180910390fd5b60006151978686613c9b565b905060006151a587876115d8565b905060006151b38888610e6d565b90508a8c1115615202576151d160148c6145b990919063ffffffff16565b6151e48c8e61449290919063ffffffff16565b10156151f65760059550505050615293565b60009550505050615293565b60008c14156152175760029550505050615293565b6000615251615230600a866145b990919063ffffffff16565b6152438c8e61458290919063ffffffff16565b61449290919063ffffffff16565b9050811561526f5761526d60058261478490919063ffffffff16565b505b821561528b5761528960058261478490919063ffffffff16565b505b809650505050505b50509695505050505050565b600073ffffffffffffffffffffffffffffffffffffffff168173ffffffffffffffffffffffffffffffffffffffff1614156152d957600080fd5b8073ffffffffffffffffffffffffffffffffffffffff166000809054906101000a900473ffffffffffffffffffffffffffffffffffffffff1673ffffffffffffffffffffffffffffffffffffffff167f8be0079c531659141344cd1fd0a4f28419497f9722a3daafe3b4186f6b6457e060405160405180910390a3806000806101000a81548173ffffffffffffffffffffffffffffffffffffffff021916908373ffffffffffffffffffffffffffffffffffffffff16021790555050565b600042826003015411159050919050565b806153b281610c1e565b615424576040517f08c379a000000000000000000000000000000000000000000000000000000000815260040180806020018281038252601a8152602001807f6974656d206d7573742062652076616c696420746f2063616c6c00000000000081525060200191505060405180910390fd5b6000600660003373ffffffffffffffffffffffffffffffffffffffff1673ffffffffffffffffffffffffffffffffffffffff168152602001908152602001600020838154811061547057fe5b906000526020600020906004020160030160006101000a81548160ff0219169083151502179055507f04db484cca74d7317df830807409b645213719e2ca21de1d9b1eee1ab4c68018826040518082815260200191505060405180910390a15050565b60405180608001604052806060815260200160008152602001606081526020016000151581525090565b828054600181600116156101000203166002900490600052602060002090601f016020900481019282601f1061553e57805160ff191683800117855561556c565b8280016001018555821561556c579182015b8281111561556b578251825591602001919060010190615550565b5b509050615579919061560b565b5090565b8280548282559060005260206000209081019282156155b9579160200282015b828111156155b857825182559160200191906001019061559d565b5b5090506155c6919061560b565b5090565b6040518060e0016040528060008152602001600081526020016000815260200160008152602001600081526020016000151581526020016000151581525090565b61562d91905b80821115615629576000816000905550600101615611565b5090565b9056fe45524332303a207472616e7366657220746f20746865207a65726f206164647265737345524332303a20617070726f766520746f20746865207a65726f20616464726573736e6f7420656e6f756768206d6f6e657920746f206275792072616e646f6d207365656445524332303a207472616e736665722066726f6d20746865207a65726f206164647265737345524332303a20617070726f76652066726f6d20746865207a65726f2061646472657373a265627a7a72315820151c095d576c2c040ea498e25768f167b685663111c6b91920c9fb586655e77a64736f6c63430005100032",
  "source": "pragma solidity ^0.5.0;\n\n\nimport \"./token.sol\";\n\ncontract OwnerItem is SproutOwnership {\n\n    /*To each user, there's a list contain the thing they currently have. The things in the list could be sold or used.\n      For now, the items could only be seeds.\n      The seeds can be plugged when the sprout (or the beanstalk) is older than 1.01 of its fullgrown_time\n\n      In addition, each person start with balance = $1000\n      (I'm considering using onlyOwner in register to prevent malicious use, don't know if it's necessary.)\n    */\n\n    event OnItemAdded(uint Id);\n    event OnItemDeleted(uint Id);\n    event OnRegister(address account);\n\n    struct Item {\n        string itemName;\n        uint num;\n        uint[] content;\n        bool isValid;\n    }\n    mapping (address => Item[]) _ItemList;\n\n\n    // Modifier\n    modifier isValidItem(uint _Id) {\n        require(isItemValid(_Id), \"item must be valid to call\");\n        _;\n    }\n    modifier isSeedItem(uint _Id){\n        uint temp1 = uint(keccak256(abi.encodePacked(_ItemList[msg.sender][_Id].itemName)));\n        uint temp2 = uint(keccak256(abi.encodePacked(\"seed\")));\n        require(temp1 == temp2, \"not a seed item\");\n        _;\n    }\n    modifier isPollenItem(uint _Id){\n        uint temp1 = uint(keccak256(abi.encodePacked(_ItemList[msg.sender][_Id].itemName)));\n        uint temp2 = uint(keccak256(abi.encodePacked(\"pollen\")));\n        require(temp1 == temp2, \"not a pollen item\");\n        _;\n    }\n\n\n    // Public function\n\n    // when a player enter the game, he or she should be registered by the contract owner (us) first\n    function Register(address new_player) public onlyOwner(){\n        balance[new_player] = 1000;\n        emit OnRegister(new_player);\n    }\n    //when you plug the pollen from a beanstalk, it's immediately add to your item list\n    function PlugPollen(uint x_id, uint y_id) public SproutExist(x_id, y_id) PollenExist(x_id, y_id){\n        sprout_list[msg.sender][x_id][y_id].pollen_plug = true;\n        addItem(\"pollen\", 10, new uint[](0));\n        uint _Id = _ItemList[msg.sender].length -1;\n        _ItemList[msg.sender][_Id].content.push(sprout_list[msg.sender][x_id][y_id].dna1);\n        _ItemList[msg.sender][_Id].content.push(sprout_list[msg.sender][x_id][y_id].dna2);\n    }\n    // The seed Items could be used to plant a new sprout at (x_id, y_id)\n    function UsePollenItem(uint x_id, uint y_id, uint _Id) public \n    isValidItem(_Id) isPollenItem( _Id) SproutExist(x_id, y_id) PollenizeReady(x_id, y_id){\n        if(!sprout_list[msg.sender][x_id][y_id].pollen_plug){\n            sprout_list[msg.sender][x_id][y_id].pollen.push(sprout_list[msg.sender][x_id][y_id].dna1);\n            sprout_list[msg.sender][x_id][y_id].pollen.push(sprout_list[msg.sender][x_id][y_id].dna2);\n        }\n        sprout_list[msg.sender][x_id][y_id].pollen.push(_ItemList[msg.sender][_Id].content[0]);\n        sprout_list[msg.sender][x_id][y_id].pollen.push(_ItemList[msg.sender][_Id].content[1]);\n    }\n\n\n    //when you plug the seeds from a beanstalk, it's immediately add to your item list\n    function PlugSeed(uint x_id, uint y_id) public SproutExist(x_id, y_id) SeedExist(x_id, y_id){\n        sprout_list[msg.sender][x_id][y_id].seed_plug = true;\n        uint num = getProduceGene(x_id, y_id).div(2).add(10);\n        addItem(\"seed\", num, new uint[](0));\n        uint _Id = _ItemList[msg.sender].length -1;\n        _ItemList[msg.sender][_Id].content.push(sprout_list[msg.sender][x_id][y_id].dna1);\n        _ItemList[msg.sender][_Id].content.push(sprout_list[msg.sender][x_id][y_id].dna2);\n        if(!sprout_list[msg.sender][x_id][y_id].pollen_plug){\n            _ItemList[msg.sender][_Id].content.push(sprout_list[msg.sender][x_id][y_id].dna1);\n            _ItemList[msg.sender][_Id].content.push(sprout_list[msg.sender][x_id][y_id].dna2);\n        }\n        uint len = sprout_list[msg.sender][x_id][y_id].pollen.length;\n        for (uint i=0; i < len ; i++){\n            _ItemList[msg.sender][_Id].content.push(sprout_list[msg.sender][x_id][y_id].pollen[i]);\n        }\n    }\n    // The seed Items could be used to plant a new sprout at (x_id, y_id)\n    function UseSeedItem(uint x_id, uint y_id, uint _Id) public isValidItem(_Id) isSeedItem( _Id){\n        uint num = (_ItemList[msg.sender][_Id].content.length.div(2)).sub(1);\n        uint num_f = uint(keccak256(abi.encodePacked(block.timestamp))) % (num);\n        uint rand_m = uint(keccak256(abi.encodePacked(block.timestamp, block.difficulty)));\n        uint rand_f = uint(keccak256(abi.encodePacked(block.difficulty, block.timestamp)));\n        uint dna1 = rand_m & (_ItemList[msg.sender][_Id].content[0]);\n        dna1 = dna1.add(~rand_m & (_ItemList[msg.sender][_Id].content[1]));\n        uint dna2 = rand_f & (_ItemList[msg.sender][_Id].content[num_f.mul(2).add(2)]);\n        dna2 = dna2.add(~rand_f & (_ItemList[msg.sender][_Id].content[num_f.mul(2).add(3)]));\n        addSprout(x_id, y_id, dna1, dna2);\n        spendItem(_Id, 1);\n    }\n    //Basic functions for showing list\n    function isItemValid(uint _Id) public view returns(bool isValid) {\n        return _ItemList[msg.sender][_Id].isValid;\n    }\n    function getItemNum(uint _Id) public view isValidItem(_Id) returns(uint) {\n        return _ItemList[msg.sender][_Id].num;\n    }\n    function getItem(uint _Id) public view isValidItem(_Id) returns(string memory, uint) {\n        return (_ItemList[msg.sender][_Id].itemName, _ItemList[msg.sender][_Id].num);\n    }\n\n    function getItemList() public view returns(uint[] memory, uint[] memory) {\n        uint len;\n        uint[] memory valids;\n\n        (valids, len) = _getValidItems();\n\n        uint[] memory ids = new uint[](len);\n        uint[] memory nums = new uint[](len);\n        for (uint i = 0; i < len; i++) {\n            uint id = valids[i];\n            ids[i] = id;\n            nums[i] = _ItemList[msg.sender][id].num;\n        }\n        return (ids, nums);\n    }\n\n\n\n    // private function\n    // add all kinds of Item in general\n    function addItem(string memory itemName, uint num, uint[] memory content) internal {\n        Item memory item = Item(itemName, num, content, true);\n        uint Id = _ItemList[msg.sender].push(item) - 1;\n\n        emit OnItemAdded(Id);\n    }\n    //remove some number of the Item\n    function spendItem(uint _Id, uint num) internal isValidItem(_Id){\n        require(num <= getItemNum(_Id), \"not enough item\");\n        if (num == getItemNum(_Id)){deleteItem(_Id);}\n        else{_ItemList[msg.sender][_Id].num -= num;}\n    }\n    // remove the whole Item\n    function deleteItem(uint _Id) internal isValidItem(_Id) {\n        _ItemList[msg.sender][_Id].isValid = false;\n\n        emit OnItemDeleted(_Id);\n    }\n\n    function _getValidItems() private view returns(uint[] memory valids, uint length) {\n        uint[] memory validItems = new uint[](_ItemList[msg.sender].length);\n        uint count = 0;\n        for (uint i = 0; i < _ItemList[msg.sender].length; i++) {\n            if (isItemValid(i)) {\n                validItems[count] = i;\n                count++;\n            }\n        }\n        return(validItems, count);\n    }\n}",
  "sourcePath": "/Users/catherine/Documents/GitHub/finals/nmlab_final/contracts/OwnerItem.sol",
  "compiler": {
    "name": "solc",
    "version": "0.5.16+commit.9c3226ce.Emscripten.clang"
  },
  "schemaVersion": "3.1.0",
  "updatedAt": "2020-06-16T09:17:47.806Z",
  "devdoc": {
    "methods": {
      "isOwner()": {
        "return": "true if `msg.sender` is the owner of the contract."
      },
      "owner()": {
        "return": "the address of the owner."
      },
      "renounceOwnership()": {
        "details": "Allows the current owner to relinquish control of the contract."
      },
      "transferOwnership(address)": {
        "details": "Allows the current owner to transfer control of the contract to a newOwner.",
        "params": {
          "newOwner": "The address to transfer ownership to."
        }
      }
    }
  },
  "userdoc": {
    "methods": {
      "renounceOwnership()": {
        "notice": "Renouncing to ownership will leave the contract without an owner. It will not be possible to call the functions with the `onlyOwner` modifier anymore."
      }
    }
  }
}