{
  "contractName": "OwnerItem",
  "abi": [
    {
      "anonymous": false,
      "inputs": [
        {
          "indexed": true,
          "internalType": "address",
          "name": "_owner",
          "type": "address"
        },
        {
          "indexed": true,
          "internalType": "address",
          "name": "_spender",
          "type": "address"
        },
        {
          "indexed": false,
          "internalType": "uint256",
          "name": "_value",
          "type": "uint256"
        }
      ],
      "name": "Approval",
      "type": "event"
    },
    {
      "anonymous": false,
      "inputs": [
        {
          "indexed": false,
          "internalType": "uint256",
          "name": "x_id",
          "type": "uint256"
        },
        {
          "indexed": false,
          "internalType": "uint256",
          "name": "y_id",
          "type": "uint256"
        },
        {
          "indexed": false,
          "internalType": "uint256",
          "name": "dna1",
          "type": "uint256"
        },
        {
          "indexed": false,
          "internalType": "uint256",
          "name": "dna2",
          "type": "uint256"
        }
      ],
      "name": "OnAdd",
      "type": "event"
    },
    {
      "anonymous": false,
      "inputs": [
        {
          "indexed": false,
          "internalType": "uint256",
          "name": "Id",
          "type": "uint256"
        }
      ],
      "name": "OnItemAdded",
      "type": "event"
    },
    {
      "anonymous": false,
      "inputs": [
        {
          "indexed": false,
          "internalType": "uint256",
          "name": "Id",
          "type": "uint256"
        }
      ],
      "name": "OnItemDeleted",
      "type": "event"
    },
    {
      "anonymous": false,
      "inputs": [
        {
          "indexed": false,
          "internalType": "uint256",
          "name": "x_id",
          "type": "uint256"
        },
        {
          "indexed": false,
          "internalType": "uint256",
          "name": "y_id",
          "type": "uint256"
        }
      ],
      "name": "OnPlug",
      "type": "event"
    },
    {
      "anonymous": false,
      "inputs": [
        {
          "indexed": false,
          "internalType": "address",
          "name": "account",
          "type": "address"
        }
      ],
      "name": "OnRegister",
      "type": "event"
    },
    {
      "anonymous": false,
      "inputs": [
        {
          "indexed": true,
          "internalType": "address",
          "name": "previousOwner",
          "type": "address"
        },
        {
          "indexed": true,
          "internalType": "address",
          "name": "newOwner",
          "type": "address"
        }
      ],
      "name": "OwnershipTransferred",
      "type": "event"
    },
    {
      "anonymous": false,
      "inputs": [
        {
          "indexed": true,
          "internalType": "address",
          "name": "_from",
          "type": "address"
        },
        {
          "indexed": true,
          "internalType": "address",
          "name": "_to",
          "type": "address"
        },
        {
          "indexed": false,
          "internalType": "uint256",
          "name": "_value",
          "type": "uint256"
        }
      ],
      "name": "Transfer",
      "type": "event"
    },
    {
      "anonymous": false,
      "inputs": [
        {
          "indexed": false,
          "internalType": "uint256",
          "name": "s",
          "type": "uint256"
        }
      ],
      "name": "debugStage",
      "type": "event"
    },
    {
      "constant": true,
      "inputs": [
        {
          "internalType": "address",
          "name": "owner",
          "type": "address"
        },
        {
          "internalType": "address",
          "name": "spender",
          "type": "address"
        }
      ],
      "name": "allowance",
      "outputs": [
        {
          "internalType": "uint256",
          "name": "",
          "type": "uint256"
        }
      ],
      "payable": false,
      "stateMutability": "view",
      "type": "function"
    },
    {
      "constant": false,
      "inputs": [
        {
          "internalType": "address",
          "name": "spender",
          "type": "address"
        },
        {
          "internalType": "uint256",
          "name": "amount",
          "type": "uint256"
        }
      ],
      "name": "approve",
      "outputs": [
        {
          "internalType": "bool",
          "name": "",
          "type": "bool"
        }
      ],
      "payable": false,
      "stateMutability": "nonpayable",
      "type": "function"
    },
    {
      "constant": true,
      "inputs": [
        {
          "internalType": "address",
          "name": "account",
          "type": "address"
        }
      ],
      "name": "balanceOf",
      "outputs": [
        {
          "internalType": "uint256",
          "name": "",
          "type": "uint256"
        }
      ],
      "payable": false,
      "stateMutability": "view",
      "type": "function"
    },
    {
      "constant": true,
      "inputs": [
        {
          "internalType": "uint256",
          "name": "x_id",
          "type": "uint256"
        },
        {
          "internalType": "uint256",
          "name": "y_id",
          "type": "uint256"
        }
      ],
      "name": "getColor",
      "outputs": [
        {
          "internalType": "uint256",
          "name": "",
          "type": "uint256"
        }
      ],
      "payable": false,
      "stateMutability": "view",
      "type": "function"
    },
    {
      "constant": true,
      "inputs": [
        {
          "internalType": "uint256",
          "name": "x_id",
          "type": "uint256"
        },
        {
          "internalType": "uint256",
          "name": "y_id",
          "type": "uint256"
        }
      ],
      "name": "getProduceGene",
      "outputs": [
        {
          "internalType": "uint256",
          "name": "",
          "type": "uint256"
        }
      ],
      "payable": false,
      "stateMutability": "view",
      "type": "function"
    },
    {
      "constant": true,
      "inputs": [
        {
          "internalType": "uint256",
          "name": "x_id",
          "type": "uint256"
        },
        {
          "internalType": "uint256",
          "name": "y_id",
          "type": "uint256"
        }
      ],
      "name": "getSeedRound",
      "outputs": [
        {
          "internalType": "bool",
          "name": "",
          "type": "bool"
        }
      ],
      "payable": false,
      "stateMutability": "view",
      "type": "function"
    },
    {
      "constant": true,
      "inputs": [
        {
          "internalType": "uint256",
          "name": "x_id",
          "type": "uint256"
        },
        {
          "internalType": "uint256",
          "name": "y_id",
          "type": "uint256"
        }
      ],
      "name": "getSeedYellow",
      "outputs": [
        {
          "internalType": "bool",
          "name": "",
          "type": "bool"
        }
      ],
      "payable": false,
      "stateMutability": "view",
      "type": "function"
    },
    {
      "constant": true,
      "inputs": [
        {
          "internalType": "uint256",
          "name": "x_id",
          "type": "uint256"
        },
        {
          "internalType": "uint256",
          "name": "y_id",
          "type": "uint256"
        }
      ],
      "name": "getSproutHeight",
      "outputs": [
        {
          "internalType": "uint256",
          "name": "",
          "type": "uint256"
        }
      ],
      "payable": false,
      "stateMutability": "view",
      "type": "function"
    },
    {
      "constant": true,
      "inputs": [
        {
          "internalType": "uint256",
          "name": "x_id",
          "type": "uint256"
        },
        {
          "internalType": "uint256",
          "name": "y_id",
          "type": "uint256"
        }
      ],
      "name": "getSproutWidth",
      "outputs": [
        {
          "internalType": "uint256",
          "name": "",
          "type": "uint256"
        }
      ],
      "payable": false,
      "stateMutability": "view",
      "type": "function"
    },
    {
      "constant": true,
      "inputs": [],
      "name": "isOwner",
      "outputs": [
        {
          "internalType": "bool",
          "name": "",
          "type": "bool"
        }
      ],
      "payable": false,
      "stateMutability": "view",
      "type": "function"
    },
    {
      "constant": true,
      "inputs": [],
      "name": "owner",
      "outputs": [
        {
          "internalType": "address",
          "name": "",
          "type": "address"
        }
      ],
      "payable": false,
      "stateMutability": "view",
      "type": "function"
    },
    {
      "constant": false,
      "inputs": [
        {
          "internalType": "uint256",
          "name": "x_id",
          "type": "uint256"
        },
        {
          "internalType": "uint256",
          "name": "y_id",
          "type": "uint256"
        }
      ],
      "name": "plugSprout",
      "outputs": [],
      "payable": false,
      "stateMutability": "nonpayable",
      "type": "function"
    },
    {
      "constant": false,
      "inputs": [
        {
          "internalType": "uint256",
          "name": "x_id",
          "type": "uint256"
        },
        {
          "internalType": "uint256",
          "name": "y_id",
          "type": "uint256"
        }
      ],
      "name": "randomAddSprout",
      "outputs": [],
      "payable": false,
      "stateMutability": "nonpayable",
      "type": "function"
    },
    {
      "constant": false,
      "inputs": [],
      "name": "renounceOwnership",
      "outputs": [],
      "payable": false,
      "stateMutability": "nonpayable",
      "type": "function"
    },
    {
      "constant": true,
      "inputs": [],
      "name": "totalSupply",
      "outputs": [
        {
          "internalType": "uint256",
          "name": "",
          "type": "uint256"
        }
      ],
      "payable": false,
      "stateMutability": "view",
      "type": "function"
    },
    {
      "constant": false,
      "inputs": [
        {
          "internalType": "address",
          "name": "_to",
          "type": "address"
        },
        {
          "internalType": "uint256",
          "name": "value",
          "type": "uint256"
        }
      ],
      "name": "transfer",
      "outputs": [
        {
          "internalType": "bool",
          "name": "",
          "type": "bool"
        }
      ],
      "payable": false,
      "stateMutability": "nonpayable",
      "type": "function"
    },
    {
      "constant": false,
      "inputs": [
        {
          "internalType": "address",
          "name": "sender",
          "type": "address"
        },
        {
          "internalType": "address",
          "name": "recipient",
          "type": "address"
        },
        {
          "internalType": "uint256",
          "name": "amount",
          "type": "uint256"
        }
      ],
      "name": "transferFrom",
      "outputs": [
        {
          "internalType": "bool",
          "name": "",
          "type": "bool"
        }
      ],
      "payable": false,
      "stateMutability": "nonpayable",
      "type": "function"
    },
    {
      "constant": false,
      "inputs": [
        {
          "internalType": "address",
          "name": "newOwner",
          "type": "address"
        }
      ],
      "name": "transferOwnership",
      "outputs": [],
      "payable": false,
      "stateMutability": "nonpayable",
      "type": "function"
    },
    {
      "constant": false,
      "inputs": [
        {
          "internalType": "address",
          "name": "new_player",
          "type": "address"
        }
      ],
      "name": "Register",
      "outputs": [],
      "payable": false,
      "stateMutability": "nonpayable",
      "type": "function"
    },
    {
      "constant": false,
      "inputs": [
        {
          "internalType": "uint256",
          "name": "x_id",
          "type": "uint256"
        },
        {
          "internalType": "uint256",
          "name": "y_id",
          "type": "uint256"
        }
      ],
      "name": "PlugSeed",
      "outputs": [],
      "payable": false,
      "stateMutability": "nonpayable",
      "type": "function"
    },
    {
      "constant": false,
      "inputs": [
        {
          "internalType": "uint256",
          "name": "x_id",
          "type": "uint256"
        },
        {
          "internalType": "uint256",
          "name": "y_id",
          "type": "uint256"
        },
        {
          "internalType": "uint256",
          "name": "_Id",
          "type": "uint256"
        }
      ],
      "name": "UseSeedItem",
      "outputs": [],
      "payable": false,
      "stateMutability": "nonpayable",
      "type": "function"
    },
    {
      "constant": true,
      "inputs": [
        {
          "internalType": "uint256",
          "name": "_Id",
          "type": "uint256"
        }
      ],
      "name": "isItemValid",
      "outputs": [
        {
          "internalType": "bool",
          "name": "isValid",
          "type": "bool"
        }
      ],
      "payable": false,
      "stateMutability": "view",
      "type": "function"
    },
    {
      "constant": true,
      "inputs": [
        {
          "internalType": "uint256",
          "name": "_Id",
          "type": "uint256"
        }
      ],
      "name": "getItemNum",
      "outputs": [
        {
          "internalType": "uint256",
          "name": "",
          "type": "uint256"
        }
      ],
      "payable": false,
      "stateMutability": "view",
      "type": "function"
    },
    {
      "constant": true,
      "inputs": [
        {
          "internalType": "uint256",
          "name": "_Id",
          "type": "uint256"
        }
      ],
      "name": "getItem",
      "outputs": [
        {
          "internalType": "string",
          "name": "",
          "type": "string"
        },
        {
          "internalType": "uint256",
          "name": "",
          "type": "uint256"
        }
      ],
      "payable": false,
      "stateMutability": "view",
      "type": "function"
    },
    {
      "constant": true,
      "inputs": [],
      "name": "getItemList",
      "outputs": [
        {
          "internalType": "uint256[]",
          "name": "",
          "type": "uint256[]"
        },
        {
          "internalType": "uint256[]",
          "name": "",
          "type": "uint256[]"
        }
      ],
      "payable": false,
      "stateMutability": "view",
      "type": "function"
    }
  ],
  "bytecode": "0x608060405261a8c06001556000600555336000806101000a81548173ffffffffffffffffffffffffffffffffffffffff021916908373ffffffffffffffffffffffffffffffffffffffff1602179055506000809054906101000a900473ffffffffffffffffffffffffffffffffffffffff1673ffffffffffffffffffffffffffffffffffffffff16600073ffffffffffffffffffffffffffffffffffffffff167f8be0079c531659141344cd1fd0a4f28419497f9722a3daafe3b4186f6b6457e060405160405180910390a3613f1b806100da6000396000f3fe608060405234801561001057600080fd5b50600436106101735760003560e01c8063816bfee6116100de578063a9059cbb11610097578063dd62ed3e11610071578063dd62ed3e14610801578063eded5d9e14610879578063eeda149c146108c5578063f2fde38b1461090957610173565b8063a9059cbb14610721578063aa7bcc5814610787578063dbe93832146107bf57610173565b8063816bfee6146105ad5780638da5cb5b146105f95780638e96b4f7146106435780638f32d59b1461067b57806393fccbb61461069d578063990e7469146106e957610173565b80634351844711610130578063435184471461041d57806359ca683c1461046d57806370a08231146104bd578063715018a614610515578063740200331461051f5780637729166d1461056b57610173565b8063063b2e5b14610178578063095ea7b31461021f57806318160ddd1461028557806323b872dd146102a35780632639769f146103295780633129e7731461036f575b600080fd5b61018061094d565b604051808060200180602001838103835285818151815260200191508051906020019060200280838360005b838110156101c75780820151818401526020810190506101ac565b50505050905001838103825284818151815260200191508051906020019060200280838360005b838110156102095780820151818401526020810190506101ee565b5050505090500194505050505060405180910390f35b61026b6004803603604081101561023557600080fd5b81019080803573ffffffffffffffffffffffffffffffffffffffff16906020019092919080359060200190929190505050610a9c565b604051808215151515815260200191505060405180910390f35b61028d610ab3565b6040518082815260200191505060405180910390f35b61030f600480360360608110156102b957600080fd5b81019080803573ffffffffffffffffffffffffffffffffffffffff169060200190929190803573ffffffffffffffffffffffffffffffffffffffff16906020019092919080359060200190929190505050610abd565b604051808215151515815260200191505060405180910390f35b6103556004803603602081101561033f57600080fd5b8101908080359060200190929190505050610b6e565b604051808215151515815260200191505060405180910390f35b61039b6004803603602081101561038557600080fd5b8101908080359060200190929190505050610be0565b6040518080602001838152602001828103825284818151815260200191508051906020019080838360005b838110156103e15780820151818401526020810190506103c6565b50505050905090810190601f16801561040e5780820380516001836020036101000a031916815260200191505b50935050505060405180910390f35b6104536004803603604081101561043357600080fd5b810190808035906020019092919080359060200190929190505050610dbd565b604051808215151515815260200191505060405180910390f35b6104a36004803603604081101561048357600080fd5b810190808035906020019092919080359060200190929190505050610f1c565b604051808215151515815260200191505060405180910390f35b6104ff600480360360208110156104d357600080fd5b81019080803573ffffffffffffffffffffffffffffffffffffffff16906020019092919050505061107b565b6040518082815260200191505060405180910390f35b61051d6110c4565b005b6105556004803603604081101561053557600080fd5b810190808035906020019092919080359060200190929190505050611194565b6040518082815260200191505060405180910390f35b6105ab6004803603606081101561058157600080fd5b810190808035906020019092919080359060200190929190803590602001909291905050506113ba565b005b6105e3600480360360408110156105c357600080fd5b810190808035906020019092919080359060200190929190505050611917565b6040518082815260200191505060405180910390f35b610601611a69565b604051808273ffffffffffffffffffffffffffffffffffffffff1673ffffffffffffffffffffffffffffffffffffffff16815260200191505060405180910390f35b6106796004803603604081101561065957600080fd5b810190808035906020019092919080359060200190929190505050611a92565b005b610683611dcd565b604051808215151515815260200191505060405180910390f35b6106d3600480360360408110156106b357600080fd5b810190808035906020019092919080359060200190929190505050611e24565b6040518082815260200191505060405180910390f35b61071f600480360360408110156106ff57600080fd5b81019080803590602001909291908035906020019092919050505061204a565b005b61076d6004803603604081101561073757600080fd5b81019080803573ffffffffffffffffffffffffffffffffffffffff1690602001909291908035906020019092919050505061235b565b604051808215151515815260200191505060405180910390f35b6107bd6004803603604081101561079d57600080fd5b810190808035906020019092919080359060200190929190505050612372565b005b6107eb600480360360208110156107d557600080fd5b810190808035906020019092919050505061251e565b6040518082815260200191505060405180910390f35b6108636004803603604081101561081757600080fd5b81019080803573ffffffffffffffffffffffffffffffffffffffff169060200190929190803573ffffffffffffffffffffffffffffffffffffffff169060200190929190505050612583565b6040518082815260200191505060405180910390f35b6108af6004803603604081101561088f57600080fd5b81019080803590602001909291908035906020019092919050505061260a565b6040518082815260200191505060405180910390f35b610907600480360360208110156108db57600080fd5b81019080803573ffffffffffffffffffffffffffffffffffffffff16906020019092919050505061275c565b005b61094b6004803603602081101561091f57600080fd5b81019080803573ffffffffffffffffffffffffffffffffffffffff169060200190929190505050612819565b005b6060806000606061095c612836565b80935081925050506060826040519080825280602002602001820160405280156109955781602001602082028038833980820191505090505b5090506060836040519080825280602002602001820160405280156109c95781602001602082028038833980820191505090505b50905060008090505b84811015610a8d5760008482815181106109e857fe5b60200260200101519050808483815181106109ff57fe5b602002602001018181525050600660003373ffffffffffffffffffffffffffffffffffffffff1673ffffffffffffffffffffffffffffffffffffffff1681526020019081526020016000208181548110610a5557fe5b906000526020600020906007020160010154838381518110610a7357fe5b6020026020010181815250505080806001019150506109d2565b50818195509550505050509091565b6000610aa933848461294f565b6001905092915050565b6000600554905090565b6000610aca848484612b46565b610b638433610b5e85600460008a73ffffffffffffffffffffffffffffffffffffffff1673ffffffffffffffffffffffffffffffffffffffff16815260200190815260200160002060003373ffffffffffffffffffffffffffffffffffffffff1673ffffffffffffffffffffffffffffffffffffffff16815260200190815260200160002054612e0190919063ffffffff16565b61294f565b600190509392505050565b6000600660003373ffffffffffffffffffffffffffffffffffffffff1673ffffffffffffffffffffffffffffffffffffffff1681526020019081526020016000208281548110610bba57fe5b906000526020600020906007020160060160009054906101000a900460ff169050919050565b6060600082610bee81610b6e565b610c60576040517f08c379a000000000000000000000000000000000000000000000000000000000815260040180806020018281038252601a8152602001807f6974656d206d7573742062652076616c696420746f2063616c6c00000000000081525060200191505060405180910390fd5b600660003373ffffffffffffffffffffffffffffffffffffffff1673ffffffffffffffffffffffffffffffffffffffff1681526020019081526020016000208481548110610caa57fe5b9060005260206000209060070201600001600660003373ffffffffffffffffffffffffffffffffffffffff1673ffffffffffffffffffffffffffffffffffffffff1681526020019081526020016000208581548110610d0557fe5b906000526020600020906007020160010154818054600181600116156101000203166002900480601f016020809104026020016040519081016040528092919081815260200182805460018160011615610100020316600290048015610dac5780601f10610d8157610100808354040283529160200191610dac565b820191906000526020600020905b815481529060010190602001808311610d8f57829003601f168201915b505050505091509250925050915091565b60008282600260003373ffffffffffffffffffffffffffffffffffffffff1673ffffffffffffffffffffffffffffffffffffffff1681526020019081526020016000208260058110610e0b57fe5b603702018160058110610e1a57fe5b600b020160040160009054906101000a900460ff16610ea1576040517f08c379a000000000000000000000000000000000000000000000000000000000815260040180806020018281038252601d8152602001807f6c6f636174696f6e20646f6573206e6f742068617665207370726f757400000081525060200191505060405180910390fd5b600260003373ffffffffffffffffffffffffffffffffffffffff1673ffffffffffffffffffffffffffffffffffffffff1681526020019081526020016000208560058110610eeb57fe5b603702018460058110610efa57fe5b600b020160050160050160019054906101000a900460ff169250505092915050565b60008282600260003373ffffffffffffffffffffffffffffffffffffffff1673ffffffffffffffffffffffffffffffffffffffff1681526020019081526020016000208260058110610f6a57fe5b603702018160058110610f7957fe5b600b020160040160009054906101000a900460ff16611000576040517f08c379a000000000000000000000000000000000000000000000000000000000815260040180806020018281038252601d8152602001807f6c6f636174696f6e20646f6573206e6f742068617665207370726f757400000081525060200191505060405180910390fd5b600260003373ffffffffffffffffffffffffffffffffffffffff1673ffffffffffffffffffffffffffffffffffffffff168152602001908152602001600020856005811061104a57fe5b60370201846005811061105957fe5b600b020160050160050160019054906101000a900460ff169250505092915050565b6000600360008373ffffffffffffffffffffffffffffffffffffffff1673ffffffffffffffffffffffffffffffffffffffff168152602001908152602001600020549050919050565b6110cc611dcd565b6110d557600080fd5b600073ffffffffffffffffffffffffffffffffffffffff166000809054906101000a900473ffffffffffffffffffffffffffffffffffffffff1673ffffffffffffffffffffffffffffffffffffffff167f8be0079c531659141344cd1fd0a4f28419497f9722a3daafe3b4186f6b6457e060405160405180910390a360008060006101000a81548173ffffffffffffffffffffffffffffffffffffffff021916908373ffffffffffffffffffffffffffffffffffffffff160217905550565b60008282600260003373ffffffffffffffffffffffffffffffffffffffff1673ffffffffffffffffffffffffffffffffffffffff16815260200190815260200160002082600581106111e257fe5b6037020181600581106111f157fe5b600b020160040160009054906101000a900460ff16611278576040517f08c379a000000000000000000000000000000000000000000000000000000000815260040180806020018281038252601d8152602001807f6c6f636174696f6e20646f6573206e6f742068617665207370726f757400000081525060200191505060405180910390fd5b60006112966112878787612e18565b42612e0190919063ffffffff16565b905060006112a48787612e83565b905060006112b28888612ef1565b905081831115611339576112d0601483612f5f90919063ffffffff16565b6112e38385612e0190919063ffffffff16565b101561132d576113236078611315603c611307607886612f7890919063ffffffff16565b612f9490919063ffffffff16565b612f5f90919063ffffffff16565b95505050506113b2565b600095505050506113b2565b600083141561134e57600095505050506113b2565b6113ac8361139e607861139086611382603c61137460788a612f7890919063ffffffff16565b612f9490919063ffffffff16565b612f9490919063ffffffff16565b612f5f90919063ffffffff16565b612f5f90919063ffffffff16565b95505050505b505092915050565b806113c481610b6e565b611436576040517f08c379a000000000000000000000000000000000000000000000000000000000815260040180806020018281038252601a8152602001807f6974656d206d7573742062652076616c696420746f2063616c6c00000000000081525060200191505060405180910390fd5b816000600660003373ffffffffffffffffffffffffffffffffffffffff1673ffffffffffffffffffffffffffffffffffffffff168152602001908152602001600020828154811061148357fe5b906000526020600020906007020160000160405160200180828054600181600116156101000203166002900480156114f25780601f106114d05761010080835404028352918201916114f2565b820191906000526020600020905b8154815290600101906020018083116114de575b50509150506040516020818303038152906040528051906020012060001c9050600060405160200180807f736565640000000000000000000000000000000000000000000000000000000081525060040190506040516020818303038152906040528051906020012060001c90508082146115d5576040517f08c379a000000000000000000000000000000000000000000000000000000000815260040180806020018281038252600f8152602001807f6e6f7420612073656564206974656d000000000000000000000000000000000081525060200191505060405180910390fd5b6000424460405160200180838152602001828152602001925050506040516020818303038152906040528051906020012060001c90506000444260405160200180838152602001828152602001925050506040516020818303038152906040528051906020012060001c90506000600660003373ffffffffffffffffffffffffffffffffffffffff1673ffffffffffffffffffffffffffffffffffffffff168152602001908152602001600020888154811061168d57fe5b90600052602060002090600702016002016000600481106116aa57fe5b01548316905061172e600660003373ffffffffffffffffffffffffffffffffffffffff1673ffffffffffffffffffffffffffffffffffffffff16815260200190815260200160002089815481106116fd57fe5b906000526020600020906007020160020160016004811061171a57fe5b015484191682612f7890919063ffffffff16565b90506000600660003373ffffffffffffffffffffffffffffffffffffffff1673ffffffffffffffffffffffffffffffffffffffff168152602001908152602001600020898154811061177c57fe5b906000526020600020906007020160020160026004811061179957fe5b01548316905061181d600660003373ffffffffffffffffffffffffffffffffffffffff1673ffffffffffffffffffffffffffffffffffffffff1681526020019081526020016000208a815481106117ec57fe5b906000526020600020906007020160020160036004811061180957fe5b015484191682612f7890919063ffffffff16565b905061182b8b8b8484612fcb565b6001600660003373ffffffffffffffffffffffffffffffffffffffff1673ffffffffffffffffffffffffffffffffffffffff1681526020019081526020016000208a8154811061187757fe5b906000526020600020906007020160010154141561189d576118988961365f565b61190a565b600660003373ffffffffffffffffffffffffffffffffffffffff1673ffffffffffffffffffffffffffffffffffffffff16815260200190815260200160002089815481106118e757fe5b906000526020600020906007020160010160008154809291906001900391905055505b5050505050505050505050565b60008282600260003373ffffffffffffffffffffffffffffffffffffffff1673ffffffffffffffffffffffffffffffffffffffff168152602001908152602001600020826005811061196557fe5b60370201816005811061197457fe5b600b020160040160009054906101000a900460ff166119fb576040517f08c379a000000000000000000000000000000000000000000000000000000000815260040180806020018281038252601d8152602001807f6c6f636174696f6e20646f6573206e6f742068617665207370726f757400000081525060200191505060405180910390fd5b600260003373ffffffffffffffffffffffffffffffffffffffff1673ffffffffffffffffffffffffffffffffffffffff1681526020019081526020016000208560058110611a4557fe5b603702018460058110611a5457fe5b600b0201600501600401549250505092915050565b60008060009054906101000a900473ffffffffffffffffffffffffffffffffffffffff16905090565b81816000611ab2611aa38484612e18565b42612e0190919063ffffffff16565b90506000611ac08484612e83565b9050611ae96064611adb606584612f9490919063ffffffff16565b612f5f90919063ffffffff16565b8211611b5d576040517f08c379a00000000000000000000000000000000000000000000000000000000081526004018080602001828103825260178152602001807f746f6f206561726c7920746f206861766520736565647300000000000000000081525060200191505060405180910390fd5b600260003373ffffffffffffffffffffffffffffffffffffffff1673ffffffffffffffffffffffffffffffffffffffff1681526020019081526020016000208460058110611ba757fe5b603702018360058110611bb657fe5b600b020160040160019054906101000a900460ff1615611c3e576040517f08c379a000000000000000000000000000000000000000000000000000000000815260040180806020018281038252601e8152602001807f7468652073656564732061726520616c726561647920706c75676765642e000081525060200191505060405180910390fd5b6001600260003373ffffffffffffffffffffffffffffffffffffffff1673ffffffffffffffffffffffffffffffffffffffff1681526020019081526020016000208760058110611c8a57fe5b603702018660058110611c9957fe5b600b020160040160016101000a81548160ff0219169083151502179055506000600260003373ffffffffffffffffffffffffffffffffffffffff1673ffffffffffffffffffffffffffffffffffffffff1681526020019081526020016000208760058110611d0357fe5b603702018660058110611d1257fe5b600b02016000015490506000600260003373ffffffffffffffffffffffffffffffffffffffff1673ffffffffffffffffffffffffffffffffffffffff1681526020019081526020016000208860058110611d6857fe5b603702018760058110611d7757fe5b600b02016001015490506000611db3600a611da56002611d978d8d611917565b612f5f90919063ffffffff16565b612f7890919063ffffffff16565b9050611dc2818484868661378a565b505050505050505050565b60008060009054906101000a900473ffffffffffffffffffffffffffffffffffffffff1673ffffffffffffffffffffffffffffffffffffffff163373ffffffffffffffffffffffffffffffffffffffff1614905090565b60008282600260003373ffffffffffffffffffffffffffffffffffffffff1673ffffffffffffffffffffffffffffffffffffffff1681526020019081526020016000208260058110611e7257fe5b603702018160058110611e8157fe5b600b020160040160009054906101000a900460ff16611f08576040517f08c379a000000000000000000000000000000000000000000000000000000000815260040180806020018281038252601d8152602001807f6c6f636174696f6e20646f6573206e6f742068617665207370726f757400000081525060200191505060405180910390fd5b6000611f26611f178787612e18565b42612e0190919063ffffffff16565b90506000611f348787612e83565b90506000611f42888861392c565b905081831115611fc957611f60601483612f5f90919063ffffffff16565b611f738385612e0190919063ffffffff16565b1015611fbd57611fb3600f611fa56005611f97600f86612f7890919063ffffffff16565b612f9490919063ffffffff16565b612f5f90919063ffffffff16565b9550505050612042565b60009550505050612042565b6000831415611fde5760009550505050612042565b61203c8361202e600f612020866120126005612004600f8a612f7890919063ffffffff16565b612f9490919063ffffffff16565b612f9490919063ffffffff16565b612f5f90919063ffffffff16565b612f5f90919063ffffffff16565b95505050505b505092915050565b8181600260003373ffffffffffffffffffffffffffffffffffffffff1673ffffffffffffffffffffffffffffffffffffffff168152602001908152602001600020826005811061209657fe5b6037020181600581106120a557fe5b600b020160040160009054906101000a900460ff1661212c576040517f08c379a000000000000000000000000000000000000000000000000000000000815260040180806020018281038252601d8152602001807f6c6f636174696f6e20646f6573206e6f742068617665207370726f757400000081525060200191505060405180910390fd5b600061214a61213b8686612e18565b42612e0190919063ffffffff16565b905060006121588686612e83565b905060006121668787611e24565b905060006121748888611194565b90506000612186858584868d8d61399a565b905060011515600260003373ffffffffffffffffffffffffffffffffffffffff1673ffffffffffffffffffffffffffffffffffffffff1681526020019081526020016000208a600581106121d657fe5b6037020189600581106121e557fe5b600b020160040160009054906101000a900460ff1615151415612311576000600260003373ffffffffffffffffffffffffffffffffffffffff1673ffffffffffffffffffffffffffffffffffffffff1681526020019081526020016000208a6005811061224e57fe5b60370201896005811061225d57fe5b600b020160040160006101000a81548160ff0219169083151502179055506122cd81600360003373ffffffffffffffffffffffffffffffffffffffff1673ffffffffffffffffffffffffffffffffffffffff16815260200190815260200160002054612f7890919063ffffffff16565b600360003373ffffffffffffffffffffffffffffffffffffffff1673ffffffffffffffffffffffffffffffffffffffff168152602001908152602001600020819055505b7fef9514e76636c86a9084470f65495ff78258053cada18c62136f204ff2f0daa28989604051808381526020018281526020019250505060405180910390a1505050505050505050565b6000612368338484612b46565b6001905092915050565b6064600360003373ffffffffffffffffffffffffffffffffffffffff1673ffffffffffffffffffffffffffffffffffffffff168152602001908152602001600020541161240a576040517f08c379a0000000000000000000000000000000000000000000000000000000008152600401808060200182810382526023815260200180613e7b6023913960400191505060405180910390fd5b6000424460405160200180838152602001828152602001925050506040516020818303038152906040528051906020012060001c90506000444260405160200180838152602001828152602001925050506040516020818303038152906040528051906020012060001c905061248284848484612fcb565b6124d56064600360003373ffffffffffffffffffffffffffffffffffffffff1673ffffffffffffffffffffffffffffffffffffffff16815260200190815260200160002054612e0190919063ffffffff16565b600360003373ffffffffffffffffffffffffffffffffffffffff1673ffffffffffffffffffffffffffffffffffffffff1681526020019081526020016000208190555050505050565b6000600660003373ffffffffffffffffffffffffffffffffffffffff1673ffffffffffffffffffffffffffffffffffffffff168152602001908152602001600020828154811061256a57fe5b9060005260206000209060070201600101549050919050565b6000600460008473ffffffffffffffffffffffffffffffffffffffff1673ffffffffffffffffffffffffffffffffffffffff16815260200190815260200160002060008373ffffffffffffffffffffffffffffffffffffffff1673ffffffffffffffffffffffffffffffffffffffff16815260200190815260200160002054905092915050565b60008282600260003373ffffffffffffffffffffffffffffffffffffffff1673ffffffffffffffffffffffffffffffffffffffff168152602001908152602001600020826005811061265857fe5b60370201816005811061266757fe5b600b020160040160009054906101000a900460ff166126ee576040517f08c379a000000000000000000000000000000000000000000000000000000000815260040180806020018281038252601d8152602001807f6c6f636174696f6e20646f6573206e6f742068617665207370726f757400000081525060200191505060405180910390fd5b600260003373ffffffffffffffffffffffffffffffffffffffff1673ffffffffffffffffffffffffffffffffffffffff168152602001908152602001600020856005811061273857fe5b60370201846005811061274757fe5b600b0201600501600201549250505092915050565b612764611dcd565b61276d57600080fd5b6103e8600360008373ffffffffffffffffffffffffffffffffffffffff1673ffffffffffffffffffffffffffffffffffffffff168152602001908152602001600020819055507f827446e550fe5bfd75ca44888adfeafa8fe5b5ea548deabda1ed8f5c08f2cf2281604051808273ffffffffffffffffffffffffffffffffffffffff1673ffffffffffffffffffffffffffffffffffffffff16815260200191505060405180910390a150565b612821611dcd565b61282a57600080fd5b61283381613b92565b50565b606060006060600660003373ffffffffffffffffffffffffffffffffffffffff1673ffffffffffffffffffffffffffffffffffffffff168152602001908152602001600020805490506040519080825280602002602001820160405280156128ad5781602001602082028038833980820191505090505b509050600080905060008090505b600660003373ffffffffffffffffffffffffffffffffffffffff1673ffffffffffffffffffffffffffffffffffffffff168152602001908152602001600020805490508110156129425761290e81610b6e565b15612935578083838151811061292057fe5b60200260200101818152505081806001019250505b80806001019150506128bb565b5081819350935050509091565b600073ffffffffffffffffffffffffffffffffffffffff168373ffffffffffffffffffffffffffffffffffffffff1614156129d5576040517f08c379a0000000000000000000000000000000000000000000000000000000008152600401808060200182810382526024815260200180613ec36024913960400191505060405180910390fd5b600073ffffffffffffffffffffffffffffffffffffffff168273ffffffffffffffffffffffffffffffffffffffff161415612a5b576040517f08c379a0000000000000000000000000000000000000000000000000000000008152600401808060200182810382526022815260200180613e596022913960400191505060405180910390fd5b80600460008573ffffffffffffffffffffffffffffffffffffffff1673ffffffffffffffffffffffffffffffffffffffff16815260200190815260200160002060008473ffffffffffffffffffffffffffffffffffffffff1673ffffffffffffffffffffffffffffffffffffffff168152602001908152602001600020819055508173ffffffffffffffffffffffffffffffffffffffff168373ffffffffffffffffffffffffffffffffffffffff167f8c5be1e5ebec7d5bd14f71427d1e84f3dd0314c0f7b2291e5b200ac8c7c3b925836040518082815260200191505060405180910390a3505050565b600073ffffffffffffffffffffffffffffffffffffffff168373ffffffffffffffffffffffffffffffffffffffff161415612bcc576040517f08c379a0000000000000000000000000000000000000000000000000000000008152600401808060200182810382526025815260200180613e9e6025913960400191505060405180910390fd5b600073ffffffffffffffffffffffffffffffffffffffff168273ffffffffffffffffffffffffffffffffffffffff161415612c52576040517f08c379a0000000000000000000000000000000000000000000000000000000008152600401808060200182810382526023815260200180613e366023913960400191505060405180910390fd5b612ca481600360008673ffffffffffffffffffffffffffffffffffffffff1673ffffffffffffffffffffffffffffffffffffffff16815260200190815260200160002054612e0190919063ffffffff16565b600360008573ffffffffffffffffffffffffffffffffffffffff1673ffffffffffffffffffffffffffffffffffffffff16815260200190815260200160002081905550612d3981600360008573ffffffffffffffffffffffffffffffffffffffff1673ffffffffffffffffffffffffffffffffffffffff16815260200190815260200160002054612f7890919063ffffffff16565b600360008473ffffffffffffffffffffffffffffffffffffffff1673ffffffffffffffffffffffffffffffffffffffff16815260200190815260200160002081905550612d9181600554612f7890919063ffffffff16565b6005819055508173ffffffffffffffffffffffffffffffffffffffff168373ffffffffffffffffffffffffffffffffffffffff167fddf252ad1be2c89b69c2b068fc378daa952ba7f163c4a11628f55a4df523b3ef836040518082815260200191505060405180910390a3505050565b600082821115612e0d57fe5b818303905092915050565b6000600260003373ffffffffffffffffffffffffffffffffffffffff1673ffffffffffffffffffffffffffffffffffffffff1681526020019081526020016000208360058110612e6457fe5b603702018260058110612e7357fe5b600b020160020154905092915050565b6000600260003373ffffffffffffffffffffffffffffffffffffffff1673ffffffffffffffffffffffffffffffffffffffff1681526020019081526020016000208360058110612ecf57fe5b603702018260058110612ede57fe5b600b020160050160030154905092915050565b6000600260003373ffffffffffffffffffffffffffffffffffffffff1673ffffffffffffffffffffffffffffffffffffffff1681526020019081526020016000208360058110612f3d57fe5b603702018260058110612f4c57fe5b600b020160050160000154905092915050565b600080828481612f6b57fe5b0490508091505092915050565b600080828401905083811015612f8a57fe5b8091505092915050565b600080831415612fa75760009050612fc5565b6000828402905082848281612fb857fe5b0414612fc057fe5b809150505b92915050565b60001515600260003373ffffffffffffffffffffffffffffffffffffffff1673ffffffffffffffffffffffffffffffffffffffff168152602001908152602001600020856005811061301957fe5b60370201846005811061302857fe5b600b020160040160009054906101000a900460ff1615151461304957600080fd5b6130ae600260003373ffffffffffffffffffffffffffffffffffffffff1673ffffffffffffffffffffffffffffffffffffffff168152602001908152602001600020856005811061309657fe5b6037020184600581106130a557fe5b600b0201613c8a565b6130b757600080fd5b6130bf613c9b565b6040518060e00160405280600081526020016000815260200160008152602001600081526020016000815260200160001515815260200160001515815250905060008390506000839050600060016002838161311757fe5b066002858161312257fe5b0617148460a0019015159081151581525050600183901c9250600182901c915060016002838161314e57fe5b066002858161315957fe5b0617148460c00190151590811515815250506000600290505b60298110156132005760016002858161318757fe5b0614156131b0576131a660018660400151612f7890919063ffffffff16565b8560400181815250505b6001600284816131bc57fe5b0614156131e5576131db60018660400151612f7890919063ffffffff16565b8560400181815250505b600184901c9350600183901c92508080600101915050613172565b506000602990505b60658110156132965760016002858161321d57fe5b0614156132465761323c60018660200151612f7890919063ffffffff16565b8560200181815250505b60016002848161325257fe5b06141561327b5761327160018660200151612f7890919063ffffffff16565b8560200181815250505b600184901c9350600183901c92508080600101915050613208565b506000606590505b60a181101561332c576001600285816132b357fe5b0614156132dc576132d260018660000151612f7890919063ffffffff16565b8560000181815250505b6001600284816132e857fe5b0614156133115761330760018660000151612f7890919063ffffffff16565b8560000181815250505b600184901c9350600183901c9250808060010191505061329e565b50600060a190505b60c98110156133c25760016002858161334957fe5b0614156133725761336860018660800151612f7890919063ffffffff16565b8560800181815250505b60016002848161337e57fe5b0614156133a75761339d60018660800151612f7890919063ffffffff16565b8560800181815250505b600184901c9350600183901c92508080600101915050613334565b50600060c990505b610100811015613443576001600285816133e057fe5b0614156133fe576133fb600183612f7890919063ffffffff16565b91505b60016002848161340a57fe5b06141561342857613425600183612f7890919063ffffffff16565b91505b600184901c9350600183901c925080806001019150506133ca565b506201518060be6134716002613463600386612f9490919063ffffffff16565b612f5f90919063ffffffff16565b61017c038161347c57fe5b04028460600181815250506040518060e001604052808781526020018681526020014281526020016000815260200160011515815260200160001515815260200185815250600260003373ffffffffffffffffffffffffffffffffffffffff1673ffffffffffffffffffffffffffffffffffffffff168152602001908152602001600020896005811061350b57fe5b60370201886005811061351a57fe5b600b02016000820151816000015560208201518160010155604082015181600201556060820151816003015560808201518160040160006101000a81548160ff02191690831515021790555060a08201518160040160016101000a81548160ff02191690831515021790555060c082015181600501600082015181600001556020820151816001015560408201518160020155606082015181600301556080820151816004015560a08201518160050160006101000a81548160ff02191690831515021790555060c08201518160050160016101000a81548160ff02191690831515021790555050509050507f29673a2c4180cee02675c1aeac3253f75b8a067246770a77b079d48c92248cbd888888886040518085815260200184815260200183815260200182815260200194505050505060405180910390a15050505050505050565b8061366981610b6e565b6136db576040517f08c379a000000000000000000000000000000000000000000000000000000000815260040180806020018281038252601a8152602001807f6974656d206d7573742062652076616c696420746f2063616c6c00000000000081525060200191505060405180910390fd5b6000600660003373ffffffffffffffffffffffffffffffffffffffff1673ffffffffffffffffffffffffffffffffffffffff168152602001908152602001600020838154811061372757fe5b906000526020600020906007020160060160006101000a81548160ff0219169083151502179055507f04db484cca74d7317df830807409b645213719e2ca21de1d9b1eee1ab4c68018826040518082815260200191505060405180910390a15050565b613792613cdc565b60405180608001604052808681526020018581526020018481526020018381525090506137bd613cfe565b60405180608001604052806040518060400160405280600481526020017f7365656400000000000000000000000000000000000000000000000000000000815250815260200188815260200183815260200160011515815250905060006001600660003373ffffffffffffffffffffffffffffffffffffffff1673ffffffffffffffffffffffffffffffffffffffff168152602001908152602001600020839080600181540180825580915050906001820390600052602060002090600702016000909192909190915060008201518160000190805190602001906138a3929190613d2e565b50602082015181600101556040820151816002019060046138c5929190613dae565b5060608201518160060160006101000a81548160ff02191690831515021790555050500390507f9d988e03406844e4f4570c5b73a65bcd79fdd6f1bf564656ae99e23328ef2c0e816040518082815260200191505060405180910390a15050505050505050565b6000600260003373ffffffffffffffffffffffffffffffffffffffff1673ffffffffffffffffffffffffffffffffffffffff168152602001908152602001600020836005811061397857fe5b60370201826005811061398757fe5b600b020160050160010154905092915050565b60008282600260003373ffffffffffffffffffffffffffffffffffffffff1673ffffffffffffffffffffffffffffffffffffffff16815260200190815260200160002082600581106139e857fe5b6037020181600581106139f757fe5b600b020160040160009054906101000a900460ff16613a7e576040517f08c379a000000000000000000000000000000000000000000000000000000000815260040180806020018281038252601d8152602001807f6c6f636174696f6e20646f6573206e6f742068617665207370726f757400000081525060200191505060405180910390fd5b6000613a8a868661260a565b90506000613a988787610f1c565b90506000613aa68888610dbd565b90508a8c1115613af557613ac460148c612f5f90919063ffffffff16565b613ad78c8e612e0190919063ffffffff16565b1015613ae95760059550505050613b86565b60009550505050613b86565b60008c1415613b0a5760029550505050613b86565b6000613b44613b23600a86612f5f90919063ffffffff16565b613b368c8e612f9490919063ffffffff16565b612e0190919063ffffffff16565b90508115613b6257613b60600582612f7890919063ffffffff16565b505b8215613b7e57613b7c600582612f7890919063ffffffff16565b505b809650505050505b50509695505050505050565b600073ffffffffffffffffffffffffffffffffffffffff168173ffffffffffffffffffffffffffffffffffffffff161415613bcc57600080fd5b8073ffffffffffffffffffffffffffffffffffffffff166000809054906101000a900473ffffffffffffffffffffffffffffffffffffffff1673ffffffffffffffffffffffffffffffffffffffff167f8be0079c531659141344cd1fd0a4f28419497f9722a3daafe3b4186f6b6457e060405160405180910390a3806000806101000a81548173ffffffffffffffffffffffffffffffffffffffff021916908373ffffffffffffffffffffffffffffffffffffffff16021790555050565b600042826003015411159050919050565b6040518060e0016040528060008152602001600081526020016000815260200160008152602001600081526020016000151581526020016000151581525090565b6040518060800160405280600490602082028038833980820191505090505090565b60405180608001604052806060815260200160008152602001613d1f613dee565b81526020016000151581525090565b828054600181600116156101000203166002900490600052602060002090601f016020900481019282601f10613d6f57805160ff1916838001178555613d9d565b82800160010185558215613d9d579182015b82811115613d9c578251825591602001919060010190613d81565b5b509050613daa9190613e10565b5090565b8260048101928215613ddd579160200282015b82811115613ddc578251825591602001919060010190613dc1565b5b509050613dea9190613e10565b5090565b6040518060800160405280600490602082028038833980820191505090505090565b613e3291905b80821115613e2e576000816000905550600101613e16565b5090565b9056fe45524332303a207472616e7366657220746f20746865207a65726f206164647265737345524332303a20617070726f766520746f20746865207a65726f20616464726573736e6f7420656e6f756768206d6f6e657920746f206275792072616e646f6d207365656445524332303a207472616e736665722066726f6d20746865207a65726f206164647265737345524332303a20617070726f76652066726f6d20746865207a65726f2061646472657373a265627a7a723158200c20ef205261880775fb1719bffaf3266394b031089ce1b5e45e5d146d7ee40764736f6c63430005100032",
  "source": "pragma solidity ^0.5.0;\n\n\nimport \"./token.sol\";\n\ncontract OwnerItem is SproutOwnership {\n\n    /*To each user, there's a list contain the thing they currently have. The things in the list could be sold or used.\n      For now, the items could only be seeds.\n      The seeds can be plugged when the sprout (or the beanstalk) is older than 1.01 of its fullgrown_time\n\n      In addition, each person start with balance = $1000\n      (I'm considering using onlyOwner in register to prevent malicious use, don't know if it's necessary.)\n    */\n\n    event OnItemAdded(uint Id);\n    event OnItemDeleted(uint Id);\n    event OnRegister(address account);\n\n    struct Item {\n        string itemName;\n        uint num;\n        uint[4] content;//for seed, its 4 . It may be expand afterwards.\n        bool isValid;\n    }\n    mapping (address => Item[]) _ItemList;\n\n\n    // Modifier\n    modifier isValidItem(uint _Id) {\n        require(isItemValid(_Id), \"item must be valid to call\");\n        _;\n    }\n    modifier isSeed(uint _Id){\n        uint temp1 = uint(keccak256(abi.encodePacked(_ItemList[msg.sender][_Id].itemName)));\n        uint temp2 = uint(keccak256(abi.encodePacked(\"seed\")));\n        require(temp1 == temp2, \"not a seed item\");\n        _;\n    }\n\n\n    // Public function\n\n    // when a player enter the game, he or she should be registered by the contract owner (us) first\n    function Register(address new_player) public onlyOwner(){\n        balance[new_player] = 1000;\n        emit OnRegister(new_player);\n    }\n    //when you plug the seeds from a beanstalk, it's immediately add to your item list\n    function PlugSeed(uint x_id, uint y_id) public SeedExist(x_id, y_id){\n        sprout_list[msg.sender][x_id][y_id].seed_plug = true;\n        uint dna1 = sprout_list[msg.sender][x_id][y_id].dna1;\n        uint dna2 = sprout_list[msg.sender][x_id][y_id].dna2;\n        uint num = getProduceGene(x_id, y_id).div(2).add(10);\n        addSeedItem(num, dna1, dna2, dna1, dna2);\n    }\n    // The seed Items could be used to plant a new sprout at (x_id, y_id)\n    function UseSeedItem(uint x_id, uint y_id, uint _Id) public isValidItem(_Id) isSeed( _Id){\n        uint rand_m = uint(keccak256(abi.encodePacked(block.timestamp, block.difficulty)));\n        uint rand_f = uint(keccak256(abi.encodePacked(block.difficulty, block.timestamp)));\n        uint dna1 = rand_m & (_ItemList[msg.sender][_Id].content[0]);\n        dna1 = dna1.add(~rand_m & (_ItemList[msg.sender][_Id].content[1]));\n        uint dna2 = rand_f & (_ItemList[msg.sender][_Id].content[2]);\n        dna2 = dna2.add(~rand_f & (_ItemList[msg.sender][_Id].content[3]));\n        addSprout(x_id, y_id, dna1, dna2);\n        if(_ItemList[msg.sender][_Id].num == 1){ deleteItem(_Id); }\n        else{ _ItemList[msg.sender][_Id].num --; }\n    }\n    //Basic functions for showing list\n    function isItemValid(uint _Id) public view returns(bool isValid) {\n        return _ItemList[msg.sender][_Id].isValid;\n    }\n    function getItemNum(uint _Id) public view returns(uint) {\n        return _ItemList[msg.sender][_Id].num;\n    }\n    function getItem(uint _Id) public view isValidItem(_Id) returns(string memory, uint) {\n        return (_ItemList[msg.sender][_Id].itemName, _ItemList[msg.sender][_Id].num);\n    }\n\n    function getItemList() public view returns(uint[] memory, uint[] memory) {\n        uint len;\n        uint[] memory valids;\n\n        (valids, len) = _getValidItems();\n\n        uint[] memory ids = new uint[](len);\n        uint[] memory nums = new uint[](len);\n        for (uint i = 0; i < len; i++) {\n            uint id = valids[i];\n            ids[i] = id;\n            nums[i] = _ItemList[msg.sender][id].num;\n        }\n        return (ids, nums);\n    }\n\n\n\n    // private function\n    function addSeedItem(uint num, uint DNAm1, uint DNAm2, uint DNAf1, uint DNAf2) internal {\n        uint[4] memory dnas = [DNAm1, DNAm2, DNAf1, DNAf2];\n        Item memory item = Item(\"seed\", num, dnas, true);\n        uint Id = _ItemList[msg.sender].push(item) - 1;\n\n        emit OnItemAdded(Id);\n    }\n\n    function deleteItem(uint _Id) internal isValidItem(_Id) {\n        _ItemList[msg.sender][_Id].isValid = false;\n\n        emit OnItemDeleted(_Id);\n    }\n\n    function _getValidItems() private view returns(uint[] memory valids, uint length) {\n        uint[] memory validItems = new uint[](_ItemList[msg.sender].length);\n        uint count = 0;\n        for (uint i = 0; i < _ItemList[msg.sender].length; i++) {\n            if (isItemValid(i)) {\n                validItems[count] = i;\n                count++;\n            }\n        }\n        return(validItems, count);\n    }\n}",
  "sourcePath": "/Users/catherine/Documents/GitHub/finals/nmlab_final/contracts/OwnerItem.sol",
  "compiler": {
    "name": "solc",
    "version": "0.5.16+commit.9c3226ce.Emscripten.clang"
  },
  "schemaVersion": "3.1.0",
  "updatedAt": "2020-06-15T09:43:11.364Z",
  "devdoc": {
    "methods": {
      "isOwner()": {
        "return": "true if `msg.sender` is the owner of the contract."
      },
      "owner()": {
        "return": "the address of the owner."
      },
      "renounceOwnership()": {
        "details": "Allows the current owner to relinquish control of the contract."
      },
      "transferOwnership(address)": {
        "details": "Allows the current owner to transfer control of the contract to a newOwner.",
        "params": {
          "newOwner": "The address to transfer ownership to."
        }
      }
    }
  },
  "userdoc": {
    "methods": {
      "renounceOwnership()": {
        "notice": "Renouncing to ownership will leave the contract without an owner. It will not be possible to call the functions with the `onlyOwner` modifier anymore."
      }
    }
  }
}