{
  "contractName": "OwnerItem",
  "abi": [
    {
      "constant": false,
      "inputs": [
        {
          "name": "spender",
          "type": "address"
        },
        {
          "name": "amount",
          "type": "uint256"
        }
      ],
      "name": "approve",
      "outputs": [
        {
          "name": "",
          "type": "bool"
        }
      ],
      "payable": false,
      "stateMutability": "nonpayable",
      "type": "function"
    },
    {
      "constant": true,
      "inputs": [],
      "name": "totalSupply",
      "outputs": [
        {
          "name": "",
          "type": "uint256"
        }
      ],
      "payable": false,
      "stateMutability": "view",
      "type": "function"
    },
    {
      "constant": false,
      "inputs": [
        {
          "name": "sender",
          "type": "address"
        },
        {
          "name": "recipient",
          "type": "address"
        },
        {
          "name": "amount",
          "type": "uint256"
        }
      ],
      "name": "transferFrom",
      "outputs": [
        {
          "name": "",
          "type": "bool"
        }
      ],
      "payable": false,
      "stateMutability": "nonpayable",
      "type": "function"
    },
    {
      "constant": true,
      "inputs": [
        {
          "name": "x_id",
          "type": "uint256"
        },
        {
          "name": "y_id",
          "type": "uint256"
        }
      ],
      "name": "getSeedRound",
      "outputs": [
        {
          "name": "",
          "type": "bool"
        }
      ],
      "payable": false,
      "stateMutability": "view",
      "type": "function"
    },
    {
      "constant": true,
      "inputs": [
        {
          "name": "x_id",
          "type": "uint256"
        },
        {
          "name": "y_id",
          "type": "uint256"
        }
      ],
      "name": "getSeedYellow",
      "outputs": [
        {
          "name": "",
          "type": "bool"
        }
      ],
      "payable": false,
      "stateMutability": "view",
      "type": "function"
    },
    {
      "constant": true,
      "inputs": [
        {
          "name": "account",
          "type": "address"
        }
      ],
      "name": "balanceOf",
      "outputs": [
        {
          "name": "",
          "type": "uint256"
        }
      ],
      "payable": false,
      "stateMutability": "view",
      "type": "function"
    },
    {
      "constant": false,
      "inputs": [],
      "name": "renounceOwnership",
      "outputs": [],
      "payable": false,
      "stateMutability": "nonpayable",
      "type": "function"
    },
    {
      "constant": true,
      "inputs": [
        {
          "name": "x_id",
          "type": "uint256"
        },
        {
          "name": "y_id",
          "type": "uint256"
        }
      ],
      "name": "getSproutHeight",
      "outputs": [
        {
          "name": "",
          "type": "uint256"
        }
      ],
      "payable": false,
      "stateMutability": "view",
      "type": "function"
    },
    {
      "constant": true,
      "inputs": [
        {
          "name": "x_id",
          "type": "uint256"
        },
        {
          "name": "y_id",
          "type": "uint256"
        }
      ],
      "name": "getProduceGene",
      "outputs": [
        {
          "name": "",
          "type": "uint256"
        }
      ],
      "payable": false,
      "stateMutability": "view",
      "type": "function"
    },
    {
      "constant": true,
      "inputs": [],
      "name": "owner",
      "outputs": [
        {
          "name": "",
          "type": "address"
        }
      ],
      "payable": false,
      "stateMutability": "view",
      "type": "function"
    },
    {
      "constant": true,
      "inputs": [],
      "name": "isOwner",
      "outputs": [
        {
          "name": "",
          "type": "bool"
        }
      ],
      "payable": false,
      "stateMutability": "view",
      "type": "function"
    },
    {
      "constant": true,
      "inputs": [
        {
          "name": "x_id",
          "type": "uint256"
        },
        {
          "name": "y_id",
          "type": "uint256"
        }
      ],
      "name": "getSproutWidth",
      "outputs": [
        {
          "name": "",
          "type": "uint256"
        }
      ],
      "payable": false,
      "stateMutability": "view",
      "type": "function"
    },
    {
      "constant": false,
      "inputs": [
        {
          "name": "x_id",
          "type": "uint256"
        },
        {
          "name": "y_id",
          "type": "uint256"
        }
      ],
      "name": "plugSprout",
      "outputs": [],
      "payable": false,
      "stateMutability": "nonpayable",
      "type": "function"
    },
    {
      "constant": false,
      "inputs": [
        {
          "name": "_to",
          "type": "address"
        },
        {
          "name": "value",
          "type": "uint256"
        }
      ],
      "name": "transfer",
      "outputs": [
        {
          "name": "",
          "type": "bool"
        }
      ],
      "payable": false,
      "stateMutability": "nonpayable",
      "type": "function"
    },
    {
      "constant": false,
      "inputs": [
        {
          "name": "x_id",
          "type": "uint256"
        },
        {
          "name": "y_id",
          "type": "uint256"
        }
      ],
      "name": "randomAddSprout",
      "outputs": [],
      "payable": false,
      "stateMutability": "nonpayable",
      "type": "function"
    },
    {
      "constant": true,
      "inputs": [
        {
          "name": "owner",
          "type": "address"
        },
        {
          "name": "spender",
          "type": "address"
        }
      ],
      "name": "allowance",
      "outputs": [
        {
          "name": "",
          "type": "uint256"
        }
      ],
      "payable": false,
      "stateMutability": "view",
      "type": "function"
    },
    {
      "constant": true,
      "inputs": [
        {
          "name": "x_id",
          "type": "uint256"
        },
        {
          "name": "y_id",
          "type": "uint256"
        }
      ],
      "name": "getColor",
      "outputs": [
        {
          "name": "",
          "type": "uint256"
        }
      ],
      "payable": false,
      "stateMutability": "view",
      "type": "function"
    },
    {
      "constant": false,
      "inputs": [
        {
          "name": "newOwner",
          "type": "address"
        }
      ],
      "name": "transferOwnership",
      "outputs": [],
      "payable": false,
      "stateMutability": "nonpayable",
      "type": "function"
    },
    {
      "anonymous": false,
      "inputs": [
        {
          "indexed": false,
          "name": "Id",
          "type": "uint256"
        }
      ],
      "name": "OnItemAdded",
      "type": "event"
    },
    {
      "anonymous": false,
      "inputs": [
        {
          "indexed": false,
          "name": "Id",
          "type": "uint256"
        }
      ],
      "name": "OnItemDeleted",
      "type": "event"
    },
    {
      "anonymous": false,
      "inputs": [
        {
          "indexed": false,
          "name": "account",
          "type": "address"
        }
      ],
      "name": "OnRegister",
      "type": "event"
    },
    {
      "anonymous": false,
      "inputs": [
        {
          "indexed": true,
          "name": "_from",
          "type": "address"
        },
        {
          "indexed": true,
          "name": "_to",
          "type": "address"
        },
        {
          "indexed": false,
          "name": "_value",
          "type": "uint256"
        }
      ],
      "name": "Transfer",
      "type": "event"
    },
    {
      "anonymous": false,
      "inputs": [
        {
          "indexed": true,
          "name": "_owner",
          "type": "address"
        },
        {
          "indexed": true,
          "name": "_spender",
          "type": "address"
        },
        {
          "indexed": false,
          "name": "_value",
          "type": "uint256"
        }
      ],
      "name": "Approval",
      "type": "event"
    },
    {
      "anonymous": false,
      "inputs": [
        {
          "indexed": false,
          "name": "x_id",
          "type": "uint256"
        },
        {
          "indexed": false,
          "name": "y_id",
          "type": "uint256"
        },
        {
          "indexed": false,
          "name": "dna1",
          "type": "uint256"
        },
        {
          "indexed": false,
          "name": "dna2",
          "type": "uint256"
        }
      ],
      "name": "OnAdd",
      "type": "event"
    },
    {
      "anonymous": false,
      "inputs": [
        {
          "indexed": false,
          "name": "x_id",
          "type": "uint256"
        },
        {
          "indexed": false,
          "name": "y_id",
          "type": "uint256"
        }
      ],
      "name": "OnPlug",
      "type": "event"
    },
    {
      "anonymous": false,
      "inputs": [
        {
          "indexed": false,
          "name": "s",
          "type": "uint256"
        }
      ],
      "name": "debugStage",
      "type": "event"
    },
    {
      "anonymous": false,
      "inputs": [
        {
          "indexed": true,
          "name": "previousOwner",
          "type": "address"
        },
        {
          "indexed": true,
          "name": "newOwner",
          "type": "address"
        }
      ],
      "name": "OwnershipTransferred",
      "type": "event"
    },
    {
      "constant": false,
      "inputs": [
        {
          "name": "new_player",
          "type": "address"
        }
      ],
      "name": "Register",
      "outputs": [],
      "payable": false,
      "stateMutability": "nonpayable",
      "type": "function"
    },
    {
      "constant": false,
      "inputs": [
        {
          "name": "x_id",
          "type": "uint256"
        },
        {
          "name": "y_id",
          "type": "uint256"
        }
      ],
      "name": "PlugPollen",
      "outputs": [],
      "payable": false,
      "stateMutability": "nonpayable",
      "type": "function"
    },
    {
      "constant": false,
      "inputs": [
        {
          "name": "x_id",
          "type": "uint256"
        },
        {
          "name": "y_id",
          "type": "uint256"
        },
        {
          "name": "_Id",
          "type": "uint256"
        }
      ],
      "name": "UsePollenItem",
      "outputs": [],
      "payable": false,
      "stateMutability": "nonpayable",
      "type": "function"
    },
    {
      "constant": false,
      "inputs": [
        {
          "name": "x_id",
          "type": "uint256"
        },
        {
          "name": "y_id",
          "type": "uint256"
        }
      ],
      "name": "PlugSeed",
      "outputs": [],
      "payable": false,
      "stateMutability": "nonpayable",
      "type": "function"
    },
    {
      "constant": false,
      "inputs": [
        {
          "name": "x_id",
          "type": "uint256"
        },
        {
          "name": "y_id",
          "type": "uint256"
        },
        {
          "name": "_Id",
          "type": "uint256"
        }
      ],
      "name": "UseSeedItem",
      "outputs": [],
      "payable": false,
      "stateMutability": "nonpayable",
      "type": "function"
    },
    {
      "constant": true,
      "inputs": [
        {
          "name": "_Id",
          "type": "uint256"
        }
      ],
      "name": "isItemValid",
      "outputs": [
        {
          "name": "isValid",
          "type": "bool"
        }
      ],
      "payable": false,
      "stateMutability": "view",
      "type": "function"
    },
    {
      "constant": true,
      "inputs": [
        {
          "name": "_Id",
          "type": "uint256"
        }
      ],
      "name": "getItemNum",
      "outputs": [
        {
          "name": "",
          "type": "uint256"
        }
      ],
      "payable": false,
      "stateMutability": "view",
      "type": "function"
    },
    {
      "constant": true,
      "inputs": [
        {
          "name": "_Id",
          "type": "uint256"
        }
      ],
      "name": "getItem",
      "outputs": [
        {
          "name": "",
          "type": "string"
        },
        {
          "name": "",
          "type": "uint256"
        }
      ],
      "payable": false,
      "stateMutability": "view",
      "type": "function"
    },
    {
      "constant": true,
      "inputs": [],
      "name": "getItemList",
      "outputs": [
        {
          "name": "",
          "type": "uint256[]"
        },
        {
          "name": "",
          "type": "uint256[]"
        }
      ],
      "payable": false,
      "stateMutability": "view",
      "type": "function"
    }
  ],
  "bytecode": "0x6080604081905261a8c0600155600060058190558054600160a060020a0319163317808255600160a060020a0316917f8be0079c531659141344cd1fd0a4f28419497f9722a3daafe3b4186f6b6457e0908290a36138fd806100626000396000f3fe60806040526004361061015e5763ffffffff7c0100000000000000000000000000000000000000000000000000000000600035041663063b2e5b8114610163578063095ea7b31461021157806318160ddd1461025e57806323b872dd146102855780632639769f146102c85780633129e773146102f2578063435184471461039b57806356507c7a146103cb57806359ca683c146103fd57806370a082311461042d578063715018a61461046057806374020033146104755780637729166d146104a5578063816bfee6146104db5780638da5cb5b1461050b5780638e96b4f71461053c5780638f32d59b1461056c5780638fc640c11461058157806393fccbb6146105b7578063990e7469146105e7578063a9059cbb14610617578063aa7bcc5814610650578063dbe9383214610680578063dd62ed3e146106aa578063eded5d9e146106e5578063eeda149c14610715578063f2fde38b14610748575b600080fd5b34801561016f57600080fd5b5061017861077b565b604051808060200180602001838103835285818151815260200191508051906020019060200280838360005b838110156101bc5781810151838201526020016101a4565b50505050905001838103825284818151815260200191508051906020019060200280838360005b838110156101fb5781810151838201526020016101e3565b5050505090500194505050505060405180910390f35b34801561021d57600080fd5b5061024a6004803603604081101561023457600080fd5b50600160a060020a03813516906020013561088e565b604080519115158252519081900360200190f35b34801561026a57600080fd5b506102736108a5565b60408051918252519081900360200190f35b34801561029157600080fd5b5061024a600480360360608110156102a857600080fd5b50600160a060020a038135811691602081013590911690604001356108ac565b3480156102d457600080fd5b5061024a600480360360208110156102eb57600080fd5b5035610903565b3480156102fe57600080fd5b5061031c6004803603602081101561031557600080fd5b503561093b565b6040518080602001838152602001828103825284818151815260200191508051906020019080838360005b8381101561035f578181015183820152602001610347565b50505050905090810190601f16801561038c5780820380516001836020036101000a031916815260200191505b50935050505060405180910390f35b3480156103a757600080fd5b5061024a600480360360408110156103be57600080fd5b5080359060200135610a9f565b3480156103d757600080fd5b506103fb600480360360408110156103ee57600080fd5b5080359060200135610b67565b005b34801561040957600080fd5b5061024a6004803603604081101561042057600080fd5b5080359060200135610f4e565b34801561043957600080fd5b506102736004803603602081101561045057600080fd5b5035600160a060020a0316611007565b34801561046c57600080fd5b506103fb611022565b34801561048157600080fd5b506102736004803603604081101561049857600080fd5b508035906020013561108c565b3480156104b157600080fd5b506103fb600480360360608110156104c857600080fd5b50803590602081013590604001356111d1565b3480156104e757600080fd5b50610273600480360360408110156104fe57600080fd5b50803590602001356115f4565b34801561051757600080fd5b506105206116ae565b60408051600160a060020a039092168252519081900360200190f35b34801561054857600080fd5b506103fb6004803603604081101561055f57600080fd5b50803590602001356116bd565b34801561057857600080fd5b5061024a611c8c565b34801561058d57600080fd5b506103fb600480360360608110156105a457600080fd5b5080359060208101359060400135611c9d565b3480156105c357600080fd5b50610273600480360360408110156105da57600080fd5b5080359060200135612242565b3480156105f357600080fd5b506103fb6004803603604081101561060a57600080fd5b5080359060200135612365565b34801561062357600080fd5b5061024a6004803603604081101561063a57600080fd5b50600160a060020a03813516906020013561251f565b34801561065c57600080fd5b506103fb6004803603604081101561067357600080fd5b508035906020013561252c565b34801561068c57600080fd5b50610273600480360360208110156106a357600080fd5b5035612652565b3480156106b657600080fd5b50610273600480360360408110156106cd57600080fd5b50600160a060020a03813581169160200135166126e9565b3480156106f157600080fd5b506102736004803603604081101561070857600080fd5b5080359060200135612714565b34801561072157600080fd5b506103fb6004803603602081101561073857600080fd5b5035600160a060020a03166127ce565b34801561075457600080fd5b506103fb6004803603602081101561076b57600080fd5b5035600160a060020a0316612836565b6060806000606061078a612855565b80935081925050506060826040519080825280602002602001820160405280156107be578160200160208202803883390190505b5090506060836040519080825280602002602001820160405280156107ed578160200160208202803883390190505b50905060005b84811015610882576000848281518110151561080b57fe5b90602001906020020151905080848381518110151561082657fe5b602090810290910181019190915233600090815260069091526040902080548290811061084f57fe5b906000526020600020906004020160010154838381518110151561086f57fe5b60209081029091010152506001016107f3565b50909450925050509091565b600061089b3384846128f2565b5060015b92915050565b6005545b90565b60006108b9848484612a5f565b600160a060020a0384166000908152600460209081526040808320338085529252909120546108f99186916108f4908663ffffffff612c4016565b6128f2565b5060019392505050565b33600090815260066020526040812080548390811061091e57fe5b600091825260209091206004909102016003015460ff1692915050565b606060008261094981610903565b151561099f576040805160e560020a62461bcd02815260206004820152601a60248201527f6974656d206d7573742062652076616c696420746f2063616c6c000000000000604482015290519081900360640190fd5b3360009081526006602052604090208054859081106109ba57fe5b6000918252602080832033845260069091526040909220805460049092029092019190869081106109e757fe5b906000526020600020906004020160010154818054600181600116156101000203166002900480601f016020809104026020016040519081016040528092919081815260200182805460018160011615610100020316600290048015610a8e5780601f10610a6357610100808354040283529160200191610a8e565b820191906000526020600020905b815481529060010190602001808311610a7157829003601f168201915b505050505091509250925050915091565b336000908152600260205260408120839083908260058110610abd57fe5b603c02018160058110610acc57fe5b600c02016005015460ff161515610b1b576040805160e560020a62461bcd02815260206004820152601d60248201526000805160206138b2833981519152604482015290519081900360640190fd5b3360009081526002602052604090208560058110610b3557fe5b603c02018460058110610b4457fe5b600c020160060160050160019054906101000a900460ff1692505b505092915050565b336000908152600260205260409020829082908260058110610b8557fe5b603c02018160058110610b9457fe5b600c02016005015460ff161515610be3576040805160e560020a62461bcd02815260206004820152601d60248201526000805160206138b2833981519152604482015290519081900360640190fd5b83836000610c01610bf48484612c52565b429063ffffffff612c4016565b90506000610c0f8484612c8b565b9050808211610c68576040805160e560020a62461bcd02815260206004820152601860248201527f746f6f206561726c7920746f206861766520706f6c6c656e0000000000000000604482015290519081900360640190fd5b610c8a6064610c7e83606663ffffffff612cc716565b9063ffffffff612cf616565b8210610ce0576040805160e560020a62461bcd02815260206004820152601760248201527f746f6f206c61746520746f206861766520706f6c6c656e000000000000000000604482015290519081900360640190fd5b3360009081526002602052604090208460058110610cfa57fe5b603c02018360058110610d0957fe5b600c020160050160029054906101000a900460ff16151515610d75576040805160e560020a62461bcd02815260206004820152601f60248201527f74686520706f6c6c656e2061726520616c726561647920706c75676765642e00604482015290519081900360640190fd5b3360009081526002602052604090206001908960058110610d9257fe5b603c02018860058110610da157fe5b600c020160050160026101000a81548160ff021916908315150217905550610e2b6040805190810160405280600681526020017f706f6c6c656e0000000000000000000000000000000000000000000000000000815250600a6000604051908082528060200260200182016040528015610e25578160200160208202803883390190505b50612d0d565b33600090815260066020526040902080546000198101919082908110610e4d57fe5b90600052602060002090600402016002016002600033600160a060020a0316600160a060020a031681526020019081526020016000208a600581101515610e9057fe5b603c02018960058110610e9f57fe5b600c020154815460018101835560009283526020808420909101919091553382526006905260409020805482908110610ed457fe5b90600052602060002090600402016002016002600033600160a060020a0316600160a060020a031681526020019081526020016000208a600581101515610f1757fe5b603c02018960058110610f2657fe5b600c020160019081015482549182018355600092835260209092200155505050505050505050565b336000908152600260205260408120839083908260058110610f6c57fe5b603c02018160058110610f7b57fe5b600c02016005015460ff161515610fca576040805160e560020a62461bcd02815260206004820152601d60248201526000805160206138b2833981519152604482015290519081900360640190fd5b3360009081526002602052604090208560058110610fe457fe5b603c02018460058110610ff357fe5b600c0201600b015460ff1695945050505050565b600160a060020a031660009081526003602052604090205490565b61102a611c8c565b151561103557600080fd5b60008054604051600160a060020a03909116907f8be0079c531659141344cd1fd0a4f28419497f9722a3daafe3b4186f6b6457e0908390a36000805473ffffffffffffffffffffffffffffffffffffffff19169055565b3360009081526002602052604081208390839082600581106110aa57fe5b603c020181600581106110b957fe5b600c02016005015460ff161515611108576040805160e560020a62461bcd02815260206004820152601d60248201526000805160206138b2833981519152604482015290519081900360640190fd5b6000611117610bf48787612c52565b905060006111258787612c8b565b905060006111338888612dfb565b9050818311156111a05761114e82601463ffffffff612cf616565b61115e848463ffffffff612c4016565b10156111945761118a6078610c7e603c61117e858463ffffffff612e3716565b9063ffffffff612cc716565b9550505050610b5f565b60009550505050610b5f565b8215156111b35760009550505050610b5f565b61118a83610c7e6078818661117e603c81898663ffffffff612e3716565b806111db81610903565b1515611231576040805160e560020a62461bcd02815260206004820152601a60248201527f6974656d206d7573742062652076616c696420746f2063616c6c000000000000604482015290519081900360640190fd5b3360009081526006602052604081208054849291908390811061125057fe5b906000526020600020906004020160000160405160200180828054600181600116156101000203166002900480156112bf5780601f1061129d5761010080835404028352918201916112bf565b820191906000526020600020905b8154815290600101906020018083116112ab575b505060408051601f1981840301815282825280516020918201207f7365656400000000000000000000000000000000000000000000000000000000828501528251808503600401815260249094019092528251920191909120909350915050808214611375576040805160e560020a62461bcd02815260206004820152600f60248201527f6e6f7420612073656564206974656d0000000000000000000000000000000000604482015290519081900360640190fd5b33600090815260066020526040812080546113ca916001916113be916002918b90811061139e57fe5b60009182526020909120600260049092020101549063ffffffff612cf616565b9063ffffffff612c4016565b90506000814260405160200180828152602001915050604051602081830303815290604052805190602001206001900481151561140357fe5b6040805142602080830182905244838501819052845180850386018152606085018652805190830120608085019190915260a0808501939093528451808503909301835260c09093018452815191810191909120336000908152600690925292812080549590940695509093919290918b90811061147d57fe5b9060005260206000209060040201600201600081548110151561149c57fe5b60009182526020808320909101543383526006909152604090912080549185169250611508918c9081106114cc57fe5b906000526020600020906004020160020160018154811015156114eb57fe5b906000526020600020015484191682612e3790919063ffffffff16565b336000908152600660205260408120805492935090918c90811061152857fe5b906000526020600020906004020160020161155e6002611552600289612cc790919063ffffffff16565b9063ffffffff612e3716565b8154811061156857fe5b600091825260208083209091015433835260069091526040909120805491851692506115cc918d90811061159857fe5b90600052602060002090600402016002016115c2600361155260028a612cc790919063ffffffff16565b815481106114eb57fe5b90506115da8d8d8484612e46565b6115e58b6001613343565b50505050505050505050505050565b33600090815260026020526040812083908390826005811061161257fe5b603c0201816005811061162157fe5b600c02016005015460ff161515611670576040805160e560020a62461bcd02815260206004820152601d60248201526000805160206138b2833981519152604482015290519081900360640190fd5b336000908152600260205260409020856005811061168a57fe5b603c0201846005811061169957fe5b600c0201600601600401549250505092915050565b600054600160a060020a031690565b3360009081526002602052604090208290829082600581106116db57fe5b603c020181600581106116ea57fe5b600c02016005015460ff161515611739576040805160e560020a62461bcd02815260206004820152601d60248201526000805160206138b2833981519152604482015290519081900360640190fd5b8383600061174a610bf48484612c52565b905060006117588484612c8b565b90506117706064610c7e83606663ffffffff612cc716565b82116117c6576040805160e560020a62461bcd02815260206004820152601760248201527f746f6f206561726c7920746f2068617665207365656473000000000000000000604482015290519081900360640190fd5b33600090815260026020526040902084600581106117e057fe5b603c020183600581106117ef57fe5b600c020160050160019054906101000a900460ff1615151561185b576040805160e560020a62461bcd02815260206004820152601e60248201527f7468652073656564732061726520616c726561647920706c75676765642e0000604482015290519081900360640190fd5b336000908152600260205260409020600190896005811061187857fe5b603c0201886005811061188757fe5b600c020160050160016101000a81548160ff02191690831515021790555060006118bb600a6115526002610c7e8d8d6115f4565b90506119276040805190810160405280600481526020017f7365656400000000000000000000000000000000000000000000000000000000815250826000604051908082528060200260200182016040528015610e255781602001602082028038833901905050612d0d565b3360009081526006602052604090208054600019810191908290811061194957fe5b90600052602060002090600402016002016002600033600160a060020a0316600160a060020a031681526020019081526020016000208b60058110151561198c57fe5b603c02018a6005811061199b57fe5b600c0201548154600181018355600092835260208084209091019190915533825260069052604090208054829081106119d057fe5b90600052602060002090600402016002016002600033600160a060020a0316600160a060020a031681526020019081526020016000208b600581101515611a1357fe5b603c02018a60058110611a2257fe5b600c020160019081015482549182018355600092835260208084209092015533825260029052604090208a60058110611a5757fe5b603c02018960058110611a6657fe5b600c020160050160029054906101000a900460ff161515611b9357336000908152600660205260409020805482908110611a9c57fe5b90600052602060002090600402016002016002600033600160a060020a0316600160a060020a031681526020019081526020016000208b600581101515611adf57fe5b603c02018a60058110611aee57fe5b600c020154815460018101835560009283526020808420909101919091553382526006905260409020805482908110611b2357fe5b90600052602060002090600402016002016002600033600160a060020a0316600160a060020a031681526020019081526020016000208b600581101515611b6657fe5b603c02018a60058110611b7557fe5b600c0201600190810154825491820183556000928352602090922001555b3360009081526002602052604081208b60058110611bad57fe5b603c02018a60058110611bbc57fe5b600c020160040180549050905060008090505b81811015611c7e57336000908152600660205260409020805484908110611bf257fe5b90600052602060002090600402016002016002600033600160a060020a0316600160a060020a031681526020019081526020016000208d600581101515611c3557fe5b603c02018c60058110611c4457fe5b600c020160040182815481101515611c5857fe5b600091825260208083209091015483546001818101865594845291909220015501611bcf565b505050505050505050505050565b600054600160a060020a0316331490565b80611ca781610903565b1515611cfd576040805160e560020a62461bcd02815260206004820152601a60248201527f6974656d206d7573742062652076616c696420746f2063616c6c000000000000604482015290519081900360640190fd5b33600090815260066020526040812080548492919083908110611d1c57fe5b90600052602060002090600402016000016040516020018082805460018160011615610100020316600290048015611d8b5780601f10611d69576101008083540402835291820191611d8b565b820191906000526020600020905b815481529060010190602001808311611d77575b505060408051601f1981840301815282825280516020918201207f706f6c6c656e0000000000000000000000000000000000000000000000000000828501528251808503600601815260269094019092528251920191909120909350915050808214611e41576040805160e560020a62461bcd02815260206004820152601160248201527f6e6f74206120706f6c6c656e206974656d000000000000000000000000000000604482015290519081900360640190fd5b336000908152600260205260409020879087908260058110611e5f57fe5b603c02018160058110611e6e57fe5b600c02016005015460ff161515611ebd576040805160e560020a62461bcd02815260206004820152601d60248201526000805160206138b2833981519152604482015290519081900360640190fd5b88886000611ece610bf48484612c52565b90506000611edc8484612c8b565b9050611ef46064610c7e83606563ffffffff612cc716565b8211611f4a576040805160e560020a62461bcd02815260206004820152601860248201527f746f6f206561726c7920746f206861766520706f6c6c656e0000000000000000604482015290519081900360640190fd5b611f606064610c7e83606663ffffffff612cc716565b8210611fb6576040805160e560020a62461bcd02815260206004820152601760248201527f746f6f206c61746520746f206861766520706f6c6c656e000000000000000000604482015290519081900360640190fd5b3360009081526002602052604090208d60058110611fd057fe5b603c02018c60058110611fdf57fe5b600c020160050160029054906101000a900460ff1615156120f2573360009081526002602052604090208d6005811061201457fe5b603c02018c6005811061202357fe5b3360009081526002602052604090206004600c929092029290920101908e6005811061204b57fe5b603c02018d6005811061205a57fe5b600c0201548154600181018355600092835260208084209091019190915533825260029052604090208d6005811061208e57fe5b603c02018c6005811061209d57fe5b3360009081526002602052604090206004600c929092029290920101908e600581106120c557fe5b603c02018d600581106120d457fe5b600c0201600190810154825491820183556000928352602090922001555b3360009081526002602052604090208d6005811061210c57fe5b603c02018c6005811061211b57fe5b600c02016004016006600033600160a060020a0316600160a060020a031681526020019081526020016000208c81548110151561215457fe5b9060005260206000209060040201600201600081548110151561217357fe5b60009182526020808320909101548354600181018555938352818320909301929092553381526002909152604090208d600581106121ad57fe5b603c02018c600581106121bc57fe5b600c02016004016006600033600160a060020a0316600160a060020a031681526020019081526020016000208c8154811015156121f557fe5b9060005260206000209060040201600201600181548110151561221457fe5b6000918252602080832090910154835460018101855593835291209091015550505050505050505050505050565b33600090815260026020526040812083908390826005811061226057fe5b603c0201816005811061226f57fe5b600c02016005015460ff1615156122be576040805160e560020a62461bcd02815260206004820152601d60248201526000805160206138b2833981519152604482015290519081900360640190fd5b60006122cd610bf48787612c52565b905060006122db8787612c8b565b905060006122e98888613460565b9050818311156123345761230482601463ffffffff612cf616565b612314848463ffffffff612c4016565b10156111945761118a600f610c7e600561117e858463ffffffff612e3716565b8215156123475760009550505050610b5f565b61118a83610c7e600f818661117e600581898663ffffffff612e3716565b33600090815260026020526040902082908290826005811061238357fe5b603c0201816005811061239257fe5b600c02016005015460ff1615156123e1576040805160e560020a62461bcd02815260206004820152601d60248201526000805160206138b2833981519152604482015290519081900360640190fd5b60006123f0610bf48686612c52565b905060006123fe8686612c8b565b9050600061240c8787612242565b9050600061241a888861108c565b9050600061242c858584868d8d61349c565b336000908152600260205260409020909150896005811061244957fe5b603c0201886005811061245857fe5b600c020160050154600160ff909116151514156124d9573360009081526002602052604081208a6005811061248957fe5b603c0201896005811061249857fe5b600c0201600501805460ff1916911515919091179055336000908152600360205260409020546124c89082612e37565b336000908152600360205260409020555b604080518a8152602081018a905281517fef9514e76636c86a9084470f65495ff78258053cada18c62136f204ff2f0daa2929181900390910190a1505050505050505050565b600061089b338484612a5f565b3360009081526003602052604090205461012c106125ba576040805160e560020a62461bcd02815260206004820152602360248201527f6e6f7420656e6f756768206d6f6e657920746f206275792072616e646f6d207360448201527f6565640000000000000000000000000000000000000000000000000000000000606482015290519081900360840190fd5b6040805142602080830182905244838501819052845180850386018152606085018652805190830120608085019190915260a0808501939093528451808503909301835260c0909301909352805192019190912061261a84848484612e46565b3360009081526003602052604090205461263c9061012c63ffffffff612c4016565b3360009081526003602052604090205550505050565b60008161265e81610903565b15156126b4576040805160e560020a62461bcd02815260206004820152601a60248201527f6974656d206d7573742062652076616c696420746f2063616c6c000000000000604482015290519081900360640190fd5b3360009081526006602052604090208054849081106126cf57fe5b906000526020600020906004020160010154915050919050565b600160a060020a03918216600090815260046020908152604080832093909416825291909152205490565b33600090815260026020526040812083908390826005811061273257fe5b603c0201816005811061274157fe5b600c02016005015460ff161515612790576040805160e560020a62461bcd02815260206004820152601d60248201526000805160206138b2833981519152604482015290519081900360640190fd5b33600090815260026020526040902085600581106127aa57fe5b603c020184600581106127b957fe5b600c0201600601600201549250505092915050565b6127d6611c8c565b15156127e157600080fd5b600160a060020a0381166000818152600360209081526040918290206103e89055815192835290517f827446e550fe5bfd75ca44888adfeafa8fe5b5ea548deabda1ed8f5c08f2cf229281900390910190a150565b61283e611c8c565b151561284957600080fd5b6128528161360d565b50565b33600090815260066020908152604080832054815181815281840281019093019091526060929183918015612894578160200160208202803883390190505b5090506000805b336000908152600660205260409020548110156128e8576128bb81610903565b156128e0578083838151811015156128cf57fe5b602090810290910101526001909101905b60010161289b565b5090925090509091565b600160a060020a0383161515612977576040805160e560020a62461bcd028152602060048201526024808201527f45524332303a20617070726f76652066726f6d20746865207a65726f2061646460448201527f7265737300000000000000000000000000000000000000000000000000000000606482015290519081900360840190fd5b600160a060020a03821615156129fd576040805160e560020a62461bcd02815260206004820152602260248201527f45524332303a20617070726f766520746f20746865207a65726f20616464726560448201527f7373000000000000000000000000000000000000000000000000000000000000606482015290519081900360840190fd5b600160a060020a03808416600081815260046020908152604080832094871680845294825291829020859055815185815291517f8c5be1e5ebec7d5bd14f71427d1e84f3dd0314c0f7b2291e5b200ac8c7c3b9259281900390910190a3505050565b600160a060020a0383161515612ae5576040805160e560020a62461bcd02815260206004820152602560248201527f45524332303a207472616e736665722066726f6d20746865207a65726f20616460448201527f6472657373000000000000000000000000000000000000000000000000000000606482015290519081900360840190fd5b600160a060020a0382161515612b6b576040805160e560020a62461bcd02815260206004820152602360248201527f45524332303a207472616e7366657220746f20746865207a65726f206164647260448201527f6573730000000000000000000000000000000000000000000000000000000000606482015290519081900360840190fd5b600160a060020a038316600090815260036020526040902054612b94908263ffffffff612c4016565b600160a060020a038085166000908152600360205260408082209390935590841681522054612bc9908263ffffffff612e3716565b600160a060020a038316600090815260036020526040902055600554612bf5908263ffffffff612e3716565b600555604080518281529051600160a060020a0380851692908616917fddf252ad1be2c89b69c2b068fc378daa952ba7f163c4a11628f55a4df523b3ef9181900360200190a3505050565b600082821115612c4c57fe5b50900390565b3360009081526002602052604081208360058110612c6c57fe5b603c02018260058110612c7b57fe5b600c020160020154905092915050565b3360009081526002602052604081208360058110612ca557fe5b603c02018260058110612cb457fe5b600c020160060160030154905092915050565b6000821515612cd85750600061089f565b828202828482811515612ce757fe5b0414612cef57fe5b9392505050565b6000808284811515612d0457fe5b04949350505050565b612d15613772565b5060408051608081018252848152602080820185905281830184905260016060830181905233600090815260068352938420805480830180835591865283862085518051969796949593948894600490940290920192612d7a9284929091019061379d565b50602082810151600183015560408301518051612d9d926002850192019061381b565b50606091909101516003909101805460ff1916911515919091179055604080519290910380835290519092507f9d988e03406844e4f4570c5b73a65bcd79fdd6f1bf564656ae99e23328ef2c0e916020908290030190a15050505050565b3360009081526002602052604081208360058110612e1557fe5b603c02018260058110612e2457fe5b600c020160060160000154905092915050565b600082820183811015612cef57fe5b3360009081526002602052604090208460058110612e6057fe5b603c02018360058110612e6f57fe5b600c02016005015460ff1615612e8457600080fd5b336000908152600260205260409020612eba908560058110612ea257fe5b603c02018460058110612eb157fe5b600c020161368a565b1515612ec557600080fd5b612ecd613855565b506040805160e0810182526000808252602082018190529181018290526060810182905260808101829052600180851681851617811460a083015260028086048083168287048085169190911790931460c08501529293905b6029811015612f92576002840660011415612f57576040850151612f5190600163ffffffff612e3716565b60408601525b6002830660011415612f7f576040850151612f7990600163ffffffff612e3716565b60408601525b6002938490049390920491600101612f26565b5060295b6065811015613002576002840660011415612fc7576020850151612fc190600163ffffffff612e3716565b60208601525b6002830660011415612fef576020850151612fe990600163ffffffff612e3716565b60208601525b6002938490049390920491600101612f96565b5060655b60a181101561306657600284066001141561303157845161302e90600163ffffffff612e3716565b85525b600283066001141561305357845161305090600163ffffffff612e3716565b85525b6002938490049390920491600101613006565b5060a15b60c98110156130d657600284066001141561309b57608085015161309590600163ffffffff612e3716565b60808601525b60028306600114156130c35760808501516130bd90600163ffffffff612e3716565b60808601525b600293849004939092049160010161306a565b5060c95b6101008110156131375760028406600114156131045761310182600163ffffffff612e3716565b91505b60028306600114156131245761312182600163ffffffff612e3716565b91505b60029384900493909204916001016130da565b5060be6131506002610c7e84600363ffffffff612cc716565b61017c0381151561315d57fe5b046201518002846060018181525050610120604051908101604052808781526020018681526020014281526020016000815260200160006040519080825280602002602001820160405280156131bd578160200160208202803883390190505b50815260016020808301919091526000604080840182905260608401829052608090930188905233815260029091522089600581106131f857fe5b603c0201886005811061320757fe5b600c020160008201518160000155602082015181600101556040820151816002015560608201518160030155608082015181600401908051906020019061324f92919061381b565b5060a08281015160058301805460c08087015160e08801511515620100000262ff00001991151561010090810261ff001997151560ff1996871617881617929092161790935595820151805160068701556020808201516007880155604080830151600889015560608084015160098a0155608080850151600a8b015597840151600b909901805494909a0151151590950297151592909316919091179093169490941790945582518c81529081018b90528083018a905292830188905290517f29673a2c4180cee02675c1aeac3253f75b8a067246770a77b079d48c92248cbd9281900390910190a15050505050505050565b8161334d81610903565b15156133a3576040805160e560020a62461bcd02815260206004820152601a60248201527f6974656d206d7573742062652076616c696420746f2063616c6c000000000000604482015290519081900360640190fd5b6133ac83612652565b821115613403576040805160e560020a62461bcd02815260206004820152600f60248201527f6e6f7420656e6f756768206974656d0000000000000000000000000000000000604482015290519081900360640190fd5b61340c83612652565b8214156134215761341c83613694565b61345b565b33600090815260066020526040902080548391908590811061343f57fe5b6000918252602090912060016004909202010180549190910390555b505050565b336000908152600260205260408120836005811061347a57fe5b603c0201826005811061348957fe5b600c020160060160010154905092915050565b3360009081526002602052604081208390839082600581106134ba57fe5b603c020181600581106134c957fe5b600c02016005015460ff161515613518576040805160e560020a62461bcd02815260206004820152601d60248201526000805160206138b2833981519152604482015290519081900360640190fd5b60006135248686612714565b905060006135328787610f4e565b905060006135408888610a9f565b90508a8c11156135895761355b8b601463ffffffff612cf616565b61356b8d8d63ffffffff612c4016565b101561357d5760059550505050613601565b60009550505050613601565b8b151561359c5760029550505050613601565b60006135c26135b285600a63ffffffff612cf616565b6113be8d8d63ffffffff612cc716565b905081156135dd576135db81600563ffffffff612e3716565b505b82156135f6576135f481600563ffffffff612e3716565b505b955061360192505050565b50509695505050505050565b600160a060020a038116151561362257600080fd5b60008054604051600160a060020a03808516939216917f8be0079c531659141344cd1fd0a4f28419497f9722a3daafe3b4186f6b6457e091a36000805473ffffffffffffffffffffffffffffffffffffffff1916600160a060020a0392909216919091179055565b6003015442101590565b8061369e81610903565b15156136f4576040805160e560020a62461bcd02815260206004820152601a60248201527f6974656d206d7573742062652076616c696420746f2063616c6c000000000000604482015290519081900360640190fd5b33600090815260066020526040812080548490811061370f57fe5b906000526020600020906004020160030160006101000a81548160ff0219169083151502179055507f04db484cca74d7317df830807409b645213719e2ca21de1d9b1eee1ab4c68018826040518082815260200191505060405180910390a15050565b6080604051908101604052806060815260200160008152602001606081526020016000151581525090565b828054600181600116156101000203166002900490600052602060002090601f016020900481019282601f106137de57805160ff191683800117855561380b565b8280016001018555821561380b579182015b8281111561380b5782518255916020019190600101906137f0565b50613817929150613897565b5090565b82805482825590600052602060002090810192821561380b579160200282018281111561380b5782518255916020019190600101906137f0565b60e06040519081016040528060008152602001600081526020016000815260200160008152602001600081526020016000151581526020016000151581525090565b6108a991905b80821115613817576000815560010161389d56fe6c6f636174696f6e20646f6573206e6f742068617665207370726f7574000000a165627a7a72305820cc0fb15d33a83b21fbb9c296b8a8273268ed728ecb7cb7d1e04809431fa338220029",
  "source": "pragma solidity ^0.5.0;\n\n\nimport \"./SproutOwnership.sol\";\n\ncontract OwnerItem is SproutOwnership {\n\n    /*To each user, there's a list contain the thing they currently have. The things in the list could be sold or used.\n      For now, the items could only be seeds.\n      The seeds can be plugged when the sprout (or the beanstalk) is older than 1.01 of its fullgrown_time\n\n      In addition, each person start with balance = $1000\n      (I'm considering using onlyOwner in register to prevent malicious use, don't know if it's necessary.)\n    */\n\n    event OnItemAdded(uint Id);\n    event OnItemDeleted(uint Id);\n    event OnRegister(address account);\n\n    struct Item {\n        string itemName;\n        uint num;\n        uint[] content;\n        bool isValid;\n    }\n    mapping (address => Item[]) _ItemList;\n\n\n    // Modifier\n    modifier isValidItem(uint _Id) {\n        require(isItemValid(_Id), \"item must be valid to call\");\n        _;\n    }\n    modifier isSeedItem(uint _Id){\n        uint temp1 = uint(keccak256(abi.encodePacked(_ItemList[msg.sender][_Id].itemName)));\n        uint temp2 = uint(keccak256(abi.encodePacked(\"seed\")));\n        require(temp1 == temp2, \"not a seed item\");\n        _;\n    }\n    modifier isPollenItem(uint _Id){\n        uint temp1 = uint(keccak256(abi.encodePacked(_ItemList[msg.sender][_Id].itemName)));\n        uint temp2 = uint(keccak256(abi.encodePacked(\"pollen\")));\n        require(temp1 == temp2, \"not a pollen item\");\n        _;\n    }\n\n\n    // Public function\n\n    // when a player enter the game, he or she should be registered by the contract owner (us) first\n    function Register(address new_player) public onlyOwner(){\n        balance[new_player] = 1000;\n        emit OnRegister(new_player);\n    }\n    //when you plug the pollen from a beanstalk, it's immediately add to your item list\n    function PlugPollen(uint x_id, uint y_id) public SproutExist(x_id, y_id) PollenExist(x_id, y_id){\n        sprout_list[msg.sender][x_id][y_id].pollen_plug = true;\n        addItem(\"pollen\", 10, new uint[](0));\n        uint _Id = _ItemList[msg.sender].length -1;\n        _ItemList[msg.sender][_Id].content.push(sprout_list[msg.sender][x_id][y_id].dna1);\n        _ItemList[msg.sender][_Id].content.push(sprout_list[msg.sender][x_id][y_id].dna2);\n    }\n    // The seed Items could be used to plant a new sprout at (x_id, y_id)\n    function UsePollenItem(uint x_id, uint y_id, uint _Id) public \n    isValidItem(_Id) isPollenItem( _Id) SproutExist(x_id, y_id) PollenizeReady(x_id, y_id){\n        if(!sprout_list[msg.sender][x_id][y_id].pollen_plug){\n            sprout_list[msg.sender][x_id][y_id].pollen.push(sprout_list[msg.sender][x_id][y_id].dna1);\n            sprout_list[msg.sender][x_id][y_id].pollen.push(sprout_list[msg.sender][x_id][y_id].dna2);\n        }\n        sprout_list[msg.sender][x_id][y_id].pollen.push(_ItemList[msg.sender][_Id].content[0]);\n        sprout_list[msg.sender][x_id][y_id].pollen.push(_ItemList[msg.sender][_Id].content[1]);\n    }\n\n\n    //when you plug the seeds from a beanstalk, it's immediately add to your item list\n    function PlugSeed(uint x_id, uint y_id) public SproutExist(x_id, y_id) SeedExist(x_id, y_id){\n        sprout_list[msg.sender][x_id][y_id].seed_plug = true;\n        uint num = getProduceGene(x_id, y_id).div(2).add(10);\n        addItem(\"seed\", num, new uint[](0));\n        uint _Id = _ItemList[msg.sender].length -1;\n        _ItemList[msg.sender][_Id].content.push(sprout_list[msg.sender][x_id][y_id].dna1);\n        _ItemList[msg.sender][_Id].content.push(sprout_list[msg.sender][x_id][y_id].dna2);\n        if(!sprout_list[msg.sender][x_id][y_id].pollen_plug){\n            _ItemList[msg.sender][_Id].content.push(sprout_list[msg.sender][x_id][y_id].dna1);\n            _ItemList[msg.sender][_Id].content.push(sprout_list[msg.sender][x_id][y_id].dna2);\n        }\n        uint len = sprout_list[msg.sender][x_id][y_id].pollen.length;\n        for (uint i=0; i < len ; i++){\n            _ItemList[msg.sender][_Id].content.push(sprout_list[msg.sender][x_id][y_id].pollen[i]);\n        }\n    }\n    // The seed Items could be used to plant a new sprout at (x_id, y_id)\n    function UseSeedItem(uint x_id, uint y_id, uint _Id) public isValidItem(_Id) isSeedItem( _Id){\n        uint num = (_ItemList[msg.sender][_Id].content.length.div(2)).sub(1);\n        uint num_f = uint(keccak256(abi.encodePacked(block.timestamp))) % (num);\n        uint rand_m = uint(keccak256(abi.encodePacked(block.timestamp, block.difficulty)));\n        uint rand_f = uint(keccak256(abi.encodePacked(block.difficulty, block.timestamp)));\n        uint dna1 = rand_m & (_ItemList[msg.sender][_Id].content[0]);\n        dna1 = dna1.add(~rand_m & (_ItemList[msg.sender][_Id].content[1]));\n        uint dna2 = rand_f & (_ItemList[msg.sender][_Id].content[num_f.mul(2).add(2)]);\n        dna2 = dna2.add(~rand_f & (_ItemList[msg.sender][_Id].content[num_f.mul(2).add(3)]));\n        addSprout(x_id, y_id, dna1, dna2);\n        spendItem(_Id, 1);\n    }\n    //Basic functions for showing list\n    function isItemValid(uint _Id) public view returns(bool isValid) {\n        return _ItemList[msg.sender][_Id].isValid;\n    }\n    function getItemNum(uint _Id) public view isValidItem(_Id) returns(uint) {\n        return _ItemList[msg.sender][_Id].num;\n    }\n    function getItem(uint _Id) public view isValidItem(_Id) returns(string memory, uint) {\n        return (_ItemList[msg.sender][_Id].itemName, _ItemList[msg.sender][_Id].num);\n    }\n\n    function getItemList() public view returns(uint[] memory, uint[] memory) {\n        uint len;\n        uint[] memory valids;\n\n        (valids, len) = _getValidItems();\n\n        uint[] memory ids = new uint[](len);\n        uint[] memory nums = new uint[](len);\n        for (uint i = 0; i < len; i++) {\n            uint id = valids[i];\n            ids[i] = id;\n            nums[i] = _ItemList[msg.sender][id].num;\n        }\n        return (ids, nums);\n    }\n\n\n\n    // private function\n    // add all kinds of Item in general\n    function addItem(string memory itemName, uint num, uint[] memory content) internal {\n        Item memory item = Item(itemName, num, content, true);\n        uint Id = _ItemList[msg.sender].push(item) - 1;\n\n        emit OnItemAdded(Id);\n    }\n    //remove some number of the Item\n    function spendItem(uint _Id, uint num) internal isValidItem(_Id){\n        require(num <= getItemNum(_Id), \"not enough item\");\n        if (num == getItemNum(_Id)){deleteItem(_Id);}\n        else{_ItemList[msg.sender][_Id].num -= num;}\n    }\n    // remove the whole Item\n    function deleteItem(uint _Id) internal isValidItem(_Id) {\n        _ItemList[msg.sender][_Id].isValid = false;\n\n        emit OnItemDeleted(_Id);\n    }\n\n    function _getValidItems() private view returns(uint[] memory valids, uint length) {\n        uint[] memory validItems = new uint[](_ItemList[msg.sender].length);\n        uint count = 0;\n        for (uint i = 0; i < _ItemList[msg.sender].length; i++) {\n            if (isItemValid(i)) {\n                validItems[count] = i;\n                count++;\n            }\n        }\n        return(validItems, count);\n    }\n}\n",
  "sourcePath": "/Users/catherine/Documents/GitHub/finals/nmlab_final/contracts/OwnerItem.sol",
  "compiler": {
    "name": "solc",
    "version": "0.5.0+commit.1d4f565a.Emscripten.clang"
  },
  "schemaVersion": "3.1.0",
  "updatedAt": "2020-06-19T03:05:40.956Z",
  "devdoc": {
    "methods": {
      "isOwner()": {
        "return": "true if `msg.sender` is the owner of the contract."
      },
      "owner()": {
        "return": "the address of the owner."
      },
      "renounceOwnership()": {
        "details": "Allows the current owner to relinquish control of the contract."
      },
      "transferOwnership(address)": {
        "details": "Allows the current owner to transfer control of the contract to a newOwner.",
        "params": {
          "newOwner": "The address to transfer ownership to."
        }
      }
    }
  },
  "userdoc": {
    "methods": {
      "renounceOwnership()": {
        "notice": "Renouncing to ownership will leave the contract without an owner. It will not be possible to call the functions with the `onlyOwner` modifier anymore."
      }
    }
  }
}