{
  "contractName": "SproutMarket",
  "abi": [
    {
      "anonymous": false,
      "inputs": [
        {
          "indexed": true,
          "internalType": "address",
          "name": "_owner",
          "type": "address"
        },
        {
          "indexed": true,
          "internalType": "address",
          "name": "_spender",
          "type": "address"
        },
        {
          "indexed": false,
          "internalType": "uint256",
          "name": "_value",
          "type": "uint256"
        }
      ],
      "name": "Approval",
      "type": "event"
    },
    {
      "anonymous": false,
      "inputs": [
        {
          "indexed": false,
          "internalType": "uint256",
          "name": "x_id",
          "type": "uint256"
        },
        {
          "indexed": false,
          "internalType": "uint256",
          "name": "y_id",
          "type": "uint256"
        },
        {
          "indexed": false,
          "internalType": "uint256",
          "name": "dna1",
          "type": "uint256"
        },
        {
          "indexed": false,
          "internalType": "uint256",
          "name": "dna2",
          "type": "uint256"
        }
      ],
      "name": "OnAdd",
      "type": "event"
    },
    {
      "anonymous": false,
      "inputs": [
        {
          "indexed": false,
          "internalType": "uint256",
          "name": "Id",
          "type": "uint256"
        }
      ],
      "name": "OnItemAdded",
      "type": "event"
    },
    {
      "anonymous": false,
      "inputs": [
        {
          "indexed": false,
          "internalType": "uint256",
          "name": "Id",
          "type": "uint256"
        }
      ],
      "name": "OnItemDeleted",
      "type": "event"
    },
    {
      "anonymous": false,
      "inputs": [
        {
          "indexed": false,
          "internalType": "uint256",
          "name": "x_id",
          "type": "uint256"
        },
        {
          "indexed": false,
          "internalType": "uint256",
          "name": "y_id",
          "type": "uint256"
        }
      ],
      "name": "OnPlug",
      "type": "event"
    },
    {
      "anonymous": false,
      "inputs": [
        {
          "indexed": false,
          "internalType": "uint256",
          "name": "Id",
          "type": "uint256"
        }
      ],
      "name": "OnProductAdded",
      "type": "event"
    },
    {
      "anonymous": false,
      "inputs": [
        {
          "indexed": false,
          "internalType": "uint256",
          "name": "Id",
          "type": "uint256"
        }
      ],
      "name": "OnProductDeleted",
      "type": "event"
    },
    {
      "anonymous": false,
      "inputs": [
        {
          "indexed": false,
          "internalType": "address",
          "name": "account",
          "type": "address"
        }
      ],
      "name": "OnRegister",
      "type": "event"
    },
    {
      "anonymous": false,
      "inputs": [
        {
          "indexed": true,
          "internalType": "address",
          "name": "previousOwner",
          "type": "address"
        },
        {
          "indexed": true,
          "internalType": "address",
          "name": "newOwner",
          "type": "address"
        }
      ],
      "name": "OwnershipTransferred",
      "type": "event"
    },
    {
      "anonymous": false,
      "inputs": [
        {
          "indexed": true,
          "internalType": "address",
          "name": "_from",
          "type": "address"
        },
        {
          "indexed": true,
          "internalType": "address",
          "name": "_to",
          "type": "address"
        },
        {
          "indexed": false,
          "internalType": "uint256",
          "name": "_value",
          "type": "uint256"
        }
      ],
      "name": "Transfer",
      "type": "event"
    },
    {
      "anonymous": false,
      "inputs": [
        {
          "indexed": false,
          "internalType": "uint256",
          "name": "s",
          "type": "uint256"
        }
      ],
      "name": "debugStage",
      "type": "event"
    },
    {
      "constant": false,
      "inputs": [
        {
          "internalType": "uint256",
          "name": "x_id",
          "type": "uint256"
        },
        {
          "internalType": "uint256",
          "name": "y_id",
          "type": "uint256"
        }
      ],
      "name": "PlugSeed",
      "outputs": [],
      "payable": false,
      "stateMutability": "nonpayable",
      "type": "function"
    },
    {
      "constant": false,
      "inputs": [
        {
          "internalType": "address",
          "name": "new_player",
          "type": "address"
        }
      ],
      "name": "Register",
      "outputs": [],
      "payable": false,
      "stateMutability": "nonpayable",
      "type": "function"
    },
    {
      "constant": false,
      "inputs": [
        {
          "internalType": "uint256",
          "name": "x_id",
          "type": "uint256"
        },
        {
          "internalType": "uint256",
          "name": "y_id",
          "type": "uint256"
        },
        {
          "internalType": "uint256",
          "name": "_Id",
          "type": "uint256"
        }
      ],
      "name": "UseSeedItem",
      "outputs": [],
      "payable": false,
      "stateMutability": "nonpayable",
      "type": "function"
    },
    {
      "constant": true,
      "inputs": [
        {
          "internalType": "address",
          "name": "owner",
          "type": "address"
        },
        {
          "internalType": "address",
          "name": "spender",
          "type": "address"
        }
      ],
      "name": "allowance",
      "outputs": [
        {
          "internalType": "uint256",
          "name": "",
          "type": "uint256"
        }
      ],
      "payable": false,
      "stateMutability": "view",
      "type": "function"
    },
    {
      "constant": false,
      "inputs": [
        {
          "internalType": "address",
          "name": "spender",
          "type": "address"
        },
        {
          "internalType": "uint256",
          "name": "amount",
          "type": "uint256"
        }
      ],
      "name": "approve",
      "outputs": [
        {
          "internalType": "bool",
          "name": "",
          "type": "bool"
        }
      ],
      "payable": false,
      "stateMutability": "nonpayable",
      "type": "function"
    },
    {
      "constant": true,
      "inputs": [
        {
          "internalType": "address",
          "name": "account",
          "type": "address"
        }
      ],
      "name": "balanceOf",
      "outputs": [
        {
          "internalType": "uint256",
          "name": "",
          "type": "uint256"
        }
      ],
      "payable": false,
      "stateMutability": "view",
      "type": "function"
    },
    {
      "constant": true,
      "inputs": [
        {
          "internalType": "uint256",
          "name": "x_id",
          "type": "uint256"
        },
        {
          "internalType": "uint256",
          "name": "y_id",
          "type": "uint256"
        }
      ],
      "name": "getColor",
      "outputs": [
        {
          "internalType": "uint256",
          "name": "",
          "type": "uint256"
        }
      ],
      "payable": false,
      "stateMutability": "view",
      "type": "function"
    },
    {
      "constant": true,
      "inputs": [
        {
          "internalType": "uint256",
          "name": "_Id",
          "type": "uint256"
        }
      ],
      "name": "getItem",
      "outputs": [
        {
          "internalType": "string",
          "name": "",
          "type": "string"
        },
        {
          "internalType": "uint256",
          "name": "",
          "type": "uint256"
        }
      ],
      "payable": false,
      "stateMutability": "view",
      "type": "function"
    },
    {
      "constant": true,
      "inputs": [],
      "name": "getItemList",
      "outputs": [
        {
          "internalType": "uint256[]",
          "name": "",
          "type": "uint256[]"
        },
        {
          "internalType": "uint256[]",
          "name": "",
          "type": "uint256[]"
        }
      ],
      "payable": false,
      "stateMutability": "view",
      "type": "function"
    },
    {
      "constant": true,
      "inputs": [
        {
          "internalType": "uint256",
          "name": "_Id",
          "type": "uint256"
        }
      ],
      "name": "getItemNum",
      "outputs": [
        {
          "internalType": "uint256",
          "name": "",
          "type": "uint256"
        }
      ],
      "payable": false,
      "stateMutability": "view",
      "type": "function"
    },
    {
      "constant": true,
      "inputs": [
        {
          "internalType": "uint256",
          "name": "x_id",
          "type": "uint256"
        },
        {
          "internalType": "uint256",
          "name": "y_id",
          "type": "uint256"
        }
      ],
      "name": "getProduceGene",
      "outputs": [
        {
          "internalType": "uint256",
          "name": "",
          "type": "uint256"
        }
      ],
      "payable": false,
      "stateMutability": "view",
      "type": "function"
    },
    {
      "constant": true,
      "inputs": [
        {
          "internalType": "uint256",
          "name": "x_id",
          "type": "uint256"
        },
        {
          "internalType": "uint256",
          "name": "y_id",
          "type": "uint256"
        }
      ],
      "name": "getSeedRound",
      "outputs": [
        {
          "internalType": "bool",
          "name": "",
          "type": "bool"
        }
      ],
      "payable": false,
      "stateMutability": "view",
      "type": "function"
    },
    {
      "constant": true,
      "inputs": [
        {
          "internalType": "uint256",
          "name": "x_id",
          "type": "uint256"
        },
        {
          "internalType": "uint256",
          "name": "y_id",
          "type": "uint256"
        }
      ],
      "name": "getSeedYellow",
      "outputs": [
        {
          "internalType": "bool",
          "name": "",
          "type": "bool"
        }
      ],
      "payable": false,
      "stateMutability": "view",
      "type": "function"
    },
    {
      "constant": true,
      "inputs": [
        {
          "internalType": "uint256",
          "name": "x_id",
          "type": "uint256"
        },
        {
          "internalType": "uint256",
          "name": "y_id",
          "type": "uint256"
        }
      ],
      "name": "getSproutHeight",
      "outputs": [
        {
          "internalType": "uint256",
          "name": "",
          "type": "uint256"
        }
      ],
      "payable": false,
      "stateMutability": "view",
      "type": "function"
    },
    {
      "constant": true,
      "inputs": [
        {
          "internalType": "uint256",
          "name": "x_id",
          "type": "uint256"
        },
        {
          "internalType": "uint256",
          "name": "y_id",
          "type": "uint256"
        }
      ],
      "name": "getSproutWidth",
      "outputs": [
        {
          "internalType": "uint256",
          "name": "",
          "type": "uint256"
        }
      ],
      "payable": false,
      "stateMutability": "view",
      "type": "function"
    },
    {
      "constant": true,
      "inputs": [
        {
          "internalType": "uint256",
          "name": "_Id",
          "type": "uint256"
        }
      ],
      "name": "isItemValid",
      "outputs": [
        {
          "internalType": "bool",
          "name": "isValid",
          "type": "bool"
        }
      ],
      "payable": false,
      "stateMutability": "view",
      "type": "function"
    },
    {
      "constant": true,
      "inputs": [],
      "name": "isOwner",
      "outputs": [
        {
          "internalType": "bool",
          "name": "",
          "type": "bool"
        }
      ],
      "payable": false,
      "stateMutability": "view",
      "type": "function"
    },
    {
      "constant": true,
      "inputs": [],
      "name": "owner",
      "outputs": [
        {
          "internalType": "address",
          "name": "",
          "type": "address"
        }
      ],
      "payable": false,
      "stateMutability": "view",
      "type": "function"
    },
    {
      "constant": false,
      "inputs": [
        {
          "internalType": "uint256",
          "name": "x_id",
          "type": "uint256"
        },
        {
          "internalType": "uint256",
          "name": "y_id",
          "type": "uint256"
        }
      ],
      "name": "plugSprout",
      "outputs": [],
      "payable": false,
      "stateMutability": "nonpayable",
      "type": "function"
    },
    {
      "constant": false,
      "inputs": [
        {
          "internalType": "uint256",
          "name": "x_id",
          "type": "uint256"
        },
        {
          "internalType": "uint256",
          "name": "y_id",
          "type": "uint256"
        }
      ],
      "name": "randomAddSprout",
      "outputs": [],
      "payable": false,
      "stateMutability": "nonpayable",
      "type": "function"
    },
    {
      "constant": false,
      "inputs": [],
      "name": "renounceOwnership",
      "outputs": [],
      "payable": false,
      "stateMutability": "nonpayable",
      "type": "function"
    },
    {
      "constant": true,
      "inputs": [],
      "name": "totalSupply",
      "outputs": [
        {
          "internalType": "uint256",
          "name": "",
          "type": "uint256"
        }
      ],
      "payable": false,
      "stateMutability": "view",
      "type": "function"
    },
    {
      "constant": false,
      "inputs": [
        {
          "internalType": "address",
          "name": "_to",
          "type": "address"
        },
        {
          "internalType": "uint256",
          "name": "value",
          "type": "uint256"
        }
      ],
      "name": "transfer",
      "outputs": [
        {
          "internalType": "bool",
          "name": "",
          "type": "bool"
        }
      ],
      "payable": false,
      "stateMutability": "nonpayable",
      "type": "function"
    },
    {
      "constant": false,
      "inputs": [
        {
          "internalType": "address",
          "name": "sender",
          "type": "address"
        },
        {
          "internalType": "address",
          "name": "recipient",
          "type": "address"
        },
        {
          "internalType": "uint256",
          "name": "amount",
          "type": "uint256"
        }
      ],
      "name": "transferFrom",
      "outputs": [
        {
          "internalType": "bool",
          "name": "",
          "type": "bool"
        }
      ],
      "payable": false,
      "stateMutability": "nonpayable",
      "type": "function"
    },
    {
      "constant": false,
      "inputs": [
        {
          "internalType": "address",
          "name": "newOwner",
          "type": "address"
        }
      ],
      "name": "transferOwnership",
      "outputs": [],
      "payable": false,
      "stateMutability": "nonpayable",
      "type": "function"
    },
    {
      "constant": true,
      "inputs": [
        {
          "internalType": "uint256",
          "name": "_Id",
          "type": "uint256"
        }
      ],
      "name": "isProductValid",
      "outputs": [
        {
          "internalType": "bool",
          "name": "isValid",
          "type": "bool"
        }
      ],
      "payable": false,
      "stateMutability": "view",
      "type": "function"
    },
    {
      "constant": true,
      "inputs": [
        {
          "internalType": "uint256",
          "name": "_Id",
          "type": "uint256"
        }
      ],
      "name": "getProduct",
      "outputs": [
        {
          "internalType": "string",
          "name": "",
          "type": "string"
        },
        {
          "internalType": "string",
          "name": "",
          "type": "string"
        },
        {
          "internalType": "uint256",
          "name": "",
          "type": "uint256"
        },
        {
          "internalType": "address",
          "name": "",
          "type": "address"
        }
      ],
      "payable": false,
      "stateMutability": "view",
      "type": "function"
    },
    {
      "constant": true,
      "inputs": [],
      "name": "getProductList",
      "outputs": [
        {
          "internalType": "uint256[]",
          "name": "",
          "type": "uint256[]"
        },
        {
          "internalType": "uint256[]",
          "name": "",
          "type": "uint256[]"
        }
      ],
      "payable": false,
      "stateMutability": "view",
      "type": "function"
    },
    {
      "constant": false,
      "inputs": [
        {
          "internalType": "uint256",
          "name": "id",
          "type": "uint256"
        },
        {
          "internalType": "uint256",
          "name": "num",
          "type": "uint256"
        },
        {
          "internalType": "uint256",
          "name": "value",
          "type": "uint256"
        },
        {
          "internalType": "string",
          "name": "description",
          "type": "string"
        }
      ],
      "name": "sellItem",
      "outputs": [],
      "payable": false,
      "stateMutability": "nonpayable",
      "type": "function"
    },
    {
      "constant": false,
      "inputs": [
        {
          "internalType": "uint256",
          "name": "_Id",
          "type": "uint256"
        },
        {
          "internalType": "uint256",
          "name": "num",
          "type": "uint256"
        }
      ],
      "name": "buyProduct",
      "outputs": [],
      "payable": false,
      "stateMutability": "nonpayable",
      "type": "function"
    },
    {
      "constant": false,
      "inputs": [
        {
          "internalType": "uint256",
          "name": "_Id",
          "type": "uint256"
        }
      ],
      "name": "deleteProduct",
      "outputs": [],
      "payable": false,
      "stateMutability": "nonpayable",
      "type": "function"
    }
  ],
  "bytecode": "0x608060405261a8c06001556000600555336000806101000a81548173ffffffffffffffffffffffffffffffffffffffff021916908373ffffffffffffffffffffffffffffffffffffffff1602179055506000809054906101000a900473ffffffffffffffffffffffffffffffffffffffff1673ffffffffffffffffffffffffffffffffffffffff16600073ffffffffffffffffffffffffffffffffffffffff167f8be0079c531659141344cd1fd0a4f28419497f9722a3daafe3b4186f6b6457e060405160405180910390a36150e7806100da6000396000f3fe608060405234801561001057600080fd5b50600436106101e55760003560e01c8063816bfee61161010f578063aa7bcc58116100a2578063ed90c7b711610071578063ed90c7b714610c36578063eded5d9e14610c64578063eeda149c14610cb0578063f2fde38b14610cf4576101e5565b8063aa7bcc58146109f7578063b9db15b414610a2f578063dbe9383214610b7c578063dd62ed3e14610bbe576101e5565b806393fccbb6116100de57806393fccbb6146108c75780639598a5b114610913578063990e746914610959578063a9059cbb14610991576101e5565b8063816bfee6146107d75780638da5cb5b146108235780638e96b4f71461086d5780638f32d59b146108a5576101e5565b806334d2c0ad1161018757806370a082311161015657806370a08231146106e7578063715018a61461073f57806374020033146107495780637729166d14610795576101e5565b806334d2c0ad14610568578063435184471461060f57806353b628661461065f57806359ca683c14610697576101e5565b806323b872dd116101c357806323b872dd146103155780632639769f1461039b5780632afef696146103e15780633129e773146104ba576101e5565b8063063b2e5b146101ea578063095ea7b31461029157806318160ddd146102f7575b600080fd5b6101f2610d38565b604051808060200180602001838103835285818151815260200191508051906020019060200280838360005b8381101561023957808201518184015260208101905061021e565b50505050905001838103825284818151815260200191508051906020019060200280838360005b8381101561027b578082015181840152602081019050610260565b5050505090500194505050505060405180910390f35b6102dd600480360360408110156102a757600080fd5b81019080803573ffffffffffffffffffffffffffffffffffffffff16906020019092919080359060200190929190505050610e87565b604051808215151515815260200191505060405180910390f35b6102ff610e9e565b6040518082815260200191505060405180910390f35b6103816004803603606081101561032b57600080fd5b81019080803573ffffffffffffffffffffffffffffffffffffffff169060200190929190803573ffffffffffffffffffffffffffffffffffffffff16906020019092919080359060200190929190505050610ea8565b604051808215151515815260200191505060405180910390f35b6103c7600480360360208110156103b157600080fd5b8101908080359060200190929190505050610f59565b604051808215151515815260200191505060405180910390f35b6104b8600480360360808110156103f757600080fd5b810190808035906020019092919080359060200190929190803590602001909291908035906020019064010000000081111561043257600080fd5b82018360208201111561044457600080fd5b8035906020019184600183028401116401000000008311171561046657600080fd5b91908080601f016020809104026020016040519081016040528093929190818152602001838380828437600081840152601f19601f820116905080830192505050505050509192919290505050610fcb565b005b6104e6600480360360208110156104d057600080fd5b8101908080359060200190929190505050611375565b6040518080602001838152602001828103825284818151815260200191508051906020019080838360005b8381101561052c578082015181840152602081019050610511565b50505050905090810190601f1680156105595780820380516001836020036101000a031916815260200191505b50935050505060405180910390f35b610570611552565b604051808060200180602001838103835285818151815260200191508051906020019060200280838360005b838110156105b757808201518184015260208101905061059c565b50505050905001838103825284818151815260200191508051906020019060200280838360005b838110156105f95780820151818401526020810190506105de565b5050505090500194505050505060405180910390f35b6106456004803603604081101561062557600080fd5b8101908080359060200190929190803590602001909291905050506116a1565b604051808215151515815260200191505060405180910390f35b6106956004803603604081101561067557600080fd5b810190808035906020019092919080359060200190929190505050611800565b005b6106cd600480360360408110156106ad57600080fd5b810190808035906020019092919080359060200190929190505050611b2c565b604051808215151515815260200191505060405180910390f35b610729600480360360208110156106fd57600080fd5b81019080803573ffffffffffffffffffffffffffffffffffffffff169060200190929190505050611c8b565b6040518082815260200191505060405180910390f35b610747611cd4565b005b61077f6004803603604081101561075f57600080fd5b810190808035906020019092919080359060200190929190505050611da4565b6040518082815260200191505060405180910390f35b6107d5600480360360608110156107ab57600080fd5b81019080803590602001909291908035906020019092919080359060200190929190505050611fca565b005b61080d600480360360408110156107ed57600080fd5b810190808035906020019092919080359060200190929190505050612453565b6040518082815260200191505060405180910390f35b61082b6125a5565b604051808273ffffffffffffffffffffffffffffffffffffffff1673ffffffffffffffffffffffffffffffffffffffff16815260200191505060405180910390f35b6108a36004803603604081101561088357600080fd5b8101908080359060200190929190803590602001909291905050506125ce565b005b6108ad612909565b604051808215151515815260200191505060405180910390f35b6108fd600480360360408110156108dd57600080fd5b810190808035906020019092919080359060200190929190505050612960565b6040518082815260200191505060405180910390f35b61093f6004803603602081101561092957600080fd5b8101908080359060200190929190505050612b86565b604051808215151515815260200191505060405180910390f35b61098f6004803603604081101561096f57600080fd5b810190808035906020019092919080359060200190929190505050612bbb565b005b6109dd600480360360408110156109a757600080fd5b81019080803573ffffffffffffffffffffffffffffffffffffffff16906020019092919080359060200190929190505050612ecc565b604051808215151515815260200191505060405180910390f35b610a2d60048036036040811015610a0d57600080fd5b810190808035906020019092919080359060200190929190505050612ee3565b005b610a5b60048036036020811015610a4557600080fd5b810190808035906020019092919050505061308f565b6040518080602001806020018581526020018473ffffffffffffffffffffffffffffffffffffffff1673ffffffffffffffffffffffffffffffffffffffff168152602001838103835287818151815260200191508051906020019080838360005b83811015610ad7578082015181840152602081019050610abc565b50505050905090810190601f168015610b045780820380516001836020036101000a031916815260200191505b50838103825286818151815260200191508051906020019080838360005b83811015610b3d578082015181840152602081019050610b22565b50505050905090810190601f168015610b6a5780820380516001836020036101000a031916815260200191505b50965050505050505060405180910390f35b610ba860048036036020811015610b9257600080fd5b81019080803590602001909291905050506132f3565b6040518082815260200191505060405180910390f35b610c2060048036036040811015610bd457600080fd5b81019080803573ffffffffffffffffffffffffffffffffffffffff169060200190929190803573ffffffffffffffffffffffffffffffffffffffff169060200190929190505050613358565b6040518082815260200191505060405180910390f35b610c6260048036036020811015610c4c57600080fd5b81019080803590602001909291905050506133df565b005b610c9a60048036036040811015610c7a57600080fd5b810190808035906020019092919080359060200190929190505050613545565b6040518082815260200191505060405180910390f35b610cf260048036036020811015610cc657600080fd5b81019080803573ffffffffffffffffffffffffffffffffffffffff169060200190929190505050613697565b005b610d3660048036036020811015610d0a57600080fd5b81019080803573ffffffffffffffffffffffffffffffffffffffff169060200190929190505050613754565b005b60608060006060610d47613771565b8093508192505050606082604051908082528060200260200182016040528015610d805781602001602082028038833980820191505090505b509050606083604051908082528060200260200182016040528015610db45781602001602082028038833980820191505090505b50905060008090505b84811015610e78576000848281518110610dd357fe5b6020026020010151905080848381518110610dea57fe5b602002602001018181525050600660003373ffffffffffffffffffffffffffffffffffffffff1673ffffffffffffffffffffffffffffffffffffffff1681526020019081526020016000208181548110610e4057fe5b906000526020600020906007020160010154838381518110610e5e57fe5b602002602001018181525050508080600101915050610dbd565b50818195509550505050509091565b6000610e9433848461388a565b6001905092915050565b6000600554905090565b6000610eb5848484613a81565b610f4e8433610f4985600460008a73ffffffffffffffffffffffffffffffffffffffff1673ffffffffffffffffffffffffffffffffffffffff16815260200190815260200160002060003373ffffffffffffffffffffffffffffffffffffffff1673ffffffffffffffffffffffffffffffffffffffff16815260200190815260200160002054613d3c90919063ffffffff16565b61388a565b600190509392505050565b6000600660003373ffffffffffffffffffffffffffffffffffffffff1673ffffffffffffffffffffffffffffffffffffffff1681526020019081526020016000208281548110610fa557fe5b906000526020600020906007020160060160009054906101000a900460ff169050919050565b610fd4846132f3565b831115611049576040517f08c379a000000000000000000000000000000000000000000000000000000000815260040180806020018281038252600f8152602001807f6e6f7420656e6f756768206974656d000000000000000000000000000000000081525060200191505060405180910390fd5b611051614e0c565b6040518060e00160405280600660003373ffffffffffffffffffffffffffffffffffffffff1673ffffffffffffffffffffffffffffffffffffffff16815260200190815260200160002087815481106110a657fe5b90600052602060002090600702016000018054600181600116156101000203166002900480601f01602080910402602001604051908101604052809291908181526020018280546001816001161561010002031660029004801561114b5780601f106111205761010080835404028352916020019161114b565b820191906000526020600020905b81548152906001019060200180831161112e57829003601f168201915b50505050508152602001838152602001848152602001858152602001600660003373ffffffffffffffffffffffffffffffffffffffff1673ffffffffffffffffffffffffffffffffffffffff16815260200190815260200160002087815481106111b157fe5b90600052602060002090600702016002016004806020026040519081016040528092919082600480156111f9576020028201915b8154815260200190600101908083116111e5575b505050505081526020013373ffffffffffffffffffffffffffffffffffffffff16815260200160011515815250905060006001600783908060018154018082558091505090600182039060005260206000209060090201600090919290919091506000820151816000019080519060200190611276929190614e67565b506020820151816001019080519060200190611293929190614e67565b5060408201518160020155606082015181600301556080820151816004019060046112bf929190614ee7565b5060a08201518160080160006101000a81548173ffffffffffffffffffffffffffffffffffffffff021916908373ffffffffffffffffffffffffffffffffffffffff16021790555060c08201518160080160146101000a81548160ff02191690831515021790555050500390506113368686613d53565b7f7dadbee5e0e322e9ed526f94e12bd3eb8c51d672cdcac86af19b3af7af05fd55816040518082815260200191505060405180910390a1505050505050565b606060008261138381610f59565b6113f5576040517f08c379a000000000000000000000000000000000000000000000000000000000815260040180806020018281038252601a8152602001807f6974656d206d7573742062652076616c696420746f2063616c6c00000000000081525060200191505060405180910390fd5b600660003373ffffffffffffffffffffffffffffffffffffffff1673ffffffffffffffffffffffffffffffffffffffff168152602001908152602001600020848154811061143f57fe5b9060005260206000209060070201600001600660003373ffffffffffffffffffffffffffffffffffffffff1673ffffffffffffffffffffffffffffffffffffffff168152602001908152602001600020858154811061149a57fe5b906000526020600020906007020160010154818054600181600116156101000203166002900480601f0160208091040260200160405190810160405280929190818152602001828054600181600116156101000203166002900480156115415780601f1061151657610100808354040283529160200191611541565b820191906000526020600020905b81548152906001019060200180831161152457829003601f168201915b505050505091509250925050915091565b60608060006060611561613eda565b809350819250505060608260405190808252806020026020018201604052801561159a5781602001602082028038833980820191505090505b5090506060836040519080825280602002602001820160405280156115ce5781602001602082028038833980820191505090505b50905060008090505b848110156116925760008482815181106115ed57fe5b602002602001015190508084838151811061160457fe5b602002602001018181525050600660003373ffffffffffffffffffffffffffffffffffffffff1673ffffffffffffffffffffffffffffffffffffffff168152602001908152602001600020818154811061165a57fe5b90600052602060002090600702016001015483838151811061167857fe5b6020026020010181815250505080806001019150506115d7565b50818195509550505050509091565b60008282600260003373ffffffffffffffffffffffffffffffffffffffff1673ffffffffffffffffffffffffffffffffffffffff16815260200190815260200160002082600581106116ef57fe5b6037020181600581106116fe57fe5b600b020160040160009054906101000a900460ff16611785576040517f08c379a000000000000000000000000000000000000000000000000000000000815260040180806020018281038252601d8152602001807f6c6f636174696f6e20646f6573206e6f742068617665207370726f757400000081525060200191505060405180910390fd5b600260003373ffffffffffffffffffffffffffffffffffffffff1673ffffffffffffffffffffffffffffffffffffffff16815260200190815260200160002085600581106117cf57fe5b6037020184600581106117de57fe5b600b020160050160050160019054906101000a900460ff169250505092915050565b8161180a81612b86565b61187c576040517f08c379a000000000000000000000000000000000000000000000000000000000815260040180806020018281038252601a8152602001807f6974656d206d7573742062652076616c696420746f2063616c6c00000000000081525060200191505060405180910390fd5b6007838154811061188957fe5b906000526020600020906009020160030154821115611910576040517f08c379a000000000000000000000000000000000000000000000000000000000815260040180806020018281038252601d8152602001807f6e6f7420656e6f756768206974656d206f6e20746865206d61726b657400000081525060200191505060405180910390fd5b60006119436007858154811061192257fe5b90600052602060002090600902016002015484613f7990919063ffffffff16565b90508061194f33611c8b565b10156119c3576040517f08c379a00000000000000000000000000000000000000000000000000000000081526004018080602001828103825260108152602001807f6e6f7420656e6f756768206d6f6e65790000000000000000000000000000000081525060200191505060405180910390fd5b611a0b600785815481106119d357fe5b906000526020600020906009020160080160009054906101000a900473ffffffffffffffffffffffffffffffffffffffff1682612ecc565b50611b2660078581548110611a1c57fe5b90600052602060002090600902016000018054600181600116156101000203166002900480601f016020809104026020016040519081016040528092919081815260200182805460018160011615610100020316600290048015611ac15780601f10611a9657610100808354040283529160200191611ac1565b820191906000526020600020905b815481529060010190602001808311611aa457829003601f168201915b50505050508460078781548110611ad457fe5b9060005260206000209060090201600401600480602002604051908101604052809291908260048015611b1c576020028201915b815481526020019060010190808311611b08575b5050505050613fb0565b50505050565b60008282600260003373ffffffffffffffffffffffffffffffffffffffff1673ffffffffffffffffffffffffffffffffffffffff1681526020019081526020016000208260058110611b7a57fe5b603702018160058110611b8957fe5b600b020160040160009054906101000a900460ff16611c10576040517f08c379a000000000000000000000000000000000000000000000000000000000815260040180806020018281038252601d8152602001807f6c6f636174696f6e20646f6573206e6f742068617665207370726f757400000081525060200191505060405180910390fd5b600260003373ffffffffffffffffffffffffffffffffffffffff1673ffffffffffffffffffffffffffffffffffffffff1681526020019081526020016000208560058110611c5a57fe5b603702018460058110611c6957fe5b600b020160050160050160019054906101000a900460ff169250505092915050565b6000600360008373ffffffffffffffffffffffffffffffffffffffff1673ffffffffffffffffffffffffffffffffffffffff168152602001908152602001600020549050919050565b611cdc612909565b611ce557600080fd5b600073ffffffffffffffffffffffffffffffffffffffff166000809054906101000a900473ffffffffffffffffffffffffffffffffffffffff1673ffffffffffffffffffffffffffffffffffffffff167f8be0079c531659141344cd1fd0a4f28419497f9722a3daafe3b4186f6b6457e060405160405180910390a360008060006101000a81548173ffffffffffffffffffffffffffffffffffffffff021916908373ffffffffffffffffffffffffffffffffffffffff160217905550565b60008282600260003373ffffffffffffffffffffffffffffffffffffffff1673ffffffffffffffffffffffffffffffffffffffff1681526020019081526020016000208260058110611df257fe5b603702018160058110611e0157fe5b600b020160040160009054906101000a900460ff16611e88576040517f08c379a000000000000000000000000000000000000000000000000000000000815260040180806020018281038252601d8152602001807f6c6f636174696f6e20646f6573206e6f742068617665207370726f757400000081525060200191505060405180910390fd5b6000611ea6611e9787876140ef565b42613d3c90919063ffffffff16565b90506000611eb4878761415a565b90506000611ec288886141c8565b905081831115611f4957611ee060148361423690919063ffffffff16565b611ef38385613d3c90919063ffffffff16565b1015611f3d57611f336078611f25603c611f1760788661424f90919063ffffffff16565b613f7990919063ffffffff16565b61423690919063ffffffff16565b9550505050611fc2565b60009550505050611fc2565b6000831415611f5e5760009550505050611fc2565b611fbc83611fae6078611fa086611f92603c611f8460788a61424f90919063ffffffff16565b613f7990919063ffffffff16565b613f7990919063ffffffff16565b61423690919063ffffffff16565b61423690919063ffffffff16565b95505050505b505092915050565b80611fd481610f59565b612046576040517f08c379a000000000000000000000000000000000000000000000000000000000815260040180806020018281038252601a8152602001807f6974656d206d7573742062652076616c696420746f2063616c6c00000000000081525060200191505060405180910390fd5b816000600660003373ffffffffffffffffffffffffffffffffffffffff1673ffffffffffffffffffffffffffffffffffffffff168152602001908152602001600020828154811061209357fe5b906000526020600020906007020160000160405160200180828054600181600116156101000203166002900480156121025780601f106120e0576101008083540402835291820191612102565b820191906000526020600020905b8154815290600101906020018083116120ee575b50509150506040516020818303038152906040528051906020012060001c9050600060405160200180807f736565640000000000000000000000000000000000000000000000000000000081525060040190506040516020818303038152906040528051906020012060001c90508082146121e5576040517f08c379a000000000000000000000000000000000000000000000000000000000815260040180806020018281038252600f8152602001807f6e6f7420612073656564206974656d000000000000000000000000000000000081525060200191505060405180910390fd5b6000424460405160200180838152602001828152602001925050506040516020818303038152906040528051906020012060001c90506000444260405160200180838152602001828152602001925050506040516020818303038152906040528051906020012060001c90506000600660003373ffffffffffffffffffffffffffffffffffffffff1673ffffffffffffffffffffffffffffffffffffffff168152602001908152602001600020888154811061229d57fe5b90600052602060002090600702016002016000600481106122ba57fe5b01548316905061233e600660003373ffffffffffffffffffffffffffffffffffffffff1673ffffffffffffffffffffffffffffffffffffffff168152602001908152602001600020898154811061230d57fe5b906000526020600020906007020160020160016004811061232a57fe5b01548419168261424f90919063ffffffff16565b90506000600660003373ffffffffffffffffffffffffffffffffffffffff1673ffffffffffffffffffffffffffffffffffffffff168152602001908152602001600020898154811061238c57fe5b90600052602060002090600702016002016002600481106123a957fe5b01548316905061242d600660003373ffffffffffffffffffffffffffffffffffffffff1673ffffffffffffffffffffffffffffffffffffffff1681526020019081526020016000208a815481106123fc57fe5b906000526020600020906007020160020160036004811061241957fe5b01548419168261424f90919063ffffffff16565b905061243b8b8b848461426b565b612446896001613d53565b5050505050505050505050565b60008282600260003373ffffffffffffffffffffffffffffffffffffffff1673ffffffffffffffffffffffffffffffffffffffff16815260200190815260200160002082600581106124a157fe5b6037020181600581106124b057fe5b600b020160040160009054906101000a900460ff16612537576040517f08c379a000000000000000000000000000000000000000000000000000000000815260040180806020018281038252601d8152602001807f6c6f636174696f6e20646f6573206e6f742068617665207370726f757400000081525060200191505060405180910390fd5b600260003373ffffffffffffffffffffffffffffffffffffffff1673ffffffffffffffffffffffffffffffffffffffff168152602001908152602001600020856005811061258157fe5b60370201846005811061259057fe5b600b0201600501600401549250505092915050565b60008060009054906101000a900473ffffffffffffffffffffffffffffffffffffffff16905090565b818160006125ee6125df84846140ef565b42613d3c90919063ffffffff16565b905060006125fc848461415a565b90506126256064612617606584613f7990919063ffffffff16565b61423690919063ffffffff16565b8211612699576040517f08c379a00000000000000000000000000000000000000000000000000000000081526004018080602001828103825260178152602001807f746f6f206561726c7920746f206861766520736565647300000000000000000081525060200191505060405180910390fd5b600260003373ffffffffffffffffffffffffffffffffffffffff1673ffffffffffffffffffffffffffffffffffffffff16815260200190815260200160002084600581106126e357fe5b6037020183600581106126f257fe5b600b020160040160019054906101000a900460ff161561277a576040517f08c379a000000000000000000000000000000000000000000000000000000000815260040180806020018281038252601e8152602001807f7468652073656564732061726520616c726561647920706c75676765642e000081525060200191505060405180910390fd5b6001600260003373ffffffffffffffffffffffffffffffffffffffff1673ffffffffffffffffffffffffffffffffffffffff16815260200190815260200160002087600581106127c657fe5b6037020186600581106127d557fe5b600b020160040160016101000a81548160ff0219169083151502179055506000600260003373ffffffffffffffffffffffffffffffffffffffff1673ffffffffffffffffffffffffffffffffffffffff168152602001908152602001600020876005811061283f57fe5b60370201866005811061284e57fe5b600b02016000015490506000600260003373ffffffffffffffffffffffffffffffffffffffff1673ffffffffffffffffffffffffffffffffffffffff16815260200190815260200160002088600581106128a457fe5b6037020187600581106128b357fe5b600b020160010154905060006128ef600a6128e160026128d38d8d612453565b61423690919063ffffffff16565b61424f90919063ffffffff16565b90506128fe81848486866148ff565b505050505050505050565b60008060009054906101000a900473ffffffffffffffffffffffffffffffffffffffff1673ffffffffffffffffffffffffffffffffffffffff163373ffffffffffffffffffffffffffffffffffffffff1614905090565b60008282600260003373ffffffffffffffffffffffffffffffffffffffff1673ffffffffffffffffffffffffffffffffffffffff16815260200190815260200160002082600581106129ae57fe5b6037020181600581106129bd57fe5b600b020160040160009054906101000a900460ff16612a44576040517f08c379a000000000000000000000000000000000000000000000000000000000815260040180806020018281038252601d8152602001807f6c6f636174696f6e20646f6573206e6f742068617665207370726f757400000081525060200191505060405180910390fd5b6000612a62612a5387876140ef565b42613d3c90919063ffffffff16565b90506000612a70878761415a565b90506000612a7e8888614972565b905081831115612b0557612a9c60148361423690919063ffffffff16565b612aaf8385613d3c90919063ffffffff16565b1015612af957612aef600f612ae16005612ad3600f8661424f90919063ffffffff16565b613f7990919063ffffffff16565b61423690919063ffffffff16565b9550505050612b7e565b60009550505050612b7e565b6000831415612b1a5760009550505050612b7e565b612b7883612b6a600f612b5c86612b4e6005612b40600f8a61424f90919063ffffffff16565b613f7990919063ffffffff16565b613f7990919063ffffffff16565b61423690919063ffffffff16565b61423690919063ffffffff16565b95505050505b505092915050565b600060078281548110612b9557fe5b906000526020600020906009020160080160149054906101000a900460ff169050919050565b8181600260003373ffffffffffffffffffffffffffffffffffffffff1673ffffffffffffffffffffffffffffffffffffffff1681526020019081526020016000208260058110612c0757fe5b603702018160058110612c1657fe5b600b020160040160009054906101000a900460ff16612c9d576040517f08c379a000000000000000000000000000000000000000000000000000000000815260040180806020018281038252601d8152602001807f6c6f636174696f6e20646f6573206e6f742068617665207370726f757400000081525060200191505060405180910390fd5b6000612cbb612cac86866140ef565b42613d3c90919063ffffffff16565b90506000612cc9868661415a565b90506000612cd78787612960565b90506000612ce58888611da4565b90506000612cf7858584868d8d6149e0565b905060011515600260003373ffffffffffffffffffffffffffffffffffffffff1673ffffffffffffffffffffffffffffffffffffffff1681526020019081526020016000208a60058110612d4757fe5b603702018960058110612d5657fe5b600b020160040160009054906101000a900460ff1615151415612e82576000600260003373ffffffffffffffffffffffffffffffffffffffff1673ffffffffffffffffffffffffffffffffffffffff1681526020019081526020016000208a60058110612dbf57fe5b603702018960058110612dce57fe5b600b020160040160006101000a81548160ff021916908315150217905550612e3e81600360003373ffffffffffffffffffffffffffffffffffffffff1673ffffffffffffffffffffffffffffffffffffffff1681526020019081526020016000205461424f90919063ffffffff16565b600360003373ffffffffffffffffffffffffffffffffffffffff1673ffffffffffffffffffffffffffffffffffffffff168152602001908152602001600020819055505b7fef9514e76636c86a9084470f65495ff78258053cada18c62136f204ff2f0daa28989604051808381526020018281526020019250505060405180910390a1505050505050505050565b6000612ed9338484613a81565b6001905092915050565b6064600360003373ffffffffffffffffffffffffffffffffffffffff1673ffffffffffffffffffffffffffffffffffffffff1681526020019081526020016000205411612f7b576040517f08c379a00000000000000000000000000000000000000000000000000000000081526004018080602001828103825260238152602001806150476023913960400191505060405180910390fd5b6000424460405160200180838152602001828152602001925050506040516020818303038152906040528051906020012060001c90506000444260405160200180838152602001828152602001925050506040516020818303038152906040528051906020012060001c9050612ff38484848461426b565b6130466064600360003373ffffffffffffffffffffffffffffffffffffffff1673ffffffffffffffffffffffffffffffffffffffff16815260200190815260200160002054613d3c90919063ffffffff16565b600360003373ffffffffffffffffffffffffffffffffffffffff1673ffffffffffffffffffffffffffffffffffffffff1681526020019081526020016000208190555050505050565b6060806000808461309f81612b86565b613111576040517f08c379a000000000000000000000000000000000000000000000000000000000815260040180806020018281038252601a8152602001807f6974656d206d7573742062652076616c696420746f2063616c6c00000000000081525060200191505060405180910390fd5b6007868154811061311e57fe5b90600052602060002090600902016000016007878154811061313c57fe5b90600052602060002090600902016001016007888154811061315a57fe5b9060005260206000209060090201600301546007898154811061317957fe5b906000526020600020906009020160080160009054906101000a900473ffffffffffffffffffffffffffffffffffffffff16838054600181600116156101000203166002900480601f0160208091040260200160405190810160405280929190818152602001828054600181600116156101000203166002900480156132405780601f1061321557610100808354040283529160200191613240565b820191906000526020600020905b81548152906001019060200180831161322357829003601f168201915b50505050509350828054600181600116156101000203166002900480601f0160208091040260200160405190810160405280929190818152602001828054600181600116156101000203166002900480156132dc5780601f106132b1576101008083540402835291602001916132dc565b820191906000526020600020905b8154815290600101906020018083116132bf57829003601f168201915b505050505092509450945094509450509193509193565b6000600660003373ffffffffffffffffffffffffffffffffffffffff1673ffffffffffffffffffffffffffffffffffffffff168152602001908152602001600020828154811061333f57fe5b9060005260206000209060070201600101549050919050565b6000600460008473ffffffffffffffffffffffffffffffffffffffff1673ffffffffffffffffffffffffffffffffffffffff16815260200190815260200160002060008373ffffffffffffffffffffffffffffffffffffffff1673ffffffffffffffffffffffffffffffffffffffff16815260200190815260200160002054905092915050565b806133e981612b86565b61345b576040517f08c379a000000000000000000000000000000000000000000000000000000000815260040180806020018281038252601a8152602001807f6974656d206d7573742062652076616c696420746f2063616c6c00000000000081525060200191505060405180910390fd5b816007818154811061346957fe5b906000526020600020906009020160080160009054906101000a900473ffffffffffffffffffffffffffffffffffffffff1673ffffffffffffffffffffffffffffffffffffffff163373ffffffffffffffffffffffffffffffffffffffff16146134d257600080fd5b6000600784815481106134e157fe5b906000526020600020906009020160080160146101000a81548160ff0219169083151502179055507fe97809151b91dbdf8b3542625c29474349cd61613de1e5359da86689a5de4a54836040518082815260200191505060405180910390a1505050565b60008282600260003373ffffffffffffffffffffffffffffffffffffffff1673ffffffffffffffffffffffffffffffffffffffff168152602001908152602001600020826005811061359357fe5b6037020181600581106135a257fe5b600b020160040160009054906101000a900460ff16613629576040517f08c379a000000000000000000000000000000000000000000000000000000000815260040180806020018281038252601d8152602001807f6c6f636174696f6e20646f6573206e6f742068617665207370726f757400000081525060200191505060405180910390fd5b600260003373ffffffffffffffffffffffffffffffffffffffff1673ffffffffffffffffffffffffffffffffffffffff168152602001908152602001600020856005811061367357fe5b60370201846005811061368257fe5b600b0201600501600201549250505092915050565b61369f612909565b6136a857600080fd5b6103e8600360008373ffffffffffffffffffffffffffffffffffffffff1673ffffffffffffffffffffffffffffffffffffffff168152602001908152602001600020819055507f827446e550fe5bfd75ca44888adfeafa8fe5b5ea548deabda1ed8f5c08f2cf2281604051808273ffffffffffffffffffffffffffffffffffffffff1673ffffffffffffffffffffffffffffffffffffffff16815260200191505060405180910390a150565b61375c612909565b61376557600080fd5b61376e81614bd8565b50565b606060006060600660003373ffffffffffffffffffffffffffffffffffffffff1673ffffffffffffffffffffffffffffffffffffffff168152602001908152602001600020805490506040519080825280602002602001820160405280156137e85781602001602082028038833980820191505090505b509050600080905060008090505b600660003373ffffffffffffffffffffffffffffffffffffffff1673ffffffffffffffffffffffffffffffffffffffff1681526020019081526020016000208054905081101561387d5761384981610f59565b15613870578083838151811061385b57fe5b60200260200101818152505081806001019250505b80806001019150506137f6565b5081819350935050509091565b600073ffffffffffffffffffffffffffffffffffffffff168373ffffffffffffffffffffffffffffffffffffffff161415613910576040517f08c379a000000000000000000000000000000000000000000000000000000000815260040180806020018281038252602481526020018061508f6024913960400191505060405180910390fd5b600073ffffffffffffffffffffffffffffffffffffffff168273ffffffffffffffffffffffffffffffffffffffff161415613996576040517f08c379a00000000000000000000000000000000000000000000000000000000081526004018080602001828103825260228152602001806150256022913960400191505060405180910390fd5b80600460008573ffffffffffffffffffffffffffffffffffffffff1673ffffffffffffffffffffffffffffffffffffffff16815260200190815260200160002060008473ffffffffffffffffffffffffffffffffffffffff1673ffffffffffffffffffffffffffffffffffffffff168152602001908152602001600020819055508173ffffffffffffffffffffffffffffffffffffffff168373ffffffffffffffffffffffffffffffffffffffff167f8c5be1e5ebec7d5bd14f71427d1e84f3dd0314c0f7b2291e5b200ac8c7c3b925836040518082815260200191505060405180910390a3505050565b600073ffffffffffffffffffffffffffffffffffffffff168373ffffffffffffffffffffffffffffffffffffffff161415613b07576040517f08c379a000000000000000000000000000000000000000000000000000000000815260040180806020018281038252602581526020018061506a6025913960400191505060405180910390fd5b600073ffffffffffffffffffffffffffffffffffffffff168273ffffffffffffffffffffffffffffffffffffffff161415613b8d576040517f08c379a00000000000000000000000000000000000000000000000000000000081526004018080602001828103825260238152602001806150026023913960400191505060405180910390fd5b613bdf81600360008673ffffffffffffffffffffffffffffffffffffffff1673ffffffffffffffffffffffffffffffffffffffff16815260200190815260200160002054613d3c90919063ffffffff16565b600360008573ffffffffffffffffffffffffffffffffffffffff1673ffffffffffffffffffffffffffffffffffffffff16815260200190815260200160002081905550613c7481600360008573ffffffffffffffffffffffffffffffffffffffff1673ffffffffffffffffffffffffffffffffffffffff1681526020019081526020016000205461424f90919063ffffffff16565b600360008473ffffffffffffffffffffffffffffffffffffffff1673ffffffffffffffffffffffffffffffffffffffff16815260200190815260200160002081905550613ccc8160055461424f90919063ffffffff16565b6005819055508173ffffffffffffffffffffffffffffffffffffffff168373ffffffffffffffffffffffffffffffffffffffff167fddf252ad1be2c89b69c2b068fc378daa952ba7f163c4a11628f55a4df523b3ef836040518082815260200191505060405180910390a3505050565b600082821115613d4857fe5b818303905092915050565b81613d5d81610f59565b613dcf576040517f08c379a000000000000000000000000000000000000000000000000000000000815260040180806020018281038252601a8152602001807f6974656d206d7573742062652076616c696420746f2063616c6c00000000000081525060200191505060405180910390fd5b613dd8836132f3565b821115613e4d576040517f08c379a000000000000000000000000000000000000000000000000000000000815260040180806020018281038252600f8152602001807f6e6f7420656e6f756768206974656d000000000000000000000000000000000081525060200191505060405180910390fd5b613e56836132f3565b821415613e6b57613e6683614cd0565b613ed5565b81600660003373ffffffffffffffffffffffffffffffffffffffff1673ffffffffffffffffffffffffffffffffffffffff1681526020019081526020016000208481548110613eb657fe5b9060005260206000209060070201600101600082825403925050819055505b505050565b606060006060600780549050604051908082528060200260200182016040528015613f145781602001602082028038833980820191505090505b509050600080905060008090505b600780549050811015613f6c57613f3881612b86565b15613f5f5780838381518110613f4a57fe5b60200260200101818152505081806001019250505b8080600101915050613f22565b5081819350935050509091565b600080831415613f8c5760009050613faa565b6000828402905082848281613f9d57fe5b0414613fa557fe5b809150505b92915050565b613fb8614f27565b604051806080016040528085815260200184815260200183815260200160011515815250905060006001600660003373ffffffffffffffffffffffffffffffffffffffff1673ffffffffffffffffffffffffffffffffffffffff16815260200190815260200160002083908060018154018082558091505090600182039060005260206000209060070201600090919290919091506000820151816000019080519060200190614069929190614e67565b506020820151816001015560408201518160020190600461408b929190614ee7565b5060608201518160060160006101000a81548160ff02191690831515021790555050500390507f9d988e03406844e4f4570c5b73a65bcd79fdd6f1bf564656ae99e23328ef2c0e816040518082815260200191505060405180910390a15050505050565b6000600260003373ffffffffffffffffffffffffffffffffffffffff1673ffffffffffffffffffffffffffffffffffffffff168152602001908152602001600020836005811061413b57fe5b60370201826005811061414a57fe5b600b020160020154905092915050565b6000600260003373ffffffffffffffffffffffffffffffffffffffff1673ffffffffffffffffffffffffffffffffffffffff16815260200190815260200160002083600581106141a657fe5b6037020182600581106141b557fe5b600b020160050160030154905092915050565b6000600260003373ffffffffffffffffffffffffffffffffffffffff1673ffffffffffffffffffffffffffffffffffffffff168152602001908152602001600020836005811061421457fe5b60370201826005811061422357fe5b600b020160050160000154905092915050565b60008082848161424257fe5b0490508091505092915050565b60008082840190508381101561426157fe5b8091505092915050565b60001515600260003373ffffffffffffffffffffffffffffffffffffffff1673ffffffffffffffffffffffffffffffffffffffff16815260200190815260200160002085600581106142b957fe5b6037020184600581106142c857fe5b600b020160040160009054906101000a900460ff161515146142e957600080fd5b61434e600260003373ffffffffffffffffffffffffffffffffffffffff1673ffffffffffffffffffffffffffffffffffffffff168152602001908152602001600020856005811061433657fe5b60370201846005811061434557fe5b600b0201614dfb565b61435757600080fd5b61435f614f57565b6040518060e0016040528060008152602001600081526020016000815260200160008152602001600081526020016000151581526020016000151581525090506000839050600083905060006001600283816143b757fe5b06600285816143c257fe5b0617148460a0019015159081151581525050600183901c9250600182901c91506001600283816143ee57fe5b06600285816143f957fe5b0617148460c00190151590811515815250506000600290505b60298110156144a05760016002858161442757fe5b061415614450576144466001866040015161424f90919063ffffffff16565b8560400181815250505b60016002848161445c57fe5b0614156144855761447b6001866040015161424f90919063ffffffff16565b8560400181815250505b600184901c9350600183901c92508080600101915050614412565b506000602990505b6065811015614536576001600285816144bd57fe5b0614156144e6576144dc6001866020015161424f90919063ffffffff16565b8560200181815250505b6001600284816144f257fe5b06141561451b576145116001866020015161424f90919063ffffffff16565b8560200181815250505b600184901c9350600183901c925080806001019150506144a8565b506000606590505b60a18110156145cc5760016002858161455357fe5b06141561457c576145726001866000015161424f90919063ffffffff16565b8560000181815250505b60016002848161458857fe5b0614156145b1576145a76001866000015161424f90919063ffffffff16565b8560000181815250505b600184901c9350600183901c9250808060010191505061453e565b50600060a190505b60c9811015614662576001600285816145e957fe5b061415614612576146086001866080015161424f90919063ffffffff16565b8560800181815250505b60016002848161461e57fe5b0614156146475761463d6001866080015161424f90919063ffffffff16565b8560800181815250505b600184901c9350600183901c925080806001019150506145d4565b50600060c990505b6101008110156146e35760016002858161468057fe5b06141561469e5761469b60018361424f90919063ffffffff16565b91505b6001600284816146aa57fe5b0614156146c8576146c560018361424f90919063ffffffff16565b91505b600184901c9350600183901c9250808060010191505061466a565b506201518060be6147116002614703600386613f7990919063ffffffff16565b61423690919063ffffffff16565b61017c038161471c57fe5b04028460600181815250506040518060e001604052808781526020018681526020014281526020016000815260200160011515815260200160001515815260200185815250600260003373ffffffffffffffffffffffffffffffffffffffff1673ffffffffffffffffffffffffffffffffffffffff16815260200190815260200160002089600581106147ab57fe5b6037020188600581106147ba57fe5b600b02016000820151816000015560208201518160010155604082015181600201556060820151816003015560808201518160040160006101000a81548160ff02191690831515021790555060a08201518160040160016101000a81548160ff02191690831515021790555060c082015181600501600082015181600001556020820151816001015560408201518160020155606082015181600301556080820151816004015560a08201518160050160006101000a81548160ff02191690831515021790555060c08201518160050160016101000a81548160ff02191690831515021790555050509050507f29673a2c4180cee02675c1aeac3253f75b8a067246770a77b079d48c92248cbd888888886040518085815260200184815260200183815260200182815260200194505050505060405180910390a15050505050505050565b614907614f98565b604051806080016040528086815260200185815260200184815260200183815250905061496a6040518060400160405280600481526020017f73656564000000000000000000000000000000000000000000000000000000008152508783613fb0565b505050505050565b6000600260003373ffffffffffffffffffffffffffffffffffffffff1673ffffffffffffffffffffffffffffffffffffffff16815260200190815260200160002083600581106149be57fe5b6037020182600581106149cd57fe5b600b020160050160010154905092915050565b60008282600260003373ffffffffffffffffffffffffffffffffffffffff1673ffffffffffffffffffffffffffffffffffffffff1681526020019081526020016000208260058110614a2e57fe5b603702018160058110614a3d57fe5b600b020160040160009054906101000a900460ff16614ac4576040517f08c379a000000000000000000000000000000000000000000000000000000000815260040180806020018281038252601d8152602001807f6c6f636174696f6e20646f6573206e6f742068617665207370726f757400000081525060200191505060405180910390fd5b6000614ad08686613545565b90506000614ade8787611b2c565b90506000614aec88886116a1565b90508a8c1115614b3b57614b0a60148c61423690919063ffffffff16565b614b1d8c8e613d3c90919063ffffffff16565b1015614b2f5760059550505050614bcc565b60009550505050614bcc565b60008c1415614b505760029550505050614bcc565b6000614b8a614b69600a8661423690919063ffffffff16565b614b7c8c8e613f7990919063ffffffff16565b613d3c90919063ffffffff16565b90508115614ba857614ba660058261424f90919063ffffffff16565b505b8215614bc457614bc260058261424f90919063ffffffff16565b505b809650505050505b50509695505050505050565b600073ffffffffffffffffffffffffffffffffffffffff168173ffffffffffffffffffffffffffffffffffffffff161415614c1257600080fd5b8073ffffffffffffffffffffffffffffffffffffffff166000809054906101000a900473ffffffffffffffffffffffffffffffffffffffff1673ffffffffffffffffffffffffffffffffffffffff167f8be0079c531659141344cd1fd0a4f28419497f9722a3daafe3b4186f6b6457e060405160405180910390a3806000806101000a81548173ffffffffffffffffffffffffffffffffffffffff021916908373ffffffffffffffffffffffffffffffffffffffff16021790555050565b80614cda81610f59565b614d4c576040517f08c379a000000000000000000000000000000000000000000000000000000000815260040180806020018281038252601a8152602001807f6974656d206d7573742062652076616c696420746f2063616c6c00000000000081525060200191505060405180910390fd5b6000600660003373ffffffffffffffffffffffffffffffffffffffff1673ffffffffffffffffffffffffffffffffffffffff1681526020019081526020016000208381548110614d9857fe5b906000526020600020906007020160060160006101000a81548160ff0219169083151502179055507f04db484cca74d7317df830807409b645213719e2ca21de1d9b1eee1ab4c68018826040518082815260200191505060405180910390a15050565b600042826003015411159050919050565b6040518060e0016040528060608152602001606081526020016000815260200160008152602001614e3b614fba565b8152602001600073ffffffffffffffffffffffffffffffffffffffff1681526020016000151581525090565b828054600181600116156101000203166002900490600052602060002090601f016020900481019282601f10614ea857805160ff1916838001178555614ed6565b82800160010185558215614ed6579182015b82811115614ed5578251825591602001919060010190614eba565b5b509050614ee39190614fdc565b5090565b8260048101928215614f16579160200282015b82811115614f15578251825591602001919060010190614efa565b5b509050614f239190614fdc565b5090565b60405180608001604052806060815260200160008152602001614f48614fba565b81526020016000151581525090565b6040518060e0016040528060008152602001600081526020016000815260200160008152602001600081526020016000151581526020016000151581525090565b6040518060800160405280600490602082028038833980820191505090505090565b6040518060800160405280600490602082028038833980820191505090505090565b614ffe91905b80821115614ffa576000816000905550600101614fe2565b5090565b9056fe45524332303a207472616e7366657220746f20746865207a65726f206164647265737345524332303a20617070726f766520746f20746865207a65726f20616464726573736e6f7420656e6f756768206d6f6e657920746f206275792072616e646f6d207365656445524332303a207472616e736665722066726f6d20746865207a65726f206164647265737345524332303a20617070726f76652066726f6d20746865207a65726f2061646472657373a265627a7a72315820d2fb5d916898f11db2799e2be677f68bde24aac6cf5a170fff556d6233b2cfa564736f6c63430005100032",
  "source": "pragma solidity ^0.5.0;\n\n\nimport \"./OwnerItem.sol\";\n\ncontract SproutMarket is OwnerItem {\n\n    /*A Place where player can sell their seeds or other products.\n    */\n\n    event OnProductAdded(uint Id);\n    event OnProductDeleted(uint Id);\n    \n    struct Product {\n        string producType;\n        string description;\n        uint value_each;\n        uint num;\n        uint[4] content;// 4 is for seed product, may be expanded\n        address owner;\n        bool isValid;\n    }\n    Product[] _MarketList;\n\n\n    // Modifier\n    modifier isValidProduct(uint _Id) {\n        require(isProductValid(_Id), \"item must be valid to call\");\n        _;\n    }\n    modifier isProductOwner(uint _Id) {\n        require(msg.sender == _MarketList[_Id].owner);\n        _;\n    }\n    \n\n\n    // Public function\n    // basic functions for show market list\n    function isProductValid(uint _Id) public view returns(bool isValid) {\n        return _MarketList[_Id].isValid;\n    }\n    function getProduct(uint _Id) public view isValidProduct(_Id) returns(string memory, string memory, uint, address) {\n        return (_MarketList[_Id].producType, _MarketList[_Id].description, _MarketList[_Id].num, _MarketList[_Id].owner);\n    }\n\n    function getProductList() public view returns(uint[] memory, uint[] memory) {\n        uint len;\n        uint[] memory valids;\n\n        (valids, len) = _getValidProducts();\n\n        uint[] memory ids = new uint[](len);\n        uint[] memory nums = new uint[](len);\n        for (uint i = 0; i < len; i++) {\n            uint id = valids[i];\n            ids[i] = id;\n            nums[i] = _ItemList[msg.sender][id].num;\n        }\n        return (ids, nums);\n    }\n\n    // a portion of the items in the player's item list put onto the market place waited for sail.\n    // Be aware of that the items put on market list won't be able to put back to your own item list again.\n    function sellItem(uint id, uint num, uint value, string memory description) public {\n        require(num <= getItemNum(id), \"not enough item\");\n        Product memory product = Product(_ItemList[msg.sender][id].itemName, description, value, num, \n            _ItemList[msg.sender][id].content, msg.sender, true);\n        uint Id = _MarketList.push(product) - 1;\n        spendItem(id, num);\n\n        emit OnProductAdded(Id);\n    }\n    function buyProduct(uint _Id, uint num) public isValidProduct(_Id){\n        require(num <= _MarketList[_Id].num, \"not enough item on the market\");\n        uint total = num.mul(_MarketList[_Id].value_each);\n        require(balanceOf(msg.sender) >= total, \"not enough money\");\n        transfer(_MarketList[_Id].owner, total);\n        addItem(_MarketList[_Id].producType, num, _MarketList[_Id].content);\n    }\n    // used when you no longer want to sell an item\n    function deleteProduct(uint _Id) public isValidProduct(_Id) isProductOwner( _Id){\n        _MarketList[_Id].isValid = false;\n        emit OnProductDeleted(_Id);\n    }\n\n\n\n    // private function\n    function _getValidProducts() private view returns(uint[] memory valids, uint length) {\n        uint[] memory validProducts = new uint[](_MarketList.length);\n        uint count = 0;\n        for (uint i = 0; i < _MarketList.length; i++) {\n            if (isProductValid(i)) {\n                validProducts[count] = i;\n                count++;\n            }\n        }\n        return(validProducts, count);\n    }\n}",
  "sourcePath": "/Users/catherine/Documents/GitHub/finals/nmlab_final/contracts/SproutMarket.sol",
  "compiler": {
    "name": "solc",
    "version": "0.5.16+commit.9c3226ce.Emscripten.clang"
  },
  "schemaVersion": "3.1.0",
  "updatedAt": "2020-06-15T13:01:29.286Z",
  "devdoc": {
    "methods": {
      "isOwner()": {
        "return": "true if `msg.sender` is the owner of the contract."
      },
      "owner()": {
        "return": "the address of the owner."
      },
      "renounceOwnership()": {
        "details": "Allows the current owner to relinquish control of the contract."
      },
      "transferOwnership(address)": {
        "details": "Allows the current owner to transfer control of the contract to a newOwner.",
        "params": {
          "newOwner": "The address to transfer ownership to."
        }
      }
    }
  },
  "userdoc": {
    "methods": {
      "renounceOwnership()": {
        "notice": "Renouncing to ownership will leave the contract without an owner. It will not be possible to call the functions with the `onlyOwner` modifier anymore."
      }
    }
  }
}