{
  "contractName": "SproutMarket",
  "abi": [
    {
      "anonymous": false,
      "inputs": [
        {
          "indexed": true,
          "internalType": "address",
          "name": "_owner",
          "type": "address"
        },
        {
          "indexed": true,
          "internalType": "address",
          "name": "_spender",
          "type": "address"
        },
        {
          "indexed": false,
          "internalType": "uint256",
          "name": "_value",
          "type": "uint256"
        }
      ],
      "name": "Approval",
      "type": "event"
    },
    {
      "anonymous": false,
      "inputs": [
        {
          "indexed": false,
          "internalType": "uint256",
          "name": "x_id",
          "type": "uint256"
        },
        {
          "indexed": false,
          "internalType": "uint256",
          "name": "y_id",
          "type": "uint256"
        },
        {
          "indexed": false,
          "internalType": "uint256",
          "name": "dna1",
          "type": "uint256"
        },
        {
          "indexed": false,
          "internalType": "uint256",
          "name": "dna2",
          "type": "uint256"
        }
      ],
      "name": "OnAdd",
      "type": "event"
    },
    {
      "anonymous": false,
      "inputs": [
        {
          "indexed": false,
          "internalType": "uint256",
          "name": "Id",
          "type": "uint256"
        }
      ],
      "name": "OnItemAdded",
      "type": "event"
    },
    {
      "anonymous": false,
      "inputs": [
        {
          "indexed": false,
          "internalType": "uint256",
          "name": "Id",
          "type": "uint256"
        }
      ],
      "name": "OnItemDeleted",
      "type": "event"
    },
    {
      "anonymous": false,
      "inputs": [
        {
          "indexed": false,
          "internalType": "uint256",
          "name": "x_id",
          "type": "uint256"
        },
        {
          "indexed": false,
          "internalType": "uint256",
          "name": "y_id",
          "type": "uint256"
        }
      ],
      "name": "OnPlug",
      "type": "event"
    },
    {
      "anonymous": false,
      "inputs": [
        {
          "indexed": false,
          "internalType": "uint256",
          "name": "Id",
          "type": "uint256"
        }
      ],
      "name": "OnProductAdded",
      "type": "event"
    },
    {
      "anonymous": false,
      "inputs": [
        {
          "indexed": false,
          "internalType": "uint256",
          "name": "Id",
          "type": "uint256"
        }
      ],
      "name": "OnProductDeleted",
      "type": "event"
    },
    {
      "anonymous": false,
      "inputs": [
        {
          "indexed": false,
          "internalType": "address",
          "name": "account",
          "type": "address"
        }
      ],
      "name": "OnRegister",
      "type": "event"
    },
    {
      "anonymous": false,
      "inputs": [
        {
          "indexed": true,
          "internalType": "address",
          "name": "previousOwner",
          "type": "address"
        },
        {
          "indexed": true,
          "internalType": "address",
          "name": "newOwner",
          "type": "address"
        }
      ],
      "name": "OwnershipTransferred",
      "type": "event"
    },
    {
      "anonymous": false,
      "inputs": [
        {
          "indexed": true,
          "internalType": "address",
          "name": "_from",
          "type": "address"
        },
        {
          "indexed": true,
          "internalType": "address",
          "name": "_to",
          "type": "address"
        },
        {
          "indexed": false,
          "internalType": "uint256",
          "name": "_value",
          "type": "uint256"
        }
      ],
      "name": "Transfer",
      "type": "event"
    },
    {
      "anonymous": false,
      "inputs": [
        {
          "indexed": false,
          "internalType": "uint256",
          "name": "s",
          "type": "uint256"
        }
      ],
      "name": "debugStage",
      "type": "event"
    },
    {
      "constant": false,
      "inputs": [
        {
          "internalType": "uint256",
          "name": "x_id",
          "type": "uint256"
        },
        {
          "internalType": "uint256",
          "name": "y_id",
          "type": "uint256"
        }
      ],
      "name": "PlugPollen",
      "outputs": [],
      "payable": false,
      "stateMutability": "nonpayable",
      "type": "function"
    },
    {
      "constant": false,
      "inputs": [
        {
          "internalType": "uint256",
          "name": "x_id",
          "type": "uint256"
        },
        {
          "internalType": "uint256",
          "name": "y_id",
          "type": "uint256"
        }
      ],
      "name": "PlugSeed",
      "outputs": [],
      "payable": false,
      "stateMutability": "nonpayable",
      "type": "function"
    },
    {
      "constant": false,
      "inputs": [
        {
          "internalType": "address",
          "name": "new_player",
          "type": "address"
        }
      ],
      "name": "Register",
      "outputs": [],
      "payable": false,
      "stateMutability": "nonpayable",
      "type": "function"
    },
    {
      "constant": false,
      "inputs": [
        {
          "internalType": "uint256",
          "name": "x_id",
          "type": "uint256"
        },
        {
          "internalType": "uint256",
          "name": "y_id",
          "type": "uint256"
        },
        {
          "internalType": "uint256",
          "name": "_Id",
          "type": "uint256"
        }
      ],
      "name": "UsePollenItem",
      "outputs": [],
      "payable": false,
      "stateMutability": "nonpayable",
      "type": "function"
    },
    {
      "constant": false,
      "inputs": [
        {
          "internalType": "uint256",
          "name": "x_id",
          "type": "uint256"
        },
        {
          "internalType": "uint256",
          "name": "y_id",
          "type": "uint256"
        },
        {
          "internalType": "uint256",
          "name": "_Id",
          "type": "uint256"
        }
      ],
      "name": "UseSeedItem",
      "outputs": [],
      "payable": false,
      "stateMutability": "nonpayable",
      "type": "function"
    },
    {
      "constant": true,
      "inputs": [
        {
          "internalType": "address",
          "name": "owner",
          "type": "address"
        },
        {
          "internalType": "address",
          "name": "spender",
          "type": "address"
        }
      ],
      "name": "allowance",
      "outputs": [
        {
          "internalType": "uint256",
          "name": "",
          "type": "uint256"
        }
      ],
      "payable": false,
      "stateMutability": "view",
      "type": "function"
    },
    {
      "constant": false,
      "inputs": [
        {
          "internalType": "address",
          "name": "spender",
          "type": "address"
        },
        {
          "internalType": "uint256",
          "name": "amount",
          "type": "uint256"
        }
      ],
      "name": "approve",
      "outputs": [
        {
          "internalType": "bool",
          "name": "",
          "type": "bool"
        }
      ],
      "payable": false,
      "stateMutability": "nonpayable",
      "type": "function"
    },
    {
      "constant": true,
      "inputs": [
        {
          "internalType": "address",
          "name": "account",
          "type": "address"
        }
      ],
      "name": "balanceOf",
      "outputs": [
        {
          "internalType": "uint256",
          "name": "",
          "type": "uint256"
        }
      ],
      "payable": false,
      "stateMutability": "view",
      "type": "function"
    },
    {
      "constant": true,
      "inputs": [
        {
          "internalType": "uint256",
          "name": "x_id",
          "type": "uint256"
        },
        {
          "internalType": "uint256",
          "name": "y_id",
          "type": "uint256"
        }
      ],
      "name": "getColor",
      "outputs": [
        {
          "internalType": "uint256",
          "name": "",
          "type": "uint256"
        }
      ],
      "payable": false,
      "stateMutability": "view",
      "type": "function"
    },
    {
      "constant": true,
      "inputs": [
        {
          "internalType": "uint256",
          "name": "_Id",
          "type": "uint256"
        }
      ],
      "name": "getItem",
      "outputs": [
        {
          "internalType": "string",
          "name": "",
          "type": "string"
        },
        {
          "internalType": "uint256",
          "name": "",
          "type": "uint256"
        }
      ],
      "payable": false,
      "stateMutability": "view",
      "type": "function"
    },
    {
      "constant": true,
      "inputs": [],
      "name": "getItemList",
      "outputs": [
        {
          "internalType": "uint256[]",
          "name": "",
          "type": "uint256[]"
        },
        {
          "internalType": "uint256[]",
          "name": "",
          "type": "uint256[]"
        }
      ],
      "payable": false,
      "stateMutability": "view",
      "type": "function"
    },
    {
      "constant": true,
      "inputs": [
        {
          "internalType": "uint256",
          "name": "_Id",
          "type": "uint256"
        }
      ],
      "name": "getItemNum",
      "outputs": [
        {
          "internalType": "uint256",
          "name": "",
          "type": "uint256"
        }
      ],
      "payable": false,
      "stateMutability": "view",
      "type": "function"
    },
    {
      "constant": true,
      "inputs": [
        {
          "internalType": "uint256",
          "name": "x_id",
          "type": "uint256"
        },
        {
          "internalType": "uint256",
          "name": "y_id",
          "type": "uint256"
        }
      ],
      "name": "getProduceGene",
      "outputs": [
        {
          "internalType": "uint256",
          "name": "",
          "type": "uint256"
        }
      ],
      "payable": false,
      "stateMutability": "view",
      "type": "function"
    },
    {
      "constant": true,
      "inputs": [
        {
          "internalType": "uint256",
          "name": "x_id",
          "type": "uint256"
        },
        {
          "internalType": "uint256",
          "name": "y_id",
          "type": "uint256"
        }
      ],
      "name": "getSeedRound",
      "outputs": [
        {
          "internalType": "bool",
          "name": "",
          "type": "bool"
        }
      ],
      "payable": false,
      "stateMutability": "view",
      "type": "function"
    },
    {
      "constant": true,
      "inputs": [
        {
          "internalType": "uint256",
          "name": "x_id",
          "type": "uint256"
        },
        {
          "internalType": "uint256",
          "name": "y_id",
          "type": "uint256"
        }
      ],
      "name": "getSeedYellow",
      "outputs": [
        {
          "internalType": "bool",
          "name": "",
          "type": "bool"
        }
      ],
      "payable": false,
      "stateMutability": "view",
      "type": "function"
    },
    {
      "constant": true,
      "inputs": [
        {
          "internalType": "uint256",
          "name": "x_id",
          "type": "uint256"
        },
        {
          "internalType": "uint256",
          "name": "y_id",
          "type": "uint256"
        }
      ],
      "name": "getSproutHeight",
      "outputs": [
        {
          "internalType": "uint256",
          "name": "",
          "type": "uint256"
        }
      ],
      "payable": false,
      "stateMutability": "view",
      "type": "function"
    },
    {
      "constant": true,
      "inputs": [
        {
          "internalType": "uint256",
          "name": "x_id",
          "type": "uint256"
        },
        {
          "internalType": "uint256",
          "name": "y_id",
          "type": "uint256"
        }
      ],
      "name": "getSproutWidth",
      "outputs": [
        {
          "internalType": "uint256",
          "name": "",
          "type": "uint256"
        }
      ],
      "payable": false,
      "stateMutability": "view",
      "type": "function"
    },
    {
      "constant": true,
      "inputs": [
        {
          "internalType": "uint256",
          "name": "_Id",
          "type": "uint256"
        }
      ],
      "name": "isItemValid",
      "outputs": [
        {
          "internalType": "bool",
          "name": "isValid",
          "type": "bool"
        }
      ],
      "payable": false,
      "stateMutability": "view",
      "type": "function"
    },
    {
      "constant": true,
      "inputs": [],
      "name": "isOwner",
      "outputs": [
        {
          "internalType": "bool",
          "name": "",
          "type": "bool"
        }
      ],
      "payable": false,
      "stateMutability": "view",
      "type": "function"
    },
    {
      "constant": true,
      "inputs": [],
      "name": "owner",
      "outputs": [
        {
          "internalType": "address",
          "name": "",
          "type": "address"
        }
      ],
      "payable": false,
      "stateMutability": "view",
      "type": "function"
    },
    {
      "constant": false,
      "inputs": [
        {
          "internalType": "uint256",
          "name": "x_id",
          "type": "uint256"
        },
        {
          "internalType": "uint256",
          "name": "y_id",
          "type": "uint256"
        }
      ],
      "name": "plugSprout",
      "outputs": [],
      "payable": false,
      "stateMutability": "nonpayable",
      "type": "function"
    },
    {
      "constant": false,
      "inputs": [
        {
          "internalType": "uint256",
          "name": "x_id",
          "type": "uint256"
        },
        {
          "internalType": "uint256",
          "name": "y_id",
          "type": "uint256"
        }
      ],
      "name": "randomAddSprout",
      "outputs": [],
      "payable": false,
      "stateMutability": "nonpayable",
      "type": "function"
    },
    {
      "constant": false,
      "inputs": [],
      "name": "renounceOwnership",
      "outputs": [],
      "payable": false,
      "stateMutability": "nonpayable",
      "type": "function"
    },
    {
      "constant": true,
      "inputs": [],
      "name": "totalSupply",
      "outputs": [
        {
          "internalType": "uint256",
          "name": "",
          "type": "uint256"
        }
      ],
      "payable": false,
      "stateMutability": "view",
      "type": "function"
    },
    {
      "constant": false,
      "inputs": [
        {
          "internalType": "address",
          "name": "_to",
          "type": "address"
        },
        {
          "internalType": "uint256",
          "name": "value",
          "type": "uint256"
        }
      ],
      "name": "transfer",
      "outputs": [
        {
          "internalType": "bool",
          "name": "",
          "type": "bool"
        }
      ],
      "payable": false,
      "stateMutability": "nonpayable",
      "type": "function"
    },
    {
      "constant": false,
      "inputs": [
        {
          "internalType": "address",
          "name": "sender",
          "type": "address"
        },
        {
          "internalType": "address",
          "name": "recipient",
          "type": "address"
        },
        {
          "internalType": "uint256",
          "name": "amount",
          "type": "uint256"
        }
      ],
      "name": "transferFrom",
      "outputs": [
        {
          "internalType": "bool",
          "name": "",
          "type": "bool"
        }
      ],
      "payable": false,
      "stateMutability": "nonpayable",
      "type": "function"
    },
    {
      "constant": false,
      "inputs": [
        {
          "internalType": "address",
          "name": "newOwner",
          "type": "address"
        }
      ],
      "name": "transferOwnership",
      "outputs": [],
      "payable": false,
      "stateMutability": "nonpayable",
      "type": "function"
    },
    {
      "constant": true,
      "inputs": [
        {
          "internalType": "uint256",
          "name": "_Id",
          "type": "uint256"
        }
      ],
      "name": "isProductValid",
      "outputs": [
        {
          "internalType": "bool",
          "name": "isValid",
          "type": "bool"
        }
      ],
      "payable": false,
      "stateMutability": "view",
      "type": "function"
    },
    {
      "constant": true,
      "inputs": [
        {
          "internalType": "uint256",
          "name": "_Id",
          "type": "uint256"
        }
      ],
      "name": "getProduct",
      "outputs": [
        {
          "internalType": "string",
          "name": "",
          "type": "string"
        },
        {
          "internalType": "string",
          "name": "",
          "type": "string"
        },
        {
          "internalType": "uint256",
          "name": "",
          "type": "uint256"
        },
        {
          "internalType": "address",
          "name": "",
          "type": "address"
        }
      ],
      "payable": false,
      "stateMutability": "view",
      "type": "function"
    },
    {
      "constant": true,
      "inputs": [],
      "name": "getProductList",
      "outputs": [
        {
          "internalType": "uint256[]",
          "name": "",
          "type": "uint256[]"
        },
        {
          "internalType": "uint256[]",
          "name": "",
          "type": "uint256[]"
        }
      ],
      "payable": false,
      "stateMutability": "view",
      "type": "function"
    },
    {
      "constant": false,
      "inputs": [
        {
          "internalType": "uint256",
          "name": "id",
          "type": "uint256"
        },
        {
          "internalType": "uint256",
          "name": "num",
          "type": "uint256"
        },
        {
          "internalType": "uint256",
          "name": "value",
          "type": "uint256"
        },
        {
          "internalType": "string",
          "name": "description",
          "type": "string"
        }
      ],
      "name": "sellItem",
      "outputs": [],
      "payable": false,
      "stateMutability": "nonpayable",
      "type": "function"
    },
    {
      "constant": false,
      "inputs": [
        {
          "internalType": "uint256",
          "name": "_Id",
          "type": "uint256"
        },
        {
          "internalType": "uint256",
          "name": "num",
          "type": "uint256"
        }
      ],
      "name": "buyProduct",
      "outputs": [],
      "payable": false,
      "stateMutability": "nonpayable",
      "type": "function"
    },
    {
      "constant": false,
      "inputs": [
        {
          "internalType": "uint256",
          "name": "_Id",
          "type": "uint256"
        }
      ],
      "name": "deleteProduct",
      "outputs": [],
      "payable": false,
      "stateMutability": "nonpayable",
      "type": "function"
    }
  ],
  "bytecode": "0x608060405261a8c06001556000600555336000806101000a81548173ffffffffffffffffffffffffffffffffffffffff021916908373ffffffffffffffffffffffffffffffffffffffff1602179055506000809054906101000a900473ffffffffffffffffffffffffffffffffffffffff1673ffffffffffffffffffffffffffffffffffffffff16600073ffffffffffffffffffffffffffffffffffffffff167f8be0079c531659141344cd1fd0a4f28419497f9722a3daafe3b4186f6b6457e060405160405180910390a36168a1806100da6000396000f3fe608060405234801561001057600080fd5b50600436106101fb5760003560e01c8063816bfee61161011a578063a9059cbb116100ad578063dd62ed3e1161007c578063dd62ed3e14610c4e578063ed90c7b714610cc6578063eded5d9e14610cf4578063eeda149c14610d40578063f2fde38b14610d84576101fb565b8063a9059cbb14610a21578063aa7bcc5814610a87578063b9db15b414610abf578063dbe9383214610c0c576101fb565b80638fc640c1116100e95780638fc640c11461091557806393fccbb6146109575780639598a5b1146109a3578063990e7469146109e9576101fb565b8063816bfee6146108255780638da5cb5b146108715780638e96b4f7146108bb5780638f32d59b146108f3576101fb565b8063435184471161019257806370a082311161016157806370a0823114610735578063715018a61461078d57806374020033146107975780637729166d146107e3576101fb565b8063435184471461062557806353b628661461067557806356507c7a146106ad57806359ca683c146106e5576101fb565b80632639769f116101ce5780632639769f146103b15780632afef696146103f75780633129e773146104d057806334d2c0ad1461057e576101fb565b8063063b2e5b14610200578063095ea7b3146102a757806318160ddd1461030d57806323b872dd1461032b575b600080fd5b610208610dc8565b604051808060200180602001838103835285818151815260200191508051906020019060200280838360005b8381101561024f578082015181840152602081019050610234565b50505050905001838103825284818151815260200191508051906020019060200280838360005b83811015610291578082015181840152602081019050610276565b5050505090500194505050505060405180910390f35b6102f3600480360360408110156102bd57600080fd5b81019080803573ffffffffffffffffffffffffffffffffffffffff16906020019092919080359060200190929190505050610f17565b604051808215151515815260200191505060405180910390f35b610315610f2e565b6040518082815260200191505060405180910390f35b6103976004803603606081101561034157600080fd5b81019080803573ffffffffffffffffffffffffffffffffffffffff169060200190929190803573ffffffffffffffffffffffffffffffffffffffff16906020019092919080359060200190929190505050610f38565b604051808215151515815260200191505060405180910390f35b6103dd600480360360208110156103c757600080fd5b8101908080359060200190929190505050610fe9565b604051808215151515815260200191505060405180910390f35b6104ce6004803603608081101561040d57600080fd5b810190808035906020019092919080359060200190929190803590602001909291908035906020019064010000000081111561044857600080fd5b82018360208201111561045a57600080fd5b8035906020019184600183028401116401000000008311171561047c57600080fd5b91908080601f016020809104026020016040519081016040528093929190818152602001838380828437600081840152601f19601f82011690508083019250505050505050919291929050505061105b565b005b6104fc600480360360208110156104e657600080fd5b810190808035906020019092919050505061149a565b6040518080602001838152602001828103825284818151815260200191508051906020019080838360005b83811015610542578082015181840152602081019050610527565b50505050905090810190601f16801561056f5780820380516001836020036101000a031916815260200191505b50935050505060405180910390f35b610586611677565b604051808060200180602001838103835285818151815260200191508051906020019060200280838360005b838110156105cd5780820151818401526020810190506105b2565b50505050905001838103825284818151815260200191508051906020019060200280838360005b8381101561060f5780820151818401526020810190506105f4565b5050505090500194505050505060405180910390f35b61065b6004803603604081101561063b57600080fd5b8101908080359060200190929190803590602001909291905050506117c6565b604051808215151515815260200191505060405180910390f35b6106ab6004803603604081101561068b57600080fd5b810190808035906020019092919080359060200190929190505050611925565b005b6106e3600480360360408110156106c357600080fd5b810190808035906020019092919080359060200190929190505050611c64565b005b61071b600480360360408110156106fb57600080fd5b810190808035906020019092919080359060200190929190505050612270565b604051808215151515815260200191505060405180910390f35b6107776004803603602081101561074b57600080fd5b81019080803573ffffffffffffffffffffffffffffffffffffffff1690602001909291905050506123cf565b6040518082815260200191505060405180910390f35b610795612418565b005b6107cd600480360360408110156107ad57600080fd5b8101908080359060200190929190803590602001909291905050506124e8565b6040518082815260200191505060405180910390f35b610823600480360360608110156107f957600080fd5b8101908080359060200190929190803590602001909291908035906020019092919050505061270e565b005b61085b6004803603604081101561083b57600080fd5b810190808035906020019092919080359060200190929190505050612cc7565b6040518082815260200191505060405180910390f35b610879612e19565b604051808273ffffffffffffffffffffffffffffffffffffffff1673ffffffffffffffffffffffffffffffffffffffff16815260200191505060405180910390f35b6108f1600480360360408110156108d157600080fd5b810190808035906020019092919080359060200190929190505050612e42565b005b6108fb6137c9565b604051808215151515815260200191505060405180910390f35b6109556004803603606081101561092b57600080fd5b81019080803590602001909291908035906020019092919080359060200190929190505050613820565b005b61098d6004803603604081101561096d57600080fd5b8101908080359060200190929190803590602001909291905050506140cf565b6040518082815260200191505060405180910390f35b6109cf600480360360208110156109b957600080fd5b81019080803590602001909291905050506142f5565b604051808215151515815260200191505060405180910390f35b610a1f600480360360408110156109ff57600080fd5b81019080803590602001909291908035906020019092919050505061432a565b005b610a6d60048036036040811015610a3757600080fd5b81019080803573ffffffffffffffffffffffffffffffffffffffff1690602001909291908035906020019092919050505061463b565b604051808215151515815260200191505060405180910390f35b610abd60048036036040811015610a9d57600080fd5b810190808035906020019092919080359060200190929190505050614652565b005b610aeb60048036036020811015610ad557600080fd5b81019080803590602001909291905050506147ff565b6040518080602001806020018581526020018473ffffffffffffffffffffffffffffffffffffffff1673ffffffffffffffffffffffffffffffffffffffff168152602001838103835287818151815260200191508051906020019080838360005b83811015610b67578082015181840152602081019050610b4c565b50505050905090810190601f168015610b945780820380516001836020036101000a031916815260200191505b50838103825286818151815260200191508051906020019080838360005b83811015610bcd578082015181840152602081019050610bb2565b50505050905090810190601f168015610bfa5780820380516001836020036101000a031916815260200191505b50965050505050505060405180910390f35b610c3860048036036020811015610c2257600080fd5b8101908080359060200190929190505050614a63565b6040518082815260200191505060405180910390f35b610cb060048036036040811015610c6457600080fd5b81019080803573ffffffffffffffffffffffffffffffffffffffff169060200190929190803573ffffffffffffffffffffffffffffffffffffffff169060200190929190505050614b45565b6040518082815260200191505060405180910390f35b610cf260048036036020811015610cdc57600080fd5b8101908080359060200190929190505050614bcc565b005b610d2a60048036036040811015610d0a57600080fd5b810190808035906020019092919080359060200190929190505050614d32565b6040518082815260200191505060405180910390f35b610d8260048036036020811015610d5657600080fd5b81019080803573ffffffffffffffffffffffffffffffffffffffff169060200190929190505050614e84565b005b610dc660048036036020811015610d9a57600080fd5b81019080803573ffffffffffffffffffffffffffffffffffffffff169060200190929190505050614f41565b005b60608060006060610dd7614f5e565b8093508192505050606082604051908082528060200260200182016040528015610e105781602001602082028038833980820191505090505b509050606083604051908082528060200260200182016040528015610e445781602001602082028038833980820191505090505b50905060008090505b84811015610f08576000848281518110610e6357fe5b6020026020010151905080848381518110610e7a57fe5b602002602001018181525050600660003373ffffffffffffffffffffffffffffffffffffffff1673ffffffffffffffffffffffffffffffffffffffff1681526020019081526020016000208181548110610ed057fe5b906000526020600020906004020160010154838381518110610eee57fe5b602002602001018181525050508080600101915050610e4d565b50818195509550505050509091565b6000610f24338484615077565b6001905092915050565b6000600554905090565b6000610f4584848461526e565b610fde8433610fd985600460008a73ffffffffffffffffffffffffffffffffffffffff1673ffffffffffffffffffffffffffffffffffffffff16815260200190815260200160002060003373ffffffffffffffffffffffffffffffffffffffff1673ffffffffffffffffffffffffffffffffffffffff1681526020019081526020016000205461552990919063ffffffff16565b615077565b600190509392505050565b6000600660003373ffffffffffffffffffffffffffffffffffffffff1673ffffffffffffffffffffffffffffffffffffffff168152602001908152602001600020828154811061103557fe5b906000526020600020906004020160030160009054906101000a900460ff169050919050565b8361106581610fe9565b6110d7576040517f08c379a000000000000000000000000000000000000000000000000000000000815260040180806020018281038252601a8152602001807f6974656d206d7573742062652076616c696420746f2063616c6c00000000000081525060200191505060405180910390fd5b6110e085614a63565b841115611155576040517f08c379a000000000000000000000000000000000000000000000000000000000815260040180806020018281038252600f8152602001807f6e6f7420656e6f756768206974656d000000000000000000000000000000000081525060200191505060405180910390fd5b61115d616609565b6040518060e00160405280600660003373ffffffffffffffffffffffffffffffffffffffff1673ffffffffffffffffffffffffffffffffffffffff16815260200190815260200160002088815481106111b257fe5b90600052602060002090600402016000018054600181600116156101000203166002900480601f0160208091040260200160405190810160405280929190818152602001828054600181600116156101000203166002900480156112575780601f1061122c57610100808354040283529160200191611257565b820191906000526020600020905b81548152906001019060200180831161123a57829003601f168201915b50505050508152602001848152602001858152602001868152602001600660003373ffffffffffffffffffffffffffffffffffffffff1673ffffffffffffffffffffffffffffffffffffffff16815260200190815260200160002088815481106112bd57fe5b906000526020600020906004020160020180548060200260200160405190810160405280929190818152602001828054801561131857602002820191906000526020600020905b815481526020019060010190808311611304575b505050505081526020013373ffffffffffffffffffffffffffffffffffffffff1681526020016001151581525090506000600160078390806001815401808255809150509060018203906000526020600020906006020160009091929091909150600082015181600001908051906020019061139592919061665e565b5060208201518160010190805190602001906113b292919061665e565b50604082015181600201556060820151816003015560808201518160040190805190602001906113e39291906166de565b5060a08201518160050160006101000a81548173ffffffffffffffffffffffffffffffffffffffff021916908373ffffffffffffffffffffffffffffffffffffffff16021790555060c08201518160050160146101000a81548160ff021916908315150217905550505003905061145a8787615540565b7f7dadbee5e0e322e9ed526f94e12bd3eb8c51d672cdcac86af19b3af7af05fd55816040518082815260200191505060405180910390a150505050505050565b60606000826114a881610fe9565b61151a576040517f08c379a000000000000000000000000000000000000000000000000000000000815260040180806020018281038252601a8152602001807f6974656d206d7573742062652076616c696420746f2063616c6c00000000000081525060200191505060405180910390fd5b600660003373ffffffffffffffffffffffffffffffffffffffff1673ffffffffffffffffffffffffffffffffffffffff168152602001908152602001600020848154811061156457fe5b9060005260206000209060040201600001600660003373ffffffffffffffffffffffffffffffffffffffff1673ffffffffffffffffffffffffffffffffffffffff16815260200190815260200160002085815481106115bf57fe5b906000526020600020906004020160010154818054600181600116156101000203166002900480601f0160208091040260200160405190810160405280929190818152602001828054600181600116156101000203166002900480156116665780601f1061163b57610100808354040283529160200191611666565b820191906000526020600020905b81548152906001019060200180831161164957829003601f168201915b505050505091509250925050915091565b606080600060606116866156c7565b80935081925050506060826040519080825280602002602001820160405280156116bf5781602001602082028038833980820191505090505b5090506060836040519080825280602002602001820160405280156116f35781602001602082028038833980820191505090505b50905060008090505b848110156117b757600084828151811061171257fe5b602002602001015190508084838151811061172957fe5b602002602001018181525050600660003373ffffffffffffffffffffffffffffffffffffffff1673ffffffffffffffffffffffffffffffffffffffff168152602001908152602001600020818154811061177f57fe5b90600052602060002090600402016001015483838151811061179d57fe5b6020026020010181815250505080806001019150506116fc565b50818195509550505050509091565b60008282600260003373ffffffffffffffffffffffffffffffffffffffff1673ffffffffffffffffffffffffffffffffffffffff168152602001908152602001600020826005811061181457fe5b603c0201816005811061182357fe5b600c020160050160009054906101000a900460ff166118aa576040517f08c379a000000000000000000000000000000000000000000000000000000000815260040180806020018281038252601d8152602001807f6c6f636174696f6e20646f6573206e6f742068617665207370726f757400000081525060200191505060405180910390fd5b600260003373ffffffffffffffffffffffffffffffffffffffff1673ffffffffffffffffffffffffffffffffffffffff16815260200190815260200160002085600581106118f457fe5b603c0201846005811061190357fe5b600c020160060160050160019054906101000a900460ff169250505092915050565b8161192f816142f5565b6119a1576040517f08c379a000000000000000000000000000000000000000000000000000000000815260040180806020018281038252601a8152602001807f6974656d206d7573742062652076616c696420746f2063616c6c00000000000081525060200191505060405180910390fd5b600783815481106119ae57fe5b906000526020600020906006020160030154821115611a35576040517f08c379a000000000000000000000000000000000000000000000000000000000815260040180806020018281038252601d8152602001807f6e6f7420656e6f756768206974656d206f6e20746865206d61726b657400000081525060200191505060405180910390fd5b6000611a6860078581548110611a4757fe5b9060005260206000209060060201600201548461576690919063ffffffff16565b905080611a74336123cf565b1015611ae8576040517f08c379a00000000000000000000000000000000000000000000000000000000081526004018080602001828103825260108152602001807f6e6f7420656e6f756768206d6f6e65790000000000000000000000000000000081525060200191505060405180910390fd5b611b3060078581548110611af857fe5b906000526020600020906006020160050160009054906101000a900473ffffffffffffffffffffffffffffffffffffffff168261463b565b50611c5e60078581548110611b4157fe5b90600052602060002090600602016000018054600181600116156101000203166002900480601f016020809104026020016040519081016040528092919081815260200182805460018160011615610100020316600290048015611be65780601f10611bbb57610100808354040283529160200191611be6565b820191906000526020600020905b815481529060010190602001808311611bc957829003601f168201915b50505050508460078781548110611bf957fe5b9060005260206000209060060201600401805480602002602001604051908101604052809291908181526020018280548015611c5457602002820191906000526020600020905b815481526020019060010190808311611c40575b505050505061579d565b50505050565b8181600260003373ffffffffffffffffffffffffffffffffffffffff1673ffffffffffffffffffffffffffffffffffffffff1681526020019081526020016000208260058110611cb057fe5b603c02018160058110611cbf57fe5b600c020160050160009054906101000a900460ff16611d46576040517f08c379a000000000000000000000000000000000000000000000000000000000815260040180806020018281038252601d8152602001807f6c6f636174696f6e20646f6573206e6f742068617665207370726f757400000081525060200191505060405180910390fd5b83836000611d66611d5784846158e1565b4261552990919063ffffffff16565b90506000611d74848461594c565b9050808211611deb576040517f08c379a00000000000000000000000000000000000000000000000000000000081526004018080602001828103825260188152602001807f746f6f206561726c7920746f206861766520706f6c6c656e000000000000000081525060200191505060405180910390fd5b611e126064611e0460668461576690919063ffffffff16565b6159ba90919063ffffffff16565b8210611e86576040517f08c379a00000000000000000000000000000000000000000000000000000000081526004018080602001828103825260178152602001807f746f6f206c61746520746f206861766520706f6c6c656e00000000000000000081525060200191505060405180910390fd5b600260003373ffffffffffffffffffffffffffffffffffffffff1673ffffffffffffffffffffffffffffffffffffffff1681526020019081526020016000208460058110611ed057fe5b603c02018360058110611edf57fe5b600c020160050160029054906101000a900460ff1615611f67576040517f08c379a000000000000000000000000000000000000000000000000000000000815260040180806020018281038252601f8152602001807f74686520706f6c6c656e2061726520616c726561647920706c75676765642e0081525060200191505060405180910390fd5b6001600260003373ffffffffffffffffffffffffffffffffffffffff1673ffffffffffffffffffffffffffffffffffffffff1681526020019081526020016000208960058110611fb357fe5b603c02018860058110611fc257fe5b600c020160050160026101000a81548160ff0219169083151502179055506120516040518060400160405280600681526020017f706f6c6c656e0000000000000000000000000000000000000000000000000000815250600a600060405190808252806020026020018201604052801561204b5781602001602082028038833980820191505090505b5061579d565b60006001600660003373ffffffffffffffffffffffffffffffffffffffff1673ffffffffffffffffffffffffffffffffffffffff16815260200190815260200160002080549050039050600660003373ffffffffffffffffffffffffffffffffffffffff1673ffffffffffffffffffffffffffffffffffffffff16815260200190815260200160002081815481106120e557fe5b9060005260206000209060040201600201600260003373ffffffffffffffffffffffffffffffffffffffff1673ffffffffffffffffffffffffffffffffffffffff1681526020019081526020016000208a6005811061214057fe5b603c0201896005811061214f57fe5b600c0201600001549080600181540180825580915050906001820390600052602060002001600090919290919091505550600660003373ffffffffffffffffffffffffffffffffffffffff1673ffffffffffffffffffffffffffffffffffffffff16815260200190815260200160002081815481106121ca57fe5b9060005260206000209060040201600201600260003373ffffffffffffffffffffffffffffffffffffffff1673ffffffffffffffffffffffffffffffffffffffff1681526020019081526020016000208a6005811061222557fe5b603c0201896005811061223457fe5b600c0201600101549080600181540180825580915050906001820390600052602060002001600090919290919091505550505050505050505050565b60008282600260003373ffffffffffffffffffffffffffffffffffffffff1673ffffffffffffffffffffffffffffffffffffffff16815260200190815260200160002082600581106122be57fe5b603c020181600581106122cd57fe5b600c020160050160009054906101000a900460ff16612354576040517f08c379a000000000000000000000000000000000000000000000000000000000815260040180806020018281038252601d8152602001807f6c6f636174696f6e20646f6573206e6f742068617665207370726f757400000081525060200191505060405180910390fd5b600260003373ffffffffffffffffffffffffffffffffffffffff1673ffffffffffffffffffffffffffffffffffffffff168152602001908152602001600020856005811061239e57fe5b603c020184600581106123ad57fe5b600c020160060160050160019054906101000a900460ff169250505092915050565b6000600360008373ffffffffffffffffffffffffffffffffffffffff1673ffffffffffffffffffffffffffffffffffffffff168152602001908152602001600020549050919050565b6124206137c9565b61242957600080fd5b600073ffffffffffffffffffffffffffffffffffffffff166000809054906101000a900473ffffffffffffffffffffffffffffffffffffffff1673ffffffffffffffffffffffffffffffffffffffff167f8be0079c531659141344cd1fd0a4f28419497f9722a3daafe3b4186f6b6457e060405160405180910390a360008060006101000a81548173ffffffffffffffffffffffffffffffffffffffff021916908373ffffffffffffffffffffffffffffffffffffffff160217905550565b60008282600260003373ffffffffffffffffffffffffffffffffffffffff1673ffffffffffffffffffffffffffffffffffffffff168152602001908152602001600020826005811061253657fe5b603c0201816005811061254557fe5b600c020160050160009054906101000a900460ff166125cc576040517f08c379a000000000000000000000000000000000000000000000000000000000815260040180806020018281038252601d8152602001807f6c6f636174696f6e20646f6573206e6f742068617665207370726f757400000081525060200191505060405180910390fd5b60006125ea6125db87876158e1565b4261552990919063ffffffff16565b905060006125f8878761594c565b9050600061260688886159d3565b90508183111561268d576126246014836159ba90919063ffffffff16565b612637838561552990919063ffffffff16565b1015612681576126776078612669603c61265b607886615a4190919063ffffffff16565b61576690919063ffffffff16565b6159ba90919063ffffffff16565b9550505050612706565b60009550505050612706565b60008314156126a25760009550505050612706565b612700836126f260786126e4866126d6603c6126c860788a615a4190919063ffffffff16565b61576690919063ffffffff16565b61576690919063ffffffff16565b6159ba90919063ffffffff16565b6159ba90919063ffffffff16565b95505050505b505092915050565b8061271881610fe9565b61278a576040517f08c379a000000000000000000000000000000000000000000000000000000000815260040180806020018281038252601a8152602001807f6974656d206d7573742062652076616c696420746f2063616c6c00000000000081525060200191505060405180910390fd5b816000600660003373ffffffffffffffffffffffffffffffffffffffff1673ffffffffffffffffffffffffffffffffffffffff16815260200190815260200160002082815481106127d757fe5b906000526020600020906004020160000160405160200180828054600181600116156101000203166002900480156128465780601f10612824576101008083540402835291820191612846565b820191906000526020600020905b815481529060010190602001808311612832575b50509150506040516020818303038152906040528051906020012060001c9050600060405160200180807f736565640000000000000000000000000000000000000000000000000000000081525060040190506040516020818303038152906040528051906020012060001c9050808214612929576040517f08c379a000000000000000000000000000000000000000000000000000000000815260040180806020018281038252600f8152602001807f6e6f7420612073656564206974656d000000000000000000000000000000000081525060200191505060405180910390fd5b60006129b060016129a26002600660003373ffffffffffffffffffffffffffffffffffffffff1673ffffffffffffffffffffffffffffffffffffffff1681526020019081526020016000208a8154811061297f57fe5b9060005260206000209060040201600201805490506159ba90919063ffffffff16565b61552990919063ffffffff16565b905060008142604051602001808281526020019150506040516020818303038152906040528051906020012060001c816129e657fe5b0690506000424460405160200180838152602001828152602001925050506040516020818303038152906040528051906020012060001c90506000444260405160200180838152602001828152602001925050506040516020818303038152906040528051906020012060001c90506000600660003373ffffffffffffffffffffffffffffffffffffffff1673ffffffffffffffffffffffffffffffffffffffff1681526020019081526020016000208a81548110612aa157fe5b9060005260206000209060040201600201600081548110612abe57fe5b906000526020600020015483169050612b54600660003373ffffffffffffffffffffffffffffffffffffffff1673ffffffffffffffffffffffffffffffffffffffff1681526020019081526020016000208b81548110612b1a57fe5b9060005260206000209060040201600201600181548110612b3757fe5b906000526020600020015484191682615a4190919063ffffffff16565b90506000600660003373ffffffffffffffffffffffffffffffffffffffff1673ffffffffffffffffffffffffffffffffffffffff1681526020019081526020016000208b81548110612ba257fe5b9060005260206000209060040201600201612bda6002612bcc60028961576690919063ffffffff16565b615a4190919063ffffffff16565b81548110612be457fe5b906000526020600020015483169050612c9f600660003373ffffffffffffffffffffffffffffffffffffffff1673ffffffffffffffffffffffffffffffffffffffff1681526020019081526020016000208c81548110612c4057fe5b9060005260206000209060040201600201612c786003612c6a60028a61576690919063ffffffff16565b615a4190919063ffffffff16565b81548110612c8257fe5b906000526020600020015484191682615a4190919063ffffffff16565b9050612cad8d8d8484615a5d565b612cb88b6001615540565b50505050505050505050505050565b60008282600260003373ffffffffffffffffffffffffffffffffffffffff1673ffffffffffffffffffffffffffffffffffffffff1681526020019081526020016000208260058110612d1557fe5b603c02018160058110612d2457fe5b600c020160050160009054906101000a900460ff16612dab576040517f08c379a000000000000000000000000000000000000000000000000000000000815260040180806020018281038252601d8152602001807f6c6f636174696f6e20646f6573206e6f742068617665207370726f757400000081525060200191505060405180910390fd5b600260003373ffffffffffffffffffffffffffffffffffffffff1673ffffffffffffffffffffffffffffffffffffffff1681526020019081526020016000208560058110612df557fe5b603c02018460058110612e0457fe5b600c0201600601600401549250505092915050565b60008060009054906101000a900473ffffffffffffffffffffffffffffffffffffffff16905090565b8181600260003373ffffffffffffffffffffffffffffffffffffffff1673ffffffffffffffffffffffffffffffffffffffff1681526020019081526020016000208260058110612e8e57fe5b603c02018160058110612e9d57fe5b600c020160050160009054906101000a900460ff16612f24576040517f08c379a000000000000000000000000000000000000000000000000000000000815260040180806020018281038252601d8152602001807f6c6f636174696f6e20646f6573206e6f742068617665207370726f757400000081525060200191505060405180910390fd5b83836000612f44612f3584846158e1565b4261552990919063ffffffff16565b90506000612f52848461594c565b9050612f7b6064612f6d60668461576690919063ffffffff16565b6159ba90919063ffffffff16565b8211612fef576040517f08c379a00000000000000000000000000000000000000000000000000000000081526004018080602001828103825260178152602001807f746f6f206561726c7920746f206861766520736565647300000000000000000081525060200191505060405180910390fd5b600260003373ffffffffffffffffffffffffffffffffffffffff1673ffffffffffffffffffffffffffffffffffffffff168152602001908152602001600020846005811061303957fe5b603c0201836005811061304857fe5b600c020160050160019054906101000a900460ff16156130d0576040517f08c379a000000000000000000000000000000000000000000000000000000000815260040180806020018281038252601e8152602001807f7468652073656564732061726520616c726561647920706c75676765642e000081525060200191505060405180910390fd5b6001600260003373ffffffffffffffffffffffffffffffffffffffff1673ffffffffffffffffffffffffffffffffffffffff168152602001908152602001600020896005811061311c57fe5b603c0201886005811061312b57fe5b600c020160050160016101000a81548160ff021916908315150217905550600061317b600a61316d600261315f8d8d612cc7565b6159ba90919063ffffffff16565b615a4190919063ffffffff16565b90506131ed6040518060400160405280600481526020017f73656564000000000000000000000000000000000000000000000000000000008152508260006040519080825280602002602001820160405280156131e75781602001602082028038833980820191505090505b5061579d565b60006001600660003373ffffffffffffffffffffffffffffffffffffffff1673ffffffffffffffffffffffffffffffffffffffff16815260200190815260200160002080549050039050600660003373ffffffffffffffffffffffffffffffffffffffff1673ffffffffffffffffffffffffffffffffffffffff168152602001908152602001600020818154811061328157fe5b9060005260206000209060040201600201600260003373ffffffffffffffffffffffffffffffffffffffff1673ffffffffffffffffffffffffffffffffffffffff1681526020019081526020016000208b600581106132dc57fe5b603c02018a600581106132eb57fe5b600c0201600001549080600181540180825580915050906001820390600052602060002001600090919290919091505550600660003373ffffffffffffffffffffffffffffffffffffffff1673ffffffffffffffffffffffffffffffffffffffff168152602001908152602001600020818154811061336657fe5b9060005260206000209060040201600201600260003373ffffffffffffffffffffffffffffffffffffffff1673ffffffffffffffffffffffffffffffffffffffff1681526020019081526020016000208b600581106133c157fe5b603c02018a600581106133d057fe5b600c0201600101549080600181540180825580915050906001820390600052602060002001600090919290919091505550600260003373ffffffffffffffffffffffffffffffffffffffff1673ffffffffffffffffffffffffffffffffffffffff1681526020019081526020016000208a6005811061344b57fe5b603c0201896005811061345a57fe5b600c020160050160029054906101000a900460ff1661363e57600660003373ffffffffffffffffffffffffffffffffffffffff1673ffffffffffffffffffffffffffffffffffffffff16815260200190815260200160002081815481106134bd57fe5b9060005260206000209060040201600201600260003373ffffffffffffffffffffffffffffffffffffffff1673ffffffffffffffffffffffffffffffffffffffff1681526020019081526020016000208b6005811061351857fe5b603c02018a6005811061352757fe5b600c0201600001549080600181540180825580915050906001820390600052602060002001600090919290919091505550600660003373ffffffffffffffffffffffffffffffffffffffff1673ffffffffffffffffffffffffffffffffffffffff16815260200190815260200160002081815481106135a257fe5b9060005260206000209060040201600201600260003373ffffffffffffffffffffffffffffffffffffffff1673ffffffffffffffffffffffffffffffffffffffff1681526020019081526020016000208b600581106135fd57fe5b603c02018a6005811061360c57fe5b600c02016001015490806001815401808255809150509060018203906000526020600020016000909192909190915055505b6000600260003373ffffffffffffffffffffffffffffffffffffffff1673ffffffffffffffffffffffffffffffffffffffff1681526020019081526020016000208b6005811061368a57fe5b603c02018a6005811061369957fe5b600c020160040180549050905060008090505b818110156137bb57600660003373ffffffffffffffffffffffffffffffffffffffff1673ffffffffffffffffffffffffffffffffffffffff16815260200190815260200160002083815481106136fe57fe5b9060005260206000209060040201600201600260003373ffffffffffffffffffffffffffffffffffffffff1673ffffffffffffffffffffffffffffffffffffffff1681526020019081526020016000208d6005811061375957fe5b603c02018c6005811061376857fe5b600c0201600401828154811061377a57fe5b9060005260206000200154908060018154018082558091505090600182039060005260206000200160009091929091909150555080806001019150506136ac565b505050505050505050505050565b60008060009054906101000a900473ffffffffffffffffffffffffffffffffffffffff1673ffffffffffffffffffffffffffffffffffffffff163373ffffffffffffffffffffffffffffffffffffffff1614905090565b8061382a81610fe9565b61389c576040517f08c379a000000000000000000000000000000000000000000000000000000000815260040180806020018281038252601a8152602001807f6974656d206d7573742062652076616c696420746f2063616c6c00000000000081525060200191505060405180910390fd5b816000600660003373ffffffffffffffffffffffffffffffffffffffff1673ffffffffffffffffffffffffffffffffffffffff16815260200190815260200160002082815481106138e957fe5b906000526020600020906004020160000160405160200180828054600181600116156101000203166002900480156139585780601f10613936576101008083540402835291820191613958565b820191906000526020600020905b815481529060010190602001808311613944575b50509150506040516020818303038152906040528051906020012060001c9050600060405160200180807f706f6c6c656e000000000000000000000000000000000000000000000000000081525060060190506040516020818303038152906040528051906020012060001c9050808214613a3b576040517f08c379a00000000000000000000000000000000000000000000000000000000081526004018080602001828103825260118152602001807f6e6f74206120706f6c6c656e206974656d00000000000000000000000000000081525060200191505060405180910390fd5b8686600260003373ffffffffffffffffffffffffffffffffffffffff1673ffffffffffffffffffffffffffffffffffffffff1681526020019081526020016000208260058110613a8757fe5b603c02018160058110613a9657fe5b600c020160050160009054906101000a900460ff16613b1d576040517f08c379a000000000000000000000000000000000000000000000000000000000815260040180806020018281038252601d8152602001807f6c6f636174696f6e20646f6573206e6f742068617665207370726f757400000081525060200191505060405180910390fd5b88886000613b3d613b2e84846158e1565b4261552990919063ffffffff16565b90506000613b4b848461594c565b9050613b746064613b6660658461576690919063ffffffff16565b6159ba90919063ffffffff16565b8211613be8576040517f08c379a00000000000000000000000000000000000000000000000000000000081526004018080602001828103825260188152602001807f746f6f206561726c7920746f206861766520706f6c6c656e000000000000000081525060200191505060405180910390fd5b613c0f6064613c0160668461576690919063ffffffff16565b6159ba90919063ffffffff16565b8210613c83576040517f08c379a00000000000000000000000000000000000000000000000000000000081526004018080602001828103825260178152602001807f746f6f206c61746520746f206861766520706f6c6c656e00000000000000000081525060200191505060405180910390fd5b600260003373ffffffffffffffffffffffffffffffffffffffff1673ffffffffffffffffffffffffffffffffffffffff1681526020019081526020016000208d60058110613ccd57fe5b603c02018c60058110613cdc57fe5b600c020160050160029054906101000a900460ff16613eca57600260003373ffffffffffffffffffffffffffffffffffffffff1673ffffffffffffffffffffffffffffffffffffffff1681526020019081526020016000208d60058110613d3f57fe5b603c02018c60058110613d4e57fe5b600c0201600401600260003373ffffffffffffffffffffffffffffffffffffffff1673ffffffffffffffffffffffffffffffffffffffff1681526020019081526020016000208e60058110613d9f57fe5b603c02018d60058110613dae57fe5b600c0201600001549080600181540180825580915050906001820390600052602060002001600090919290919091505550600260003373ffffffffffffffffffffffffffffffffffffffff1673ffffffffffffffffffffffffffffffffffffffff1681526020019081526020016000208d60058110613e2957fe5b603c02018c60058110613e3857fe5b600c0201600401600260003373ffffffffffffffffffffffffffffffffffffffff1673ffffffffffffffffffffffffffffffffffffffff1681526020019081526020016000208e60058110613e8957fe5b603c02018d60058110613e9857fe5b600c02016001015490806001815401808255809150509060018203906000526020600020016000909192909190915055505b600260003373ffffffffffffffffffffffffffffffffffffffff1673ffffffffffffffffffffffffffffffffffffffff1681526020019081526020016000208d60058110613f1457fe5b603c02018c60058110613f2357fe5b600c0201600401600660003373ffffffffffffffffffffffffffffffffffffffff1673ffffffffffffffffffffffffffffffffffffffff1681526020019081526020016000208c81548110613f7457fe5b9060005260206000209060040201600201600081548110613f9157fe5b90600052602060002001549080600181540180825580915050906001820390600052602060002001600090919290919091505550600260003373ffffffffffffffffffffffffffffffffffffffff1673ffffffffffffffffffffffffffffffffffffffff1681526020019081526020016000208d6005811061400f57fe5b603c02018c6005811061401e57fe5b600c0201600401600660003373ffffffffffffffffffffffffffffffffffffffff1673ffffffffffffffffffffffffffffffffffffffff1681526020019081526020016000208c8154811061406f57fe5b906000526020600020906004020160020160018154811061408c57fe5b9060005260206000200154908060018154018082558091505090600182039060005260206000200160009091929091909150555050505050505050505050505050565b60008282600260003373ffffffffffffffffffffffffffffffffffffffff1673ffffffffffffffffffffffffffffffffffffffff168152602001908152602001600020826005811061411d57fe5b603c0201816005811061412c57fe5b600c020160050160009054906101000a900460ff166141b3576040517f08c379a000000000000000000000000000000000000000000000000000000000815260040180806020018281038252601d8152602001807f6c6f636174696f6e20646f6573206e6f742068617665207370726f757400000081525060200191505060405180910390fd5b60006141d16141c287876158e1565b4261552990919063ffffffff16565b905060006141df878761594c565b905060006141ed888861616f565b9050818311156142745761420b6014836159ba90919063ffffffff16565b61421e838561552990919063ffffffff16565b10156142685761425e600f6142506005614242600f86615a4190919063ffffffff16565b61576690919063ffffffff16565b6159ba90919063ffffffff16565b95505050506142ed565b600095505050506142ed565b600083141561428957600095505050506142ed565b6142e7836142d9600f6142cb866142bd60056142af600f8a615a4190919063ffffffff16565b61576690919063ffffffff16565b61576690919063ffffffff16565b6159ba90919063ffffffff16565b6159ba90919063ffffffff16565b95505050505b505092915050565b60006007828154811061430457fe5b906000526020600020906006020160050160149054906101000a900460ff169050919050565b8181600260003373ffffffffffffffffffffffffffffffffffffffff1673ffffffffffffffffffffffffffffffffffffffff168152602001908152602001600020826005811061437657fe5b603c0201816005811061438557fe5b600c020160050160009054906101000a900460ff1661440c576040517f08c379a000000000000000000000000000000000000000000000000000000000815260040180806020018281038252601d8152602001807f6c6f636174696f6e20646f6573206e6f742068617665207370726f757400000081525060200191505060405180910390fd5b600061442a61441b86866158e1565b4261552990919063ffffffff16565b90506000614438868661594c565b9050600061444687876140cf565b9050600061445488886124e8565b90506000614466858584868d8d6161dd565b905060011515600260003373ffffffffffffffffffffffffffffffffffffffff1673ffffffffffffffffffffffffffffffffffffffff1681526020019081526020016000208a600581106144b657fe5b603c020189600581106144c557fe5b600c020160050160009054906101000a900460ff16151514156145f1576000600260003373ffffffffffffffffffffffffffffffffffffffff1673ffffffffffffffffffffffffffffffffffffffff1681526020019081526020016000208a6005811061452e57fe5b603c0201896005811061453d57fe5b600c020160050160006101000a81548160ff0219169083151502179055506145ad81600360003373ffffffffffffffffffffffffffffffffffffffff1673ffffffffffffffffffffffffffffffffffffffff16815260200190815260200160002054615a4190919063ffffffff16565b600360003373ffffffffffffffffffffffffffffffffffffffff1673ffffffffffffffffffffffffffffffffffffffff168152602001908152602001600020819055505b7fef9514e76636c86a9084470f65495ff78258053cada18c62136f204ff2f0daa28989604051808381526020018281526020019250505060405180910390a1505050505050505050565b600061464833848461526e565b6001905092915050565b61012c600360003373ffffffffffffffffffffffffffffffffffffffff1673ffffffffffffffffffffffffffffffffffffffff16815260200190815260200160002054116146eb576040517f08c379a00000000000000000000000000000000000000000000000000000000081526004018080602001828103825260238152602001806168016023913960400191505060405180910390fd5b6000424460405160200180838152602001828152602001925050506040516020818303038152906040528051906020012060001c90506000444260405160200180838152602001828152602001925050506040516020818303038152906040528051906020012060001c905061476384848484615a5d565b6147b66064600360003373ffffffffffffffffffffffffffffffffffffffff1673ffffffffffffffffffffffffffffffffffffffff1681526020019081526020016000205461552990919063ffffffff16565b600360003373ffffffffffffffffffffffffffffffffffffffff1673ffffffffffffffffffffffffffffffffffffffff1681526020019081526020016000208190555050505050565b6060806000808461480f816142f5565b614881576040517f08c379a000000000000000000000000000000000000000000000000000000000815260040180806020018281038252601a8152602001807f6974656d206d7573742062652076616c696420746f2063616c6c00000000000081525060200191505060405180910390fd5b6007868154811061488e57fe5b9060005260206000209060060201600001600787815481106148ac57fe5b9060005260206000209060060201600101600788815481106148ca57fe5b906000526020600020906006020160030154600789815481106148e957fe5b906000526020600020906006020160050160009054906101000a900473ffffffffffffffffffffffffffffffffffffffff16838054600181600116156101000203166002900480601f0160208091040260200160405190810160405280929190818152602001828054600181600116156101000203166002900480156149b05780601f10614985576101008083540402835291602001916149b0565b820191906000526020600020905b81548152906001019060200180831161499357829003601f168201915b50505050509350828054600181600116156101000203166002900480601f016020809104026020016040519081016040528092919081815260200182805460018160011615610100020316600290048015614a4c5780601f10614a2157610100808354040283529160200191614a4c565b820191906000526020600020905b815481529060010190602001808311614a2f57829003601f168201915b505050505092509450945094509450509193509193565b600081614a6f81610fe9565b614ae1576040517f08c379a000000000000000000000000000000000000000000000000000000000815260040180806020018281038252601a8152602001807f6974656d206d7573742062652076616c696420746f2063616c6c00000000000081525060200191505060405180910390fd5b600660003373ffffffffffffffffffffffffffffffffffffffff1673ffffffffffffffffffffffffffffffffffffffff1681526020019081526020016000208381548110614b2b57fe5b906000526020600020906004020160010154915050919050565b6000600460008473ffffffffffffffffffffffffffffffffffffffff1673ffffffffffffffffffffffffffffffffffffffff16815260200190815260200160002060008373ffffffffffffffffffffffffffffffffffffffff1673ffffffffffffffffffffffffffffffffffffffff16815260200190815260200160002054905092915050565b80614bd6816142f5565b614c48576040517f08c379a000000000000000000000000000000000000000000000000000000000815260040180806020018281038252601a8152602001807f6974656d206d7573742062652076616c696420746f2063616c6c00000000000081525060200191505060405180910390fd5b8160078181548110614c5657fe5b906000526020600020906006020160050160009054906101000a900473ffffffffffffffffffffffffffffffffffffffff1673ffffffffffffffffffffffffffffffffffffffff163373ffffffffffffffffffffffffffffffffffffffff1614614cbf57600080fd5b600060078481548110614cce57fe5b906000526020600020906006020160050160146101000a81548160ff0219169083151502179055507fe97809151b91dbdf8b3542625c29474349cd61613de1e5359da86689a5de4a54836040518082815260200191505060405180910390a1505050565b60008282600260003373ffffffffffffffffffffffffffffffffffffffff1673ffffffffffffffffffffffffffffffffffffffff1681526020019081526020016000208260058110614d8057fe5b603c02018160058110614d8f57fe5b600c020160050160009054906101000a900460ff16614e16576040517f08c379a000000000000000000000000000000000000000000000000000000000815260040180806020018281038252601d8152602001807f6c6f636174696f6e20646f6573206e6f742068617665207370726f757400000081525060200191505060405180910390fd5b600260003373ffffffffffffffffffffffffffffffffffffffff1673ffffffffffffffffffffffffffffffffffffffff1681526020019081526020016000208560058110614e6057fe5b603c02018460058110614e6f57fe5b600c0201600601600201549250505092915050565b614e8c6137c9565b614e9557600080fd5b6103e8600360008373ffffffffffffffffffffffffffffffffffffffff1673ffffffffffffffffffffffffffffffffffffffff168152602001908152602001600020819055507f827446e550fe5bfd75ca44888adfeafa8fe5b5ea548deabda1ed8f5c08f2cf2281604051808273ffffffffffffffffffffffffffffffffffffffff1673ffffffffffffffffffffffffffffffffffffffff16815260200191505060405180910390a150565b614f496137c9565b614f5257600080fd5b614f5b816163d5565b50565b606060006060600660003373ffffffffffffffffffffffffffffffffffffffff1673ffffffffffffffffffffffffffffffffffffffff16815260200190815260200160002080549050604051908082528060200260200182016040528015614fd55781602001602082028038833980820191505090505b509050600080905060008090505b600660003373ffffffffffffffffffffffffffffffffffffffff1673ffffffffffffffffffffffffffffffffffffffff1681526020019081526020016000208054905081101561506a5761503681610fe9565b1561505d578083838151811061504857fe5b60200260200101818152505081806001019250505b8080600101915050614fe3565b5081819350935050509091565b600073ffffffffffffffffffffffffffffffffffffffff168373ffffffffffffffffffffffffffffffffffffffff1614156150fd576040517f08c379a00000000000000000000000000000000000000000000000000000000081526004018080602001828103825260248152602001806168496024913960400191505060405180910390fd5b600073ffffffffffffffffffffffffffffffffffffffff168273ffffffffffffffffffffffffffffffffffffffff161415615183576040517f08c379a00000000000000000000000000000000000000000000000000000000081526004018080602001828103825260228152602001806167df6022913960400191505060405180910390fd5b80600460008573ffffffffffffffffffffffffffffffffffffffff1673ffffffffffffffffffffffffffffffffffffffff16815260200190815260200160002060008473ffffffffffffffffffffffffffffffffffffffff1673ffffffffffffffffffffffffffffffffffffffff168152602001908152602001600020819055508173ffffffffffffffffffffffffffffffffffffffff168373ffffffffffffffffffffffffffffffffffffffff167f8c5be1e5ebec7d5bd14f71427d1e84f3dd0314c0f7b2291e5b200ac8c7c3b925836040518082815260200191505060405180910390a3505050565b600073ffffffffffffffffffffffffffffffffffffffff168373ffffffffffffffffffffffffffffffffffffffff1614156152f4576040517f08c379a00000000000000000000000000000000000000000000000000000000081526004018080602001828103825260258152602001806168246025913960400191505060405180910390fd5b600073ffffffffffffffffffffffffffffffffffffffff168273ffffffffffffffffffffffffffffffffffffffff16141561537a576040517f08c379a00000000000000000000000000000000000000000000000000000000081526004018080602001828103825260238152602001806167bc6023913960400191505060405180910390fd5b6153cc81600360008673ffffffffffffffffffffffffffffffffffffffff1673ffffffffffffffffffffffffffffffffffffffff1681526020019081526020016000205461552990919063ffffffff16565b600360008573ffffffffffffffffffffffffffffffffffffffff1673ffffffffffffffffffffffffffffffffffffffff1681526020019081526020016000208190555061546181600360008573ffffffffffffffffffffffffffffffffffffffff1673ffffffffffffffffffffffffffffffffffffffff16815260200190815260200160002054615a4190919063ffffffff16565b600360008473ffffffffffffffffffffffffffffffffffffffff1673ffffffffffffffffffffffffffffffffffffffff168152602001908152602001600020819055506154b981600554615a4190919063ffffffff16565b6005819055508173ffffffffffffffffffffffffffffffffffffffff168373ffffffffffffffffffffffffffffffffffffffff167fddf252ad1be2c89b69c2b068fc378daa952ba7f163c4a11628f55a4df523b3ef836040518082815260200191505060405180910390a3505050565b60008282111561553557fe5b818303905092915050565b8161554a81610fe9565b6155bc576040517f08c379a000000000000000000000000000000000000000000000000000000000815260040180806020018281038252601a8152602001807f6974656d206d7573742062652076616c696420746f2063616c6c00000000000081525060200191505060405180910390fd5b6155c583614a63565b82111561563a576040517f08c379a000000000000000000000000000000000000000000000000000000000815260040180806020018281038252600f8152602001807f6e6f7420656e6f756768206974656d000000000000000000000000000000000081525060200191505060405180910390fd5b61564383614a63565b82141561565857615653836164cd565b6156c2565b81600660003373ffffffffffffffffffffffffffffffffffffffff1673ffffffffffffffffffffffffffffffffffffffff16815260200190815260200160002084815481106156a357fe5b9060005260206000209060040201600101600082825403925050819055505b505050565b6060600060606007805490506040519080825280602002602001820160405280156157015781602001602082028038833980820191505090505b509050600080905060008090505b60078054905081101561575957615725816142f5565b1561574c578083838151811061573757fe5b60200260200101818152505081806001019250505b808060010191505061570f565b5081819350935050509091565b6000808314156157795760009050615797565b600082840290508284828161578a57fe5b041461579257fe5b809150505b92915050565b6157a561672b565b604051806080016040528085815260200184815260200183815260200160011515815250905060006001600660003373ffffffffffffffffffffffffffffffffffffffff1673ffffffffffffffffffffffffffffffffffffffff1681526020019081526020016000208390806001815401808255809150509060018203906000526020600020906004020160009091929091909150600082015181600001908051906020019061585692919061665e565b5060208201518160010155604082015181600201908051906020019061587d9291906166de565b5060608201518160030160006101000a81548160ff02191690831515021790555050500390507f9d988e03406844e4f4570c5b73a65bcd79fdd6f1bf564656ae99e23328ef2c0e816040518082815260200191505060405180910390a15050505050565b6000600260003373ffffffffffffffffffffffffffffffffffffffff1673ffffffffffffffffffffffffffffffffffffffff168152602001908152602001600020836005811061592d57fe5b603c0201826005811061593c57fe5b600c020160020154905092915050565b6000600260003373ffffffffffffffffffffffffffffffffffffffff1673ffffffffffffffffffffffffffffffffffffffff168152602001908152602001600020836005811061599857fe5b603c020182600581106159a757fe5b600c020160060160030154905092915050565b6000808284816159c657fe5b0490508091505092915050565b6000600260003373ffffffffffffffffffffffffffffffffffffffff1673ffffffffffffffffffffffffffffffffffffffff1681526020019081526020016000208360058110615a1f57fe5b603c02018260058110615a2e57fe5b600c020160060160000154905092915050565b600080828401905083811015615a5357fe5b8091505092915050565b60001515600260003373ffffffffffffffffffffffffffffffffffffffff1673ffffffffffffffffffffffffffffffffffffffff1681526020019081526020016000208560058110615aab57fe5b603c02018460058110615aba57fe5b600c020160050160009054906101000a900460ff16151514615adb57600080fd5b615b40600260003373ffffffffffffffffffffffffffffffffffffffff1673ffffffffffffffffffffffffffffffffffffffff1681526020019081526020016000208560058110615b2857fe5b603c02018460058110615b3757fe5b600c02016165f8565b615b4957600080fd5b615b51616755565b6040518060e001604052806000815260200160008152602001600081526020016000815260200160008152602001600015158152602001600015158152509050600083905060008390506000600160028381615ba957fe5b0660028581615bb457fe5b0617148460a0019015159081151581525050600183901c9250600182901c9150600160028381615be057fe5b0660028581615beb57fe5b0617148460c00190151590811515815250506000600290505b6029811015615c9257600160028581615c1957fe5b061415615c4257615c3860018660400151615a4190919063ffffffff16565b8560400181815250505b600160028481615c4e57fe5b061415615c7757615c6d60018660400151615a4190919063ffffffff16565b8560400181815250505b600184901c9350600183901c92508080600101915050615c04565b506000602990505b6065811015615d2857600160028581615caf57fe5b061415615cd857615cce60018660200151615a4190919063ffffffff16565b8560200181815250505b600160028481615ce457fe5b061415615d0d57615d0360018660200151615a4190919063ffffffff16565b8560200181815250505b600184901c9350600183901c92508080600101915050615c9a565b506000606590505b60a1811015615dbe57600160028581615d4557fe5b061415615d6e57615d6460018660000151615a4190919063ffffffff16565b8560000181815250505b600160028481615d7a57fe5b061415615da357615d9960018660000151615a4190919063ffffffff16565b8560000181815250505b600184901c9350600183901c92508080600101915050615d30565b50600060a190505b60c9811015615e5457600160028581615ddb57fe5b061415615e0457615dfa60018660800151615a4190919063ffffffff16565b8560800181815250505b600160028481615e1057fe5b061415615e3957615e2f60018660800151615a4190919063ffffffff16565b8560800181815250505b600184901c9350600183901c92508080600101915050615dc6565b50600060c990505b610100811015615ed557600160028581615e7257fe5b061415615e9057615e8d600183615a4190919063ffffffff16565b91505b600160028481615e9c57fe5b061415615eba57615eb7600183615a4190919063ffffffff16565b91505b600184901c9350600183901c92508080600101915050615e5c565b506201518060be615f036002615ef560038661576690919063ffffffff16565b6159ba90919063ffffffff16565b61017c0381615f0e57fe5b0402846060018181525050604051806101200160405280878152602001868152602001428152602001600081526020016000604051908082528060200260200182016040528015615f6e5781602001602082028038833980820191505090505b50815260200160011515815260200160001515815260200160001515815260200185815250600260003373ffffffffffffffffffffffffffffffffffffffff1673ffffffffffffffffffffffffffffffffffffffff1681526020019081526020016000208960058110615fdd57fe5b603c02018860058110615fec57fe5b600c02016000820151816000015560208201518160010155604082015181600201556060820151816003015560808201518160040190805190602001906160349291906166de565b5060a08201518160050160006101000a81548160ff02191690831515021790555060c08201518160050160016101000a81548160ff02191690831515021790555060e08201518160050160026101000a81548160ff02191690831515021790555061010082015181600601600082015181600001556020820151816001015560408201518160020155606082015181600301556080820151816004015560a08201518160050160006101000a81548160ff02191690831515021790555060c08201518160050160016101000a81548160ff02191690831515021790555050509050507f29673a2c4180cee02675c1aeac3253f75b8a067246770a77b079d48c92248cbd888888886040518085815260200184815260200183815260200182815260200194505050505060405180910390a15050505050505050565b6000600260003373ffffffffffffffffffffffffffffffffffffffff1673ffffffffffffffffffffffffffffffffffffffff16815260200190815260200160002083600581106161bb57fe5b603c020182600581106161ca57fe5b600c020160060160010154905092915050565b60008282600260003373ffffffffffffffffffffffffffffffffffffffff1673ffffffffffffffffffffffffffffffffffffffff168152602001908152602001600020826005811061622b57fe5b603c0201816005811061623a57fe5b600c020160050160009054906101000a900460ff166162c1576040517f08c379a000000000000000000000000000000000000000000000000000000000815260040180806020018281038252601d8152602001807f6c6f636174696f6e20646f6573206e6f742068617665207370726f757400000081525060200191505060405180910390fd5b60006162cd8686614d32565b905060006162db8787612270565b905060006162e988886117c6565b90508a8c11156163385761630760148c6159ba90919063ffffffff16565b61631a8c8e61552990919063ffffffff16565b101561632c57600595505050506163c9565b600095505050506163c9565b60008c141561634d57600295505050506163c9565b6000616387616366600a866159ba90919063ffffffff16565b6163798c8e61576690919063ffffffff16565b61552990919063ffffffff16565b905081156163a5576163a3600582615a4190919063ffffffff16565b505b82156163c1576163bf600582615a4190919063ffffffff16565b505b809650505050505b50509695505050505050565b600073ffffffffffffffffffffffffffffffffffffffff168173ffffffffffffffffffffffffffffffffffffffff16141561640f57600080fd5b8073ffffffffffffffffffffffffffffffffffffffff166000809054906101000a900473ffffffffffffffffffffffffffffffffffffffff1673ffffffffffffffffffffffffffffffffffffffff167f8be0079c531659141344cd1fd0a4f28419497f9722a3daafe3b4186f6b6457e060405160405180910390a3806000806101000a81548173ffffffffffffffffffffffffffffffffffffffff021916908373ffffffffffffffffffffffffffffffffffffffff16021790555050565b806164d781610fe9565b616549576040517f08c379a000000000000000000000000000000000000000000000000000000000815260040180806020018281038252601a8152602001807f6974656d206d7573742062652076616c696420746f2063616c6c00000000000081525060200191505060405180910390fd5b6000600660003373ffffffffffffffffffffffffffffffffffffffff1673ffffffffffffffffffffffffffffffffffffffff168152602001908152602001600020838154811061659557fe5b906000526020600020906004020160030160006101000a81548160ff0219169083151502179055507f04db484cca74d7317df830807409b645213719e2ca21de1d9b1eee1ab4c68018826040518082815260200191505060405180910390a15050565b600042826003015411159050919050565b6040518060e001604052806060815260200160608152602001600081526020016000815260200160608152602001600073ffffffffffffffffffffffffffffffffffffffff1681526020016000151581525090565b828054600181600116156101000203166002900490600052602060002090601f016020900481019282601f1061669f57805160ff19168380011785556166cd565b828001600101855582156166cd579182015b828111156166cc5782518255916020019190600101906166b1565b5b5090506166da9190616796565b5090565b82805482825590600052602060002090810192821561671a579160200282015b828111156167195782518255916020019190600101906166fe565b5b5090506167279190616796565b5090565b60405180608001604052806060815260200160008152602001606081526020016000151581525090565b6040518060e0016040528060008152602001600081526020016000815260200160008152602001600081526020016000151581526020016000151581525090565b6167b891905b808211156167b457600081600090555060010161679c565b5090565b9056fe45524332303a207472616e7366657220746f20746865207a65726f206164647265737345524332303a20617070726f766520746f20746865207a65726f20616464726573736e6f7420656e6f756768206d6f6e657920746f206275792072616e646f6d207365656445524332303a207472616e736665722066726f6d20746865207a65726f206164647265737345524332303a20617070726f76652066726f6d20746865207a65726f2061646472657373a265627a7a7231582042279b7ce822a1d60c3821d7a83b8cbbcb3abb85c57973610202504599b703cb64736f6c63430005100032",
  "source": "pragma solidity ^0.5.0;\n\n\nimport \"./OwnerItem.sol\";\n\ncontract SproutMarket is OwnerItem {\n\n    /*A Place where player can sell their seeds or other products.\n    */\n\n    event OnProductAdded(uint Id);\n    event OnProductDeleted(uint Id);\n    \n    struct Product {\n        string producType;\n        string description;\n        uint value_each;\n        uint num;\n        uint[] content;\n        address owner;\n        bool isValid;\n    }\n    Product[] _MarketList;\n\n\n    // Modifier\n    modifier isValidProduct(uint _Id) {\n        require(isProductValid(_Id), \"item must be valid to call\");\n        _;\n    }\n    modifier isProductOwner(uint _Id) {\n        require(msg.sender == _MarketList[_Id].owner);\n        _;\n    }\n    \n\n\n    // Public function\n    // basic functions for show market list\n    function isProductValid(uint _Id) public view returns(bool isValid) {\n        return _MarketList[_Id].isValid;\n    }\n    function getProduct(uint _Id) public view isValidProduct(_Id) returns(string memory, string memory, uint, address) {\n        return (_MarketList[_Id].producType, _MarketList[_Id].description, _MarketList[_Id].num, _MarketList[_Id].owner);\n    }\n\n    function getProductList() public view returns(uint[] memory, uint[] memory) {\n        uint len;\n        uint[] memory valids;\n\n        (valids, len) = _getValidProducts();\n\n        uint[] memory ids = new uint[](len);\n        uint[] memory nums = new uint[](len);\n        for (uint i = 0; i < len; i++) {\n            uint id = valids[i];\n            ids[i] = id;\n            nums[i] = _ItemList[msg.sender][id].num;\n        }\n        return (ids, nums);\n    }\n\n    // a portion of the items in the player's item list put onto the market place waited for sail.\n    // Be aware of that the items put on market list won't be able to put back to your own item list again.\n    function sellItem(uint id, uint num, uint value, string memory description) public isValidItem(id){\n        require(num <= getItemNum(id), \"not enough item\");\n        Product memory product = Product(_ItemList[msg.sender][id].itemName, description, value, num, \n            _ItemList[msg.sender][id].content, msg.sender, true);\n        uint Id = _MarketList.push(product) - 1;\n        spendItem(id, num);\n\n        emit OnProductAdded(Id);\n    }\n    function buyProduct(uint _Id, uint num) public isValidProduct(_Id){\n        require(num <= _MarketList[_Id].num, \"not enough item on the market\");\n        uint total = num.mul(_MarketList[_Id].value_each);\n        require(balanceOf(msg.sender) >= total, \"not enough money\");\n        transfer(_MarketList[_Id].owner, total);\n        addItem(_MarketList[_Id].producType, num, _MarketList[_Id].content);\n    }\n    // used when you no longer want to sell an item\n    function deleteProduct(uint _Id) public isValidProduct(_Id) isProductOwner( _Id){\n        _MarketList[_Id].isValid = false;\n        emit OnProductDeleted(_Id);\n    }\n\n\n\n    // private function\n    function _getValidProducts() private view returns(uint[] memory valids, uint length) {\n        uint[] memory validProducts = new uint[](_MarketList.length);\n        uint count = 0;\n        for (uint i = 0; i < _MarketList.length; i++) {\n            if (isProductValid(i)) {\n                validProducts[count] = i;\n                count++;\n            }\n        }\n        return(validProducts, count);\n    }\n}",
  "sourcePath": "/Users/catherine/Documents/GitHub/finals/nmlab_final/contracts/SproutMarket.sol",
  "compiler": {
    "name": "solc",
    "version": "0.5.16+commit.9c3226ce.Emscripten.clang"
  },
  "schemaVersion": "3.1.0",
  "updatedAt": "2020-06-16T09:17:47.836Z",
  "devdoc": {
    "methods": {
      "isOwner()": {
        "return": "true if `msg.sender` is the owner of the contract."
      },
      "owner()": {
        "return": "the address of the owner."
      },
      "renounceOwnership()": {
        "details": "Allows the current owner to relinquish control of the contract."
      },
      "transferOwnership(address)": {
        "details": "Allows the current owner to transfer control of the contract to a newOwner.",
        "params": {
          "newOwner": "The address to transfer ownership to."
        }
      }
    }
  },
  "userdoc": {
    "methods": {
      "renounceOwnership()": {
        "notice": "Renouncing to ownership will leave the contract without an owner. It will not be possible to call the functions with the `onlyOwner` modifier anymore."
      }
    }
  }
}