{
  "contractName": "SproutMarket",
  "abi": [
    {
      "constant": true,
      "inputs": [],
      "name": "getItemList",
      "outputs": [
        {
          "name": "",
          "type": "uint256[]"
        },
        {
          "name": "",
          "type": "uint256[]"
        }
      ],
      "payable": false,
      "stateMutability": "view",
      "type": "function"
    },
    {
      "constant": false,
      "inputs": [
        {
          "name": "spender",
          "type": "address"
        },
        {
          "name": "amount",
          "type": "uint256"
        }
      ],
      "name": "approve",
      "outputs": [
        {
          "name": "",
          "type": "bool"
        }
      ],
      "payable": false,
      "stateMutability": "nonpayable",
      "type": "function"
    },
    {
      "constant": true,
      "inputs": [],
      "name": "totalSupply",
      "outputs": [
        {
          "name": "",
          "type": "uint256"
        }
      ],
      "payable": false,
      "stateMutability": "view",
      "type": "function"
    },
    {
      "constant": false,
      "inputs": [
        {
          "name": "sender",
          "type": "address"
        },
        {
          "name": "recipient",
          "type": "address"
        },
        {
          "name": "amount",
          "type": "uint256"
        }
      ],
      "name": "transferFrom",
      "outputs": [
        {
          "name": "",
          "type": "bool"
        }
      ],
      "payable": false,
      "stateMutability": "nonpayable",
      "type": "function"
    },
    {
      "constant": true,
      "inputs": [
        {
          "name": "_Id",
          "type": "uint256"
        }
      ],
      "name": "isItemValid",
      "outputs": [
        {
          "name": "isValid",
          "type": "bool"
        }
      ],
      "payable": false,
      "stateMutability": "view",
      "type": "function"
    },
    {
      "constant": true,
      "inputs": [
        {
          "name": "_Id",
          "type": "uint256"
        }
      ],
      "name": "getItem",
      "outputs": [
        {
          "name": "",
          "type": "string"
        },
        {
          "name": "",
          "type": "uint256"
        }
      ],
      "payable": false,
      "stateMutability": "view",
      "type": "function"
    },
    {
      "constant": true,
      "inputs": [
        {
          "name": "x_id",
          "type": "uint256"
        },
        {
          "name": "y_id",
          "type": "uint256"
        }
      ],
      "name": "getSeedRound",
      "outputs": [
        {
          "name": "",
          "type": "bool"
        }
      ],
      "payable": false,
      "stateMutability": "view",
      "type": "function"
    },
    {
      "constant": false,
      "inputs": [
        {
          "name": "x_id",
          "type": "uint256"
        },
        {
          "name": "y_id",
          "type": "uint256"
        }
      ],
      "name": "PlugPollen",
      "outputs": [],
      "payable": false,
      "stateMutability": "nonpayable",
      "type": "function"
    },
    {
      "constant": true,
      "inputs": [
        {
          "name": "x_id",
          "type": "uint256"
        },
        {
          "name": "y_id",
          "type": "uint256"
        }
      ],
      "name": "getSeedYellow",
      "outputs": [
        {
          "name": "",
          "type": "bool"
        }
      ],
      "payable": false,
      "stateMutability": "view",
      "type": "function"
    },
    {
      "constant": true,
      "inputs": [
        {
          "name": "account",
          "type": "address"
        }
      ],
      "name": "balanceOf",
      "outputs": [
        {
          "name": "",
          "type": "uint256"
        }
      ],
      "payable": false,
      "stateMutability": "view",
      "type": "function"
    },
    {
      "constant": false,
      "inputs": [],
      "name": "renounceOwnership",
      "outputs": [],
      "payable": false,
      "stateMutability": "nonpayable",
      "type": "function"
    },
    {
      "constant": true,
      "inputs": [
        {
          "name": "x_id",
          "type": "uint256"
        },
        {
          "name": "y_id",
          "type": "uint256"
        }
      ],
      "name": "getSproutHeight",
      "outputs": [
        {
          "name": "",
          "type": "uint256"
        }
      ],
      "payable": false,
      "stateMutability": "view",
      "type": "function"
    },
    {
      "constant": false,
      "inputs": [
        {
          "name": "x_id",
          "type": "uint256"
        },
        {
          "name": "y_id",
          "type": "uint256"
        },
        {
          "name": "_Id",
          "type": "uint256"
        }
      ],
      "name": "UseSeedItem",
      "outputs": [],
      "payable": false,
      "stateMutability": "nonpayable",
      "type": "function"
    },
    {
      "constant": true,
      "inputs": [
        {
          "name": "x_id",
          "type": "uint256"
        },
        {
          "name": "y_id",
          "type": "uint256"
        }
      ],
      "name": "getProduceGene",
      "outputs": [
        {
          "name": "",
          "type": "uint256"
        }
      ],
      "payable": false,
      "stateMutability": "view",
      "type": "function"
    },
    {
      "constant": true,
      "inputs": [],
      "name": "owner",
      "outputs": [
        {
          "name": "",
          "type": "address"
        }
      ],
      "payable": false,
      "stateMutability": "view",
      "type": "function"
    },
    {
      "constant": false,
      "inputs": [
        {
          "name": "x_id",
          "type": "uint256"
        },
        {
          "name": "y_id",
          "type": "uint256"
        }
      ],
      "name": "PlugSeed",
      "outputs": [],
      "payable": false,
      "stateMutability": "nonpayable",
      "type": "function"
    },
    {
      "constant": true,
      "inputs": [],
      "name": "isOwner",
      "outputs": [
        {
          "name": "",
          "type": "bool"
        }
      ],
      "payable": false,
      "stateMutability": "view",
      "type": "function"
    },
    {
      "constant": false,
      "inputs": [
        {
          "name": "x_id",
          "type": "uint256"
        },
        {
          "name": "y_id",
          "type": "uint256"
        },
        {
          "name": "_Id",
          "type": "uint256"
        }
      ],
      "name": "UsePollenItem",
      "outputs": [],
      "payable": false,
      "stateMutability": "nonpayable",
      "type": "function"
    },
    {
      "constant": true,
      "inputs": [
        {
          "name": "x_id",
          "type": "uint256"
        },
        {
          "name": "y_id",
          "type": "uint256"
        }
      ],
      "name": "getSproutWidth",
      "outputs": [
        {
          "name": "",
          "type": "uint256"
        }
      ],
      "payable": false,
      "stateMutability": "view",
      "type": "function"
    },
    {
      "constant": false,
      "inputs": [
        {
          "name": "x_id",
          "type": "uint256"
        },
        {
          "name": "y_id",
          "type": "uint256"
        }
      ],
      "name": "plugSprout",
      "outputs": [],
      "payable": false,
      "stateMutability": "nonpayable",
      "type": "function"
    },
    {
      "constant": false,
      "inputs": [
        {
          "name": "_to",
          "type": "address"
        },
        {
          "name": "value",
          "type": "uint256"
        }
      ],
      "name": "transfer",
      "outputs": [
        {
          "name": "",
          "type": "bool"
        }
      ],
      "payable": false,
      "stateMutability": "nonpayable",
      "type": "function"
    },
    {
      "constant": false,
      "inputs": [
        {
          "name": "x_id",
          "type": "uint256"
        },
        {
          "name": "y_id",
          "type": "uint256"
        }
      ],
      "name": "randomAddSprout",
      "outputs": [],
      "payable": false,
      "stateMutability": "nonpayable",
      "type": "function"
    },
    {
      "constant": true,
      "inputs": [
        {
          "name": "_Id",
          "type": "uint256"
        }
      ],
      "name": "getItemNum",
      "outputs": [
        {
          "name": "",
          "type": "uint256"
        }
      ],
      "payable": false,
      "stateMutability": "view",
      "type": "function"
    },
    {
      "constant": true,
      "inputs": [
        {
          "name": "owner",
          "type": "address"
        },
        {
          "name": "spender",
          "type": "address"
        }
      ],
      "name": "allowance",
      "outputs": [
        {
          "name": "",
          "type": "uint256"
        }
      ],
      "payable": false,
      "stateMutability": "view",
      "type": "function"
    },
    {
      "constant": true,
      "inputs": [
        {
          "name": "x_id",
          "type": "uint256"
        },
        {
          "name": "y_id",
          "type": "uint256"
        }
      ],
      "name": "getColor",
      "outputs": [
        {
          "name": "",
          "type": "uint256"
        }
      ],
      "payable": false,
      "stateMutability": "view",
      "type": "function"
    },
    {
      "constant": false,
      "inputs": [
        {
          "name": "new_player",
          "type": "address"
        }
      ],
      "name": "Register",
      "outputs": [],
      "payable": false,
      "stateMutability": "nonpayable",
      "type": "function"
    },
    {
      "constant": false,
      "inputs": [
        {
          "name": "newOwner",
          "type": "address"
        }
      ],
      "name": "transferOwnership",
      "outputs": [],
      "payable": false,
      "stateMutability": "nonpayable",
      "type": "function"
    },
    {
      "anonymous": false,
      "inputs": [
        {
          "indexed": false,
          "name": "Id",
          "type": "uint256"
        }
      ],
      "name": "OnProductAdded",
      "type": "event"
    },
    {
      "anonymous": false,
      "inputs": [
        {
          "indexed": false,
          "name": "Id",
          "type": "uint256"
        }
      ],
      "name": "OnProductDeleted",
      "type": "event"
    },
    {
      "anonymous": false,
      "inputs": [
        {
          "indexed": false,
          "name": "Id",
          "type": "uint256"
        }
      ],
      "name": "OnItemAdded",
      "type": "event"
    },
    {
      "anonymous": false,
      "inputs": [
        {
          "indexed": false,
          "name": "Id",
          "type": "uint256"
        }
      ],
      "name": "OnItemDeleted",
      "type": "event"
    },
    {
      "anonymous": false,
      "inputs": [
        {
          "indexed": false,
          "name": "account",
          "type": "address"
        }
      ],
      "name": "OnRegister",
      "type": "event"
    },
    {
      "anonymous": false,
      "inputs": [
        {
          "indexed": true,
          "name": "_from",
          "type": "address"
        },
        {
          "indexed": true,
          "name": "_to",
          "type": "address"
        },
        {
          "indexed": false,
          "name": "_value",
          "type": "uint256"
        }
      ],
      "name": "Transfer",
      "type": "event"
    },
    {
      "anonymous": false,
      "inputs": [
        {
          "indexed": true,
          "name": "_owner",
          "type": "address"
        },
        {
          "indexed": true,
          "name": "_spender",
          "type": "address"
        },
        {
          "indexed": false,
          "name": "_value",
          "type": "uint256"
        }
      ],
      "name": "Approval",
      "type": "event"
    },
    {
      "anonymous": false,
      "inputs": [
        {
          "indexed": false,
          "name": "x_id",
          "type": "uint256"
        },
        {
          "indexed": false,
          "name": "y_id",
          "type": "uint256"
        },
        {
          "indexed": false,
          "name": "dna1",
          "type": "uint256"
        },
        {
          "indexed": false,
          "name": "dna2",
          "type": "uint256"
        }
      ],
      "name": "OnAdd",
      "type": "event"
    },
    {
      "anonymous": false,
      "inputs": [
        {
          "indexed": false,
          "name": "x_id",
          "type": "uint256"
        },
        {
          "indexed": false,
          "name": "y_id",
          "type": "uint256"
        }
      ],
      "name": "OnPlug",
      "type": "event"
    },
    {
      "anonymous": false,
      "inputs": [
        {
          "indexed": false,
          "name": "s",
          "type": "uint256"
        }
      ],
      "name": "debugStage",
      "type": "event"
    },
    {
      "anonymous": false,
      "inputs": [
        {
          "indexed": true,
          "name": "previousOwner",
          "type": "address"
        },
        {
          "indexed": true,
          "name": "newOwner",
          "type": "address"
        }
      ],
      "name": "OwnershipTransferred",
      "type": "event"
    },
    {
      "constant": true,
      "inputs": [
        {
          "name": "_Id",
          "type": "uint256"
        }
      ],
      "name": "isProductValid",
      "outputs": [
        {
          "name": "isValid",
          "type": "bool"
        }
      ],
      "payable": false,
      "stateMutability": "view",
      "type": "function"
    },
    {
      "constant": true,
      "inputs": [
        {
          "name": "_Id",
          "type": "uint256"
        }
      ],
      "name": "getProduct",
      "outputs": [
        {
          "name": "",
          "type": "string"
        },
        {
          "name": "",
          "type": "string"
        },
        {
          "name": "",
          "type": "uint256"
        },
        {
          "name": "",
          "type": "address"
        }
      ],
      "payable": false,
      "stateMutability": "view",
      "type": "function"
    },
    {
      "constant": true,
      "inputs": [],
      "name": "getProductList",
      "outputs": [
        {
          "name": "",
          "type": "uint256[]"
        },
        {
          "name": "",
          "type": "uint256[]"
        }
      ],
      "payable": false,
      "stateMutability": "view",
      "type": "function"
    },
    {
      "constant": false,
      "inputs": [
        {
          "name": "id",
          "type": "uint256"
        },
        {
          "name": "num",
          "type": "uint256"
        },
        {
          "name": "value",
          "type": "uint256"
        },
        {
          "name": "description",
          "type": "string"
        }
      ],
      "name": "sellItem",
      "outputs": [],
      "payable": false,
      "stateMutability": "nonpayable",
      "type": "function"
    },
    {
      "constant": false,
      "inputs": [
        {
          "name": "_Id",
          "type": "uint256"
        },
        {
          "name": "num",
          "type": "uint256"
        }
      ],
      "name": "buyProduct",
      "outputs": [],
      "payable": false,
      "stateMutability": "nonpayable",
      "type": "function"
    },
    {
      "constant": false,
      "inputs": [
        {
          "name": "_Id",
          "type": "uint256"
        }
      ],
      "name": "deleteProduct",
      "outputs": [],
      "payable": false,
      "stateMutability": "nonpayable",
      "type": "function"
    }
  ],
  "bytecode": "0x6080604081905261a8c0600155600060058190558054600160a060020a0319163317808255600160a060020a0316917f8be0079c531659141344cd1fd0a4f28419497f9722a3daafe3b4186f6b6457e0908290a3614771806100626000396000f3fe6080604052600436106101a05763ffffffff7c0100000000000000000000000000000000000000000000000000000000600035041663063b2e5b81146101a5578063095ea7b31461025357806318160ddd146102a057806323b872dd146102c75780632639769f1461030a5780632afef696146103345780633129e773146103fc57806334d2c0ad146104a557806343518447146104ba57806353b62866146104ea57806356507c7a1461051a57806359ca683c1461054a57806370a082311461057a578063715018a6146105ad57806374020033146105c25780637729166d146105f2578063816bfee6146106285780638da5cb5b146106585780638e96b4f7146106895780638f32d59b146106b95780638fc640c1146106ce57806393fccbb6146107045780639598a5b114610734578063990e74691461075e578063a9059cbb1461078e578063aa7bcc58146107c7578063b9db15b4146107f7578063dbe9383214610914578063dd62ed3e1461093e578063ed90c7b714610979578063eded5d9e146109a3578063eeda149c146109d3578063f2fde38b14610a06575b600080fd5b3480156101b157600080fd5b506101ba610a39565b604051808060200180602001838103835285818151815260200191508051906020019060200280838360005b838110156101fe5781810151838201526020016101e6565b50505050905001838103825284818151815260200191508051906020019060200280838360005b8381101561023d578181015183820152602001610225565b5050505090500194505050505060405180910390f35b34801561025f57600080fd5b5061028c6004803603604081101561027657600080fd5b50600160a060020a038135169060200135610b4c565b604080519115158252519081900360200190f35b3480156102ac57600080fd5b506102b5610b63565b60408051918252519081900360200190f35b3480156102d357600080fd5b5061028c600480360360608110156102ea57600080fd5b50600160a060020a03813581169160208101359091169060400135610b6a565b34801561031657600080fd5b5061028c6004803603602081101561032d57600080fd5b5035610bc1565b34801561034057600080fd5b506103fa6004803603608081101561035757600080fd5b8135916020810135916040820135919081019060808101606082013564010000000081111561038557600080fd5b82018360208201111561039757600080fd5b803590602001918460018302840111640100000000831117156103b957600080fd5b91908080601f016020809104026020016040519081016040528093929190818152602001838380828437600092019190915250929550610bf9945050505050565b005b34801561040857600080fd5b506104266004803603602081101561041f57600080fd5b5035610fa6565b6040518080602001838152602001828103825284818151815260200191508051906020019080838360005b83811015610469578181015183820152602001610451565b50505050905090810190601f1680156104965780820380516001836020036101000a031916815260200191505b50935050505060405180910390f35b3480156104b157600080fd5b506101ba61110a565b3480156104c657600080fd5b5061028c600480360360408110156104dd57600080fd5b5080359060200135611211565b3480156104f657600080fd5b506103fa6004803603604081101561050d57600080fd5b50803590602001356112d9565b34801561052657600080fd5b506103fa6004803603604081101561053d57600080fd5b50803590602001356115a4565b34801561055657600080fd5b5061028c6004803603604081101561056d57600080fd5b508035906020013561198b565b34801561058657600080fd5b506102b56004803603602081101561059d57600080fd5b5035600160a060020a0316611a44565b3480156105b957600080fd5b506103fa611a5f565b3480156105ce57600080fd5b506102b5600480360360408110156105e557600080fd5b5080359060200135611ac9565b3480156105fe57600080fd5b506103fa6004803603606081101561061557600080fd5b5080359060208101359060400135611c0e565b34801561063457600080fd5b506102b56004803603604081101561064b57600080fd5b5080359060200135612031565b34801561066457600080fd5b5061066d6120eb565b60408051600160a060020a039092168252519081900360200190f35b34801561069557600080fd5b506103fa600480360360408110156106ac57600080fd5b50803590602001356120fa565b3480156106c557600080fd5b5061028c6126c9565b3480156106da57600080fd5b506103fa600480360360608110156106f157600080fd5b50803590602081013590604001356126da565b34801561071057600080fd5b506102b56004803603604081101561072757600080fd5b5080359060200135612c7f565b34801561074057600080fd5b5061028c6004803603602081101561075757600080fd5b5035612da2565b34801561076a57600080fd5b506103fa6004803603604081101561078157600080fd5b5080359060200135612de8565b34801561079a57600080fd5b5061028c600480360360408110156107b157600080fd5b50600160a060020a038135169060200135612fa2565b3480156107d357600080fd5b506103fa600480360360408110156107ea57600080fd5b5080359060200135612faf565b34801561080357600080fd5b506108216004803603602081101561081a57600080fd5b50356130d5565b60408051908101839052600160a060020a038216606082015260808082528551908201528451819060208083019160a084019189019080838360005b8381101561087557818101518382015260200161085d565b50505050905090810190601f1680156108a25780820380516001836020036101000a031916815260200191505b50838103825286518152865160209182019188019080838360005b838110156108d55781810151838201526020016108bd565b50505050905090810190601f1680156109025780820380516001836020036101000a031916815260200191505b50965050505050505060405180910390f35b34801561092057600080fd5b506102b56004803603602081101561093757600080fd5b50356132f4565b34801561094a57600080fd5b506102b56004803603604081101561096157600080fd5b50600160a060020a038135811691602001351661338b565b34801561098557600080fd5b506103fa6004803603602081101561099c57600080fd5b50356133b6565b3480156109af57600080fd5b506102b5600480360360408110156109c657600080fd5b50803590602001356134c3565b3480156109df57600080fd5b506103fa600480360360208110156109f657600080fd5b5035600160a060020a031661357d565b348015610a1257600080fd5b506103fa60048036036020811015610a2957600080fd5b5035600160a060020a03166135e5565b60608060006060610a48613604565b8093508192505050606082604051908082528060200260200182016040528015610a7c578160200160208202803883390190505b509050606083604051908082528060200260200182016040528015610aab578160200160208202803883390190505b50905060005b84811015610b405760008482815181101515610ac957fe5b906020019060200201519050808483815181101515610ae457fe5b6020908102909101810191909152336000908152600690915260409020805482908110610b0d57fe5b9060005260206000209060040201600101548383815181101515610b2d57fe5b6020908102909101015250600101610ab1565b50909450925050509091565b6000610b593384846136a1565b5060015b92915050565b6005545b90565b6000610b7784848461380e565b600160a060020a038416600090815260046020908152604080832033808552925290912054610bb7918691610bb2908663ffffffff6139ef16565b6136a1565b5060019392505050565b336000908152600660205260408120805483908110610bdc57fe5b600091825260209091206004909102016003015460ff1692915050565b83610c0381610bc1565b1515610c59576040805160e560020a62461bcd02815260206004820152601a60248201527f6974656d206d7573742062652076616c696420746f2063616c6c000000000000604482015290519081900360640190fd5b610c62856132f4565b841115610cb9576040805160e560020a62461bcd02815260206004820152600f60248201527f6e6f7420656e6f756768206974656d0000000000000000000000000000000000604482015290519081900360640190fd5b610cc161459d565b6040805160e081018252336000908152600660205291909120805482919089908110610ce957fe5b6000918252602091829020600490910201805460408051601f6002600019610100600187161502019094169390930492830185900485028101850190915281815292830182828015610d7c5780601f10610d5157610100808354040283529160200191610d7c565b820191906000526020600020905b815481529060010190602001808311610d5f57829003601f168201915b505050505081526020018481526020018581526020018681526020016006600033600160a060020a0316600160a060020a0316815260200190815260200160002088815481101515610dca57fe5b9060005260206000209060040201600201805480602002602001604051908101604052809291908181526020018280548015610e2557602002820191906000526020600020905b815481526020019060010190808311610e11575b505050918352505033602080830191909152600160409092018290526007805480840180835560009283528551805196975092959093879360069093027fa66cc928b5edb82af9bd49922954155ab7b0942694bea4ce44661d9a8736c6880192610e9592849291909101906145e6565b506020828101518051610eae92600185019201906145e6565b50604082015160028201556060820151600382015560808201518051610ede916004840191602090910190614664565b5060a08201516005909101805460c090930151151574010000000000000000000000000000000000000000027fffffffffffffffffffffff00ffffffffffffffffffffffffffffffffffffffff600160a060020a0390931673ffffffffffffffffffffffffffffffffffffffff199094169390931791909116919091179055039050610f6a8787613a01565b6040805182815290517f7dadbee5e0e322e9ed526f94e12bd3eb8c51d672cdcac86af19b3af7af05fd559181900360200190a150505050505050565b6060600082610fb481610bc1565b151561100a576040805160e560020a62461bcd02815260206004820152601a60248201527f6974656d206d7573742062652076616c696420746f2063616c6c000000000000604482015290519081900360640190fd5b33600090815260066020526040902080548590811061102557fe5b60009182526020808320338452600690915260409092208054600490920290920191908690811061105257fe5b906000526020600020906004020160010154818054600181600116156101000203166002900480601f0160208091040260200160405190810160405280929190818152602001828054600181600116156101000203166002900480156110f95780601f106110ce576101008083540402835291602001916110f9565b820191906000526020600020905b8154815290600101906020018083116110dc57829003601f168201915b505050505091509250925050915091565b60608060006060611119613b1e565b809350819250505060608260405190808252806020026020018201604052801561114d578160200160208202803883390190505b50905060608360405190808252806020026020018201604052801561117c578160200160208202803883390190505b50905060005b84811015610b40576000848281518110151561119a57fe5b9060200190602002015190508084838151811015156111b557fe5b60209081029091018101919091523360009081526006909152604090208054829081106111de57fe5b90600052602060002090600402016001015483838151811015156111fe57fe5b6020908102909101015250600101611182565b33600090815260026020526040812083908390826005811061122f57fe5b603c0201816005811061123e57fe5b600c02016005015460ff16151561128d576040805160e560020a62461bcd02815260206004820152601d6024820152600080516020614726833981519152604482015290519081900360640190fd5b33600090815260026020526040902085600581106112a757fe5b603c020184600581106112b657fe5b600c020160060160050160019054906101000a900460ff1692505b505092915050565b816112e381612da2565b1515611339576040805160e560020a62461bcd02815260206004820152601a60248201527f6974656d206d7573742062652076616c696420746f2063616c6c000000000000604482015290519081900360640190fd5b600780548490811061134757fe5b90600052602060002090600602016003015482111515156113b2576040805160e560020a62461bcd02815260206004820152601d60248201527f6e6f7420656e6f756768206974656d206f6e20746865206d61726b6574000000604482015290519081900360640190fd5b60006113e76007858154811015156113c657fe5b90600052602060002090600602016002015484613b9a90919063ffffffff16565b9050806113f333611a44565b1015611449576040805160e560020a62461bcd02815260206004820152601060248201527f6e6f7420656e6f756768206d6f6e657900000000000000000000000000000000604482015290519081900360640190fd5b61147e60078581548110151561145b57fe5b6000918252602090912060056006909202010154600160a060020a031682612fa2565b5061159e60078581548110151561149157fe5b6000918252602091829020600690910201805460408051601f60026000196101006001871615020190941693909304928301859004850281018501909152818152928301828280156115245780601f106114f957610100808354040283529160200191611524565b820191906000526020600020905b81548152906001019060200180831161150757829003601f168201915b50505050508460078781548110151561153957fe5b906000526020600020906006020160040180548060200260200160405190810160405280929190818152602001828054801561159457602002820191906000526020600020905b815481526020019060010190808311611580575b5050505050613bc9565b50505050565b3360009081526002602052604090208290829082600581106115c257fe5b603c020181600581106115d157fe5b600c02016005015460ff161515611620576040805160e560020a62461bcd02815260206004820152601d6024820152600080516020614726833981519152604482015290519081900360640190fd5b8383600061163e6116318484613cb7565b429063ffffffff6139ef16565b9050600061164c8484613cf0565b90508082116116a5576040805160e560020a62461bcd02815260206004820152601860248201527f746f6f206561726c7920746f206861766520706f6c6c656e0000000000000000604482015290519081900360640190fd5b6116c760646116bb83606663ffffffff613b9a16565b9063ffffffff613d2c16565b821061171d576040805160e560020a62461bcd02815260206004820152601760248201527f746f6f206c61746520746f206861766520706f6c6c656e000000000000000000604482015290519081900360640190fd5b336000908152600260205260409020846005811061173757fe5b603c0201836005811061174657fe5b600c020160050160029054906101000a900460ff161515156117b2576040805160e560020a62461bcd02815260206004820152601f60248201527f74686520706f6c6c656e2061726520616c726561647920706c75676765642e00604482015290519081900360640190fd5b33600090815260026020526040902060019089600581106117cf57fe5b603c020188600581106117de57fe5b600c020160050160026101000a81548160ff0219169083151502179055506118686040805190810160405280600681526020017f706f6c6c656e0000000000000000000000000000000000000000000000000000815250600a6000604051908082528060200260200182016040528015611862578160200160208202803883390190505b50613bc9565b3360009081526006602052604090208054600019810191908290811061188a57fe5b90600052602060002090600402016002016002600033600160a060020a0316600160a060020a031681526020019081526020016000208a6005811015156118cd57fe5b603c020189600581106118dc57fe5b600c02015481546001810183556000928352602080842090910191909155338252600690526040902080548290811061191157fe5b90600052602060002090600402016002016002600033600160a060020a0316600160a060020a031681526020019081526020016000208a60058110151561195457fe5b603c0201896005811061196357fe5b600c020160019081015482549182018355600092835260209092200155505050505050505050565b3360009081526002602052604081208390839082600581106119a957fe5b603c020181600581106119b857fe5b600c02016005015460ff161515611a07576040805160e560020a62461bcd02815260206004820152601d6024820152600080516020614726833981519152604482015290519081900360640190fd5b3360009081526002602052604090208560058110611a2157fe5b603c02018460058110611a3057fe5b600c0201600b015460ff1695945050505050565b600160a060020a031660009081526003602052604090205490565b611a676126c9565b1515611a7257600080fd5b60008054604051600160a060020a03909116907f8be0079c531659141344cd1fd0a4f28419497f9722a3daafe3b4186f6b6457e0908390a36000805473ffffffffffffffffffffffffffffffffffffffff19169055565b336000908152600260205260408120839083908260058110611ae757fe5b603c02018160058110611af657fe5b600c02016005015460ff161515611b45576040805160e560020a62461bcd02815260206004820152601d6024820152600080516020614726833981519152604482015290519081900360640190fd5b6000611b546116318787613cb7565b90506000611b628787613cf0565b90506000611b708888613d43565b905081831115611bdd57611b8b82601463ffffffff613d2c16565b611b9b848463ffffffff6139ef16565b1015611bd157611bc760786116bb603c611bbb858463ffffffff613d7f16565b9063ffffffff613b9a16565b95505050506112d1565b600095505050506112d1565b821515611bf057600095505050506112d1565b611bc7836116bb60788186611bbb603c81898663ffffffff613d7f16565b80611c1881610bc1565b1515611c6e576040805160e560020a62461bcd02815260206004820152601a60248201527f6974656d206d7573742062652076616c696420746f2063616c6c000000000000604482015290519081900360640190fd5b33600090815260066020526040812080548492919083908110611c8d57fe5b90600052602060002090600402016000016040516020018082805460018160011615610100020316600290048015611cfc5780601f10611cda576101008083540402835291820191611cfc565b820191906000526020600020905b815481529060010190602001808311611ce8575b505060408051601f1981840301815282825280516020918201207f7365656400000000000000000000000000000000000000000000000000000000828501528251808503600401815260249094019092528251920191909120909350915050808214611db2576040805160e560020a62461bcd02815260206004820152600f60248201527f6e6f7420612073656564206974656d0000000000000000000000000000000000604482015290519081900360640190fd5b3360009081526006602052604081208054611e0791600191611dfb916002918b908110611ddb57fe5b60009182526020909120600260049092020101549063ffffffff613d2c16565b9063ffffffff6139ef16565b905060008142604051602001808281526020019150506040516020818303038152906040528051906020012060019004811515611e4057fe5b6040805142602080830182905244838501819052845180850386018152606085018652805190830120608085019190915260a0808501939093528451808503909301835260c09093018452815191810191909120336000908152600690925292812080549590940695509093919290918b908110611eba57fe5b90600052602060002090600402016002016000815481101515611ed957fe5b60009182526020808320909101543383526006909152604090912080549185169250611f45918c908110611f0957fe5b90600052602060002090600402016002016001815481101515611f2857fe5b906000526020600020015484191682613d7f90919063ffffffff16565b336000908152600660205260408120805492935090918c908110611f6557fe5b9060005260206000209060040201600201611f9b6002611f8f600289613b9a90919063ffffffff16565b9063ffffffff613d7f16565b81548110611fa557fe5b60009182526020808320909101543383526006909152604090912080549185169250612009918d908110611fd557fe5b9060005260206000209060040201600201611fff6003611f8f60028a613b9a90919063ffffffff16565b81548110611f2857fe5b90506120178d8d8484613d8e565b6120228b6001613a01565b50505050505050505050505050565b33600090815260026020526040812083908390826005811061204f57fe5b603c0201816005811061205e57fe5b600c02016005015460ff1615156120ad576040805160e560020a62461bcd02815260206004820152601d6024820152600080516020614726833981519152604482015290519081900360640190fd5b33600090815260026020526040902085600581106120c757fe5b603c020184600581106120d657fe5b600c0201600601600401549250505092915050565b600054600160a060020a031690565b33600090815260026020526040902082908290826005811061211857fe5b603c0201816005811061212757fe5b600c02016005015460ff161515612176576040805160e560020a62461bcd02815260206004820152601d6024820152600080516020614726833981519152604482015290519081900360640190fd5b838360006121876116318484613cb7565b905060006121958484613cf0565b90506121ad60646116bb83606663ffffffff613b9a16565b8211612203576040805160e560020a62461bcd02815260206004820152601760248201527f746f6f206561726c7920746f2068617665207365656473000000000000000000604482015290519081900360640190fd5b336000908152600260205260409020846005811061221d57fe5b603c0201836005811061222c57fe5b600c020160050160019054906101000a900460ff16151515612298576040805160e560020a62461bcd02815260206004820152601e60248201527f7468652073656564732061726520616c726561647920706c75676765642e0000604482015290519081900360640190fd5b33600090815260026020526040902060019089600581106122b557fe5b603c020188600581106122c457fe5b600c020160050160016101000a81548160ff02191690831515021790555060006122f8600a611f8f60026116bb8d8d612031565b90506123646040805190810160405280600481526020017f73656564000000000000000000000000000000000000000000000000000000008152508260006040519080825280602002602001820160405280156118625781602001602082028038833901905050613bc9565b3360009081526006602052604090208054600019810191908290811061238657fe5b90600052602060002090600402016002016002600033600160a060020a0316600160a060020a031681526020019081526020016000208b6005811015156123c957fe5b603c02018a600581106123d857fe5b600c02015481546001810183556000928352602080842090910191909155338252600690526040902080548290811061240d57fe5b90600052602060002090600402016002016002600033600160a060020a0316600160a060020a031681526020019081526020016000208b60058110151561245057fe5b603c02018a6005811061245f57fe5b600c020160019081015482549182018355600092835260208084209092015533825260029052604090208a6005811061249457fe5b603c020189600581106124a357fe5b600c020160050160029054906101000a900460ff1615156125d0573360009081526006602052604090208054829081106124d957fe5b90600052602060002090600402016002016002600033600160a060020a0316600160a060020a031681526020019081526020016000208b60058110151561251c57fe5b603c02018a6005811061252b57fe5b600c02015481546001810183556000928352602080842090910191909155338252600690526040902080548290811061256057fe5b90600052602060002090600402016002016002600033600160a060020a0316600160a060020a031681526020019081526020016000208b6005811015156125a357fe5b603c02018a600581106125b257fe5b600c0201600190810154825491820183556000928352602090922001555b3360009081526002602052604081208b600581106125ea57fe5b603c02018a600581106125f957fe5b600c020160040180549050905060008090505b818110156126bb5733600090815260066020526040902080548490811061262f57fe5b90600052602060002090600402016002016002600033600160a060020a0316600160a060020a031681526020019081526020016000208d60058110151561267257fe5b603c02018c6005811061268157fe5b600c02016004018281548110151561269557fe5b60009182526020808320909101548354600181810186559484529190922001550161260c565b505050505050505050505050565b600054600160a060020a0316331490565b806126e481610bc1565b151561273a576040805160e560020a62461bcd02815260206004820152601a60248201527f6974656d206d7573742062652076616c696420746f2063616c6c000000000000604482015290519081900360640190fd5b3360009081526006602052604081208054849291908390811061275957fe5b906000526020600020906004020160000160405160200180828054600181600116156101000203166002900480156127c85780601f106127a65761010080835404028352918201916127c8565b820191906000526020600020905b8154815290600101906020018083116127b4575b505060408051601f1981840301815282825280516020918201207f706f6c6c656e000000000000000000000000000000000000000000000000000082850152825180850360060181526026909401909252825192019190912090935091505080821461287e576040805160e560020a62461bcd02815260206004820152601160248201527f6e6f74206120706f6c6c656e206974656d000000000000000000000000000000604482015290519081900360640190fd5b33600090815260026020526040902087908790826005811061289c57fe5b603c020181600581106128ab57fe5b600c02016005015460ff1615156128fa576040805160e560020a62461bcd02815260206004820152601d6024820152600080516020614726833981519152604482015290519081900360640190fd5b8888600061290b6116318484613cb7565b905060006129198484613cf0565b905061293160646116bb83606563ffffffff613b9a16565b8211612987576040805160e560020a62461bcd02815260206004820152601860248201527f746f6f206561726c7920746f206861766520706f6c6c656e0000000000000000604482015290519081900360640190fd5b61299d60646116bb83606663ffffffff613b9a16565b82106129f3576040805160e560020a62461bcd02815260206004820152601760248201527f746f6f206c61746520746f206861766520706f6c6c656e000000000000000000604482015290519081900360640190fd5b3360009081526002602052604090208d60058110612a0d57fe5b603c02018c60058110612a1c57fe5b600c020160050160029054906101000a900460ff161515612b2f573360009081526002602052604090208d60058110612a5157fe5b603c02018c60058110612a6057fe5b3360009081526002602052604090206004600c929092029290920101908e60058110612a8857fe5b603c02018d60058110612a9757fe5b600c0201548154600181018355600092835260208084209091019190915533825260029052604090208d60058110612acb57fe5b603c02018c60058110612ada57fe5b3360009081526002602052604090206004600c929092029290920101908e60058110612b0257fe5b603c02018d60058110612b1157fe5b600c0201600190810154825491820183556000928352602090922001555b3360009081526002602052604090208d60058110612b4957fe5b603c02018c60058110612b5857fe5b600c02016004016006600033600160a060020a0316600160a060020a031681526020019081526020016000208c815481101515612b9157fe5b90600052602060002090600402016002016000815481101515612bb057fe5b60009182526020808320909101548354600181018555938352818320909301929092553381526002909152604090208d60058110612bea57fe5b603c02018c60058110612bf957fe5b600c02016004016006600033600160a060020a0316600160a060020a031681526020019081526020016000208c815481101515612c3257fe5b90600052602060002090600402016002016001815481101515612c5157fe5b6000918252602080832090910154835460018101855593835291209091015550505050505050505050505050565b336000908152600260205260408120839083908260058110612c9d57fe5b603c02018160058110612cac57fe5b600c02016005015460ff161515612cfb576040805160e560020a62461bcd02815260206004820152601d6024820152600080516020614726833981519152604482015290519081900360640190fd5b6000612d0a6116318787613cb7565b90506000612d188787613cf0565b90506000612d26888861428b565b905081831115612d7157612d4182601463ffffffff613d2c16565b612d51848463ffffffff6139ef16565b1015611bd157611bc7600f6116bb6005611bbb858463ffffffff613d7f16565b821515612d8457600095505050506112d1565b611bc7836116bb600f8186611bbb600581898663ffffffff613d7f16565b6000600782815481101515612db357fe5b600091825260209091206006909102016005015474010000000000000000000000000000000000000000900460ff1692915050565b336000908152600260205260409020829082908260058110612e0657fe5b603c02018160058110612e1557fe5b600c02016005015460ff161515612e64576040805160e560020a62461bcd02815260206004820152601d6024820152600080516020614726833981519152604482015290519081900360640190fd5b6000612e736116318686613cb7565b90506000612e818686613cf0565b90506000612e8f8787612c7f565b90506000612e9d8888611ac9565b90506000612eaf858584868d8d6142c7565b3360009081526002602052604090209091508960058110612ecc57fe5b603c02018860058110612edb57fe5b600c020160050154600160ff90911615151415612f5c573360009081526002602052604081208a60058110612f0c57fe5b603c02018960058110612f1b57fe5b600c0201600501805460ff191691151591909117905533600090815260036020526040902054612f4b9082613d7f565b336000908152600360205260409020555b604080518a8152602081018a905281517fef9514e76636c86a9084470f65495ff78258053cada18c62136f204ff2f0daa2929181900390910190a1505050505050505050565b6000610b5933848461380e565b3360009081526003602052604090205461012c1061303d576040805160e560020a62461bcd02815260206004820152602360248201527f6e6f7420656e6f756768206d6f6e657920746f206275792072616e646f6d207360448201527f6565640000000000000000000000000000000000000000000000000000000000606482015290519081900360840190fd5b6040805142602080830182905244838501819052845180850386018152606085018652805190830120608085019190915260a0808501939093528451808503909301835260c0909301909352805192019190912061309d84848484613d8e565b336000908152600360205260409020546130bf9061012c63ffffffff6139ef16565b3360009081526003602052604090205550505050565b606080600080846130e581612da2565b151561313b576040805160e560020a62461bcd02815260206004820152601a60248201527f6974656d206d7573742062652076616c696420746f2063616c6c000000000000604482015290519081900360640190fd5b600780548790811061314957fe5b906000526020600020906006020160000160078781548110151561316957fe5b906000526020600020906006020160010160078881548110151561318957fe5b9060005260206000209060060201600301546007898154811015156131aa57fe5b600091825260209182902060056006909202010154845460408051601f60026000196001861615610100020190941693909304928301859004850281018501909152818152600160a060020a039092169286919083018282801561324f5780601f106132245761010080835404028352916020019161324f565b820191906000526020600020905b81548152906001019060200180831161323257829003601f168201915b5050865460408051602060026001851615610100026000190190941693909304601f8101849004840282018401909252818152959950889450925084019050828280156132dd5780601f106132b2576101008083540402835291602001916132dd565b820191906000526020600020905b8154815290600101906020018083116132c057829003601f168201915b505050505092509450945094509450509193509193565b60008161330081610bc1565b1515613356576040805160e560020a62461bcd02815260206004820152601a60248201527f6974656d206d7573742062652076616c696420746f2063616c6c000000000000604482015290519081900360640190fd5b33600090815260066020526040902080548490811061337157fe5b906000526020600020906004020160010154915050919050565b600160a060020a03918216600090815260046020908152604080832093909416825291909152205490565b806133c081612da2565b1515613416576040805160e560020a62461bcd02815260206004820152601a60248201527f6974656d206d7573742062652076616c696420746f2063616c6c000000000000604482015290519081900360640190fd5b8160078181548110151561342657fe5b6000918252602090912060069091020160050154600160a060020a0316331461344e57600080fd5b600060078481548110151561345f57fe5b906000526020600020906006020160050160146101000a81548160ff0219169083151502179055507fe97809151b91dbdf8b3542625c29474349cd61613de1e5359da86689a5de4a54836040518082815260200191505060405180910390a1505050565b3360009081526002602052604081208390839082600581106134e157fe5b603c020181600581106134f057fe5b600c02016005015460ff16151561353f576040805160e560020a62461bcd02815260206004820152601d6024820152600080516020614726833981519152604482015290519081900360640190fd5b336000908152600260205260409020856005811061355957fe5b603c0201846005811061356857fe5b600c0201600601600201549250505092915050565b6135856126c9565b151561359057600080fd5b600160a060020a0381166000818152600360209081526040918290206103e89055815192835290517f827446e550fe5bfd75ca44888adfeafa8fe5b5ea548deabda1ed8f5c08f2cf229281900390910190a150565b6135ed6126c9565b15156135f857600080fd5b61360181614438565b50565b33600090815260066020908152604080832054815181815281840281019093019091526060929183918015613643578160200160208202803883390190505b5090506000805b336000908152600660205260409020548110156136975761366a81610bc1565b1561368f5780838381518110151561367e57fe5b602090810290910101526001909101905b60010161364a565b5090925090509091565b600160a060020a0383161515613726576040805160e560020a62461bcd028152602060048201526024808201527f45524332303a20617070726f76652066726f6d20746865207a65726f2061646460448201527f7265737300000000000000000000000000000000000000000000000000000000606482015290519081900360840190fd5b600160a060020a03821615156137ac576040805160e560020a62461bcd02815260206004820152602260248201527f45524332303a20617070726f766520746f20746865207a65726f20616464726560448201527f7373000000000000000000000000000000000000000000000000000000000000606482015290519081900360840190fd5b600160a060020a03808416600081815260046020908152604080832094871680845294825291829020859055815185815291517f8c5be1e5ebec7d5bd14f71427d1e84f3dd0314c0f7b2291e5b200ac8c7c3b9259281900390910190a3505050565b600160a060020a0383161515613894576040805160e560020a62461bcd02815260206004820152602560248201527f45524332303a207472616e736665722066726f6d20746865207a65726f20616460448201527f6472657373000000000000000000000000000000000000000000000000000000606482015290519081900360840190fd5b600160a060020a038216151561391a576040805160e560020a62461bcd02815260206004820152602360248201527f45524332303a207472616e7366657220746f20746865207a65726f206164647260448201527f6573730000000000000000000000000000000000000000000000000000000000606482015290519081900360840190fd5b600160a060020a038316600090815260036020526040902054613943908263ffffffff6139ef16565b600160a060020a038085166000908152600360205260408082209390935590841681522054613978908263ffffffff613d7f16565b600160a060020a0383166000908152600360205260409020556005546139a4908263ffffffff613d7f16565b600555604080518281529051600160a060020a0380851692908616917fddf252ad1be2c89b69c2b068fc378daa952ba7f163c4a11628f55a4df523b3ef9181900360200190a3505050565b6000828211156139fb57fe5b50900390565b81613a0b81610bc1565b1515613a61576040805160e560020a62461bcd02815260206004820152601a60248201527f6974656d206d7573742062652076616c696420746f2063616c6c000000000000604482015290519081900360640190fd5b613a6a836132f4565b821115613ac1576040805160e560020a62461bcd02815260206004820152600f60248201527f6e6f7420656e6f756768206974656d0000000000000000000000000000000000604482015290519081900360640190fd5b613aca836132f4565b821415613adf57613ada836144b5565b613b19565b336000908152600660205260409020805483919085908110613afd57fe5b6000918252602090912060016004909202010180549190910390555b505050565b606060006060600780549050604051908082528060200260200182016040528015613b53578160200160208202803883390190505b5090506000805b60075481101561369757613b6d81612da2565b15613b9257808383815181101515613b8157fe5b602090810290910101526001909101905b600101613b5a565b6000821515613bab57506000610b5d565b828202828482811515613bba57fe5b0414613bc257fe5b9392505050565b613bd161469e565b5060408051608081018252848152602080820185905281830184905260016060830181905233600090815260068352938420805480830180835591865283862085518051969796949593948894600490940290920192613c36928492909101906145e6565b50602082810151600183015560408301518051613c599260028501920190614664565b50606091909101516003909101805460ff1916911515919091179055604080519290910380835290519092507f9d988e03406844e4f4570c5b73a65bcd79fdd6f1bf564656ae99e23328ef2c0e916020908290030190a15050505050565b3360009081526002602052604081208360058110613cd157fe5b603c02018260058110613ce057fe5b600c020160020154905092915050565b3360009081526002602052604081208360058110613d0a57fe5b603c02018260058110613d1957fe5b600c020160060160030154905092915050565b6000808284811515613d3a57fe5b04949350505050565b3360009081526002602052604081208360058110613d5d57fe5b603c02018260058110613d6c57fe5b600c020160060160000154905092915050565b600082820183811015613bc257fe5b3360009081526002602052604090208460058110613da857fe5b603c02018360058110613db757fe5b600c02016005015460ff1615613dcc57600080fd5b336000908152600260205260409020613e02908560058110613dea57fe5b603c02018460058110613df957fe5b600c0201614593565b1515613e0d57600080fd5b613e156146c9565b506040805160e0810182526000808252602082018190529181018290526060810182905260808101829052600180851681851617811460a083015260028086048083168287048085169190911790931460c08501529293905b6029811015613eda576002840660011415613e9f576040850151613e9990600163ffffffff613d7f16565b60408601525b6002830660011415613ec7576040850151613ec190600163ffffffff613d7f16565b60408601525b6002938490049390920491600101613e6e565b5060295b6065811015613f4a576002840660011415613f0f576020850151613f0990600163ffffffff613d7f16565b60208601525b6002830660011415613f37576020850151613f3190600163ffffffff613d7f16565b60208601525b6002938490049390920491600101613ede565b5060655b60a1811015613fae576002840660011415613f79578451613f7690600163ffffffff613d7f16565b85525b6002830660011415613f9b578451613f9890600163ffffffff613d7f16565b85525b6002938490049390920491600101613f4e565b5060a15b60c981101561401e576002840660011415613fe3576080850151613fdd90600163ffffffff613d7f16565b60808601525b600283066001141561400b57608085015161400590600163ffffffff613d7f16565b60808601525b6002938490049390920491600101613fb2565b5060c95b61010081101561407f57600284066001141561404c5761404982600163ffffffff613d7f16565b91505b600283066001141561406c5761406982600163ffffffff613d7f16565b91505b6002938490049390920491600101614022565b5060be61409860026116bb84600363ffffffff613b9a16565b61017c038115156140a557fe5b04620151800284606001818152505061012060405190810160405280878152602001868152602001428152602001600081526020016000604051908082528060200260200182016040528015614105578160200160208202803883390190505b508152600160208083019190915260006040808401829052606084018290526080909301889052338152600290915220896005811061414057fe5b603c0201886005811061414f57fe5b600c0201600082015181600001556020820151816001015560408201518160020155606082015181600301556080820151816004019080519060200190614197929190614664565b5060a08281015160058301805460c08087015160e08801511515620100000262ff00001991151561010090810261ff001997151560ff1996871617881617929092161790935595820151805160068701556020808201516007880155604080830151600889015560608084015160098a0155608080850151600a8b015597840151600b909901805494909a0151151590950297151592909316919091179093169490941790945582518c81529081018b90528083018a905292830188905290517f29673a2c4180cee02675c1aeac3253f75b8a067246770a77b079d48c92248cbd9281900390910190a15050505050505050565b33600090815260026020526040812083600581106142a557fe5b603c020182600581106142b457fe5b600c020160060160010154905092915050565b3360009081526002602052604081208390839082600581106142e557fe5b603c020181600581106142f457fe5b600c02016005015460ff161515614343576040805160e560020a62461bcd02815260206004820152601d6024820152600080516020614726833981519152604482015290519081900360640190fd5b600061434f86866134c3565b9050600061435d878761198b565b9050600061436b8888611211565b90508a8c11156143b4576143868b601463ffffffff613d2c16565b6143968d8d63ffffffff6139ef16565b10156143a8576005955050505061442c565b6000955050505061442c565b8b15156143c7576002955050505061442c565b60006143ed6143dd85600a63ffffffff613d2c16565b611dfb8d8d63ffffffff613b9a16565b905081156144085761440681600563ffffffff613d7f16565b505b82156144215761441f81600563ffffffff613d7f16565b505b955061442c92505050565b50509695505050505050565b600160a060020a038116151561444d57600080fd5b60008054604051600160a060020a03808516939216917f8be0079c531659141344cd1fd0a4f28419497f9722a3daafe3b4186f6b6457e091a36000805473ffffffffffffffffffffffffffffffffffffffff1916600160a060020a0392909216919091179055565b806144bf81610bc1565b1515614515576040805160e560020a62461bcd02815260206004820152601a60248201527f6974656d206d7573742062652076616c696420746f2063616c6c000000000000604482015290519081900360640190fd5b33600090815260066020526040812080548490811061453057fe5b906000526020600020906004020160030160006101000a81548160ff0219169083151502179055507f04db484cca74d7317df830807409b645213719e2ca21de1d9b1eee1ab4c68018826040518082815260200191505060405180910390a15050565b6003015442101590565b60e06040519081016040528060608152602001606081526020016000815260200160008152602001606081526020016000600160a060020a031681526020016000151581525090565b828054600181600116156101000203166002900490600052602060002090601f016020900481019282601f1061462757805160ff1916838001178555614654565b82800160010185558215614654579182015b82811115614654578251825591602001919060010190614639565b5061466092915061470b565b5090565b8280548282559060005260206000209081019282156146545791602002820182811115614654578251825591602001919060010190614639565b6080604051908101604052806060815260200160008152602001606081526020016000151581525090565b60e06040519081016040528060008152602001600081526020016000815260200160008152602001600081526020016000151581526020016000151581525090565b610b6791905b80821115614660576000815560010161471156fe6c6f636174696f6e20646f6573206e6f742068617665207370726f7574000000a165627a7a72305820457bc7aa25d0a5d59a09656e9484cf024e9a767fec782938c5d47c4bb34b593c0029",
  "source": "pragma solidity ^0.5.0;\n\n\nimport \"./OwnerItem.sol\";\n\ncontract SproutMarket is OwnerItem {\n\n    /*A Place where player can sell their seeds or other products.\n    */\n\n    event OnProductAdded(uint Id);\n    event OnProductDeleted(uint Id);\n    \n    struct Product {\n        string producType;\n        string description;\n        uint value_each;\n        uint num;\n        uint[] content;\n        address owner;\n        bool isValid;\n    }\n    Product[] _MarketList;\n\n\n    // Modifier\n    modifier isValidProduct(uint _Id) {\n        require(isProductValid(_Id), \"item must be valid to call\");\n        _;\n    }\n    modifier isProductOwner(uint _Id) {\n        require(msg.sender == _MarketList[_Id].owner);\n        _;\n    }\n    \n\n\n    // Public function\n    // basic functions for show market list\n    function isProductValid(uint _Id) public view returns(bool isValid) {\n        return _MarketList[_Id].isValid;\n    }\n    function getProduct(uint _Id) public view isValidProduct(_Id) returns(string memory, string memory, uint, address) {\n        return (_MarketList[_Id].producType, _MarketList[_Id].description, _MarketList[_Id].num, _MarketList[_Id].owner);\n    }\n\n    function getProductList() public view returns(uint[] memory, uint[] memory) {\n        uint len;\n        uint[] memory valids;\n\n        (valids, len) = _getValidProducts();\n\n        uint[] memory ids = new uint[](len);\n        uint[] memory nums = new uint[](len);\n        for (uint i = 0; i < len; i++) {\n            uint id = valids[i];\n            ids[i] = id;\n            nums[i] = _ItemList[msg.sender][id].num;\n        }\n        return (ids, nums);\n    }\n\n    // a portion of the items in the player's item list put onto the market place waited for sail.\n    // Be aware of that the items put on market list won't be able to put back to your own item list again.\n    function sellItem(uint id, uint num, uint value, string memory description) public isValidItem(id){\n        require(num <= getItemNum(id), \"not enough item\");\n        Product memory product = Product(_ItemList[msg.sender][id].itemName, description, value, num, \n            _ItemList[msg.sender][id].content, msg.sender, true);\n        uint Id = _MarketList.push(product) - 1;\n        spendItem(id, num);\n\n        emit OnProductAdded(Id);\n    }\n    function buyProduct(uint _Id, uint num) public isValidProduct(_Id){\n        require(num <= _MarketList[_Id].num, \"not enough item on the market\");\n        uint total = num.mul(_MarketList[_Id].value_each);\n        require(balanceOf(msg.sender) >= total, \"not enough money\");\n        transfer(_MarketList[_Id].owner, total);\n        addItem(_MarketList[_Id].producType, num, _MarketList[_Id].content);\n    }\n    // used when you no longer want to sell an item\n    function deleteProduct(uint _Id) public isValidProduct(_Id) isProductOwner( _Id){\n        _MarketList[_Id].isValid = false;\n        emit OnProductDeleted(_Id);\n    }\n\n\n\n    // private function\n    function _getValidProducts() private view returns(uint[] memory valids, uint length) {\n        uint[] memory validProducts = new uint[](_MarketList.length);\n        uint count = 0;\n        for (uint i = 0; i < _MarketList.length; i++) {\n            if (isProductValid(i)) {\n                validProducts[count] = i;\n                count++;\n            }\n        }\n        return(validProducts, count);\n    }\n}",
  "sourcePath": "/Users/catherine/Documents/GitHub/finals/nmlab_final/contracts/SproutMarket.sol",
  "compiler": {
    "name": "solc",
    "version": "0.5.0+commit.1d4f565a.Emscripten.clang"
  },
  "schemaVersion": "3.1.0",
  "updatedAt": "2020-06-19T03:05:41.008Z",
  "devdoc": {
    "methods": {
      "isOwner()": {
        "return": "true if `msg.sender` is the owner of the contract."
      },
      "owner()": {
        "return": "the address of the owner."
      },
      "renounceOwnership()": {
        "details": "Allows the current owner to relinquish control of the contract."
      },
      "transferOwnership(address)": {
        "details": "Allows the current owner to transfer control of the contract to a newOwner.",
        "params": {
          "newOwner": "The address to transfer ownership to."
        }
      }
    }
  },
  "userdoc": {
    "methods": {
      "renounceOwnership()": {
        "notice": "Renouncing to ownership will leave the contract without an owner. It will not be possible to call the functions with the `onlyOwner` modifier anymore."
      }
    }
  }
}