{
  "contractName": "SproutMarket",
  "abi": [
    {
      "anonymous": false,
      "inputs": [
        {
          "indexed": true,
          "internalType": "address",
          "name": "_owner",
          "type": "address"
        },
        {
          "indexed": true,
          "internalType": "address",
          "name": "_spender",
          "type": "address"
        },
        {
          "indexed": false,
          "internalType": "uint256",
          "name": "_value",
          "type": "uint256"
        }
      ],
      "name": "Approval",
      "type": "event"
    },
    {
      "anonymous": false,
      "inputs": [
        {
          "indexed": false,
          "internalType": "uint256",
          "name": "x_id",
          "type": "uint256"
        },
        {
          "indexed": false,
          "internalType": "uint256",
          "name": "y_id",
          "type": "uint256"
        },
        {
          "indexed": false,
          "internalType": "uint256",
          "name": "dna1",
          "type": "uint256"
        },
        {
          "indexed": false,
          "internalType": "uint256",
          "name": "dna2",
          "type": "uint256"
        }
      ],
      "name": "OnAdd",
      "type": "event"
    },
    {
      "anonymous": false,
      "inputs": [
        {
          "indexed": false,
          "internalType": "uint256",
          "name": "Id",
          "type": "uint256"
        }
      ],
      "name": "OnItemAdded",
      "type": "event"
    },
    {
      "anonymous": false,
      "inputs": [
        {
          "indexed": false,
          "internalType": "uint256",
          "name": "Id",
          "type": "uint256"
        }
      ],
      "name": "OnItemDeleted",
      "type": "event"
    },
    {
      "anonymous": false,
      "inputs": [
        {
          "indexed": false,
          "internalType": "uint256",
          "name": "x_id",
          "type": "uint256"
        },
        {
          "indexed": false,
          "internalType": "uint256",
          "name": "y_id",
          "type": "uint256"
        }
      ],
      "name": "OnPlug",
      "type": "event"
    },
    {
      "anonymous": false,
      "inputs": [
        {
          "indexed": false,
          "internalType": "uint256",
          "name": "Id",
          "type": "uint256"
        }
      ],
      "name": "OnProductAdded",
      "type": "event"
    },
    {
      "anonymous": false,
      "inputs": [
        {
          "indexed": false,
          "internalType": "uint256",
          "name": "Id",
          "type": "uint256"
        }
      ],
      "name": "OnProductDeleted",
      "type": "event"
    },
    {
      "anonymous": false,
      "inputs": [
        {
          "indexed": false,
          "internalType": "address",
          "name": "account",
          "type": "address"
        }
      ],
      "name": "OnRegister",
      "type": "event"
    },
    {
      "anonymous": false,
      "inputs": [
        {
          "indexed": true,
          "internalType": "address",
          "name": "previousOwner",
          "type": "address"
        },
        {
          "indexed": true,
          "internalType": "address",
          "name": "newOwner",
          "type": "address"
        }
      ],
      "name": "OwnershipTransferred",
      "type": "event"
    },
    {
      "anonymous": false,
      "inputs": [
        {
          "indexed": true,
          "internalType": "address",
          "name": "_from",
          "type": "address"
        },
        {
          "indexed": true,
          "internalType": "address",
          "name": "_to",
          "type": "address"
        },
        {
          "indexed": false,
          "internalType": "uint256",
          "name": "_value",
          "type": "uint256"
        }
      ],
      "name": "Transfer",
      "type": "event"
    },
    {
      "anonymous": false,
      "inputs": [
        {
          "indexed": false,
          "internalType": "uint256",
          "name": "s",
          "type": "uint256"
        }
      ],
      "name": "debugStage",
      "type": "event"
    },
    {
      "constant": false,
      "inputs": [
        {
          "internalType": "uint256",
          "name": "x_id",
          "type": "uint256"
        },
        {
          "internalType": "uint256",
          "name": "y_id",
          "type": "uint256"
        }
      ],
      "name": "PlugSeed",
      "outputs": [],
      "payable": false,
      "stateMutability": "nonpayable",
      "type": "function"
    },
    {
      "constant": false,
      "inputs": [
        {
          "internalType": "address",
          "name": "new_player",
          "type": "address"
        }
      ],
      "name": "Register",
      "outputs": [],
      "payable": false,
      "stateMutability": "nonpayable",
      "type": "function"
    },
    {
      "constant": false,
      "inputs": [
        {
          "internalType": "uint256",
          "name": "x_id",
          "type": "uint256"
        },
        {
          "internalType": "uint256",
          "name": "y_id",
          "type": "uint256"
        },
        {
          "internalType": "uint256",
          "name": "_Id",
          "type": "uint256"
        }
      ],
      "name": "UseSeedItem",
      "outputs": [],
      "payable": false,
      "stateMutability": "nonpayable",
      "type": "function"
    },
    {
      "constant": true,
      "inputs": [
        {
          "internalType": "address",
          "name": "owner",
          "type": "address"
        },
        {
          "internalType": "address",
          "name": "spender",
          "type": "address"
        }
      ],
      "name": "allowance",
      "outputs": [
        {
          "internalType": "uint256",
          "name": "",
          "type": "uint256"
        }
      ],
      "payable": false,
      "stateMutability": "view",
      "type": "function"
    },
    {
      "constant": false,
      "inputs": [
        {
          "internalType": "address",
          "name": "spender",
          "type": "address"
        },
        {
          "internalType": "uint256",
          "name": "amount",
          "type": "uint256"
        }
      ],
      "name": "approve",
      "outputs": [
        {
          "internalType": "bool",
          "name": "",
          "type": "bool"
        }
      ],
      "payable": false,
      "stateMutability": "nonpayable",
      "type": "function"
    },
    {
      "constant": true,
      "inputs": [
        {
          "internalType": "address",
          "name": "account",
          "type": "address"
        }
      ],
      "name": "balanceOf",
      "outputs": [
        {
          "internalType": "uint256",
          "name": "",
          "type": "uint256"
        }
      ],
      "payable": false,
      "stateMutability": "view",
      "type": "function"
    },
    {
      "constant": true,
      "inputs": [
        {
          "internalType": "uint256",
          "name": "x_id",
          "type": "uint256"
        },
        {
          "internalType": "uint256",
          "name": "y_id",
          "type": "uint256"
        }
      ],
      "name": "getColor",
      "outputs": [
        {
          "internalType": "uint256",
          "name": "",
          "type": "uint256"
        }
      ],
      "payable": false,
      "stateMutability": "view",
      "type": "function"
    },
    {
      "constant": true,
      "inputs": [
        {
          "internalType": "uint256",
          "name": "_Id",
          "type": "uint256"
        }
      ],
      "name": "getItem",
      "outputs": [
        {
          "internalType": "string",
          "name": "",
          "type": "string"
        },
        {
          "internalType": "uint256",
          "name": "",
          "type": "uint256"
        }
      ],
      "payable": false,
      "stateMutability": "view",
      "type": "function"
    },
    {
      "constant": true,
      "inputs": [],
      "name": "getItemList",
      "outputs": [
        {
          "internalType": "uint256[]",
          "name": "",
          "type": "uint256[]"
        },
        {
          "internalType": "uint256[]",
          "name": "",
          "type": "uint256[]"
        }
      ],
      "payable": false,
      "stateMutability": "view",
      "type": "function"
    },
    {
      "constant": true,
      "inputs": [
        {
          "internalType": "uint256",
          "name": "_Id",
          "type": "uint256"
        }
      ],
      "name": "getItemNum",
      "outputs": [
        {
          "internalType": "uint256",
          "name": "",
          "type": "uint256"
        }
      ],
      "payable": false,
      "stateMutability": "view",
      "type": "function"
    },
    {
      "constant": true,
      "inputs": [
        {
          "internalType": "uint256",
          "name": "x_id",
          "type": "uint256"
        },
        {
          "internalType": "uint256",
          "name": "y_id",
          "type": "uint256"
        }
      ],
      "name": "getProduceGene",
      "outputs": [
        {
          "internalType": "uint256",
          "name": "",
          "type": "uint256"
        }
      ],
      "payable": false,
      "stateMutability": "view",
      "type": "function"
    },
    {
      "constant": true,
      "inputs": [
        {
          "internalType": "uint256",
          "name": "x_id",
          "type": "uint256"
        },
        {
          "internalType": "uint256",
          "name": "y_id",
          "type": "uint256"
        }
      ],
      "name": "getSeedRound",
      "outputs": [
        {
          "internalType": "bool",
          "name": "",
          "type": "bool"
        }
      ],
      "payable": false,
      "stateMutability": "view",
      "type": "function"
    },
    {
      "constant": true,
      "inputs": [
        {
          "internalType": "uint256",
          "name": "x_id",
          "type": "uint256"
        },
        {
          "internalType": "uint256",
          "name": "y_id",
          "type": "uint256"
        }
      ],
      "name": "getSeedYellow",
      "outputs": [
        {
          "internalType": "bool",
          "name": "",
          "type": "bool"
        }
      ],
      "payable": false,
      "stateMutability": "view",
      "type": "function"
    },
    {
      "constant": true,
      "inputs": [
        {
          "internalType": "uint256",
          "name": "x_id",
          "type": "uint256"
        },
        {
          "internalType": "uint256",
          "name": "y_id",
          "type": "uint256"
        }
      ],
      "name": "getSproutHeight",
      "outputs": [
        {
          "internalType": "uint256",
          "name": "",
          "type": "uint256"
        }
      ],
      "payable": false,
      "stateMutability": "view",
      "type": "function"
    },
    {
      "constant": true,
      "inputs": [
        {
          "internalType": "uint256",
          "name": "x_id",
          "type": "uint256"
        },
        {
          "internalType": "uint256",
          "name": "y_id",
          "type": "uint256"
        }
      ],
      "name": "getSproutWidth",
      "outputs": [
        {
          "internalType": "uint256",
          "name": "",
          "type": "uint256"
        }
      ],
      "payable": false,
      "stateMutability": "view",
      "type": "function"
    },
    {
      "constant": true,
      "inputs": [
        {
          "internalType": "uint256",
          "name": "_Id",
          "type": "uint256"
        }
      ],
      "name": "isItemValid",
      "outputs": [
        {
          "internalType": "bool",
          "name": "isValid",
          "type": "bool"
        }
      ],
      "payable": false,
      "stateMutability": "view",
      "type": "function"
    },
    {
      "constant": true,
      "inputs": [],
      "name": "isOwner",
      "outputs": [
        {
          "internalType": "bool",
          "name": "",
          "type": "bool"
        }
      ],
      "payable": false,
      "stateMutability": "view",
      "type": "function"
    },
    {
      "constant": true,
      "inputs": [],
      "name": "owner",
      "outputs": [
        {
          "internalType": "address",
          "name": "",
          "type": "address"
        }
      ],
      "payable": false,
      "stateMutability": "view",
      "type": "function"
    },
    {
      "constant": false,
      "inputs": [
        {
          "internalType": "uint256",
          "name": "x_id",
          "type": "uint256"
        },
        {
          "internalType": "uint256",
          "name": "y_id",
          "type": "uint256"
        }
      ],
      "name": "plugSprout",
      "outputs": [],
      "payable": false,
      "stateMutability": "nonpayable",
      "type": "function"
    },
    {
      "constant": false,
      "inputs": [
        {
          "internalType": "uint256",
          "name": "x_id",
          "type": "uint256"
        },
        {
          "internalType": "uint256",
          "name": "y_id",
          "type": "uint256"
        }
      ],
      "name": "randomAddSprout",
      "outputs": [],
      "payable": false,
      "stateMutability": "nonpayable",
      "type": "function"
    },
    {
      "constant": false,
      "inputs": [],
      "name": "renounceOwnership",
      "outputs": [],
      "payable": false,
      "stateMutability": "nonpayable",
      "type": "function"
    },
    {
      "constant": true,
      "inputs": [],
      "name": "totalSupply",
      "outputs": [
        {
          "internalType": "uint256",
          "name": "",
          "type": "uint256"
        }
      ],
      "payable": false,
      "stateMutability": "view",
      "type": "function"
    },
    {
      "constant": false,
      "inputs": [
        {
          "internalType": "address",
          "name": "_to",
          "type": "address"
        },
        {
          "internalType": "uint256",
          "name": "value",
          "type": "uint256"
        }
      ],
      "name": "transfer",
      "outputs": [
        {
          "internalType": "bool",
          "name": "",
          "type": "bool"
        }
      ],
      "payable": false,
      "stateMutability": "nonpayable",
      "type": "function"
    },
    {
      "constant": false,
      "inputs": [
        {
          "internalType": "address",
          "name": "sender",
          "type": "address"
        },
        {
          "internalType": "address",
          "name": "recipient",
          "type": "address"
        },
        {
          "internalType": "uint256",
          "name": "amount",
          "type": "uint256"
        }
      ],
      "name": "transferFrom",
      "outputs": [
        {
          "internalType": "bool",
          "name": "",
          "type": "bool"
        }
      ],
      "payable": false,
      "stateMutability": "nonpayable",
      "type": "function"
    },
    {
      "constant": false,
      "inputs": [
        {
          "internalType": "address",
          "name": "newOwner",
          "type": "address"
        }
      ],
      "name": "transferOwnership",
      "outputs": [],
      "payable": false,
      "stateMutability": "nonpayable",
      "type": "function"
    },
    {
      "constant": true,
      "inputs": [
        {
          "internalType": "uint256",
          "name": "_Id",
          "type": "uint256"
        }
      ],
      "name": "isProductValid",
      "outputs": [
        {
          "internalType": "bool",
          "name": "isValid",
          "type": "bool"
        }
      ],
      "payable": false,
      "stateMutability": "view",
      "type": "function"
    },
    {
      "constant": true,
      "inputs": [
        {
          "internalType": "uint256",
          "name": "_Id",
          "type": "uint256"
        }
      ],
      "name": "getProduct",
      "outputs": [
        {
          "internalType": "string",
          "name": "",
          "type": "string"
        },
        {
          "internalType": "string",
          "name": "",
          "type": "string"
        },
        {
          "internalType": "uint256",
          "name": "",
          "type": "uint256"
        },
        {
          "internalType": "address",
          "name": "",
          "type": "address"
        }
      ],
      "payable": false,
      "stateMutability": "view",
      "type": "function"
    },
    {
      "constant": true,
      "inputs": [],
      "name": "getProductList",
      "outputs": [
        {
          "internalType": "uint256[]",
          "name": "",
          "type": "uint256[]"
        },
        {
          "internalType": "uint256[]",
          "name": "",
          "type": "uint256[]"
        }
      ],
      "payable": false,
      "stateMutability": "view",
      "type": "function"
    },
    {
      "constant": false,
      "inputs": [
        {
          "internalType": "uint256",
          "name": "id",
          "type": "uint256"
        },
        {
          "internalType": "uint256",
          "name": "num",
          "type": "uint256"
        },
        {
          "internalType": "uint256",
          "name": "value",
          "type": "uint256"
        },
        {
          "internalType": "string",
          "name": "description",
          "type": "string"
        }
      ],
      "name": "sellItem",
      "outputs": [],
      "payable": false,
      "stateMutability": "nonpayable",
      "type": "function"
    }
  ],
  "bytecode": "0x608060405261a8c06001556000600555336000806101000a81548173ffffffffffffffffffffffffffffffffffffffff021916908373ffffffffffffffffffffffffffffffffffffffff1602179055506000809054906101000a900473ffffffffffffffffffffffffffffffffffffffff1673ffffffffffffffffffffffffffffffffffffffff16600073ffffffffffffffffffffffffffffffffffffffff167f8be0079c531659141344cd1fd0a4f28419497f9722a3daafe3b4186f6b6457e060405160405180910390a3614acb806100da6000396000f3fe608060405234801561001057600080fd5b50600436106101cf5760003560e01c8063816bfee611610104578063a9059cbb116100a2578063dd62ed3e11610071578063dd62ed3e14610b70578063eded5d9e14610be8578063eeda149c14610c34578063f2fde38b14610c78576101cf565b8063a9059cbb14610943578063aa7bcc58146109a9578063b9db15b4146109e1578063dbe9383214610b2e576101cf565b80638f32d59b116100de5780638f32d59b1461085757806393fccbb6146108795780639598a5b1146108c5578063990e74691461090b576101cf565b8063816bfee6146107895780638da5cb5b146107d55780638e96b4f71461081f576101cf565b806334d2c0ad1161017157806370a082311161014b57806370a0823114610699578063715018a6146106f157806374020033146106fb5780637729166d14610747576101cf565b806334d2c0ad1461055257806343518447146105f957806359ca683c14610649576101cf565b806323b872dd116101ad57806323b872dd146102ff5780632639769f146103855780632afef696146103cb5780633129e773146104a4576101cf565b8063063b2e5b146101d4578063095ea7b31461027b57806318160ddd146102e1575b600080fd5b6101dc610cbc565b604051808060200180602001838103835285818151815260200191508051906020019060200280838360005b83811015610223578082015181840152602081019050610208565b50505050905001838103825284818151815260200191508051906020019060200280838360005b8381101561026557808201518184015260208101905061024a565b5050505090500194505050505060405180910390f35b6102c76004803603604081101561029157600080fd5b81019080803573ffffffffffffffffffffffffffffffffffffffff16906020019092919080359060200190929190505050610e0b565b604051808215151515815260200191505060405180910390f35b6102e9610e22565b6040518082815260200191505060405180910390f35b61036b6004803603606081101561031557600080fd5b81019080803573ffffffffffffffffffffffffffffffffffffffff169060200190929190803573ffffffffffffffffffffffffffffffffffffffff16906020019092919080359060200190929190505050610e2c565b604051808215151515815260200191505060405180910390f35b6103b16004803603602081101561039b57600080fd5b8101908080359060200190929190505050610edd565b604051808215151515815260200191505060405180910390f35b6104a2600480360360808110156103e157600080fd5b810190808035906020019092919080359060200190929190803590602001909291908035906020019064010000000081111561041c57600080fd5b82018360208201111561042e57600080fd5b8035906020019184600183028401116401000000008311171561045057600080fd5b91908080601f016020809104026020016040519081016040528093929190818152602001838380828437600081840152601f19601f820116905080830192505050505050509192919290505050610f4f565b005b6104d0600480360360208110156104ba57600080fd5b81019080803590602001909291905050506112b4565b6040518080602001838152602001828103825284818151815260200191508051906020019080838360005b838110156105165780820151818401526020810190506104fb565b50505050905090810190601f1680156105435780820380516001836020036101000a031916815260200191505b50935050505060405180910390f35b61055a611491565b604051808060200180602001838103835285818151815260200191508051906020019060200280838360005b838110156105a1578082015181840152602081019050610586565b50505050905001838103825284818151815260200191508051906020019060200280838360005b838110156105e35780820151818401526020810190506105c8565b5050505090500194505050505060405180910390f35b61062f6004803603604081101561060f57600080fd5b8101908080359060200190929190803590602001909291905050506115e0565b604051808215151515815260200191505060405180910390f35b61067f6004803603604081101561065f57600080fd5b81019080803590602001909291908035906020019092919050505061173f565b604051808215151515815260200191505060405180910390f35b6106db600480360360208110156106af57600080fd5b81019080803573ffffffffffffffffffffffffffffffffffffffff16906020019092919050505061189e565b6040518082815260200191505060405180910390f35b6106f96118e7565b005b6107316004803603604081101561071157600080fd5b8101908080359060200190929190803590602001909291905050506119b7565b6040518082815260200191505060405180910390f35b6107876004803603606081101561075d57600080fd5b81019080803590602001909291908035906020019092919080359060200190929190505050611bdd565b005b6107bf6004803603604081101561079f57600080fd5b81019080803590602001909291908035906020019092919050505061213a565b6040518082815260200191505060405180910390f35b6107dd61228c565b604051808273ffffffffffffffffffffffffffffffffffffffff1673ffffffffffffffffffffffffffffffffffffffff16815260200191505060405180910390f35b6108556004803603604081101561083557600080fd5b8101908080359060200190929190803590602001909291905050506122b5565b005b61085f6125f0565b604051808215151515815260200191505060405180910390f35b6108af6004803603604081101561088f57600080fd5b810190808035906020019092919080359060200190929190505050612647565b6040518082815260200191505060405180910390f35b6108f1600480360360208110156108db57600080fd5b810190808035906020019092919050505061286d565b604051808215151515815260200191505060405180910390f35b6109416004803603604081101561092157600080fd5b8101908080359060200190929190803590602001909291905050506128a2565b005b61098f6004803603604081101561095957600080fd5b81019080803573ffffffffffffffffffffffffffffffffffffffff16906020019092919080359060200190929190505050612bb3565b604051808215151515815260200191505060405180910390f35b6109df600480360360408110156109bf57600080fd5b810190808035906020019092919080359060200190929190505050612bca565b005b610a0d600480360360208110156109f757600080fd5b8101908080359060200190929190505050612d76565b6040518080602001806020018581526020018473ffffffffffffffffffffffffffffffffffffffff1673ffffffffffffffffffffffffffffffffffffffff168152602001838103835287818151815260200191508051906020019080838360005b83811015610a89578082015181840152602081019050610a6e565b50505050905090810190601f168015610ab65780820380516001836020036101000a031916815260200191505b50838103825286818151815260200191508051906020019080838360005b83811015610aef578082015181840152602081019050610ad4565b50505050905090810190601f168015610b1c5780820380516001836020036101000a031916815260200191505b50965050505050505060405180910390f35b610b5a60048036036020811015610b4457600080fd5b8101908080359060200190929190505050612fda565b6040518082815260200191505060405180910390f35b610bd260048036036040811015610b8657600080fd5b81019080803573ffffffffffffffffffffffffffffffffffffffff169060200190929190803573ffffffffffffffffffffffffffffffffffffffff16906020019092919050505061303f565b6040518082815260200191505060405180910390f35b610c1e60048036036040811015610bfe57600080fd5b8101908080359060200190929190803590602001909291905050506130c6565b6040518082815260200191505060405180910390f35b610c7660048036036020811015610c4a57600080fd5b81019080803573ffffffffffffffffffffffffffffffffffffffff169060200190929190505050613218565b005b610cba60048036036020811015610c8e57600080fd5b81019080803573ffffffffffffffffffffffffffffffffffffffff1690602001909291905050506132d5565b005b60608060006060610ccb6132f2565b8093508192505050606082604051908082528060200260200182016040528015610d045781602001602082028038833980820191505090505b509050606083604051908082528060200260200182016040528015610d385781602001602082028038833980820191505090505b50905060008090505b84811015610dfc576000848281518110610d5757fe5b6020026020010151905080848381518110610d6e57fe5b602002602001018181525050600660003373ffffffffffffffffffffffffffffffffffffffff1673ffffffffffffffffffffffffffffffffffffffff1681526020019081526020016000208181548110610dc457fe5b906000526020600020906007020160010154838381518110610de257fe5b602002602001018181525050508080600101915050610d41565b50818195509550505050509091565b6000610e1833848461340b565b6001905092915050565b6000600554905090565b6000610e39848484613602565b610ed28433610ecd85600460008a73ffffffffffffffffffffffffffffffffffffffff1673ffffffffffffffffffffffffffffffffffffffff16815260200190815260200160002060003373ffffffffffffffffffffffffffffffffffffffff1673ffffffffffffffffffffffffffffffffffffffff168152602001908152602001600020546138bd90919063ffffffff16565b61340b565b600190509392505050565b6000600660003373ffffffffffffffffffffffffffffffffffffffff1673ffffffffffffffffffffffffffffffffffffffff1681526020019081526020016000208281548110610f2957fe5b906000526020600020906007020160060160009054906101000a900460ff169050919050565b610f5884612fda565b831115610fcd576040517f08c379a000000000000000000000000000000000000000000000000000000000815260040180806020018281038252600f8152602001807f6e6f7420656e6f756768206974656d000000000000000000000000000000000081525060200191505060405180910390fd5b610fd56147f6565b6040518060e00160405280600660003373ffffffffffffffffffffffffffffffffffffffff1673ffffffffffffffffffffffffffffffffffffffff168152602001908152602001600020878154811061102a57fe5b90600052602060002090600702016000018054600181600116156101000203166002900480601f0160208091040260200160405190810160405280929190818152602001828054600181600116156101000203166002900480156110cf5780601f106110a4576101008083540402835291602001916110cf565b820191906000526020600020905b8154815290600101906020018083116110b257829003601f168201915b505050505081526020018381526020018481526020018581526020018681526020013373ffffffffffffffffffffffffffffffffffffffff1681526020016001151581525090506000600160078390806001815401808255809150509060018203906000526020600020906006020160009091929091909150600082015181600001908051906020019061116492919061484b565b50602082015181600101908051906020019061118192919061484b565b5060408201518160020155606082015181600301556080820151816004015560a08201518160050160006101000a81548173ffffffffffffffffffffffffffffffffffffffff021916908373ffffffffffffffffffffffffffffffffffffffff16021790555060c08201518160050160146101000a81548160ff021916908315150217905550505003905084600660003373ffffffffffffffffffffffffffffffffffffffff1673ffffffffffffffffffffffffffffffffffffffff168152602001908152602001600020878154811061125757fe5b9060005260206000209060070201600101600082825403925050819055507f7dadbee5e0e322e9ed526f94e12bd3eb8c51d672cdcac86af19b3af7af05fd55816040518082815260200191505060405180910390a1505050505050565b60606000826112c281610edd565b611334576040517f08c379a000000000000000000000000000000000000000000000000000000000815260040180806020018281038252601a8152602001807f6974656d206d7573742062652076616c696420746f2063616c6c00000000000081525060200191505060405180910390fd5b600660003373ffffffffffffffffffffffffffffffffffffffff1673ffffffffffffffffffffffffffffffffffffffff168152602001908152602001600020848154811061137e57fe5b9060005260206000209060070201600001600660003373ffffffffffffffffffffffffffffffffffffffff1673ffffffffffffffffffffffffffffffffffffffff16815260200190815260200160002085815481106113d957fe5b906000526020600020906007020160010154818054600181600116156101000203166002900480601f0160208091040260200160405190810160405280929190818152602001828054600181600116156101000203166002900480156114805780601f1061145557610100808354040283529160200191611480565b820191906000526020600020905b81548152906001019060200180831161146357829003601f168201915b505050505091509250925050915091565b606080600060606114a06138d4565b80935081925050506060826040519080825280602002602001820160405280156114d95781602001602082028038833980820191505090505b50905060608360405190808252806020026020018201604052801561150d5781602001602082028038833980820191505090505b50905060008090505b848110156115d157600084828151811061152c57fe5b602002602001015190508084838151811061154357fe5b602002602001018181525050600660003373ffffffffffffffffffffffffffffffffffffffff1673ffffffffffffffffffffffffffffffffffffffff168152602001908152602001600020818154811061159957fe5b9060005260206000209060070201600101548383815181106115b757fe5b602002602001018181525050508080600101915050611516565b50818195509550505050509091565b60008282600260003373ffffffffffffffffffffffffffffffffffffffff1673ffffffffffffffffffffffffffffffffffffffff168152602001908152602001600020826005811061162e57fe5b60370201816005811061163d57fe5b600b020160040160009054906101000a900460ff166116c4576040517f08c379a000000000000000000000000000000000000000000000000000000000815260040180806020018281038252601d8152602001807f6c6f636174696f6e20646f6573206e6f742068617665207370726f757400000081525060200191505060405180910390fd5b600260003373ffffffffffffffffffffffffffffffffffffffff1673ffffffffffffffffffffffffffffffffffffffff168152602001908152602001600020856005811061170e57fe5b60370201846005811061171d57fe5b600b020160050160050160019054906101000a900460ff169250505092915050565b60008282600260003373ffffffffffffffffffffffffffffffffffffffff1673ffffffffffffffffffffffffffffffffffffffff168152602001908152602001600020826005811061178d57fe5b60370201816005811061179c57fe5b600b020160040160009054906101000a900460ff16611823576040517f08c379a000000000000000000000000000000000000000000000000000000000815260040180806020018281038252601d8152602001807f6c6f636174696f6e20646f6573206e6f742068617665207370726f757400000081525060200191505060405180910390fd5b600260003373ffffffffffffffffffffffffffffffffffffffff1673ffffffffffffffffffffffffffffffffffffffff168152602001908152602001600020856005811061186d57fe5b60370201846005811061187c57fe5b600b020160050160050160019054906101000a900460ff169250505092915050565b6000600360008373ffffffffffffffffffffffffffffffffffffffff1673ffffffffffffffffffffffffffffffffffffffff168152602001908152602001600020549050919050565b6118ef6125f0565b6118f857600080fd5b600073ffffffffffffffffffffffffffffffffffffffff166000809054906101000a900473ffffffffffffffffffffffffffffffffffffffff1673ffffffffffffffffffffffffffffffffffffffff167f8be0079c531659141344cd1fd0a4f28419497f9722a3daafe3b4186f6b6457e060405160405180910390a360008060006101000a81548173ffffffffffffffffffffffffffffffffffffffff021916908373ffffffffffffffffffffffffffffffffffffffff160217905550565b60008282600260003373ffffffffffffffffffffffffffffffffffffffff1673ffffffffffffffffffffffffffffffffffffffff1681526020019081526020016000208260058110611a0557fe5b603702018160058110611a1457fe5b600b020160040160009054906101000a900460ff16611a9b576040517f08c379a000000000000000000000000000000000000000000000000000000000815260040180806020018281038252601d8152602001807f6c6f636174696f6e20646f6573206e6f742068617665207370726f757400000081525060200191505060405180910390fd5b6000611ab9611aaa8787613973565b426138bd90919063ffffffff16565b90506000611ac787876139de565b90506000611ad58888613a4c565b905081831115611b5c57611af3601483613aba90919063ffffffff16565b611b0683856138bd90919063ffffffff16565b1015611b5057611b466078611b38603c611b2a607886613ad390919063ffffffff16565b613aef90919063ffffffff16565b613aba90919063ffffffff16565b9550505050611bd5565b60009550505050611bd5565b6000831415611b715760009550505050611bd5565b611bcf83611bc16078611bb386611ba5603c611b9760788a613ad390919063ffffffff16565b613aef90919063ffffffff16565b613aef90919063ffffffff16565b613aba90919063ffffffff16565b613aba90919063ffffffff16565b95505050505b505092915050565b80611be781610edd565b611c59576040517f08c379a000000000000000000000000000000000000000000000000000000000815260040180806020018281038252601a8152602001807f6974656d206d7573742062652076616c696420746f2063616c6c00000000000081525060200191505060405180910390fd5b816000600660003373ffffffffffffffffffffffffffffffffffffffff1673ffffffffffffffffffffffffffffffffffffffff1681526020019081526020016000208281548110611ca657fe5b90600052602060002090600702016000016040516020018082805460018160011615610100020316600290048015611d155780601f10611cf3576101008083540402835291820191611d15565b820191906000526020600020905b815481529060010190602001808311611d01575b50509150506040516020818303038152906040528051906020012060001c9050600060405160200180807f736565640000000000000000000000000000000000000000000000000000000081525060040190506040516020818303038152906040528051906020012060001c9050808214611df8576040517f08c379a000000000000000000000000000000000000000000000000000000000815260040180806020018281038252600f8152602001807f6e6f7420612073656564206974656d000000000000000000000000000000000081525060200191505060405180910390fd5b6000424460405160200180838152602001828152602001925050506040516020818303038152906040528051906020012060001c90506000444260405160200180838152602001828152602001925050506040516020818303038152906040528051906020012060001c90506000600660003373ffffffffffffffffffffffffffffffffffffffff1673ffffffffffffffffffffffffffffffffffffffff1681526020019081526020016000208881548110611eb057fe5b9060005260206000209060070201600201600060048110611ecd57fe5b015483169050611f51600660003373ffffffffffffffffffffffffffffffffffffffff1673ffffffffffffffffffffffffffffffffffffffff1681526020019081526020016000208981548110611f2057fe5b9060005260206000209060070201600201600160048110611f3d57fe5b015484191682613ad390919063ffffffff16565b90506000600660003373ffffffffffffffffffffffffffffffffffffffff1673ffffffffffffffffffffffffffffffffffffffff1681526020019081526020016000208981548110611f9f57fe5b9060005260206000209060070201600201600260048110611fbc57fe5b015483169050612040600660003373ffffffffffffffffffffffffffffffffffffffff1673ffffffffffffffffffffffffffffffffffffffff1681526020019081526020016000208a8154811061200f57fe5b906000526020600020906007020160020160036004811061202c57fe5b015484191682613ad390919063ffffffff16565b905061204e8b8b8484613b26565b6001600660003373ffffffffffffffffffffffffffffffffffffffff1673ffffffffffffffffffffffffffffffffffffffff1681526020019081526020016000208a8154811061209a57fe5b90600052602060002090600702016001015414156120c0576120bb896141ba565b61212d565b600660003373ffffffffffffffffffffffffffffffffffffffff1673ffffffffffffffffffffffffffffffffffffffff168152602001908152602001600020898154811061210a57fe5b906000526020600020906007020160010160008154809291906001900391905055505b5050505050505050505050565b60008282600260003373ffffffffffffffffffffffffffffffffffffffff1673ffffffffffffffffffffffffffffffffffffffff168152602001908152602001600020826005811061218857fe5b60370201816005811061219757fe5b600b020160040160009054906101000a900460ff1661221e576040517f08c379a000000000000000000000000000000000000000000000000000000000815260040180806020018281038252601d8152602001807f6c6f636174696f6e20646f6573206e6f742068617665207370726f757400000081525060200191505060405180910390fd5b600260003373ffffffffffffffffffffffffffffffffffffffff1673ffffffffffffffffffffffffffffffffffffffff168152602001908152602001600020856005811061226857fe5b60370201846005811061227757fe5b600b0201600501600401549250505092915050565b60008060009054906101000a900473ffffffffffffffffffffffffffffffffffffffff16905090565b818160006122d56122c68484613973565b426138bd90919063ffffffff16565b905060006122e384846139de565b905061230c60646122fe606584613aef90919063ffffffff16565b613aba90919063ffffffff16565b8211612380576040517f08c379a00000000000000000000000000000000000000000000000000000000081526004018080602001828103825260178152602001807f746f6f206561726c7920746f206861766520736565647300000000000000000081525060200191505060405180910390fd5b600260003373ffffffffffffffffffffffffffffffffffffffff1673ffffffffffffffffffffffffffffffffffffffff16815260200190815260200160002084600581106123ca57fe5b6037020183600581106123d957fe5b600b020160040160019054906101000a900460ff1615612461576040517f08c379a000000000000000000000000000000000000000000000000000000000815260040180806020018281038252601e8152602001807f7468652073656564732061726520616c726561647920706c75676765642e000081525060200191505060405180910390fd5b6001600260003373ffffffffffffffffffffffffffffffffffffffff1673ffffffffffffffffffffffffffffffffffffffff16815260200190815260200160002087600581106124ad57fe5b6037020186600581106124bc57fe5b600b020160040160016101000a81548160ff0219169083151502179055506000600260003373ffffffffffffffffffffffffffffffffffffffff1673ffffffffffffffffffffffffffffffffffffffff168152602001908152602001600020876005811061252657fe5b60370201866005811061253557fe5b600b02016000015490506000600260003373ffffffffffffffffffffffffffffffffffffffff1673ffffffffffffffffffffffffffffffffffffffff168152602001908152602001600020886005811061258b57fe5b60370201876005811061259a57fe5b600b020160010154905060006125d6600a6125c860026125ba8d8d61213a565b613aba90919063ffffffff16565b613ad390919063ffffffff16565b90506125e581848486866142e5565b505050505050505050565b60008060009054906101000a900473ffffffffffffffffffffffffffffffffffffffff1673ffffffffffffffffffffffffffffffffffffffff163373ffffffffffffffffffffffffffffffffffffffff1614905090565b60008282600260003373ffffffffffffffffffffffffffffffffffffffff1673ffffffffffffffffffffffffffffffffffffffff168152602001908152602001600020826005811061269557fe5b6037020181600581106126a457fe5b600b020160040160009054906101000a900460ff1661272b576040517f08c379a000000000000000000000000000000000000000000000000000000000815260040180806020018281038252601d8152602001807f6c6f636174696f6e20646f6573206e6f742068617665207370726f757400000081525060200191505060405180910390fd5b600061274961273a8787613973565b426138bd90919063ffffffff16565b9050600061275787876139de565b905060006127658888614487565b9050818311156127ec57612783601483613aba90919063ffffffff16565b61279683856138bd90919063ffffffff16565b10156127e0576127d6600f6127c860056127ba600f86613ad390919063ffffffff16565b613aef90919063ffffffff16565b613aba90919063ffffffff16565b9550505050612865565b60009550505050612865565b60008314156128015760009550505050612865565b61285f83612851600f612843866128356005612827600f8a613ad390919063ffffffff16565b613aef90919063ffffffff16565b613aef90919063ffffffff16565b613aba90919063ffffffff16565b613aba90919063ffffffff16565b95505050505b505092915050565b60006007828154811061287c57fe5b906000526020600020906006020160050160149054906101000a900460ff169050919050565b8181600260003373ffffffffffffffffffffffffffffffffffffffff1673ffffffffffffffffffffffffffffffffffffffff16815260200190815260200160002082600581106128ee57fe5b6037020181600581106128fd57fe5b600b020160040160009054906101000a900460ff16612984576040517f08c379a000000000000000000000000000000000000000000000000000000000815260040180806020018281038252601d8152602001807f6c6f636174696f6e20646f6573206e6f742068617665207370726f757400000081525060200191505060405180910390fd5b60006129a26129938686613973565b426138bd90919063ffffffff16565b905060006129b086866139de565b905060006129be8787612647565b905060006129cc88886119b7565b905060006129de858584868d8d6144f5565b905060011515600260003373ffffffffffffffffffffffffffffffffffffffff1673ffffffffffffffffffffffffffffffffffffffff1681526020019081526020016000208a60058110612a2e57fe5b603702018960058110612a3d57fe5b600b020160040160009054906101000a900460ff1615151415612b69576000600260003373ffffffffffffffffffffffffffffffffffffffff1673ffffffffffffffffffffffffffffffffffffffff1681526020019081526020016000208a60058110612aa657fe5b603702018960058110612ab557fe5b600b020160040160006101000a81548160ff021916908315150217905550612b2581600360003373ffffffffffffffffffffffffffffffffffffffff1673ffffffffffffffffffffffffffffffffffffffff16815260200190815260200160002054613ad390919063ffffffff16565b600360003373ffffffffffffffffffffffffffffffffffffffff1673ffffffffffffffffffffffffffffffffffffffff168152602001908152602001600020819055505b7fef9514e76636c86a9084470f65495ff78258053cada18c62136f204ff2f0daa28989604051808381526020018281526020019250505060405180910390a1505050505050505050565b6000612bc0338484613602565b6001905092915050565b6064600360003373ffffffffffffffffffffffffffffffffffffffff1673ffffffffffffffffffffffffffffffffffffffff1681526020019081526020016000205411612c62576040517f08c379a0000000000000000000000000000000000000000000000000000000008152600401808060200182810382526023815260200180614a2b6023913960400191505060405180910390fd5b6000424460405160200180838152602001828152602001925050506040516020818303038152906040528051906020012060001c90506000444260405160200180838152602001828152602001925050506040516020818303038152906040528051906020012060001c9050612cda84848484613b26565b612d2d6064600360003373ffffffffffffffffffffffffffffffffffffffff1673ffffffffffffffffffffffffffffffffffffffff168152602001908152602001600020546138bd90919063ffffffff16565b600360003373ffffffffffffffffffffffffffffffffffffffff1673ffffffffffffffffffffffffffffffffffffffff1681526020019081526020016000208190555050505050565b60608060008084612d868161286d565b612df8576040517f08c379a000000000000000000000000000000000000000000000000000000000815260040180806020018281038252601a8152602001807f6974656d206d7573742062652076616c696420746f2063616c6c00000000000081525060200191505060405180910390fd5b60078681548110612e0557fe5b906000526020600020906006020160000160078781548110612e2357fe5b906000526020600020906006020160010160078881548110612e4157fe5b90600052602060002090600602016003015460078981548110612e6057fe5b906000526020600020906006020160050160009054906101000a900473ffffffffffffffffffffffffffffffffffffffff16838054600181600116156101000203166002900480601f016020809104026020016040519081016040528092919081815260200182805460018160011615610100020316600290048015612f275780601f10612efc57610100808354040283529160200191612f27565b820191906000526020600020905b815481529060010190602001808311612f0a57829003601f168201915b50505050509350828054600181600116156101000203166002900480601f016020809104026020016040519081016040528092919081815260200182805460018160011615610100020316600290048015612fc35780601f10612f9857610100808354040283529160200191612fc3565b820191906000526020600020905b815481529060010190602001808311612fa657829003601f168201915b505050505092509450945094509450509193509193565b6000600660003373ffffffffffffffffffffffffffffffffffffffff1673ffffffffffffffffffffffffffffffffffffffff168152602001908152602001600020828154811061302657fe5b9060005260206000209060070201600101549050919050565b6000600460008473ffffffffffffffffffffffffffffffffffffffff1673ffffffffffffffffffffffffffffffffffffffff16815260200190815260200160002060008373ffffffffffffffffffffffffffffffffffffffff1673ffffffffffffffffffffffffffffffffffffffff16815260200190815260200160002054905092915050565b60008282600260003373ffffffffffffffffffffffffffffffffffffffff1673ffffffffffffffffffffffffffffffffffffffff168152602001908152602001600020826005811061311457fe5b60370201816005811061312357fe5b600b020160040160009054906101000a900460ff166131aa576040517f08c379a000000000000000000000000000000000000000000000000000000000815260040180806020018281038252601d8152602001807f6c6f636174696f6e20646f6573206e6f742068617665207370726f757400000081525060200191505060405180910390fd5b600260003373ffffffffffffffffffffffffffffffffffffffff1673ffffffffffffffffffffffffffffffffffffffff16815260200190815260200160002085600581106131f457fe5b60370201846005811061320357fe5b600b0201600501600201549250505092915050565b6132206125f0565b61322957600080fd5b6103e8600360008373ffffffffffffffffffffffffffffffffffffffff1673ffffffffffffffffffffffffffffffffffffffff168152602001908152602001600020819055507f827446e550fe5bfd75ca44888adfeafa8fe5b5ea548deabda1ed8f5c08f2cf2281604051808273ffffffffffffffffffffffffffffffffffffffff1673ffffffffffffffffffffffffffffffffffffffff16815260200191505060405180910390a150565b6132dd6125f0565b6132e657600080fd5b6132ef816146ed565b50565b606060006060600660003373ffffffffffffffffffffffffffffffffffffffff1673ffffffffffffffffffffffffffffffffffffffff168152602001908152602001600020805490506040519080825280602002602001820160405280156133695781602001602082028038833980820191505090505b509050600080905060008090505b600660003373ffffffffffffffffffffffffffffffffffffffff1673ffffffffffffffffffffffffffffffffffffffff168152602001908152602001600020805490508110156133fe576133ca81610edd565b156133f157808383815181106133dc57fe5b60200260200101818152505081806001019250505b8080600101915050613377565b5081819350935050509091565b600073ffffffffffffffffffffffffffffffffffffffff168373ffffffffffffffffffffffffffffffffffffffff161415613491576040517f08c379a0000000000000000000000000000000000000000000000000000000008152600401808060200182810382526024815260200180614a736024913960400191505060405180910390fd5b600073ffffffffffffffffffffffffffffffffffffffff168273ffffffffffffffffffffffffffffffffffffffff161415613517576040517f08c379a0000000000000000000000000000000000000000000000000000000008152600401808060200182810382526022815260200180614a096022913960400191505060405180910390fd5b80600460008573ffffffffffffffffffffffffffffffffffffffff1673ffffffffffffffffffffffffffffffffffffffff16815260200190815260200160002060008473ffffffffffffffffffffffffffffffffffffffff1673ffffffffffffffffffffffffffffffffffffffff168152602001908152602001600020819055508173ffffffffffffffffffffffffffffffffffffffff168373ffffffffffffffffffffffffffffffffffffffff167f8c5be1e5ebec7d5bd14f71427d1e84f3dd0314c0f7b2291e5b200ac8c7c3b925836040518082815260200191505060405180910390a3505050565b600073ffffffffffffffffffffffffffffffffffffffff168373ffffffffffffffffffffffffffffffffffffffff161415613688576040517f08c379a0000000000000000000000000000000000000000000000000000000008152600401808060200182810382526025815260200180614a4e6025913960400191505060405180910390fd5b600073ffffffffffffffffffffffffffffffffffffffff168273ffffffffffffffffffffffffffffffffffffffff16141561370e576040517f08c379a00000000000000000000000000000000000000000000000000000000081526004018080602001828103825260238152602001806149e66023913960400191505060405180910390fd5b61376081600360008673ffffffffffffffffffffffffffffffffffffffff1673ffffffffffffffffffffffffffffffffffffffff168152602001908152602001600020546138bd90919063ffffffff16565b600360008573ffffffffffffffffffffffffffffffffffffffff1673ffffffffffffffffffffffffffffffffffffffff168152602001908152602001600020819055506137f581600360008573ffffffffffffffffffffffffffffffffffffffff1673ffffffffffffffffffffffffffffffffffffffff16815260200190815260200160002054613ad390919063ffffffff16565b600360008473ffffffffffffffffffffffffffffffffffffffff1673ffffffffffffffffffffffffffffffffffffffff1681526020019081526020016000208190555061384d81600554613ad390919063ffffffff16565b6005819055508173ffffffffffffffffffffffffffffffffffffffff168373ffffffffffffffffffffffffffffffffffffffff167fddf252ad1be2c89b69c2b068fc378daa952ba7f163c4a11628f55a4df523b3ef836040518082815260200191505060405180910390a3505050565b6000828211156138c957fe5b818303905092915050565b60606000606060078054905060405190808252806020026020018201604052801561390e5781602001602082028038833980820191505090505b509050600080905060008090505b600780549050811015613966576139328161286d565b15613959578083838151811061394457fe5b60200260200101818152505081806001019250505b808060010191505061391c565b5081819350935050509091565b6000600260003373ffffffffffffffffffffffffffffffffffffffff1673ffffffffffffffffffffffffffffffffffffffff16815260200190815260200160002083600581106139bf57fe5b6037020182600581106139ce57fe5b600b020160020154905092915050565b6000600260003373ffffffffffffffffffffffffffffffffffffffff1673ffffffffffffffffffffffffffffffffffffffff1681526020019081526020016000208360058110613a2a57fe5b603702018260058110613a3957fe5b600b020160050160030154905092915050565b6000600260003373ffffffffffffffffffffffffffffffffffffffff1673ffffffffffffffffffffffffffffffffffffffff1681526020019081526020016000208360058110613a9857fe5b603702018260058110613aa757fe5b600b020160050160000154905092915050565b600080828481613ac657fe5b0490508091505092915050565b600080828401905083811015613ae557fe5b8091505092915050565b600080831415613b025760009050613b20565b6000828402905082848281613b1357fe5b0414613b1b57fe5b809150505b92915050565b60001515600260003373ffffffffffffffffffffffffffffffffffffffff1673ffffffffffffffffffffffffffffffffffffffff1681526020019081526020016000208560058110613b7457fe5b603702018460058110613b8357fe5b600b020160040160009054906101000a900460ff16151514613ba457600080fd5b613c09600260003373ffffffffffffffffffffffffffffffffffffffff1673ffffffffffffffffffffffffffffffffffffffff1681526020019081526020016000208560058110613bf157fe5b603702018460058110613c0057fe5b600b02016147e5565b613c1257600080fd5b613c1a6148cb565b6040518060e001604052806000815260200160008152602001600081526020016000815260200160008152602001600015158152602001600015158152509050600083905060008390506000600160028381613c7257fe5b0660028581613c7d57fe5b0617148460a0019015159081151581525050600183901c9250600182901c9150600160028381613ca957fe5b0660028581613cb457fe5b0617148460c00190151590811515815250506000600290505b6029811015613d5b57600160028581613ce257fe5b061415613d0b57613d0160018660400151613ad390919063ffffffff16565b8560400181815250505b600160028481613d1757fe5b061415613d4057613d3660018660400151613ad390919063ffffffff16565b8560400181815250505b600184901c9350600183901c92508080600101915050613ccd565b506000602990505b6065811015613df157600160028581613d7857fe5b061415613da157613d9760018660200151613ad390919063ffffffff16565b8560200181815250505b600160028481613dad57fe5b061415613dd657613dcc60018660200151613ad390919063ffffffff16565b8560200181815250505b600184901c9350600183901c92508080600101915050613d63565b506000606590505b60a1811015613e8757600160028581613e0e57fe5b061415613e3757613e2d60018660000151613ad390919063ffffffff16565b8560000181815250505b600160028481613e4357fe5b061415613e6c57613e6260018660000151613ad390919063ffffffff16565b8560000181815250505b600184901c9350600183901c92508080600101915050613df9565b50600060a190505b60c9811015613f1d57600160028581613ea457fe5b061415613ecd57613ec360018660800151613ad390919063ffffffff16565b8560800181815250505b600160028481613ed957fe5b061415613f0257613ef860018660800151613ad390919063ffffffff16565b8560800181815250505b600184901c9350600183901c92508080600101915050613e8f565b50600060c990505b610100811015613f9e57600160028581613f3b57fe5b061415613f5957613f56600183613ad390919063ffffffff16565b91505b600160028481613f6557fe5b061415613f8357613f80600183613ad390919063ffffffff16565b91505b600184901c9350600183901c92508080600101915050613f25565b506201518060be613fcc6002613fbe600386613aef90919063ffffffff16565b613aba90919063ffffffff16565b61017c0381613fd757fe5b04028460600181815250506040518060e001604052808781526020018681526020014281526020016000815260200160011515815260200160001515815260200185815250600260003373ffffffffffffffffffffffffffffffffffffffff1673ffffffffffffffffffffffffffffffffffffffff168152602001908152602001600020896005811061406657fe5b60370201886005811061407557fe5b600b02016000820151816000015560208201518160010155604082015181600201556060820151816003015560808201518160040160006101000a81548160ff02191690831515021790555060a08201518160040160016101000a81548160ff02191690831515021790555060c082015181600501600082015181600001556020820151816001015560408201518160020155606082015181600301556080820151816004015560a08201518160050160006101000a81548160ff02191690831515021790555060c08201518160050160016101000a81548160ff02191690831515021790555050509050507f29673a2c4180cee02675c1aeac3253f75b8a067246770a77b079d48c92248cbd888888886040518085815260200184815260200183815260200182815260200194505050505060405180910390a15050505050505050565b806141c481610edd565b614236576040517f08c379a000000000000000000000000000000000000000000000000000000000815260040180806020018281038252601a8152602001807f6974656d206d7573742062652076616c696420746f2063616c6c00000000000081525060200191505060405180910390fd5b6000600660003373ffffffffffffffffffffffffffffffffffffffff1673ffffffffffffffffffffffffffffffffffffffff168152602001908152602001600020838154811061428257fe5b906000526020600020906007020160060160006101000a81548160ff0219169083151502179055507f04db484cca74d7317df830807409b645213719e2ca21de1d9b1eee1ab4c68018826040518082815260200191505060405180910390a15050565b6142ed61490c565b604051806080016040528086815260200185815260200184815260200183815250905061431861492e565b60405180608001604052806040518060400160405280600481526020017f7365656400000000000000000000000000000000000000000000000000000000815250815260200188815260200183815260200160011515815250905060006001600660003373ffffffffffffffffffffffffffffffffffffffff1673ffffffffffffffffffffffffffffffffffffffff168152602001908152602001600020839080600181540180825580915050906001820390600052602060002090600702016000909192909190915060008201518160000190805190602001906143fe92919061484b565b506020820151816001015560408201518160020190600461442092919061495e565b5060608201518160060160006101000a81548160ff02191690831515021790555050500390507f9d988e03406844e4f4570c5b73a65bcd79fdd6f1bf564656ae99e23328ef2c0e816040518082815260200191505060405180910390a15050505050505050565b6000600260003373ffffffffffffffffffffffffffffffffffffffff1673ffffffffffffffffffffffffffffffffffffffff16815260200190815260200160002083600581106144d357fe5b6037020182600581106144e257fe5b600b020160050160010154905092915050565b60008282600260003373ffffffffffffffffffffffffffffffffffffffff1673ffffffffffffffffffffffffffffffffffffffff168152602001908152602001600020826005811061454357fe5b60370201816005811061455257fe5b600b020160040160009054906101000a900460ff166145d9576040517f08c379a000000000000000000000000000000000000000000000000000000000815260040180806020018281038252601d8152602001807f6c6f636174696f6e20646f6573206e6f742068617665207370726f757400000081525060200191505060405180910390fd5b60006145e586866130c6565b905060006145f3878761173f565b9050600061460188886115e0565b90508a8c11156146505761461f60148c613aba90919063ffffffff16565b6146328c8e6138bd90919063ffffffff16565b101561464457600595505050506146e1565b600095505050506146e1565b60008c141561466557600295505050506146e1565b600061469f61467e600a86613aba90919063ffffffff16565b6146918c8e613aef90919063ffffffff16565b6138bd90919063ffffffff16565b905081156146bd576146bb600582613ad390919063ffffffff16565b505b82156146d9576146d7600582613ad390919063ffffffff16565b505b809650505050505b50509695505050505050565b600073ffffffffffffffffffffffffffffffffffffffff168173ffffffffffffffffffffffffffffffffffffffff16141561472757600080fd5b8073ffffffffffffffffffffffffffffffffffffffff166000809054906101000a900473ffffffffffffffffffffffffffffffffffffffff1673ffffffffffffffffffffffffffffffffffffffff167f8be0079c531659141344cd1fd0a4f28419497f9722a3daafe3b4186f6b6457e060405160405180910390a3806000806101000a81548173ffffffffffffffffffffffffffffffffffffffff021916908373ffffffffffffffffffffffffffffffffffffffff16021790555050565b600042826003015411159050919050565b6040518060e001604052806060815260200160608152602001600081526020016000815260200160008152602001600073ffffffffffffffffffffffffffffffffffffffff1681526020016000151581525090565b828054600181600116156101000203166002900490600052602060002090601f016020900481019282601f1061488c57805160ff19168380011785556148ba565b828001600101855582156148ba579182015b828111156148b957825182559160200191906001019061489e565b5b5090506148c7919061499e565b5090565b6040518060e0016040528060008152602001600081526020016000815260200160008152602001600081526020016000151581526020016000151581525090565b6040518060800160405280600490602082028038833980820191505090505090565b6040518060800160405280606081526020016000815260200161494f6149c3565b81526020016000151581525090565b826004810192821561498d579160200282015b8281111561498c578251825591602001919060010190614971565b5b50905061499a919061499e565b5090565b6149c091905b808211156149bc5760008160009055506001016149a4565b5090565b90565b604051806080016040528060049060208202803883398082019150509050509056fe45524332303a207472616e7366657220746f20746865207a65726f206164647265737345524332303a20617070726f766520746f20746865207a65726f20616464726573736e6f7420656e6f756768206d6f6e657920746f206275792072616e646f6d207365656445524332303a207472616e736665722066726f6d20746865207a65726f206164647265737345524332303a20617070726f76652066726f6d20746865207a65726f2061646472657373a265627a7a723158208bb9f550f378b361e1d07b16d40f792c5e3ab61577e5099e7cf61e33f9390d4164736f6c63430005100032",
  "source": "pragma solidity ^0.5.0;\n\n\nimport \"./OwnerItem.sol\";\n\ncontract SproutMarket is OwnerItem {\n\n    /*A Place where player can sell their seeds or other products.\n    */\n\n    event OnProductAdded(uint Id);\n    event OnProductDeleted(uint Id);\n    \n    struct Product {\n        string producType;\n        string description;\n        uint value_each;\n        uint num;\n        uint owner_list_id;\n        address owner;\n        bool isValid;\n    }\n    Product[] _MarketList;\n\n\n    // Modifier\n    modifier isValidProduct(uint _Id) {\n        require(isProductValid(_Id), \"item must be valid to call\");\n        _;\n    }\n    modifier isProductOwner(uint _Id) {\n        require(msg.sender == _MarketList[_Id].owner);\n        _;\n    }\n    \n\n\n    // Public function\n\n    function isProductValid(uint _Id) public view returns(bool isValid) {\n        return _MarketList[_Id].isValid;\n    }\n    function getProduct(uint _Id) public view isValidProduct(_Id) returns(string memory, string memory, uint, address) {\n        return (_MarketList[_Id].producType, _MarketList[_Id].description, _MarketList[_Id].num, _MarketList[_Id].owner);\n    }\n\n    function getProductList() public view returns(uint[] memory, uint[] memory) {\n        uint len;\n        uint[] memory valids;\n\n        (valids, len) = _getValidProducts();\n\n        uint[] memory ids = new uint[](len);\n        uint[] memory nums = new uint[](len);\n        for (uint i = 0; i < len; i++) {\n            uint id = valids[i];\n            ids[i] = id;\n            nums[i] = _ItemList[msg.sender][id].num;\n        }\n        return (ids, nums);\n    }\n\n\n    function sellItem(uint id, uint num, uint value, string memory description) public {\n        require(num <= getItemNum(id), \"not enough item\");\n        Product memory product = Product(_ItemList[msg.sender][id].itemName, description, value, num, id, msg.sender, true);\n        uint Id = _MarketList.push(product) - 1;\n        _ItemList[msg.sender][id].num -= num;\n\n        emit OnProductAdded(Id);\n    }\n    // private function\n\n    function deleteProduct(uint _Id) internal isValidProduct(_Id) isProductOwner( _Id){\n        _MarketList[_Id].isValid = false;\n\n        emit OnProductDeleted(_Id);\n    }\n\n    function _getValidProducts() private view returns(uint[] memory valids, uint length) {\n        uint[] memory validProducts = new uint[](_MarketList.length);\n        uint count = 0;\n        for (uint i = 0; i < _MarketList.length; i++) {\n            if (isProductValid(i)) {\n                validProducts[count] = i;\n                count++;\n            }\n        }\n        return(validProducts, count);\n    }\n}",
  "sourcePath": "/Users/catherine/Documents/GitHub/finals/nmlab_final/contracts/SproutMarket.sol",
  "compiler": {
    "name": "solc",
    "version": "0.5.16+commit.9c3226ce.Emscripten.clang"
  },
  "schemaVersion": "3.1.0",
  "updatedAt": "2020-06-15T09:43:11.374Z",
  "devdoc": {
    "methods": {
      "isOwner()": {
        "return": "true if `msg.sender` is the owner of the contract."
      },
      "owner()": {
        "return": "the address of the owner."
      },
      "renounceOwnership()": {
        "details": "Allows the current owner to relinquish control of the contract."
      },
      "transferOwnership(address)": {
        "details": "Allows the current owner to transfer control of the contract to a newOwner.",
        "params": {
          "newOwner": "The address to transfer ownership to."
        }
      }
    }
  },
  "userdoc": {
    "methods": {
      "renounceOwnership()": {
        "notice": "Renouncing to ownership will leave the contract without an owner. It will not be possible to call the functions with the `onlyOwner` modifier anymore."
      }
    }
  }
}