{
  "contractName": "SproutOwnership",
  "abi": [
    {
      "anonymous": false,
      "inputs": [
        {
          "indexed": true,
          "internalType": "address",
          "name": "_owner",
          "type": "address"
        },
        {
          "indexed": true,
          "internalType": "address",
          "name": "_spender",
          "type": "address"
        },
        {
          "indexed": false,
          "internalType": "uint256",
          "name": "_value",
          "type": "uint256"
        }
      ],
      "name": "Approval",
      "type": "event"
    },
    {
      "anonymous": false,
      "inputs": [
        {
          "indexed": false,
          "internalType": "uint256",
          "name": "x_id",
          "type": "uint256"
        },
        {
          "indexed": false,
          "internalType": "uint256",
          "name": "y_id",
          "type": "uint256"
        },
        {
          "indexed": false,
          "internalType": "uint256",
          "name": "dna1",
          "type": "uint256"
        },
        {
          "indexed": false,
          "internalType": "uint256",
          "name": "dna2",
          "type": "uint256"
        }
      ],
      "name": "OnAdd",
      "type": "event"
    },
    {
      "anonymous": false,
      "inputs": [
        {
          "indexed": false,
          "internalType": "uint256",
          "name": "x_id",
          "type": "uint256"
        },
        {
          "indexed": false,
          "internalType": "uint256",
          "name": "y_id",
          "type": "uint256"
        }
      ],
      "name": "OnPlug",
      "type": "event"
    },
    {
      "anonymous": false,
      "inputs": [
        {
          "indexed": true,
          "internalType": "address",
          "name": "previousOwner",
          "type": "address"
        },
        {
          "indexed": true,
          "internalType": "address",
          "name": "newOwner",
          "type": "address"
        }
      ],
      "name": "OwnershipTransferred",
      "type": "event"
    },
    {
      "anonymous": false,
      "inputs": [
        {
          "indexed": true,
          "internalType": "address",
          "name": "_from",
          "type": "address"
        },
        {
          "indexed": true,
          "internalType": "address",
          "name": "_to",
          "type": "address"
        },
        {
          "indexed": false,
          "internalType": "uint256",
          "name": "_value",
          "type": "uint256"
        }
      ],
      "name": "Transfer",
      "type": "event"
    },
    {
      "anonymous": false,
      "inputs": [
        {
          "indexed": false,
          "internalType": "uint256",
          "name": "s",
          "type": "uint256"
        }
      ],
      "name": "debugStage",
      "type": "event"
    },
    {
      "constant": true,
      "inputs": [
        {
          "internalType": "uint256",
          "name": "x_id",
          "type": "uint256"
        },
        {
          "internalType": "uint256",
          "name": "y_id",
          "type": "uint256"
        }
      ],
      "name": "getColor",
      "outputs": [
        {
          "internalType": "uint256",
          "name": "",
          "type": "uint256"
        }
      ],
      "payable": false,
      "stateMutability": "view",
      "type": "function"
    },
    {
      "constant": true,
      "inputs": [
        {
          "internalType": "uint256",
          "name": "x_id",
          "type": "uint256"
        },
        {
          "internalType": "uint256",
          "name": "y_id",
          "type": "uint256"
        }
      ],
      "name": "getSeedRound",
      "outputs": [
        {
          "internalType": "bool",
          "name": "",
          "type": "bool"
        }
      ],
      "payable": false,
      "stateMutability": "view",
      "type": "function"
    },
    {
      "constant": true,
      "inputs": [
        {
          "internalType": "uint256",
          "name": "x_id",
          "type": "uint256"
        },
        {
          "internalType": "uint256",
          "name": "y_id",
          "type": "uint256"
        }
      ],
      "name": "getSeedYellow",
      "outputs": [
        {
          "internalType": "bool",
          "name": "",
          "type": "bool"
        }
      ],
      "payable": false,
      "stateMutability": "view",
      "type": "function"
    },
    {
      "constant": true,
      "inputs": [
        {
          "internalType": "uint256",
          "name": "now_stage",
          "type": "uint256"
        },
        {
          "internalType": "uint256",
          "name": "fullgrown_time",
          "type": "uint256"
        },
        {
          "internalType": "uint256",
          "name": "x_id",
          "type": "uint256"
        },
        {
          "internalType": "uint256",
          "name": "y_id",
          "type": "uint256"
        }
      ],
      "name": "getSproutHeight",
      "outputs": [
        {
          "internalType": "uint256",
          "name": "",
          "type": "uint256"
        }
      ],
      "payable": false,
      "stateMutability": "view",
      "type": "function"
    },
    {
      "constant": true,
      "inputs": [
        {
          "internalType": "uint256",
          "name": "now_stage",
          "type": "uint256"
        },
        {
          "internalType": "uint256",
          "name": "fullgrown_time",
          "type": "uint256"
        },
        {
          "internalType": "uint256",
          "name": "x_id",
          "type": "uint256"
        },
        {
          "internalType": "uint256",
          "name": "y_id",
          "type": "uint256"
        }
      ],
      "name": "getSproutWidth",
      "outputs": [
        {
          "internalType": "uint256",
          "name": "",
          "type": "uint256"
        }
      ],
      "payable": false,
      "stateMutability": "view",
      "type": "function"
    },
    {
      "constant": true,
      "inputs": [],
      "name": "isOwner",
      "outputs": [
        {
          "internalType": "bool",
          "name": "",
          "type": "bool"
        }
      ],
      "payable": false,
      "stateMutability": "view",
      "type": "function"
    },
    {
      "constant": true,
      "inputs": [],
      "name": "owner",
      "outputs": [
        {
          "internalType": "address",
          "name": "",
          "type": "address"
        }
      ],
      "payable": false,
      "stateMutability": "view",
      "type": "function"
    },
    {
      "constant": false,
      "inputs": [
        {
          "internalType": "uint256",
          "name": "x_id",
          "type": "uint256"
        },
        {
          "internalType": "uint256",
          "name": "y_id",
          "type": "uint256"
        }
      ],
      "name": "plugSprout",
      "outputs": [],
      "payable": false,
      "stateMutability": "nonpayable",
      "type": "function"
    },
    {
      "constant": false,
      "inputs": [
        {
          "internalType": "uint256",
          "name": "x_id",
          "type": "uint256"
        },
        {
          "internalType": "uint256",
          "name": "y_id",
          "type": "uint256"
        }
      ],
      "name": "randomAddSprout",
      "outputs": [],
      "payable": false,
      "stateMutability": "nonpayable",
      "type": "function"
    },
    {
      "constant": false,
      "inputs": [],
      "name": "renounceOwnership",
      "outputs": [],
      "payable": false,
      "stateMutability": "nonpayable",
      "type": "function"
    },
    {
      "constant": false,
      "inputs": [
        {
          "internalType": "address",
          "name": "newOwner",
          "type": "address"
        }
      ],
      "name": "transferOwnership",
      "outputs": [],
      "payable": false,
      "stateMutability": "nonpayable",
      "type": "function"
    },
    {
      "constant": true,
      "inputs": [],
      "name": "totalSupply",
      "outputs": [
        {
          "internalType": "uint256",
          "name": "",
          "type": "uint256"
        }
      ],
      "payable": false,
      "stateMutability": "view",
      "type": "function"
    },
    {
      "constant": true,
      "inputs": [
        {
          "internalType": "address",
          "name": "account",
          "type": "address"
        }
      ],
      "name": "balanceOf",
      "outputs": [
        {
          "internalType": "uint256",
          "name": "",
          "type": "uint256"
        }
      ],
      "payable": false,
      "stateMutability": "view",
      "type": "function"
    },
    {
      "constant": false,
      "inputs": [
        {
          "internalType": "address",
          "name": "_to",
          "type": "address"
        },
        {
          "internalType": "uint256",
          "name": "value",
          "type": "uint256"
        }
      ],
      "name": "transfer",
      "outputs": [
        {
          "internalType": "bool",
          "name": "",
          "type": "bool"
        }
      ],
      "payable": false,
      "stateMutability": "nonpayable",
      "type": "function"
    },
    {
      "constant": false,
      "inputs": [
        {
          "internalType": "address",
          "name": "sender",
          "type": "address"
        },
        {
          "internalType": "address",
          "name": "recipient",
          "type": "address"
        },
        {
          "internalType": "uint256",
          "name": "amount",
          "type": "uint256"
        }
      ],
      "name": "transferFrom",
      "outputs": [
        {
          "internalType": "bool",
          "name": "",
          "type": "bool"
        }
      ],
      "payable": false,
      "stateMutability": "nonpayable",
      "type": "function"
    },
    {
      "constant": false,
      "inputs": [
        {
          "internalType": "address",
          "name": "spender",
          "type": "address"
        },
        {
          "internalType": "uint256",
          "name": "amount",
          "type": "uint256"
        }
      ],
      "name": "approve",
      "outputs": [
        {
          "internalType": "bool",
          "name": "",
          "type": "bool"
        }
      ],
      "payable": false,
      "stateMutability": "nonpayable",
      "type": "function"
    },
    {
      "constant": true,
      "inputs": [
        {
          "internalType": "address",
          "name": "owner",
          "type": "address"
        },
        {
          "internalType": "address",
          "name": "spender",
          "type": "address"
        }
      ],
      "name": "allowance",
      "outputs": [
        {
          "internalType": "uint256",
          "name": "",
          "type": "uint256"
        }
      ],
      "payable": false,
      "stateMutability": "view",
      "type": "function"
    }
  ],
  "bytecode": "0x608060405261a8c06001556000600555336000806101000a81548173ffffffffffffffffffffffffffffffffffffffff021916908373ffffffffffffffffffffffffffffffffffffffff1602179055506000809054906101000a900473ffffffffffffffffffffffffffffffffffffffff1673ffffffffffffffffffffffffffffffffffffffff16600073ffffffffffffffffffffffffffffffffffffffff167f8be0079c531659141344cd1fd0a4f28419497f9722a3daafe3b4186f6b6457e060405160405180910390a3612687806100da6000396000f3fe608060405234801561001057600080fd5b506004361061010b5760003560e01c80638da5cb5b116100a2578063a9059cbb11610071578063a9059cbb14610480578063aa7bcc58146104e6578063dd62ed3e1461051e578063eded5d9e14610596578063f2fde38b146105e25761010b565b80638da5cb5b1461037c5780638f32d59b146103c6578063990e7469146103e8578063a55ca3ac146104205761010b565b806343518447116100de578063435184471461027a57806359ca683c146102ca57806370a082311461031a578063715018a6146103725761010b565b8063095ea7b31461011057806318160ddd1461017657806323b872dd1461019457806340588a4b1461021a575b600080fd5b61015c6004803603604081101561012657600080fd5b81019080803573ffffffffffffffffffffffffffffffffffffffff16906020019092919080359060200190929190505050610626565b604051808215151515815260200191505060405180910390f35b61017e61063d565b6040518082815260200191505060405180910390f35b610200600480360360608110156101aa57600080fd5b81019080803573ffffffffffffffffffffffffffffffffffffffff169060200190929190803573ffffffffffffffffffffffffffffffffffffffff16906020019092919080359060200190929190505050610647565b604051808215151515815260200191505060405180910390f35b6102646004803603608081101561023057600080fd5b81019080803590602001909291908035906020019092919080359060200190929190803590602001909291905050506106f8565b6040518082815260200191505060405180910390f35b6102b06004803603604081101561029057600080fd5b8101908080359060200190929190803590602001909291905050506108ea565b604051808215151515815260200191505060405180910390f35b610300600480360360408110156102e057600080fd5b810190808035906020019092919080359060200190929190505050610a49565b604051808215151515815260200191505060405180910390f35b61035c6004803603602081101561033057600080fd5b81019080803573ffffffffffffffffffffffffffffffffffffffff169060200190929190505050610ba8565b6040518082815260200191505060405180910390f35b61037a610bf1565b005b610384610cc1565b604051808273ffffffffffffffffffffffffffffffffffffffff1673ffffffffffffffffffffffffffffffffffffffff16815260200191505060405180910390f35b6103ce610cea565b604051808215151515815260200191505060405180910390f35b61041e600480360360408110156103fe57600080fd5b810190808035906020019092919080359060200190929190505050610d41565b005b61046a6004803603608081101561043657600080fd5b8101908080359060200190929190803590602001909291908035906020019092919080359060200190929190505050611056565b6040518082815260200191505060405180910390f35b6104cc6004803603604081101561049657600080fd5b81019080803573ffffffffffffffffffffffffffffffffffffffff16906020019092919080359060200190929190505050611248565b604051808215151515815260200191505060405180910390f35b61051c600480360360408110156104fc57600080fd5b81019080803590602001909291908035906020019092919050505061125f565b005b6105806004803603604081101561053457600080fd5b81019080803573ffffffffffffffffffffffffffffffffffffffff169060200190929190803573ffffffffffffffffffffffffffffffffffffffff1690602001909291905050506113fb565b6040518082815260200191505060405180910390f35b6105cc600480360360408110156105ac57600080fd5b810190808035906020019092919080359060200190929190505050611482565b6040518082815260200191505060405180910390f35b610624600480360360208110156105f857600080fd5b81019080803573ffffffffffffffffffffffffffffffffffffffff1690602001909291905050506115d4565b005b60006106333384846115f1565b6001905092915050565b6000600554905090565b60006106548484846117e8565b6106ed84336106e885600460008a73ffffffffffffffffffffffffffffffffffffffff1673ffffffffffffffffffffffffffffffffffffffff16815260200190815260200160002060003373ffffffffffffffffffffffffffffffffffffffff1673ffffffffffffffffffffffffffffffffffffffff16815260200190815260200160002054611aa390919063ffffffff16565b6115f1565b600190509392505050565b60008282600260003373ffffffffffffffffffffffffffffffffffffffff1673ffffffffffffffffffffffffffffffffffffffff168152602001908152602001600020826005811061074657fe5b60320201816005811061075557fe5b600a020160040160009054906101000a900460ff166107dc576040517f08c379a000000000000000000000000000000000000000000000000000000000815260040180806020018281038252601d8152602001807f6c6f636174696f6e20646f6573206e6f742068617665207370726f757400000081525060200191505060405180910390fd5b60006107e88686611aba565b90508688111561086b57610806601488611b2890919063ffffffff16565b610819888a611aa390919063ffffffff16565b101561086157610859600f61084b600561083d600f86611b4190919063ffffffff16565b611b5d90919063ffffffff16565b611b2890919063ffffffff16565b9350506108e0565b60009350506108e0565b600088141561087e5760009350506108e0565b6108dc886108ce600f6108c08b6108b260056108a4600f8a611b4190919063ffffffff16565b611b5d90919063ffffffff16565b611b5d90919063ffffffff16565b611b2890919063ffffffff16565b611b2890919063ffffffff16565b9350505b5050949350505050565b60008282600260003373ffffffffffffffffffffffffffffffffffffffff1673ffffffffffffffffffffffffffffffffffffffff168152602001908152602001600020826005811061093857fe5b60320201816005811061094757fe5b600a020160040160009054906101000a900460ff166109ce576040517f08c379a000000000000000000000000000000000000000000000000000000000815260040180806020018281038252601d8152602001807f6c6f636174696f6e20646f6573206e6f742068617665207370726f757400000081525060200191505060405180910390fd5b600260003373ffffffffffffffffffffffffffffffffffffffff1673ffffffffffffffffffffffffffffffffffffffff1681526020019081526020016000208560058110610a1857fe5b603202018460058110610a2757fe5b600a020160050160040160019054906101000a900460ff169250505092915050565b60008282600260003373ffffffffffffffffffffffffffffffffffffffff1673ffffffffffffffffffffffffffffffffffffffff1681526020019081526020016000208260058110610a9757fe5b603202018160058110610aa657fe5b600a020160040160009054906101000a900460ff16610b2d576040517f08c379a000000000000000000000000000000000000000000000000000000000815260040180806020018281038252601d8152602001807f6c6f636174696f6e20646f6573206e6f742068617665207370726f757400000081525060200191505060405180910390fd5b600260003373ffffffffffffffffffffffffffffffffffffffff1673ffffffffffffffffffffffffffffffffffffffff1681526020019081526020016000208560058110610b7757fe5b603202018460058110610b8657fe5b600a020160050160040160019054906101000a900460ff169250505092915050565b6000600360008373ffffffffffffffffffffffffffffffffffffffff1673ffffffffffffffffffffffffffffffffffffffff168152602001908152602001600020549050919050565b610bf9610cea565b610c0257600080fd5b600073ffffffffffffffffffffffffffffffffffffffff166000809054906101000a900473ffffffffffffffffffffffffffffffffffffffff1673ffffffffffffffffffffffffffffffffffffffff167f8be0079c531659141344cd1fd0a4f28419497f9722a3daafe3b4186f6b6457e060405160405180910390a360008060006101000a81548173ffffffffffffffffffffffffffffffffffffffff021916908373ffffffffffffffffffffffffffffffffffffffff160217905550565b60008060009054906101000a900473ffffffffffffffffffffffffffffffffffffffff16905090565b60008060009054906101000a900473ffffffffffffffffffffffffffffffffffffffff1673ffffffffffffffffffffffffffffffffffffffff163373ffffffffffffffffffffffffffffffffffffffff1614905090565b8181600260003373ffffffffffffffffffffffffffffffffffffffff1673ffffffffffffffffffffffffffffffffffffffff1681526020019081526020016000208260058110610d8d57fe5b603202018160058110610d9c57fe5b600a020160040160009054906101000a900460ff16610e23576040517f08c379a000000000000000000000000000000000000000000000000000000000815260040180806020018281038252601d8152602001807f6c6f636174696f6e20646f6573206e6f742068617665207370726f757400000081525060200191505060405180910390fd5b6000610e41610e328686611b94565b42611aa390919063ffffffff16565b90506000610e4f8686611bff565b90506000610e5f838389896106f8565b90506000610e6f84848a8a611056565b90506000610e81858584868d8d611c6d565b905060011515600260003373ffffffffffffffffffffffffffffffffffffffff1673ffffffffffffffffffffffffffffffffffffffff1681526020019081526020016000208a60058110610ed157fe5b603202018960058110610ee057fe5b600a020160040160009054906101000a900460ff161515141561100c576000600260003373ffffffffffffffffffffffffffffffffffffffff1673ffffffffffffffffffffffffffffffffffffffff1681526020019081526020016000208a60058110610f4957fe5b603202018960058110610f5857fe5b600a020160040160006101000a81548160ff021916908315150217905550610fc881600360003373ffffffffffffffffffffffffffffffffffffffff1673ffffffffffffffffffffffffffffffffffffffff16815260200190815260200160002054611b4190919063ffffffff16565b600360003373ffffffffffffffffffffffffffffffffffffffff1673ffffffffffffffffffffffffffffffffffffffff168152602001908152602001600020819055505b7fef9514e76636c86a9084470f65495ff78258053cada18c62136f204ff2f0daa28989604051808381526020018281526020019250505060405180910390a1505050505050505050565b60008282600260003373ffffffffffffffffffffffffffffffffffffffff1673ffffffffffffffffffffffffffffffffffffffff16815260200190815260200160002082600581106110a457fe5b6032020181600581106110b357fe5b600a020160040160009054906101000a900460ff1661113a576040517f08c379a000000000000000000000000000000000000000000000000000000000815260040180806020018281038252601d8152602001807f6c6f636174696f6e20646f6573206e6f742068617665207370726f757400000081525060200191505060405180910390fd5b60006111468686611e65565b9050868811156111c957611164601488611b2890919063ffffffff16565b611177888a611aa390919063ffffffff16565b10156111bf576111b760786111a9603c61119b607886611b4190919063ffffffff16565b611b5d90919063ffffffff16565b611b2890919063ffffffff16565b93505061123e565b600093505061123e565b60008814156111dc57600093505061123e565b61123a8861122c607861121e8b611210603c61120260788a611b4190919063ffffffff16565b611b5d90919063ffffffff16565b611b5d90919063ffffffff16565b611b2890919063ffffffff16565b611b2890919063ffffffff16565b9350505b5050949350505050565b60006112553384846117e8565b6001905092915050565b6032600360003373ffffffffffffffffffffffffffffffffffffffff1673ffffffffffffffffffffffffffffffffffffffff16815260200190815260200160002054116112f7576040517f08c379a00000000000000000000000000000000000000000000000000000000081526004018080602001828103825260238152602001806125e76023913960400191505060405180910390fd5b600042604051602001808281526020019150506040516020818303038152906040528051906020012060001c9050600044604051602001808281526020019150506040516020818303038152906040528051906020012060001c905061135f84848484611ed3565b6113b26032600360003373ffffffffffffffffffffffffffffffffffffffff1673ffffffffffffffffffffffffffffffffffffffff16815260200190815260200160002054611aa390919063ffffffff16565b600360003373ffffffffffffffffffffffffffffffffffffffff1673ffffffffffffffffffffffffffffffffffffffff1681526020019081526020016000208190555050505050565b6000600460008473ffffffffffffffffffffffffffffffffffffffff1673ffffffffffffffffffffffffffffffffffffffff16815260200190815260200160002060008373ffffffffffffffffffffffffffffffffffffffff1673ffffffffffffffffffffffffffffffffffffffff16815260200190815260200160002054905092915050565b60008282600260003373ffffffffffffffffffffffffffffffffffffffff1673ffffffffffffffffffffffffffffffffffffffff16815260200190815260200160002082600581106114d057fe5b6032020181600581106114df57fe5b600a020160040160009054906101000a900460ff16611566576040517f08c379a000000000000000000000000000000000000000000000000000000000815260040180806020018281038252601d8152602001807f6c6f636174696f6e20646f6573206e6f742068617665207370726f757400000081525060200191505060405180910390fd5b600260003373ffffffffffffffffffffffffffffffffffffffff1673ffffffffffffffffffffffffffffffffffffffff16815260200190815260200160002085600581106115b057fe5b6032020184600581106115bf57fe5b600a0201600501600201549250505092915050565b6115dc610cea565b6115e557600080fd5b6115ee8161245e565b50565b600073ffffffffffffffffffffffffffffffffffffffff168373ffffffffffffffffffffffffffffffffffffffff161415611677576040517f08c379a000000000000000000000000000000000000000000000000000000000815260040180806020018281038252602481526020018061262f6024913960400191505060405180910390fd5b600073ffffffffffffffffffffffffffffffffffffffff168273ffffffffffffffffffffffffffffffffffffffff1614156116fd576040517f08c379a00000000000000000000000000000000000000000000000000000000081526004018080602001828103825260228152602001806125c56022913960400191505060405180910390fd5b80600460008573ffffffffffffffffffffffffffffffffffffffff1673ffffffffffffffffffffffffffffffffffffffff16815260200190815260200160002060008473ffffffffffffffffffffffffffffffffffffffff1673ffffffffffffffffffffffffffffffffffffffff168152602001908152602001600020819055508173ffffffffffffffffffffffffffffffffffffffff168373ffffffffffffffffffffffffffffffffffffffff167f8c5be1e5ebec7d5bd14f71427d1e84f3dd0314c0f7b2291e5b200ac8c7c3b925836040518082815260200191505060405180910390a3505050565b600073ffffffffffffffffffffffffffffffffffffffff168373ffffffffffffffffffffffffffffffffffffffff16141561186e576040517f08c379a000000000000000000000000000000000000000000000000000000000815260040180806020018281038252602581526020018061260a6025913960400191505060405180910390fd5b600073ffffffffffffffffffffffffffffffffffffffff168273ffffffffffffffffffffffffffffffffffffffff1614156118f4576040517f08c379a00000000000000000000000000000000000000000000000000000000081526004018080602001828103825260238152602001806125a26023913960400191505060405180910390fd5b61194681600360008673ffffffffffffffffffffffffffffffffffffffff1673ffffffffffffffffffffffffffffffffffffffff16815260200190815260200160002054611aa390919063ffffffff16565b600360008573ffffffffffffffffffffffffffffffffffffffff1673ffffffffffffffffffffffffffffffffffffffff168152602001908152602001600020819055506119db81600360008573ffffffffffffffffffffffffffffffffffffffff1673ffffffffffffffffffffffffffffffffffffffff16815260200190815260200160002054611b4190919063ffffffff16565b600360008473ffffffffffffffffffffffffffffffffffffffff1673ffffffffffffffffffffffffffffffffffffffff16815260200190815260200160002081905550611a3381600554611b4190919063ffffffff16565b6005819055508173ffffffffffffffffffffffffffffffffffffffff168373ffffffffffffffffffffffffffffffffffffffff167fddf252ad1be2c89b69c2b068fc378daa952ba7f163c4a11628f55a4df523b3ef836040518082815260200191505060405180910390a3505050565b600082821115611aaf57fe5b818303905092915050565b6000600260003373ffffffffffffffffffffffffffffffffffffffff1673ffffffffffffffffffffffffffffffffffffffff1681526020019081526020016000208360058110611b0657fe5b603202018260058110611b1557fe5b600a020160050160010154905092915050565b600080828481611b3457fe5b0490508091505092915050565b600080828401905083811015611b5357fe5b8091505092915050565b600080831415611b705760009050611b8e565b6000828402905082848281611b8157fe5b0414611b8957fe5b809150505b92915050565b6000600260003373ffffffffffffffffffffffffffffffffffffffff1673ffffffffffffffffffffffffffffffffffffffff1681526020019081526020016000208360058110611be057fe5b603202018260058110611bef57fe5b600a020160020154905092915050565b6000600260003373ffffffffffffffffffffffffffffffffffffffff1673ffffffffffffffffffffffffffffffffffffffff1681526020019081526020016000208360058110611c4b57fe5b603202018260058110611c5a57fe5b600a020160050160030154905092915050565b60008282600260003373ffffffffffffffffffffffffffffffffffffffff1673ffffffffffffffffffffffffffffffffffffffff1681526020019081526020016000208260058110611cbb57fe5b603202018160058110611cca57fe5b600a020160040160009054906101000a900460ff16611d51576040517f08c379a000000000000000000000000000000000000000000000000000000000815260040180806020018281038252601d8152602001807f6c6f636174696f6e20646f6573206e6f742068617665207370726f757400000081525060200191505060405180910390fd5b6000611d5d8686611482565b90506000611d6b8787610a49565b90506000611d7988886108ea565b90508a8c1115611dc857611d9760148c611b2890919063ffffffff16565b611daa8c8e611aa390919063ffffffff16565b1015611dbc5760059550505050611e59565b60009550505050611e59565b60008c1415611ddd5760029550505050611e59565b6000611e17611df6600a86611b2890919063ffffffff16565b611e098c8e611b5d90919063ffffffff16565b611aa390919063ffffffff16565b90508115611e3557611e33600582611b4190919063ffffffff16565b505b8215611e5157611e4f600582611b4190919063ffffffff16565b505b809650505050505b50509695505050505050565b6000600260003373ffffffffffffffffffffffffffffffffffffffff1673ffffffffffffffffffffffffffffffffffffffff1681526020019081526020016000208360058110611eb157fe5b603202018260058110611ec057fe5b600a020160050160000154905092915050565b60001515600260003373ffffffffffffffffffffffffffffffffffffffff1673ffffffffffffffffffffffffffffffffffffffff1681526020019081526020016000208560058110611f2157fe5b603202018460058110611f3057fe5b600a020160040160009054906101000a900460ff16151514611f5157600080fd5b611fb6600260003373ffffffffffffffffffffffffffffffffffffffff1673ffffffffffffffffffffffffffffffffffffffff1681526020019081526020016000208560058110611f9e57fe5b603202018460058110611fad57fe5b600a0201612556565b611fbf57600080fd5b611fc7612567565b600083905060008390506000600160028381611fdf57fe5b0660028581611fea57fe5b061714846080019015159081151581525050600183901c9250600182901c915060016002838161201657fe5b066002858161202157fe5b0617148460a00190151590811515815250506000600290505b60298110156120c85760016002858161204f57fe5b0614156120785761206e60018660400151611b4190919063ffffffff16565b8560400181815250505b60016002848161208457fe5b0614156120ad576120a360018660400151611b4190919063ffffffff16565b8560400181815250505b600184901c9350600183901c9250808060010191505061203a565b506000602990505b606581101561215e576001600285816120e557fe5b06141561210e5761210460018660200151611b4190919063ffffffff16565b8560200181815250505b60016002848161211a57fe5b0614156121435761213960018660200151611b4190919063ffffffff16565b8560200181815250505b600184901c9350600183901c925080806001019150506120d0565b506000606590505b60a18110156121f45760016002858161217b57fe5b0614156121a45761219a60018660000151611b4190919063ffffffff16565b8560000181815250505b6001600284816121b057fe5b0614156121d9576121cf60018660000151611b4190919063ffffffff16565b8560000181815250505b600184901c9350600183901c92508080600101915050612166565b50600060a190505b6101008110156122755760016002858161221257fe5b0614156122305761222d600183611b4190919063ffffffff16565b91505b60016002848161223c57fe5b06141561225a57612257600183611b4190919063ffffffff16565b91505b600184901c9350600183901c925080806001019150506121fc565b506201518060be6122a36002612295600386611b5d90919063ffffffff16565b611b2890919063ffffffff16565b61017c03816122ae57fe5b04028460600181815250506040518060c001604052808781526020018681526020014281526020016000815260200160011515815260200185815250600260003373ffffffffffffffffffffffffffffffffffffffff1673ffffffffffffffffffffffffffffffffffffffff168152602001908152602001600020896005811061233457fe5b60320201886005811061234357fe5b600a02016000820151816000015560208201518160010155604082015181600201556060820151816003015560808201518160040160006101000a81548160ff02191690831515021790555060a0820151816005016000820151816000015560208201518160010155604082015181600201556060820151816003015560808201518160040160006101000a81548160ff02191690831515021790555060a08201518160040160016101000a81548160ff02191690831515021790555050509050507f29673a2c4180cee02675c1aeac3253f75b8a067246770a77b079d48c92248cbd888888886040518085815260200184815260200183815260200182815260200194505050505060405180910390a15050505050505050565b600073ffffffffffffffffffffffffffffffffffffffff168173ffffffffffffffffffffffffffffffffffffffff16141561249857600080fd5b8073ffffffffffffffffffffffffffffffffffffffff166000809054906101000a900473ffffffffffffffffffffffffffffffffffffffff1673ffffffffffffffffffffffffffffffffffffffff167f8be0079c531659141344cd1fd0a4f28419497f9722a3daafe3b4186f6b6457e060405160405180910390a3806000806101000a81548173ffffffffffffffffffffffffffffffffffffffff021916908373ffffffffffffffffffffffffffffffffffffffff16021790555050565b600042826003015411159050919050565b6040518060c0016040528060008152602001600081526020016000815260200160008152602001600015158152602001600015158152509056fe45524332303a207472616e7366657220746f20746865207a65726f206164647265737345524332303a20617070726f766520746f20746865207a65726f20616464726573736e6f7420656e6f756768206d6f6e657920746f206275792072616e646f6d207365656445524332303a207472616e736665722066726f6d20746865207a65726f206164647265737345524332303a20617070726f76652066726f6d20746865207a65726f2061646472657373a265627a7a72315820182e525d49664e8c45cb41649c3d779175df471a49904feafa2ec4f8268edf9c64736f6c63430005100032",
  "source": "pragma solidity ^0.5.0;\n\nimport \"./erc20.sol\";\nimport \"./safemath.sol\";\nimport \"./sprout.sol\";\n\ncontract SproutOwnership is Sprout, ERC20 {\n\n  using SafeMath for uint256;\n\n  mapping (address => mapping (address => uint256)) private _allowances;\n\n  uint256 private _totalSupply = 0;\n\n  function _transfer(address sender, address recipient, uint256 amount) internal {\n    require(sender != address(0), \"ERC20: transfer from the zero address\");\n    require(recipient != address(0), \"ERC20: transfer to the zero address\");\n    balance[sender] = balance[sender].sub(amount);\n    balance[recipient] = balance[recipient].add(amount);\n    _totalSupply = _totalSupply.add(amount);\n    emit Transfer(sender, recipient, amount);\n  }\n\n  function _approve(address owner, address spender, uint256 amount) internal {\n    require(owner != address(0), \"ERC20: approve from the zero address\");\n    require(spender != address(0), \"ERC20: approve to the zero address\");\n    _allowances[owner][spender] = amount;\n    emit Approval(owner, spender, amount);\n  }\n\n  function totalSupply() public view returns (uint256) {\n        return _totalSupply;\n  }\n\n  function balanceOf(address account) public view returns (uint256) {\n        return balance[account];\n  }\n  \n  function transfer(address _to, uint256 value) public returns (bool) {\n        _transfer(msg.sender, _to, value);\n        return true;\n  }\n  \n  function transferFrom(address sender, address recipient, uint256 amount) public returns (bool) {\n        _transfer(sender, recipient, amount);\n        _approve(sender, msg.sender, _allowances[sender][msg.sender].sub(amount));\n        return true;\n   }\n   \n   function approve(address spender, uint256 amount) public returns (bool) {\n        _approve(msg.sender, spender, amount);\n        return true;\n    }\n    \n    function allowance(address owner, address spender) public view returns (uint256) {\n        return _allowances[owner][spender];\n    }\n}\n",
  "sourcePath": "/Users/catherine/Documents/GitHub/finals/nmlab_final/contracts/token.sol",
  "compiler": {
    "name": "solc",
    "version": "0.5.16+commit.9c3226ce.Emscripten.clang"
  },
  "schemaVersion": "3.1.0",
  "updatedAt": "2020-06-15T04:17:34.678Z",
  "devdoc": {
    "methods": {
      "isOwner()": {
        "return": "true if `msg.sender` is the owner of the contract."
      },
      "owner()": {
        "return": "the address of the owner."
      },
      "renounceOwnership()": {
        "details": "Allows the current owner to relinquish control of the contract."
      },
      "transferOwnership(address)": {
        "details": "Allows the current owner to transfer control of the contract to a newOwner.",
        "params": {
          "newOwner": "The address to transfer ownership to."
        }
      }
    }
  },
  "userdoc": {
    "methods": {
      "renounceOwnership()": {
        "notice": "Renouncing to ownership will leave the contract without an owner. It will not be possible to call the functions with the `onlyOwner` modifier anymore."
      }
    }
  }
}