{
  "contractName": "SproutApp",
  "abi": [
    {
      "anonymous": false,
      "inputs": [
        {
          "indexed": false,
          "internalType": "uint256",
          "name": "sproutId",
          "type": "uint256"
        }
      ],
      "name": "OnSproutAdded",
      "type": "event"
    },
    {
      "constant": false,
      "inputs": [
        {
          "internalType": "uint256",
          "name": "_id",
          "type": "uint256"
        }
      ],
      "name": "addSprout",
      "outputs": [],
      "payable": false,
      "stateMutability": "nonpayable",
      "type": "function"
    }
  ],
  "bytecode": "0x608060405234801561001057600080fd5b5061010b806100206000396000f3fe6080604052348015600f57600080fd5b506004361060285760003560e01c8063eddf0b6414602d575b600080fd5b605660048036036020811015604157600080fd5b81019080803590602001909291905050506058565b005b8060008260198110606557fe5b6002020160000181905550600160008260198110607e57fe5b6002020160010160006101000a81548160ff0219169083151502179055507f61f1ea6279549b38840b4e7e1460bc8c6c566163ec37c261ec7109bb62f11702816040518082815260200191505060405180910390a15056fea265627a7a723158200b8ef9c7e37b1a78ee629f8b5e5bd6172ecac6713b396d666b8d50ba78e218c664736f6c63430005100032",
  "source": "pragma solidity ^0.5.0;\n\ncontract SproutApp {\n    event OnSproutAdded(uint sproutId);\n\n    struct Sprout {\n       uint id;\n       bool isPlanted;\n    }\n    \n    Sprout[25] sprouts;\n    function addSprout(uint _id) public {\n        sprouts[_id].id = _id;\n        sprouts[_id].isPlanted = true;\n        \n        emit OnSproutAdded(_id);\n    }\n}",
  "sourcePath": "/Users/vivi/Documents/nmlab_project/nmlab_final/contracts/SproutApp.sol",
  "compiler": {
    "name": "solc",
    "version": "0.5.16+commit.9c3226ce.Emscripten.clang"
  },
  "schemaVersion": "3.1.0",
  "updatedAt": "2020-05-23T09:29:27.955Z",
  "devdoc": {
    "methods": {}
  },
  "userdoc": {
    "methods": {}
  }
}