{
  "contractName": "SproutOwnership",
  "abi": [
    {
      "anonymous": false,
      "inputs": [
        {
          "indexed": true,
          "internalType": "address",
          "name": "_owner",
          "type": "address"
        },
        {
          "indexed": true,
          "internalType": "address",
          "name": "_spender",
          "type": "address"
        },
        {
          "indexed": false,
          "internalType": "uint256",
          "name": "_value",
          "type": "uint256"
        }
      ],
      "name": "Approval",
      "type": "event"
    },
    {
      "anonymous": false,
      "inputs": [
        {
          "indexed": false,
          "internalType": "uint256",
          "name": "x_id",
          "type": "uint256"
        },
        {
          "indexed": false,
          "internalType": "uint256",
          "name": "y_id",
          "type": "uint256"
        },
        {
          "indexed": false,
          "internalType": "uint256",
          "name": "dna1",
          "type": "uint256"
        },
        {
          "indexed": false,
          "internalType": "uint256",
          "name": "dna2",
          "type": "uint256"
        }
      ],
      "name": "OnAdd",
      "type": "event"
    },
    {
      "anonymous": false,
      "inputs": [
        {
          "indexed": false,
          "internalType": "uint256",
          "name": "x_id",
          "type": "uint256"
        },
        {
          "indexed": false,
          "internalType": "uint256",
          "name": "y_id",
          "type": "uint256"
        }
      ],
      "name": "OnPlug",
      "type": "event"
    },
    {
      "anonymous": false,
      "inputs": [
        {
          "indexed": true,
          "internalType": "address",
          "name": "previousOwner",
          "type": "address"
        },
        {
          "indexed": true,
          "internalType": "address",
          "name": "newOwner",
          "type": "address"
        }
      ],
      "name": "OwnershipTransferred",
      "type": "event"
    },
    {
      "anonymous": false,
      "inputs": [
        {
          "indexed": true,
          "internalType": "address",
          "name": "_from",
          "type": "address"
        },
        {
          "indexed": true,
          "internalType": "address",
          "name": "_to",
          "type": "address"
        },
        {
          "indexed": false,
          "internalType": "uint256",
          "name": "_value",
          "type": "uint256"
        }
      ],
      "name": "Transfer",
      "type": "event"
    },
    {
      "anonymous": false,
      "inputs": [
        {
          "indexed": false,
          "internalType": "uint256",
          "name": "s",
          "type": "uint256"
        }
      ],
      "name": "debugStage",
      "type": "event"
    },
    {
      "constant": true,
      "inputs": [
        {
          "internalType": "uint256",
          "name": "x_id",
          "type": "uint256"
        },
        {
          "internalType": "uint256",
          "name": "y_id",
          "type": "uint256"
        }
      ],
      "name": "getColor",
      "outputs": [
        {
          "internalType": "uint256",
          "name": "",
          "type": "uint256"
        }
      ],
      "payable": false,
      "stateMutability": "view",
      "type": "function"
    },
    {
      "constant": true,
      "inputs": [
        {
          "internalType": "uint256",
          "name": "x_id",
          "type": "uint256"
        },
        {
          "internalType": "uint256",
          "name": "y_id",
          "type": "uint256"
        }
      ],
      "name": "getProduceGene",
      "outputs": [
        {
          "internalType": "uint256",
          "name": "",
          "type": "uint256"
        }
      ],
      "payable": false,
      "stateMutability": "view",
      "type": "function"
    },
    {
      "constant": true,
      "inputs": [
        {
          "internalType": "uint256",
          "name": "x_id",
          "type": "uint256"
        },
        {
          "internalType": "uint256",
          "name": "y_id",
          "type": "uint256"
        }
      ],
      "name": "getSeedRound",
      "outputs": [
        {
          "internalType": "bool",
          "name": "",
          "type": "bool"
        }
      ],
      "payable": false,
      "stateMutability": "view",
      "type": "function"
    },
    {
      "constant": true,
      "inputs": [
        {
          "internalType": "uint256",
          "name": "x_id",
          "type": "uint256"
        },
        {
          "internalType": "uint256",
          "name": "y_id",
          "type": "uint256"
        }
      ],
      "name": "getSeedYellow",
      "outputs": [
        {
          "internalType": "bool",
          "name": "",
          "type": "bool"
        }
      ],
      "payable": false,
      "stateMutability": "view",
      "type": "function"
    },
    {
      "constant": true,
      "inputs": [
        {
          "internalType": "uint256",
          "name": "x_id",
          "type": "uint256"
        },
        {
          "internalType": "uint256",
          "name": "y_id",
          "type": "uint256"
        }
      ],
      "name": "getSproutHeight",
      "outputs": [
        {
          "internalType": "uint256",
          "name": "",
          "type": "uint256"
        }
      ],
      "payable": false,
      "stateMutability": "view",
      "type": "function"
    },
    {
      "constant": true,
      "inputs": [
        {
          "internalType": "uint256",
          "name": "x_id",
          "type": "uint256"
        },
        {
          "internalType": "uint256",
          "name": "y_id",
          "type": "uint256"
        }
      ],
      "name": "getSproutWidth",
      "outputs": [
        {
          "internalType": "uint256",
          "name": "",
          "type": "uint256"
        }
      ],
      "payable": false,
      "stateMutability": "view",
      "type": "function"
    },
    {
      "constant": true,
      "inputs": [],
      "name": "isOwner",
      "outputs": [
        {
          "internalType": "bool",
          "name": "",
          "type": "bool"
        }
      ],
      "payable": false,
      "stateMutability": "view",
      "type": "function"
    },
    {
      "constant": true,
      "inputs": [],
      "name": "owner",
      "outputs": [
        {
          "internalType": "address",
          "name": "",
          "type": "address"
        }
      ],
      "payable": false,
      "stateMutability": "view",
      "type": "function"
    },
    {
      "constant": false,
      "inputs": [
        {
          "internalType": "uint256",
          "name": "x_id",
          "type": "uint256"
        },
        {
          "internalType": "uint256",
          "name": "y_id",
          "type": "uint256"
        }
      ],
      "name": "plugSprout",
      "outputs": [],
      "payable": false,
      "stateMutability": "nonpayable",
      "type": "function"
    },
    {
      "constant": false,
      "inputs": [
        {
          "internalType": "uint256",
          "name": "x_id",
          "type": "uint256"
        },
        {
          "internalType": "uint256",
          "name": "y_id",
          "type": "uint256"
        }
      ],
      "name": "randomAddSprout",
      "outputs": [],
      "payable": false,
      "stateMutability": "nonpayable",
      "type": "function"
    },
    {
      "constant": false,
      "inputs": [],
      "name": "renounceOwnership",
      "outputs": [],
      "payable": false,
      "stateMutability": "nonpayable",
      "type": "function"
    },
    {
      "constant": false,
      "inputs": [
        {
          "internalType": "address",
          "name": "newOwner",
          "type": "address"
        }
      ],
      "name": "transferOwnership",
      "outputs": [],
      "payable": false,
      "stateMutability": "nonpayable",
      "type": "function"
    },
    {
      "constant": true,
      "inputs": [],
      "name": "totalSupply",
      "outputs": [
        {
          "internalType": "uint256",
          "name": "",
          "type": "uint256"
        }
      ],
      "payable": false,
      "stateMutability": "view",
      "type": "function"
    },
    {
      "constant": true,
      "inputs": [
        {
          "internalType": "address",
          "name": "account",
          "type": "address"
        }
      ],
      "name": "balanceOf",
      "outputs": [
        {
          "internalType": "uint256",
          "name": "",
          "type": "uint256"
        }
      ],
      "payable": false,
      "stateMutability": "view",
      "type": "function"
    },
    {
      "constant": false,
      "inputs": [
        {
          "internalType": "address",
          "name": "_to",
          "type": "address"
        },
        {
          "internalType": "uint256",
          "name": "value",
          "type": "uint256"
        }
      ],
      "name": "transfer",
      "outputs": [
        {
          "internalType": "bool",
          "name": "",
          "type": "bool"
        }
      ],
      "payable": false,
      "stateMutability": "nonpayable",
      "type": "function"
    },
    {
      "constant": false,
      "inputs": [
        {
          "internalType": "address",
          "name": "sender",
          "type": "address"
        },
        {
          "internalType": "address",
          "name": "recipient",
          "type": "address"
        },
        {
          "internalType": "uint256",
          "name": "amount",
          "type": "uint256"
        }
      ],
      "name": "transferFrom",
      "outputs": [
        {
          "internalType": "bool",
          "name": "",
          "type": "bool"
        }
      ],
      "payable": false,
      "stateMutability": "nonpayable",
      "type": "function"
    },
    {
      "constant": false,
      "inputs": [
        {
          "internalType": "address",
          "name": "spender",
          "type": "address"
        },
        {
          "internalType": "uint256",
          "name": "amount",
          "type": "uint256"
        }
      ],
      "name": "approve",
      "outputs": [
        {
          "internalType": "bool",
          "name": "",
          "type": "bool"
        }
      ],
      "payable": false,
      "stateMutability": "nonpayable",
      "type": "function"
    },
    {
      "constant": true,
      "inputs": [
        {
          "internalType": "address",
          "name": "owner",
          "type": "address"
        },
        {
          "internalType": "address",
          "name": "spender",
          "type": "address"
        }
      ],
      "name": "allowance",
      "outputs": [
        {
          "internalType": "uint256",
          "name": "",
          "type": "uint256"
        }
      ],
      "payable": false,
      "stateMutability": "view",
      "type": "function"
    }
  ],
  "bytecode": "0x608060405261a8c06001556000600555336000806101000a81548173ffffffffffffffffffffffffffffffffffffffff021916908373ffffffffffffffffffffffffffffffffffffffff1602179055506000809054906101000a900473ffffffffffffffffffffffffffffffffffffffff1673ffffffffffffffffffffffffffffffffffffffff16600073ffffffffffffffffffffffffffffffffffffffff167f8be0079c531659141344cd1fd0a4f28419497f9722a3daafe3b4186f6b6457e060405160405180910390a361298c806100da6000396000f3fe608060405234801561001057600080fd5b50600436106101165760003560e01c80638da5cb5b116100a2578063a9059cbb11610071578063a9059cbb146104af578063aa7bcc5814610515578063dd62ed3e1461054d578063eded5d9e146105c5578063f2fde38b1461061157610116565b80638da5cb5b146103bf5780638f32d59b1461040957806393fccbb61461042b578063990e74691461047757610116565b806359ca683c116100e957806359ca683c1461027557806370a08231146102c5578063715018a61461031d5780637402003314610327578063816bfee61461037357610116565b8063095ea7b31461011b57806318160ddd1461018157806323b872dd1461019f5780634351844714610225575b600080fd5b6101676004803603604081101561013157600080fd5b81019080803573ffffffffffffffffffffffffffffffffffffffff16906020019092919080359060200190929190505050610655565b604051808215151515815260200191505060405180910390f35b61018961066c565b6040518082815260200191505060405180910390f35b61020b600480360360608110156101b557600080fd5b81019080803573ffffffffffffffffffffffffffffffffffffffff169060200190929190803573ffffffffffffffffffffffffffffffffffffffff16906020019092919080359060200190929190505050610676565b604051808215151515815260200191505060405180910390f35b61025b6004803603604081101561023b57600080fd5b810190808035906020019092919080359060200190929190505050610727565b604051808215151515815260200191505060405180910390f35b6102ab6004803603604081101561028b57600080fd5b810190808035906020019092919080359060200190929190505050610886565b604051808215151515815260200191505060405180910390f35b610307600480360360208110156102db57600080fd5b81019080803573ffffffffffffffffffffffffffffffffffffffff1690602001909291905050506109e5565b6040518082815260200191505060405180910390f35b610325610a2e565b005b61035d6004803603604081101561033d57600080fd5b810190808035906020019092919080359060200190929190505050610afe565b6040518082815260200191505060405180910390f35b6103a96004803603604081101561038957600080fd5b810190808035906020019092919080359060200190929190505050610d24565b6040518082815260200191505060405180910390f35b6103c7610e76565b604051808273ffffffffffffffffffffffffffffffffffffffff1673ffffffffffffffffffffffffffffffffffffffff16815260200191505060405180910390f35b610411610e9f565b604051808215151515815260200191505060405180910390f35b6104616004803603604081101561044157600080fd5b810190808035906020019092919080359060200190929190505050610ef6565b6040518082815260200191505060405180910390f35b6104ad6004803603604081101561048d57600080fd5b81019080803590602001909291908035906020019092919050505061111c565b005b6104fb600480360360408110156104c557600080fd5b81019080803573ffffffffffffffffffffffffffffffffffffffff1690602001909291908035906020019092919050505061142d565b604051808215151515815260200191505060405180910390f35b61054b6004803603604081101561052b57600080fd5b810190808035906020019092919080359060200190929190505050611444565b005b6105af6004803603604081101561056357600080fd5b81019080803573ffffffffffffffffffffffffffffffffffffffff169060200190929190803573ffffffffffffffffffffffffffffffffffffffff1690602001909291905050506115f0565b6040518082815260200191505060405180910390f35b6105fb600480360360408110156105db57600080fd5b810190808035906020019092919080359060200190929190505050611677565b6040518082815260200191505060405180910390f35b6106536004803603602081101561062757600080fd5b81019080803573ffffffffffffffffffffffffffffffffffffffff1690602001909291905050506117c9565b005b60006106623384846117e6565b6001905092915050565b6000600554905090565b60006106838484846119dd565b61071c843361071785600460008a73ffffffffffffffffffffffffffffffffffffffff1673ffffffffffffffffffffffffffffffffffffffff16815260200190815260200160002060003373ffffffffffffffffffffffffffffffffffffffff1673ffffffffffffffffffffffffffffffffffffffff16815260200190815260200160002054611c9890919063ffffffff16565b6117e6565b600190509392505050565b60008282600260003373ffffffffffffffffffffffffffffffffffffffff1673ffffffffffffffffffffffffffffffffffffffff168152602001908152602001600020826005811061077557fe5b60370201816005811061078457fe5b600b020160040160009054906101000a900460ff1661080b576040517f08c379a000000000000000000000000000000000000000000000000000000000815260040180806020018281038252601d8152602001807f6c6f636174696f6e20646f6573206e6f742068617665207370726f757400000081525060200191505060405180910390fd5b600260003373ffffffffffffffffffffffffffffffffffffffff1673ffffffffffffffffffffffffffffffffffffffff168152602001908152602001600020856005811061085557fe5b60370201846005811061086457fe5b600b020160050160050160019054906101000a900460ff169250505092915050565b60008282600260003373ffffffffffffffffffffffffffffffffffffffff1673ffffffffffffffffffffffffffffffffffffffff16815260200190815260200160002082600581106108d457fe5b6037020181600581106108e357fe5b600b020160040160009054906101000a900460ff1661096a576040517f08c379a000000000000000000000000000000000000000000000000000000000815260040180806020018281038252601d8152602001807f6c6f636174696f6e20646f6573206e6f742068617665207370726f757400000081525060200191505060405180910390fd5b600260003373ffffffffffffffffffffffffffffffffffffffff1673ffffffffffffffffffffffffffffffffffffffff16815260200190815260200160002085600581106109b457fe5b6037020184600581106109c357fe5b600b020160050160050160019054906101000a900460ff169250505092915050565b6000600360008373ffffffffffffffffffffffffffffffffffffffff1673ffffffffffffffffffffffffffffffffffffffff168152602001908152602001600020549050919050565b610a36610e9f565b610a3f57600080fd5b600073ffffffffffffffffffffffffffffffffffffffff166000809054906101000a900473ffffffffffffffffffffffffffffffffffffffff1673ffffffffffffffffffffffffffffffffffffffff167f8be0079c531659141344cd1fd0a4f28419497f9722a3daafe3b4186f6b6457e060405160405180910390a360008060006101000a81548173ffffffffffffffffffffffffffffffffffffffff021916908373ffffffffffffffffffffffffffffffffffffffff160217905550565b60008282600260003373ffffffffffffffffffffffffffffffffffffffff1673ffffffffffffffffffffffffffffffffffffffff1681526020019081526020016000208260058110610b4c57fe5b603702018160058110610b5b57fe5b600b020160040160009054906101000a900460ff16610be2576040517f08c379a000000000000000000000000000000000000000000000000000000000815260040180806020018281038252601d8152602001807f6c6f636174696f6e20646f6573206e6f742068617665207370726f757400000081525060200191505060405180910390fd5b6000610c00610bf18787611caf565b42611c9890919063ffffffff16565b90506000610c0e8787611d1a565b90506000610c1c8888611d88565b905081831115610ca357610c3a601483611df690919063ffffffff16565b610c4d8385611c9890919063ffffffff16565b1015610c9757610c8d6078610c7f603c610c71607886611e0f90919063ffffffff16565b611e2b90919063ffffffff16565b611df690919063ffffffff16565b9550505050610d1c565b60009550505050610d1c565b6000831415610cb85760009550505050610d1c565b610d1683610d086078610cfa86610cec603c610cde60788a611e0f90919063ffffffff16565b611e2b90919063ffffffff16565b611e2b90919063ffffffff16565b611df690919063ffffffff16565b611df690919063ffffffff16565b95505050505b505092915050565b60008282600260003373ffffffffffffffffffffffffffffffffffffffff1673ffffffffffffffffffffffffffffffffffffffff1681526020019081526020016000208260058110610d7257fe5b603702018160058110610d8157fe5b600b020160040160009054906101000a900460ff16610e08576040517f08c379a000000000000000000000000000000000000000000000000000000000815260040180806020018281038252601d8152602001807f6c6f636174696f6e20646f6573206e6f742068617665207370726f757400000081525060200191505060405180910390fd5b600260003373ffffffffffffffffffffffffffffffffffffffff1673ffffffffffffffffffffffffffffffffffffffff1681526020019081526020016000208560058110610e5257fe5b603702018460058110610e6157fe5b600b0201600501600401549250505092915050565b60008060009054906101000a900473ffffffffffffffffffffffffffffffffffffffff16905090565b60008060009054906101000a900473ffffffffffffffffffffffffffffffffffffffff1673ffffffffffffffffffffffffffffffffffffffff163373ffffffffffffffffffffffffffffffffffffffff1614905090565b60008282600260003373ffffffffffffffffffffffffffffffffffffffff1673ffffffffffffffffffffffffffffffffffffffff1681526020019081526020016000208260058110610f4457fe5b603702018160058110610f5357fe5b600b020160040160009054906101000a900460ff16610fda576040517f08c379a000000000000000000000000000000000000000000000000000000000815260040180806020018281038252601d8152602001807f6c6f636174696f6e20646f6573206e6f742068617665207370726f757400000081525060200191505060405180910390fd5b6000610ff8610fe98787611caf565b42611c9890919063ffffffff16565b905060006110068787611d1a565b905060006110148888611e62565b90508183111561109b57611032601483611df690919063ffffffff16565b6110458385611c9890919063ffffffff16565b101561108f57611085600f6110776005611069600f86611e0f90919063ffffffff16565b611e2b90919063ffffffff16565b611df690919063ffffffff16565b9550505050611114565b60009550505050611114565b60008314156110b05760009550505050611114565b61110e83611100600f6110f2866110e460056110d6600f8a611e0f90919063ffffffff16565b611e2b90919063ffffffff16565b611e2b90919063ffffffff16565b611df690919063ffffffff16565b611df690919063ffffffff16565b95505050505b505092915050565b8181600260003373ffffffffffffffffffffffffffffffffffffffff1673ffffffffffffffffffffffffffffffffffffffff168152602001908152602001600020826005811061116857fe5b60370201816005811061117757fe5b600b020160040160009054906101000a900460ff166111fe576040517f08c379a000000000000000000000000000000000000000000000000000000000815260040180806020018281038252601d8152602001807f6c6f636174696f6e20646f6573206e6f742068617665207370726f757400000081525060200191505060405180910390fd5b600061121c61120d8686611caf565b42611c9890919063ffffffff16565b9050600061122a8686611d1a565b905060006112388787610ef6565b905060006112468888610afe565b90506000611258858584868d8d611ed0565b905060011515600260003373ffffffffffffffffffffffffffffffffffffffff1673ffffffffffffffffffffffffffffffffffffffff1681526020019081526020016000208a600581106112a857fe5b6037020189600581106112b757fe5b600b020160040160009054906101000a900460ff16151514156113e3576000600260003373ffffffffffffffffffffffffffffffffffffffff1673ffffffffffffffffffffffffffffffffffffffff1681526020019081526020016000208a6005811061132057fe5b60370201896005811061132f57fe5b600b020160040160006101000a81548160ff02191690831515021790555061139f81600360003373ffffffffffffffffffffffffffffffffffffffff1673ffffffffffffffffffffffffffffffffffffffff16815260200190815260200160002054611e0f90919063ffffffff16565b600360003373ffffffffffffffffffffffffffffffffffffffff1673ffffffffffffffffffffffffffffffffffffffff168152602001908152602001600020819055505b7fef9514e76636c86a9084470f65495ff78258053cada18c62136f204ff2f0daa28989604051808381526020018281526020019250505060405180910390a1505050505050505050565b600061143a3384846119dd565b6001905092915050565b6064600360003373ffffffffffffffffffffffffffffffffffffffff1673ffffffffffffffffffffffffffffffffffffffff16815260200190815260200160002054116114dc576040517f08c379a00000000000000000000000000000000000000000000000000000000081526004018080602001828103825260238152602001806128ec6023913960400191505060405180910390fd5b6000424460405160200180838152602001828152602001925050506040516020818303038152906040528051906020012060001c90506000444260405160200180838152602001828152602001925050506040516020818303038152906040528051906020012060001c9050611554848484846120c8565b6115a76064600360003373ffffffffffffffffffffffffffffffffffffffff1673ffffffffffffffffffffffffffffffffffffffff16815260200190815260200160002054611c9890919063ffffffff16565b600360003373ffffffffffffffffffffffffffffffffffffffff1673ffffffffffffffffffffffffffffffffffffffff1681526020019081526020016000208190555050505050565b6000600460008473ffffffffffffffffffffffffffffffffffffffff1673ffffffffffffffffffffffffffffffffffffffff16815260200190815260200160002060008373ffffffffffffffffffffffffffffffffffffffff1673ffffffffffffffffffffffffffffffffffffffff16815260200190815260200160002054905092915050565b60008282600260003373ffffffffffffffffffffffffffffffffffffffff1673ffffffffffffffffffffffffffffffffffffffff16815260200190815260200160002082600581106116c557fe5b6037020181600581106116d457fe5b600b020160040160009054906101000a900460ff1661175b576040517f08c379a000000000000000000000000000000000000000000000000000000000815260040180806020018281038252601d8152602001807f6c6f636174696f6e20646f6573206e6f742068617665207370726f757400000081525060200191505060405180910390fd5b600260003373ffffffffffffffffffffffffffffffffffffffff1673ffffffffffffffffffffffffffffffffffffffff16815260200190815260200160002085600581106117a557fe5b6037020184600581106117b457fe5b600b0201600501600201549250505092915050565b6117d1610e9f565b6117da57600080fd5b6117e38161275c565b50565b600073ffffffffffffffffffffffffffffffffffffffff168373ffffffffffffffffffffffffffffffffffffffff16141561186c576040517f08c379a00000000000000000000000000000000000000000000000000000000081526004018080602001828103825260248152602001806129346024913960400191505060405180910390fd5b600073ffffffffffffffffffffffffffffffffffffffff168273ffffffffffffffffffffffffffffffffffffffff1614156118f2576040517f08c379a00000000000000000000000000000000000000000000000000000000081526004018080602001828103825260228152602001806128ca6022913960400191505060405180910390fd5b80600460008573ffffffffffffffffffffffffffffffffffffffff1673ffffffffffffffffffffffffffffffffffffffff16815260200190815260200160002060008473ffffffffffffffffffffffffffffffffffffffff1673ffffffffffffffffffffffffffffffffffffffff168152602001908152602001600020819055508173ffffffffffffffffffffffffffffffffffffffff168373ffffffffffffffffffffffffffffffffffffffff167f8c5be1e5ebec7d5bd14f71427d1e84f3dd0314c0f7b2291e5b200ac8c7c3b925836040518082815260200191505060405180910390a3505050565b600073ffffffffffffffffffffffffffffffffffffffff168373ffffffffffffffffffffffffffffffffffffffff161415611a63576040517f08c379a000000000000000000000000000000000000000000000000000000000815260040180806020018281038252602581526020018061290f6025913960400191505060405180910390fd5b600073ffffffffffffffffffffffffffffffffffffffff168273ffffffffffffffffffffffffffffffffffffffff161415611ae9576040517f08c379a00000000000000000000000000000000000000000000000000000000081526004018080602001828103825260238152602001806128a76023913960400191505060405180910390fd5b611b3b81600360008673ffffffffffffffffffffffffffffffffffffffff1673ffffffffffffffffffffffffffffffffffffffff16815260200190815260200160002054611c9890919063ffffffff16565b600360008573ffffffffffffffffffffffffffffffffffffffff1673ffffffffffffffffffffffffffffffffffffffff16815260200190815260200160002081905550611bd081600360008573ffffffffffffffffffffffffffffffffffffffff1673ffffffffffffffffffffffffffffffffffffffff16815260200190815260200160002054611e0f90919063ffffffff16565b600360008473ffffffffffffffffffffffffffffffffffffffff1673ffffffffffffffffffffffffffffffffffffffff16815260200190815260200160002081905550611c2881600554611e0f90919063ffffffff16565b6005819055508173ffffffffffffffffffffffffffffffffffffffff168373ffffffffffffffffffffffffffffffffffffffff167fddf252ad1be2c89b69c2b068fc378daa952ba7f163c4a11628f55a4df523b3ef836040518082815260200191505060405180910390a3505050565b600082821115611ca457fe5b818303905092915050565b6000600260003373ffffffffffffffffffffffffffffffffffffffff1673ffffffffffffffffffffffffffffffffffffffff1681526020019081526020016000208360058110611cfb57fe5b603702018260058110611d0a57fe5b600b020160020154905092915050565b6000600260003373ffffffffffffffffffffffffffffffffffffffff1673ffffffffffffffffffffffffffffffffffffffff1681526020019081526020016000208360058110611d6657fe5b603702018260058110611d7557fe5b600b020160050160030154905092915050565b6000600260003373ffffffffffffffffffffffffffffffffffffffff1673ffffffffffffffffffffffffffffffffffffffff1681526020019081526020016000208360058110611dd457fe5b603702018260058110611de357fe5b600b020160050160000154905092915050565b600080828481611e0257fe5b0490508091505092915050565b600080828401905083811015611e2157fe5b8091505092915050565b600080831415611e3e5760009050611e5c565b6000828402905082848281611e4f57fe5b0414611e5757fe5b809150505b92915050565b6000600260003373ffffffffffffffffffffffffffffffffffffffff1673ffffffffffffffffffffffffffffffffffffffff1681526020019081526020016000208360058110611eae57fe5b603702018260058110611ebd57fe5b600b020160050160010154905092915050565b60008282600260003373ffffffffffffffffffffffffffffffffffffffff1673ffffffffffffffffffffffffffffffffffffffff1681526020019081526020016000208260058110611f1e57fe5b603702018160058110611f2d57fe5b600b020160040160009054906101000a900460ff16611fb4576040517f08c379a000000000000000000000000000000000000000000000000000000000815260040180806020018281038252601d8152602001807f6c6f636174696f6e20646f6573206e6f742068617665207370726f757400000081525060200191505060405180910390fd5b6000611fc08686611677565b90506000611fce8787610886565b90506000611fdc8888610727565b90508a8c111561202b57611ffa60148c611df690919063ffffffff16565b61200d8c8e611c9890919063ffffffff16565b101561201f57600595505050506120bc565b600095505050506120bc565b60008c141561204057600295505050506120bc565b600061207a612059600a86611df690919063ffffffff16565b61206c8c8e611e2b90919063ffffffff16565b611c9890919063ffffffff16565b9050811561209857612096600582611e0f90919063ffffffff16565b505b82156120b4576120b2600582611e0f90919063ffffffff16565b505b809650505050505b50509695505050505050565b60001515600260003373ffffffffffffffffffffffffffffffffffffffff1673ffffffffffffffffffffffffffffffffffffffff168152602001908152602001600020856005811061211657fe5b60370201846005811061212557fe5b600b020160040160009054906101000a900460ff1615151461214657600080fd5b6121ab600260003373ffffffffffffffffffffffffffffffffffffffff1673ffffffffffffffffffffffffffffffffffffffff168152602001908152602001600020856005811061219357fe5b6037020184600581106121a257fe5b600b0201612854565b6121b457600080fd5b6121bc612865565b6040518060e00160405280600081526020016000815260200160008152602001600081526020016000815260200160001515815260200160001515815250905060008390506000839050600060016002838161221457fe5b066002858161221f57fe5b0617148460a0019015159081151581525050600183901c9250600182901c915060016002838161224b57fe5b066002858161225657fe5b0617148460c00190151590811515815250506000600290505b60298110156122fd5760016002858161228457fe5b0614156122ad576122a360018660400151611e0f90919063ffffffff16565b8560400181815250505b6001600284816122b957fe5b0614156122e2576122d860018660400151611e0f90919063ffffffff16565b8560400181815250505b600184901c9350600183901c9250808060010191505061226f565b506000602990505b60658110156123935760016002858161231a57fe5b0614156123435761233960018660200151611e0f90919063ffffffff16565b8560200181815250505b60016002848161234f57fe5b0614156123785761236e60018660200151611e0f90919063ffffffff16565b8560200181815250505b600184901c9350600183901c92508080600101915050612305565b506000606590505b60a1811015612429576001600285816123b057fe5b0614156123d9576123cf60018660000151611e0f90919063ffffffff16565b8560000181815250505b6001600284816123e557fe5b06141561240e5761240460018660000151611e0f90919063ffffffff16565b8560000181815250505b600184901c9350600183901c9250808060010191505061239b565b50600060a190505b60c98110156124bf5760016002858161244657fe5b06141561246f5761246560018660800151611e0f90919063ffffffff16565b8560800181815250505b60016002848161247b57fe5b0614156124a45761249a60018660800151611e0f90919063ffffffff16565b8560800181815250505b600184901c9350600183901c92508080600101915050612431565b50600060c990505b610100811015612540576001600285816124dd57fe5b0614156124fb576124f8600183611e0f90919063ffffffff16565b91505b60016002848161250757fe5b06141561252557612522600183611e0f90919063ffffffff16565b91505b600184901c9350600183901c925080806001019150506124c7565b506201518060be61256e6002612560600386611e2b90919063ffffffff16565b611df690919063ffffffff16565b61017c038161257957fe5b04028460600181815250506040518060e001604052808781526020018681526020014281526020016000815260200160011515815260200160001515815260200185815250600260003373ffffffffffffffffffffffffffffffffffffffff1673ffffffffffffffffffffffffffffffffffffffff168152602001908152602001600020896005811061260857fe5b60370201886005811061261757fe5b600b02016000820151816000015560208201518160010155604082015181600201556060820151816003015560808201518160040160006101000a81548160ff02191690831515021790555060a08201518160040160016101000a81548160ff02191690831515021790555060c082015181600501600082015181600001556020820151816001015560408201518160020155606082015181600301556080820151816004015560a08201518160050160006101000a81548160ff02191690831515021790555060c08201518160050160016101000a81548160ff02191690831515021790555050509050507f29673a2c4180cee02675c1aeac3253f75b8a067246770a77b079d48c92248cbd888888886040518085815260200184815260200183815260200182815260200194505050505060405180910390a15050505050505050565b600073ffffffffffffffffffffffffffffffffffffffff168173ffffffffffffffffffffffffffffffffffffffff16141561279657600080fd5b8073ffffffffffffffffffffffffffffffffffffffff166000809054906101000a900473ffffffffffffffffffffffffffffffffffffffff1673ffffffffffffffffffffffffffffffffffffffff167f8be0079c531659141344cd1fd0a4f28419497f9722a3daafe3b4186f6b6457e060405160405180910390a3806000806101000a81548173ffffffffffffffffffffffffffffffffffffffff021916908373ffffffffffffffffffffffffffffffffffffffff16021790555050565b600042826003015411159050919050565b6040518060e001604052806000815260200160008152602001600081526020016000815260200160008152602001600015158152602001600015158152509056fe45524332303a207472616e7366657220746f20746865207a65726f206164647265737345524332303a20617070726f766520746f20746865207a65726f20616464726573736e6f7420656e6f756768206d6f6e657920746f206275792072616e646f6d207365656445524332303a207472616e736665722066726f6d20746865207a65726f206164647265737345524332303a20617070726f76652066726f6d20746865207a65726f2061646472657373a265627a7a72315820c41ed9c44c90d31f9c5bd5b03f8f01e1a6c52154ac472b84d163e28dda6a3a7364736f6c63430005100032",
  "source": "pragma solidity ^0.5.0;\n\nimport \"./erc20.sol\";\nimport \"./safemath.sol\";\nimport \"./sprout.sol\";\n\ncontract SproutOwnership is Sprout, ERC20 {\n\n  using SafeMath for uint256;\n\n  //mapping to show who is allow to use who's token\n  mapping (address => mapping (address => uint256)) private _allowances;\n\n  uint256 private _totalSupply = 0; // the total tokens being transferred\n\n//basic functions for ERC20\n  function _transfer(address sender, address recipient, uint256 amount) internal {\n    require(sender != address(0), \"ERC20: transfer from the zero address\");\n    require(recipient != address(0), \"ERC20: transfer to the zero address\");\n    balance[sender] = balance[sender].sub(amount);\n    balance[recipient] = balance[recipient].add(amount);\n    _totalSupply = _totalSupply.add(amount);\n    emit Transfer(sender, recipient, amount);\n  }\n\n  function _approve(address owner, address spender, uint256 amount) internal {\n    require(owner != address(0), \"ERC20: approve from the zero address\");\n    require(spender != address(0), \"ERC20: approve to the zero address\");\n    _allowances[owner][spender] = amount;\n    emit Approval(owner, spender, amount);\n  }\n\n  function totalSupply() public view returns (uint256) {\n        return _totalSupply;\n  }\n\n  function balanceOf(address account) public view returns (uint256) {\n        return balance[account];\n  }\n  \n  function transfer(address _to, uint256 value) public returns (bool) {\n        _transfer(msg.sender, _to, value);\n        return true;\n  }\n  \n  function transferFrom(address sender, address recipient, uint256 amount) public returns (bool) {\n        _transfer(sender, recipient, amount);\n        _approve(sender, msg.sender, _allowances[sender][msg.sender].sub(amount));\n        return true;\n   }\n   \n   function approve(address spender, uint256 amount) public returns (bool) {\n        _approve(msg.sender, spender, amount);\n        return true;\n    }\n    \n    function allowance(address owner, address spender) public view returns (uint256) {\n        return _allowances[owner][spender];\n    }\n}\n",
  "sourcePath": "/Users/catherine/Documents/GitHub/finals/nmlab_final/contracts/token.sol",
  "compiler": {
    "name": "solc",
    "version": "0.5.16+commit.9c3226ce.Emscripten.clang"
  },
  "schemaVersion": "3.1.0",
  "updatedAt": "2020-06-15T09:43:11.421Z",
  "devdoc": {
    "methods": {
      "isOwner()": {
        "return": "true if `msg.sender` is the owner of the contract."
      },
      "owner()": {
        "return": "the address of the owner."
      },
      "renounceOwnership()": {
        "details": "Allows the current owner to relinquish control of the contract."
      },
      "transferOwnership(address)": {
        "details": "Allows the current owner to transfer control of the contract to a newOwner.",
        "params": {
          "newOwner": "The address to transfer ownership to."
        }
      }
    }
  },
  "userdoc": {
    "methods": {
      "renounceOwnership()": {
        "notice": "Renouncing to ownership will leave the contract without an owner. It will not be possible to call the functions with the `onlyOwner` modifier anymore."
      }
    }
  }
}