{
  "contractName": "Sprout",
  "abi": [
    {
      "anonymous": false,
      "inputs": [
        {
          "indexed": false,
          "internalType": "uint256",
          "name": "x_id",
          "type": "uint256"
        },
        {
          "indexed": false,
          "internalType": "uint256",
          "name": "y_id",
          "type": "uint256"
        },
        {
          "indexed": false,
          "internalType": "uint256",
          "name": "dna1",
          "type": "uint256"
        },
        {
          "indexed": false,
          "internalType": "uint256",
          "name": "dna2",
          "type": "uint256"
        }
      ],
      "name": "OnAdd",
      "type": "event"
    },
    {
      "anonymous": false,
      "inputs": [
        {
          "indexed": false,
          "internalType": "uint256",
          "name": "x_id",
          "type": "uint256"
        },
        {
          "indexed": false,
          "internalType": "uint256",
          "name": "y_id",
          "type": "uint256"
        }
      ],
      "name": "OnPlug",
      "type": "event"
    },
    {
      "anonymous": false,
      "inputs": [
        {
          "indexed": true,
          "internalType": "address",
          "name": "previousOwner",
          "type": "address"
        },
        {
          "indexed": true,
          "internalType": "address",
          "name": "newOwner",
          "type": "address"
        }
      ],
      "name": "OwnershipTransferred",
      "type": "event"
    },
    {
      "anonymous": false,
      "inputs": [
        {
          "indexed": false,
          "internalType": "uint256",
          "name": "s",
          "type": "uint256"
        }
      ],
      "name": "debugStage",
      "type": "event"
    },
    {
      "constant": true,
      "inputs": [],
      "name": "isOwner",
      "outputs": [
        {
          "internalType": "bool",
          "name": "",
          "type": "bool"
        }
      ],
      "payable": false,
      "stateMutability": "view",
      "type": "function"
    },
    {
      "constant": true,
      "inputs": [],
      "name": "owner",
      "outputs": [
        {
          "internalType": "address",
          "name": "",
          "type": "address"
        }
      ],
      "payable": false,
      "stateMutability": "view",
      "type": "function"
    },
    {
      "constant": false,
      "inputs": [],
      "name": "renounceOwnership",
      "outputs": [],
      "payable": false,
      "stateMutability": "nonpayable",
      "type": "function"
    },
    {
      "constant": false,
      "inputs": [
        {
          "internalType": "address",
          "name": "newOwner",
          "type": "address"
        }
      ],
      "name": "transferOwnership",
      "outputs": [],
      "payable": false,
      "stateMutability": "nonpayable",
      "type": "function"
    },
    {
      "constant": true,
      "inputs": [],
      "name": "getBalance",
      "outputs": [
        {
          "internalType": "uint256",
          "name": "",
          "type": "uint256"
        }
      ],
      "payable": false,
      "stateMutability": "view",
      "type": "function"
    },
    {
      "constant": true,
      "inputs": [
        {
          "internalType": "uint256",
          "name": "x_id",
          "type": "uint256"
        },
        {
          "internalType": "uint256",
          "name": "y_id",
          "type": "uint256"
        }
      ],
      "name": "getSeedRound",
      "outputs": [
        {
          "internalType": "bool",
          "name": "",
          "type": "bool"
        }
      ],
      "payable": false,
      "stateMutability": "view",
      "type": "function"
    },
    {
      "constant": true,
      "inputs": [
        {
          "internalType": "uint256",
          "name": "x_id",
          "type": "uint256"
        },
        {
          "internalType": "uint256",
          "name": "y_id",
          "type": "uint256"
        }
      ],
      "name": "getSeedYellow",
      "outputs": [
        {
          "internalType": "bool",
          "name": "",
          "type": "bool"
        }
      ],
      "payable": false,
      "stateMutability": "view",
      "type": "function"
    },
    {
      "constant": true,
      "inputs": [
        {
          "internalType": "uint256",
          "name": "x_id",
          "type": "uint256"
        },
        {
          "internalType": "uint256",
          "name": "y_id",
          "type": "uint256"
        }
      ],
      "name": "getColor",
      "outputs": [
        {
          "internalType": "uint256",
          "name": "",
          "type": "uint256"
        }
      ],
      "payable": false,
      "stateMutability": "view",
      "type": "function"
    },
    {
      "constant": false,
      "inputs": [
        {
          "internalType": "uint256",
          "name": "x_id",
          "type": "uint256"
        },
        {
          "internalType": "uint256",
          "name": "y_id",
          "type": "uint256"
        }
      ],
      "name": "randomAddSprout",
      "outputs": [],
      "payable": false,
      "stateMutability": "nonpayable",
      "type": "function"
    },
    {
      "constant": true,
      "inputs": [
        {
          "internalType": "uint256",
          "name": "now_stage",
          "type": "uint256"
        },
        {
          "internalType": "uint256",
          "name": "fullgrown_time",
          "type": "uint256"
        },
        {
          "internalType": "uint256",
          "name": "x_id",
          "type": "uint256"
        },
        {
          "internalType": "uint256",
          "name": "y_id",
          "type": "uint256"
        }
      ],
      "name": "getSproutHeight",
      "outputs": [
        {
          "internalType": "uint256",
          "name": "",
          "type": "uint256"
        }
      ],
      "payable": false,
      "stateMutability": "view",
      "type": "function"
    },
    {
      "constant": true,
      "inputs": [
        {
          "internalType": "uint256",
          "name": "now_stage",
          "type": "uint256"
        },
        {
          "internalType": "uint256",
          "name": "fullgrown_time",
          "type": "uint256"
        },
        {
          "internalType": "uint256",
          "name": "x_id",
          "type": "uint256"
        },
        {
          "internalType": "uint256",
          "name": "y_id",
          "type": "uint256"
        }
      ],
      "name": "getSproutWidth",
      "outputs": [
        {
          "internalType": "uint256",
          "name": "",
          "type": "uint256"
        }
      ],
      "payable": false,
      "stateMutability": "view",
      "type": "function"
    },
    {
      "constant": false,
      "inputs": [
        {
          "internalType": "uint256",
          "name": "x_id",
          "type": "uint256"
        },
        {
          "internalType": "uint256",
          "name": "y_id",
          "type": "uint256"
        }
      ],
      "name": "plugSprout",
      "outputs": [],
      "payable": false,
      "stateMutability": "nonpayable",
      "type": "function"
    }
  ],
  "bytecode": "0x608060405261a8c0600155336000806101000a81548173ffffffffffffffffffffffffffffffffffffffff021916908373ffffffffffffffffffffffffffffffffffffffff1602179055506000809054906101000a900473ffffffffffffffffffffffffffffffffffffffff1673ffffffffffffffffffffffffffffffffffffffff16600073ffffffffffffffffffffffffffffffffffffffff167f8be0079c531659141344cd1fd0a4f28419497f9722a3daafe3b4186f6b6457e060405160405180910390a3611b27806100d56000396000f3fe608060405234801561001057600080fd5b50600436106100b45760003560e01c80638f32d59b116100715780638f32d59b1461022b578063990e74691461024d578063a55ca3ac14610285578063aa7bcc58146102e5578063eded5d9e1461031d578063f2fde38b14610369576100b4565b806312065fe0146100b957806340588a4b146100d7578063435184471461013757806359ca683c14610187578063715018a6146101d75780638da5cb5b146101e1575b600080fd5b6100c16103ad565b6040518082815260200191505060405180910390f35b610121600480360360808110156100ed57600080fd5b81019080803590602001909291908035906020019092919080359060200190929190803590602001909291905050506103f4565b6040518082815260200191505060405180910390f35b61016d6004803603604081101561014d57600080fd5b8101908080359060200190929190803590602001909291905050506105e6565b604051808215151515815260200191505060405180910390f35b6101bd6004803603604081101561019d57600080fd5b810190808035906020019092919080359060200190929190505050610745565b604051808215151515815260200191505060405180910390f35b6101df6108a4565b005b6101e9610974565b604051808273ffffffffffffffffffffffffffffffffffffffff1673ffffffffffffffffffffffffffffffffffffffff16815260200191505060405180910390f35b61023361099d565b604051808215151515815260200191505060405180910390f35b6102836004803603604081101561026357600080fd5b8101908080359060200190929190803590602001909291905050506109f4565b005b6102cf6004803603608081101561029b57600080fd5b8101908080359060200190929190803590602001909291908035906020019092919080359060200190929190505050610c25565b6040518082815260200191505060405180910390f35b61031b600480360360408110156102fb57600080fd5b810190808035906020019092919080359060200190929190505050610e17565b005b6103536004803603604081101561033357600080fd5b810190808035906020019092919080359060200190929190505050610e85565b6040518082815260200191505060405180910390f35b6103ab6004803603602081101561037f57600080fd5b81019080803573ffffffffffffffffffffffffffffffffffffffff169060200190929190505050610fd7565b005b6000600360003373ffffffffffffffffffffffffffffffffffffffff1673ffffffffffffffffffffffffffffffffffffffff16815260200190815260200160002054905090565b60008282600260003373ffffffffffffffffffffffffffffffffffffffff1673ffffffffffffffffffffffffffffffffffffffff168152602001908152602001600020826005811061044257fe5b60320201816005811061045157fe5b600a020160040160009054906101000a900460ff166104d8576040517f08c379a00000000000000000000000000000000000000000000000000000000081526004018080602001828103825260178152602001807f6c6f636174696f6e20646f6573206e6f7420657869737400000000000000000081525060200191505060405180910390fd5b60006104e48686610ff4565b9050868811156105675761050260148861106290919063ffffffff16565b610515888a61107b90919063ffffffff16565b101561055d57610555600f6105476005610539600f8661109290919063ffffffff16565b6110ae90919063ffffffff16565b61106290919063ffffffff16565b9350506105dc565b60009350506105dc565b600088141561057a5760009350506105dc565b6105d8886105ca600f6105bc8b6105ae60056105a0600f8a61109290919063ffffffff16565b6110ae90919063ffffffff16565b6110ae90919063ffffffff16565b61106290919063ffffffff16565b61106290919063ffffffff16565b9350505b5050949350505050565b60008282600260003373ffffffffffffffffffffffffffffffffffffffff1673ffffffffffffffffffffffffffffffffffffffff168152602001908152602001600020826005811061063457fe5b60320201816005811061064357fe5b600a020160040160009054906101000a900460ff166106ca576040517f08c379a00000000000000000000000000000000000000000000000000000000081526004018080602001828103825260178152602001807f6c6f636174696f6e20646f6573206e6f7420657869737400000000000000000081525060200191505060405180910390fd5b600260003373ffffffffffffffffffffffffffffffffffffffff1673ffffffffffffffffffffffffffffffffffffffff168152602001908152602001600020856005811061071457fe5b60320201846005811061072357fe5b600a020160050160040160019054906101000a900460ff169250505092915050565b60008282600260003373ffffffffffffffffffffffffffffffffffffffff1673ffffffffffffffffffffffffffffffffffffffff168152602001908152602001600020826005811061079357fe5b6032020181600581106107a257fe5b600a020160040160009054906101000a900460ff16610829576040517f08c379a00000000000000000000000000000000000000000000000000000000081526004018080602001828103825260178152602001807f6c6f636174696f6e20646f6573206e6f7420657869737400000000000000000081525060200191505060405180910390fd5b600260003373ffffffffffffffffffffffffffffffffffffffff1673ffffffffffffffffffffffffffffffffffffffff168152602001908152602001600020856005811061087357fe5b60320201846005811061088257fe5b600a020160050160040160019054906101000a900460ff169250505092915050565b6108ac61099d565b6108b557600080fd5b600073ffffffffffffffffffffffffffffffffffffffff166000809054906101000a900473ffffffffffffffffffffffffffffffffffffffff1673ffffffffffffffffffffffffffffffffffffffff167f8be0079c531659141344cd1fd0a4f28419497f9722a3daafe3b4186f6b6457e060405160405180910390a360008060006101000a81548173ffffffffffffffffffffffffffffffffffffffff021916908373ffffffffffffffffffffffffffffffffffffffff160217905550565b60008060009054906101000a900473ffffffffffffffffffffffffffffffffffffffff16905090565b60008060009054906101000a900473ffffffffffffffffffffffffffffffffffffffff1673ffffffffffffffffffffffffffffffffffffffff163373ffffffffffffffffffffffffffffffffffffffff1614905090565b6000610a12610a0384846110e5565b4261107b90919063ffffffff16565b90506000610a208484611150565b90506000610a30838387876103f4565b90506000610a4084848888610c25565b90506000610a52858584868b8b6111be565b905060011515600260003373ffffffffffffffffffffffffffffffffffffffff1673ffffffffffffffffffffffffffffffffffffffff1681526020019081526020016000208860058110610aa257fe5b603202018760058110610ab157fe5b600a020160040160009054906101000a900460ff1615151415610bdd576000600260003373ffffffffffffffffffffffffffffffffffffffff1673ffffffffffffffffffffffffffffffffffffffff1681526020019081526020016000208860058110610b1a57fe5b603202018760058110610b2957fe5b600a020160040160006101000a81548160ff021916908315150217905550610b9981600360003373ffffffffffffffffffffffffffffffffffffffff1673ffffffffffffffffffffffffffffffffffffffff1681526020019081526020016000205461109290919063ffffffff16565b600360003373ffffffffffffffffffffffffffffffffffffffff1673ffffffffffffffffffffffffffffffffffffffff168152602001908152602001600020819055505b7fef9514e76636c86a9084470f65495ff78258053cada18c62136f204ff2f0daa28787604051808381526020018281526020019250505060405180910390a150505050505050565b60008282600260003373ffffffffffffffffffffffffffffffffffffffff1673ffffffffffffffffffffffffffffffffffffffff1681526020019081526020016000208260058110610c7357fe5b603202018160058110610c8257fe5b600a020160040160009054906101000a900460ff16610d09576040517f08c379a00000000000000000000000000000000000000000000000000000000081526004018080602001828103825260178152602001807f6c6f636174696f6e20646f6573206e6f7420657869737400000000000000000081525060200191505060405180910390fd5b6000610d1586866113b6565b905086881115610d9857610d3360148861106290919063ffffffff16565b610d46888a61107b90919063ffffffff16565b1015610d8e57610d866078610d78603c610d6a60788661109290919063ffffffff16565b6110ae90919063ffffffff16565b61106290919063ffffffff16565b935050610e0d565b6000935050610e0d565b6000881415610dab576000935050610e0d565b610e0988610dfb6078610ded8b610ddf603c610dd160788a61109290919063ffffffff16565b6110ae90919063ffffffff16565b6110ae90919063ffffffff16565b61106290919063ffffffff16565b61106290919063ffffffff16565b9350505b5050949350505050565b600042604051602001808281526020019150506040516020818303038152906040528051906020012060001c9050600044604051602001808281526020019150506040516020818303038152906040528051906020012060001c9050610e7f84848484611424565b50505050565b60008282600260003373ffffffffffffffffffffffffffffffffffffffff1673ffffffffffffffffffffffffffffffffffffffff1681526020019081526020016000208260058110610ed357fe5b603202018160058110610ee257fe5b600a020160040160009054906101000a900460ff16610f69576040517f08c379a00000000000000000000000000000000000000000000000000000000081526004018080602001828103825260178152602001807f6c6f636174696f6e20646f6573206e6f7420657869737400000000000000000081525060200191505060405180910390fd5b600260003373ffffffffffffffffffffffffffffffffffffffff1673ffffffffffffffffffffffffffffffffffffffff1681526020019081526020016000208560058110610fb357fe5b603202018460058110610fc257fe5b600a0201600501600201549250505092915050565b610fdf61099d565b610fe857600080fd5b610ff1816119af565b50565b6000600260003373ffffffffffffffffffffffffffffffffffffffff1673ffffffffffffffffffffffffffffffffffffffff168152602001908152602001600020836005811061104057fe5b60320201826005811061104f57fe5b600a020160050160010154905092915050565b60008082848161106e57fe5b0490508091505092915050565b60008282111561108757fe5b818303905092915050565b6000808284019050838110156110a457fe5b8091505092915050565b6000808314156110c157600090506110df565b60008284029050828482816110d257fe5b04146110da57fe5b809150505b92915050565b6000600260003373ffffffffffffffffffffffffffffffffffffffff1673ffffffffffffffffffffffffffffffffffffffff168152602001908152602001600020836005811061113157fe5b60320201826005811061114057fe5b600a020160020154905092915050565b6000600260003373ffffffffffffffffffffffffffffffffffffffff1673ffffffffffffffffffffffffffffffffffffffff168152602001908152602001600020836005811061119c57fe5b6032020182600581106111ab57fe5b600a020160050160030154905092915050565b60008282600260003373ffffffffffffffffffffffffffffffffffffffff1673ffffffffffffffffffffffffffffffffffffffff168152602001908152602001600020826005811061120c57fe5b60320201816005811061121b57fe5b600a020160040160009054906101000a900460ff166112a2576040517f08c379a00000000000000000000000000000000000000000000000000000000081526004018080602001828103825260178152602001807f6c6f636174696f6e20646f6573206e6f7420657869737400000000000000000081525060200191505060405180910390fd5b60006112ae8686610e85565b905060006112bc8787610745565b905060006112ca88886105e6565b90508a8c1115611319576112e860148c61106290919063ffffffff16565b6112fb8c8e61107b90919063ffffffff16565b101561130d57600595505050506113aa565b600095505050506113aa565b60008c141561132e57600295505050506113aa565b6000611368611347600a8661106290919063ffffffff16565b61135a8c8e6110ae90919063ffffffff16565b61107b90919063ffffffff16565b905081156113865761138460058261109290919063ffffffff16565b505b82156113a2576113a060058261109290919063ffffffff16565b505b809650505050505b50509695505050505050565b6000600260003373ffffffffffffffffffffffffffffffffffffffff1673ffffffffffffffffffffffffffffffffffffffff168152602001908152602001600020836005811061140257fe5b60320201826005811061141157fe5b600a020160050160000154905092915050565b60001515600260003373ffffffffffffffffffffffffffffffffffffffff1673ffffffffffffffffffffffffffffffffffffffff168152602001908152602001600020856005811061147257fe5b60320201846005811061148157fe5b600a020160040160009054906101000a900460ff161515146114a257600080fd5b611507600260003373ffffffffffffffffffffffffffffffffffffffff1673ffffffffffffffffffffffffffffffffffffffff16815260200190815260200160002085600581106114ef57fe5b6032020184600581106114fe57fe5b600a0201611aa7565b61151057600080fd5b611518611ab8565b60008390506000839050600060016002838161153057fe5b066002858161153b57fe5b061714846080019015159081151581525050600183901c9250600182901c915060016002838161156757fe5b066002858161157257fe5b0617148460a00190151590811515815250506000600290505b6029811015611619576001600285816115a057fe5b0614156115c9576115bf6001866040015161109290919063ffffffff16565b8560400181815250505b6001600284816115d557fe5b0614156115fe576115f46001866040015161109290919063ffffffff16565b8560400181815250505b600184901c9350600183901c9250808060010191505061158b565b506000602990505b60658110156116af5760016002858161163657fe5b06141561165f576116556001866020015161109290919063ffffffff16565b8560200181815250505b60016002848161166b57fe5b0614156116945761168a6001866020015161109290919063ffffffff16565b8560200181815250505b600184901c9350600183901c92508080600101915050611621565b506000606590505b60a1811015611745576001600285816116cc57fe5b0614156116f5576116eb6001866000015161109290919063ffffffff16565b8560000181815250505b60016002848161170157fe5b06141561172a576117206001866000015161109290919063ffffffff16565b8560000181815250505b600184901c9350600183901c925080806001019150506116b7565b50600060a190505b6101008110156117c65760016002858161176357fe5b0614156117815761177e60018361109290919063ffffffff16565b91505b60016002848161178d57fe5b0614156117ab576117a860018361109290919063ffffffff16565b91505b600184901c9350600183901c9250808060010191505061174d565b506201518060be6117f460026117e66003866110ae90919063ffffffff16565b61106290919063ffffffff16565b61017c03816117ff57fe5b04028460600181815250506040518060c001604052808781526020018681526020014281526020016000815260200160011515815260200185815250600260003373ffffffffffffffffffffffffffffffffffffffff1673ffffffffffffffffffffffffffffffffffffffff168152602001908152602001600020896005811061188557fe5b60320201886005811061189457fe5b600a02016000820151816000015560208201518160010155604082015181600201556060820151816003015560808201518160040160006101000a81548160ff02191690831515021790555060a0820151816005016000820151816000015560208201518160010155604082015181600201556060820151816003015560808201518160040160006101000a81548160ff02191690831515021790555060a08201518160040160016101000a81548160ff02191690831515021790555050509050507f29673a2c4180cee02675c1aeac3253f75b8a067246770a77b079d48c92248cbd888888886040518085815260200184815260200183815260200182815260200194505050505060405180910390a15050505050505050565b600073ffffffffffffffffffffffffffffffffffffffff168173ffffffffffffffffffffffffffffffffffffffff1614156119e957600080fd5b8073ffffffffffffffffffffffffffffffffffffffff166000809054906101000a900473ffffffffffffffffffffffffffffffffffffffff1673ffffffffffffffffffffffffffffffffffffffff167f8be0079c531659141344cd1fd0a4f28419497f9722a3daafe3b4186f6b6457e060405160405180910390a3806000806101000a81548173ffffffffffffffffffffffffffffffffffffffff021916908373ffffffffffffffffffffffffffffffffffffffff16021790555050565b600042826003015411159050919050565b6040518060c0016040528060008152602001600081526020016000815260200160008152602001600015158152602001600015158152509056fea265627a7a72315820726835a48e663491beb391fdcadd8e6c926be623545b6af6299c77861cdc56e464736f6c63430005100032",
  "source": "pragma solidity ^0.5.0;\n\nimport \"./ownable.sol\";\nimport \"./safemath.sol\";\n\n/*I design the DNA to have two strains(dna1, dna2 uint256), \n    The following is the representative of each gene (in LSB order)\n        0 -> seed yellow (dominant), green(recessive) [mendilan trait]\n        1 -> seed round (dominant), wrinkled(recessive) [mendilan trait]\n        2~40 -> whole color (from pale yellow to dark green) [polygenic trait]\n        41~100 ->  stem width [polygenic trait]\n        101~160 ->  stem height [polygenic trait]\n        161~256 ->  grow speed [polygenic trait]\n\n        *mendilan trait: \n        output is a bool= (bit1|bit2 == 1), recessive trait=false, domminent trait= True\n        *polygenetic trait:\n        output is uint8, represent the amount of 1 among the corresponding bits\n        \nAbout Traits:\n     height(uint): the full grown height of height gene=0 is 60 cm, gene=120 is 180 cm\n     width(uint): the full grown width of width gene=0 is 5 mm, gene=120 is 20 mm\n     color(uint): I guess I will directly return the gene(cause I don't really know how to present color with 1 dim...)\n     It take 2 days to reach full grown for speed gene=0, half day for speed gene = 190\n     (though the actual game won't be that long because we'd like to plug it up before the sprout get too green and stiff)\n     mendilan trait(bool): directly return the bool \n\nAbout Growing:\n    1. before the reaching 10% of full growth, the seed would shown, but slowly sinking into ground\n        (it's the perfect time to plug the sprout!, giving true for sprout stage (bool))\n    2. the color I guess should be turning greener and greener (though I don't really know how to design this part) \n    3. all the growing before full grown is linear\n    4. after full grown, it use 5% of the full grown time to die off, all the other feature would remain same in this period\n        (represent by another uint die_stage, det defaultly highest to 10)\n    5. The bean can only be planted at (x, y) where 0 <= x <10, 0 <= y < 10\n\nAbout price:\n    1. plug a non-sprout stage bean stalk get $10\n    2. plug a dying stage bean stalk get $5\n    3. a sprout's price = height*width-color/10\n    4. price +5 if bean is round\n    5. price +5 if bean is yellow  \n\n\n\nNotes:\n    1. The reason I have such a lengthy design for the whole bean lifespan is because I originally thought of designing the \n        feature of the whole reproducing process and maybe cultivate or trading seeds(which I don't really know if we have time for)\n        If it would be implemented, there's definately more parameter to be set.\n    3. I'm also thinking of some level up species could be represented as mendilen trait\n        (which would be always 1/0 before reaching a certain level)\n    4. In addition to the current polygene traits, I'm also consider adding some other such as disease resistence, productivity, etc.\n    5. Feel free to let me know if you think any design is impractical or what parameter is wierd or any other helpful advice :)\n\n\n    \n*/\ncontract Sprout is Ownable {\n\n  using SafeMath for uint256;\n\n  event OnAdd(uint x_id, uint y_id, uint dna1, uint dna2);\n  event OnPlug(uint x_id, uint y_id);\n  //events for debug usage\n  event debugStage(uint s);\n  \n  //If the sprout didn't be plugged and then died, 12 hours later can the grid be added with a new sprout. \n  uint replantTime = 12 hours;\n  \n  struct sprout {\n    uint dna1;\n    uint dna2;\n    uint planttime;\n    uint readytime;//ready to replant\n    bool isset;\n    gene g;\n  }\n\n  struct gene {\n    uint height_gen;\n    uint width_gen;\n    uint color;\n    uint fullgrown_time;\n    bool seed_yellow;\n    bool seed_round;\n  }\n  \n  \n  //sprout[] public sprouts;//store sprout id\n  \n  mapping (address => sprout[5][5]) sprout_list;\n  mapping (address => uint) balance;//account\n\n  modifier SproutExist(uint x_id, uint y_id){\n    require(sprout_list[msg.sender][x_id][y_id].isset, \"location does not exist\");\n    _;\n  }\n  \n  function _triggerReplant(sprout storage _sprout) internal {\n    _sprout.readytime = now + replantTime;\n  }\n\n  function _isReady(sprout storage _sprout) internal view returns (bool) {\n      return (_sprout.readytime <= now);\n  }\n\n  function getBalance() public view returns (uint){\n    return balance[msg.sender];\n  }\n\n//get TRAITS\n  function getFullGrownTime(uint x_id, uint y_id) internal view returns(uint){\n    return sprout_list[msg.sender][x_id][y_id].g.fullgrown_time;\n  }\n  function getPlantTime(uint x_id,  uint y_id) internal view returns(uint){\n    return sprout_list[msg.sender][x_id][y_id].planttime;\n  }\n  function getHeightGene(uint x_id, uint y_id) internal view returns(uint){\n    return sprout_list[msg.sender][x_id][y_id].g.height_gen;\n  }\n  function getWidthGene(uint x_id, uint y_id) internal view returns(uint){\n    return sprout_list[msg.sender][x_id][y_id].g.width_gen;\n  }\n  function getSeedRound(uint x_id, uint y_id) public view SproutExist(x_id, y_id) returns(bool){\n    return sprout_list[msg.sender][x_id][y_id].g.seed_round;\n  }\n  function getSeedYellow(uint x_id, uint y_id) public view SproutExist(x_id, y_id) returns(bool){\n    return sprout_list[msg.sender][x_id][y_id].g.seed_round;\n  }\n  function getColor(uint x_id, uint y_id) public view SproutExist(x_id, y_id) returns(uint){\n    return sprout_list[msg.sender][x_id][y_id].g.color;\n  }\n\n\n  \n  function addSprout(uint x_id, uint y_id, uint dna1, uint dna2) internal {\n    require(sprout_list[msg.sender][x_id][y_id].isset == false);\n    require(_isReady(sprout_list[msg.sender][x_id][y_id]));\n    gene memory g;\n    uint temp1 = dna1;\n    uint temp2 = dna2;\n    uint speed_gen;\n\n    //determine genes (mendilen traits)\n    g.seed_yellow = (((temp1%2) | (temp2%2)) == 1);\n    temp1 = temp1 >> 1;temp2 = temp2 >> 1;\n    g.seed_round = (((temp1%2) | (temp2 %2)) == 1);\n    //determine genes (polygene traits)\n    for (uint i =2; i <41; i++){\n        if (temp1%2 == 1){g.color = g.color.add(1);}\n        if (temp2%2 == 1){g.color = g.color.add(1);}\n        temp1 = temp1 >> 1;temp2 = temp2 >> 1;\n    }\n    for (uint i =41; i <101; i++){\n        if (temp1%2 == 1){g.width_gen = g.width_gen.add(1);}\n        if (temp2%2 == 1){g.width_gen = g.width_gen.add(1);}\n        temp1 = temp1 >> 1;temp2 = temp2 >> 1;\n    }\n    for (uint i =101; i <161; i++){\n        if (temp1%2 == 1){g.height_gen = g.height_gen.add(1);}\n        if (temp2%2 == 1){g.height_gen = g.height_gen.add(1);}\n        temp1 = temp1 >> 1;temp2 = temp2 >> 1;\n    }\n    for (uint i =161; i <256; i++){\n        if (temp1%2 == 1){speed_gen = speed_gen.add(1);}\n        if (temp2%2 == 1){speed_gen = speed_gen.add(1);}\n        temp1 = temp1 >> 1;temp2 = temp2 >> 1;\n    }\n    //determine growing stage\n    g.fullgrown_time = ((380-(speed_gen.mul(3).div(2)))/190)* 1 days;\n\n    sprout_list[msg.sender][x_id][y_id] = sprout(dna1, dna2, now, 0, true, g);\n    emit OnAdd(x_id, y_id, dna1, dna2);\n  }\n  \n  function randomAddSprout(uint x_id, uint y_id) public {\n    uint dna1 = uint(keccak256(abi.encodePacked(block.timestamp)));\n    uint dna2 = uint(keccak256(abi.encodePacked(block.difficulty)));\n    addSprout(x_id, y_id, dna1, dna2);\n  }\n\n  function getSproutHeight( uint now_stage, uint fullgrown_time, uint x_id, uint y_id) public view \n    SproutExist(x_id, y_id) returns(uint){\n      uint height_gen =  getHeightGene(x_id, y_id);\n      if(now_stage > fullgrown_time) {\n            if((now_stage.sub(fullgrown_time)) < fullgrown_time.div(20)) {//before death\n              return (height_gen.add(120)).mul(60).div(120);\n            } else{ return 0;} \n        }\n        else{\n            if(now_stage==0){ return 0;\n            } else{\n              return((height_gen.add(120)).mul(60)).mul(fullgrown_time).div(120).div(now_stage);}\n        }\n  }\n\n  function getSproutWidth( uint now_stage, uint fullgrown_time, uint x_id, uint y_id) public view \n    SproutExist(x_id, y_id) returns(uint){\n    uint width_gen =getWidthGene(x_id, y_id);\n      if(now_stage > fullgrown_time) {\n            if((now_stage.sub(fullgrown_time)) < fullgrown_time.div(20)) {//before death\n              return (width_gen.add(15)).mul(5).div(15);\n            } else{ return 0;} \n        }\n        else{\n            if(now_stage==0){ return 0;\n            } else{\n              return((width_gen.add(15)).mul(5)).mul(fullgrown_time).div(15).div(now_stage);}\n        }\n  }\n\n  function getSproutPrice( uint now_stage, uint fullgrown_time, uint height, uint width, uint x_id, uint y_id) \n    internal view SproutExist(x_id, y_id) returns(uint){\n      uint color = getColor(x_id, y_id);\n      bool seed_yellow = getSeedYellow(x_id, y_id);\n      bool seed_round = getSeedRound(x_id, y_id);\n      if(now_stage > fullgrown_time) {\n            if((now_stage.sub(fullgrown_time)) < fullgrown_time.div(20)) {//before death\n              return 5;\n            } else{ return 0;} \n        }\n        else{\n            if(now_stage==0){ return 2;\n            } else{\n              uint price= height.mul(width).sub(color.div(10));\n              if(seed_round){ price.add(5);}\n              if(seed_yellow){ price.add(5);}\n              return price;\n            }\n        }\n  }\n  \n /* function getSproutLook( uint x_id, uint y_id)  public view SproutExist(x_id, y_id)\n    returns(bool, bool, uint, uint, uint, uint) {\n        //determine growing stage\n        uint now_stage = now.sub(getPlantTime(x_id, y_id));\n        uint fullgrown_time = getFullGrownTime(x_id, y_id);\n        //uint color = getColor(x_id, y_id);\n        //bool seed_yellow = getSeedYellow(x_id, y_id);\n        //bool seed_round = getSeedRound(x_id, y_id);\n        //determine height width die_stage\n        uint width = getSproutWidth(now_stage, fullgrown_time, getWidthGene(x_id, y_id));\n        uint height = getSproutHeight(now_stage, fullgrown_time, getHeightGene(x_id, y_id));\n        uint price = getSproutPrice(now_stage, fullgrown_time, height, width, getColor(x_id, y_id), getSeedRound(x_id, y_id), getSeedYellow(x_id, y_id));\n        return (getSeedRound(x_id, y_id), getSeedYellow(x_id, y_id), height, width, getColor(x_id, y_id), price);\n        \n    }*/\n    \n    function plugSprout(uint x_id, uint y_id) public {\n        uint now_stage = now.sub(getPlantTime(x_id, y_id));\n        uint fullgrown_time = getFullGrownTime(x_id, y_id);\n        uint width = getSproutWidth(now_stage, fullgrown_time, x_id, y_id);\n        uint height = getSproutHeight(now_stage, fullgrown_time, x_id, y_id);\n        uint price = getSproutPrice(now_stage, fullgrown_time, height, width, x_id, y_id);\n        if(sprout_list[msg.sender][x_id][y_id].isset == true){\n          sprout_list[msg.sender][x_id][y_id].isset = false;\n          balance[msg.sender] = balance[msg.sender].add(price);\n         }\n         emit OnPlug(x_id, y_id);\n      }\n\n}\n\n",
  "sourcePath": "/Users/catherine/Documents/GitHub/finals/nmlab_final/contracts/sprout.sol",
  "compiler": {
    "name": "solc",
    "version": "0.5.16+commit.9c3226ce.Emscripten.clang"
  },
  "schemaVersion": "3.1.0",
  "updatedAt": "2020-06-15T02:50:34.607Z",
  "devdoc": {
    "methods": {
      "isOwner()": {
        "return": "true if `msg.sender` is the owner of the contract."
      },
      "owner()": {
        "return": "the address of the owner."
      },
      "renounceOwnership()": {
        "details": "Allows the current owner to relinquish control of the contract."
      },
      "transferOwnership(address)": {
        "details": "Allows the current owner to transfer control of the contract to a newOwner.",
        "params": {
          "newOwner": "The address to transfer ownership to."
        }
      }
    }
  },
  "userdoc": {
    "methods": {
      "renounceOwnership()": {
        "notice": "Renouncing to ownership will leave the contract without an owner. It will not be possible to call the functions with the `onlyOwner` modifier anymore."
      }
    }
  }
}